{
  "contractName": "BancorBondingCurve",
  "abi": [
    {
      "constant": true,
      "inputs": [],
      "name": "version",
      "outputs": [
        {
          "name": "",
          "type": "string"
        }
      ],
      "payable": false,
      "stateMutability": "view",
      "type": "function"
    },
    {
      "constant": true,
      "inputs": [
        {
          "name": "_supply",
          "type": "uint256"
        },
        {
          "name": "_reserveBalance",
          "type": "uint256"
        },
        {
          "name": "_reserveRatio",
          "type": "uint32"
        },
        {
          "name": "_depositAmount",
          "type": "uint256"
        }
      ],
      "name": "calculatePurchaseReturn",
      "outputs": [
        {
          "name": "",
          "type": "uint256"
        }
      ],
      "payable": false,
      "stateMutability": "view",
      "type": "function"
    },
    {
      "constant": true,
      "inputs": [
        {
          "name": "_supply",
          "type": "uint256"
        },
        {
          "name": "_reserveBalance",
          "type": "uint256"
        },
        {
          "name": "_reserveRatio",
          "type": "uint32"
        },
        {
          "name": "_sellAmount",
          "type": "uint256"
        }
      ],
      "name": "calculateSaleReturn",
      "outputs": [
        {
          "name": "",
          "type": "uint256"
        }
      ],
      "payable": false,
      "stateMutability": "view",
      "type": "function"
    }
  ],
  "bytecode": "0x60806040526040805190810160405280600381526020017f302e330000000000000000000000000000000000000000000000000000000000815250600090805190602001906200005192919062000f48565b50701c35fedd14ffffffffffffffffffffffff600160206080811015156200007557fe5b0181905550701b0ce43b323fffffffffffffffffffffff600160216080811015156200009d57fe5b01819055507019f0028ec1ffffffffffffffffffffffff60016022608081101515620000c557fe5b01819055507018ded91f0e7fffffffffffffffffffffff60016023608081101515620000ed57fe5b01819055507017d8ec7f0417ffffffffffffffffffffff600160246080811015156200011557fe5b01819055507016ddc6556cdbffffffffffffffffffffff600160256080811015156200013d57fe5b01819055507015ecf52776a1ffffffffffffffffffffff600160266080811015156200016557fe5b01819055507015060c256cb2ffffffffffffffffffffff600160276080811015156200018d57fe5b0181905550701428a2f98d72ffffffffffffffffffffff60016028608081101515620001b557fe5b01819055507013545598e5c23fffffffffffffffffffff60016029608081101515620001dd57fe5b0181905550701288c4161ce1dfffffffffffffffffffff6001602a6080811015156200020557fe5b01819055507011c592761c666fffffffffffffffffffff6001602b6080811015156200022d57fe5b018190555070110a688680a757ffffffffffffffffffff6001602c6080811015156200025557fe5b0181905550701056f1b5bedf77ffffffffffffffffffff6001602d6080811015156200027d57fe5b0181905550700faadceceeff8bffffffffffffffffffff6001602e608081101515620002a557fe5b0181905550700f05dc6b27edadffffffffffffffffffff6001602f608081101515620002cd57fe5b0181905550700e67a5a25da4107fffffffffffffffffff60016030608081101515620002f557fe5b0181905550700dcff115b14eedffffffffffffffffffff600160316080811015156200031d57fe5b0181905550700d3e7a392431239fffffffffffffffffff600160326080811015156200034557fe5b0181905550700cb2ff529eb71e4fffffffffffffffffff600160336080811015156200036d57fe5b0181905550700c2d415c3db974afffffffffffffffffff600160346080811015156200039557fe5b0181905550700bad03e7d883f69bffffffffffffffffff60016035608081101515620003bd57fe5b0181905550700b320d03b2c343d5ffffffffffffffffff60016036608081101515620003e557fe5b0181905550700abc25204e02828dffffffffffffffffff600160376080811015156200040d57fe5b0181905550700a4b16f74ee4bb207fffffffffffffffff600160386080811015156200043557fe5b01819055507009deaf736ac1f569ffffffffffffffffff600160396080811015156200045d57fe5b0181905550700976bd9952c7aa957fffffffffffffffff6001603a6080811015156200048557fe5b01819055507009131271922eaa606fffffffffffffffff6001603b608081101515620004ad57fe5b01819055507008b380f3558668c46fffffffffffffffff6001603c608081101515620004d557fe5b0181905550700857ddf0117efa215bffffffffffffffff6001603d608081101515620004fd57fe5b01819055507007ffffffffffffffffffffffffffffffff6001603e6080811015156200052557fe5b01819055507007abbf6f6abb9d087fffffffffffffffff6001603f6080811015156200054d57fe5b018190555070075af62cbac95f7dfa7fffffffffffffff600160406080811015156200057557fe5b018190555070070d7fb7452e187ac13fffffffffffffff600160416080811015156200059d57fe5b01819055507006c3390ecc8af379295fffffffffffffff60016042608081101515620005c557fe5b018190555070067c00a3b07ffc01fd6fffffffffffffff60016043608081101515620005ed57fe5b0181905550700637b647c39cbb9d3d27ffffffffffffff600160446080811015156200061557fe5b01819055507005f63b1fc104dbd39587ffffffffffffff600160456080811015156200063d57fe5b01819055507005b771955b36e12f7235ffffffffffffff600160466080811015156200066557fe5b018190555070057b3d49dda84556d6f6ffffffffffffff600160476080811015156200068d57fe5b018190555070054183095b2c8ececf30ffffffffffffff60016048608081101515620006b557fe5b018190555070050a28be635ca2b888f77fffffffffffff60016049608081101515620006dd57fe5b01819055507004d5156639708c9db33c3fffffffffffff6001604a6080811015156200070557fe5b01819055507004a23105873875bd52dfdfffffffffffff6001604b6080811015156200072d57fe5b0181905550700471649d87199aa990756fffffffffffff6001604c6080811015156200075557fe5b01819055507004429a21a029d4c1457cfbffffffffffff6001604d6080811015156200077d57fe5b0181905550700415bc6d6fb7dd71af2cb3ffffffffffff6001604e608081101515620007a557fe5b01819055507003eab73b3bbfe282243ce1ffffffffffff6001604f608081101515620007cd57fe5b01819055507003c1771ac9fb6b4c18e229ffffffffffff60016050608081101515620007f557fe5b0181905550700399e96897690418f785257fffffffffff600160516080811015156200081d57fe5b0181905550700373fc456c53bb779bf0ea9fffffffffff600160526080811015156200084557fe5b018190555070034f9e8e490c48e67e6ab8bfffffffffff600160536080811015156200086d57fe5b018190555070032cbfd4a7adc790560b3337ffffffffff600160546080811015156200089557fe5b018190555070030b50570f6e5d2acca94613ffffffffff60016055608081101515620008bd57fe5b01819055507002eb40f9f620fda6b56c2861ffffffffff60016056608081101515620008e557fe5b01819055507002cc8340ecb0d0f520a6af58ffffffffff600160576080811015156200090d57fe5b01819055507002af09481380a0a35cf1ba02ffffffffff600160586080811015156200093557fe5b0181905550700292c5bdd3b92ec810287b1b3fffffffff600160596080811015156200095d57fe5b0181905550700277abdcdab07d5a77ac6d6b9fffffffff6001605a6080811015156200098557fe5b018190555070025daf6654b1eaa55fd64df5efffffffff6001605b608081101515620009ad57fe5b0181905550700244c49c648baa98192dce88b7ffffffff6001605c608081101515620009d557fe5b018190555070022ce03cd5619a311b2471268bffffffff6001605d608081101515620009fd57fe5b0181905550700215f77c045fbe885654a44a0fffffffff6001605e60808110151562000a2557fe5b01819055507001ffffffffffffffffffffffffffffffff6001605f60808110151562000a4d57fe5b01819055507001eaefdbdaaee7421fc4d3ede5ffffffff6001606060808110151562000a7557fe5b01819055507001d6bd8b2eb257df7e8ca57b09bfffffff6001606160808110151562000a9d57fe5b01819055507001c35fedd14b861eb0443f7f133fffffff6001606260808110151562000ac557fe5b01819055507001b0ce43b322bcde4a56e8ada5afffffff6001606360808110151562000aed57fe5b018190555070019f0028ec1fff007f5a195a39dfffffff6001606460808110151562000b1557fe5b018190555070018ded91f0e72ee74f49b15ba527ffffff6001606560808110151562000b3d57fe5b018190555070017d8ec7f04136f4e5615fd41a63ffffff6001606660808110151562000b6557fe5b018190555070016ddc6556cdb84bdc8d12d22e6fffffff6001606760808110151562000b8d57fe5b018190555070015ecf52776a1155b5bd8395814f7fffff6001606860808110151562000bb557fe5b018190555070015060c256cb23b3b3cc3754cf40ffffff6001606960808110151562000bdd57fe5b01819055507001428a2f98d728ae223ddab715be3fffff6001606a60808110151562000c0557fe5b018190555070013545598e5c23276ccf0ede68034fffff6001606b60808110151562000c2d57fe5b01819055507001288c4161ce1d6f54b7f61081194fffff6001606c60808110151562000c5557fe5b018190555070011c592761c666aa641d5a01a40f17ffff6001606d60808110151562000c7d57fe5b0181905550700110a688680a7530515f3e6e6cfdcdffff6001606e60808110151562000ca557fe5b01819055507001056f1b5bedf75c6bcb2ce8aed428ffff6001606f60808110151562000ccd57fe5b01819055506ffaadceceeff8a0890f3875f008277fff6001607060808110151562000cf457fe5b01819055506ff05dc6b27edad306388a600f6ba0bfff6001607160808110151562000d1b57fe5b01819055506fe67a5a25da41063de1495d5b18cdbfff6001607260808110151562000d4257fe5b01819055506fdcff115b14eedde6fc3aa5353f2e4fff6001607360808110151562000d6957fe5b01819055506fd3e7a3924312399f9aae2e0f868f8fff6001607460808110151562000d9057fe5b01819055506fcb2ff529eb71e41582cccd5a1ee26fff6001607560808110151562000db757fe5b01819055506fc2d415c3db974ab32a51840c0b67edff6001607660808110151562000dde57fe5b01819055506fbad03e7d883f69ad5b0a186184e06bff6001607760808110151562000e0557fe5b01819055506fb320d03b2c343d4829abd6075f0cc5ff6001607860808110151562000e2c57fe5b01819055506fabc25204e02828d73c6e80bcdb1a95bf6001607960808110151562000e5357fe5b01819055506fa4b16f74ee4bb2040a1ec6c15fbbf2df6001607a60808110151562000e7a57fe5b01819055506f9deaf736ac1f569deb1b5ae3f36c130f6001607b60808110151562000ea157fe5b01819055506f976bd9952c7aa957f5937d790ef650376001607c60808110151562000ec857fe5b01819055506f9131271922eaa6064b73a22d0bd4f2bf6001607d60808110151562000eef57fe5b01819055506f8b380f3558668c46c91c49a2f8e967b96001607e60808110151562000f1657fe5b01819055506f857ddf0117efa215952912839f6473e66001607f60808110151562000f3d57fe5b018190555062000ff7565b828054600181600116156101000203166002900490600052602060002090601f016020900481019282601f1062000f8b57805160ff191683800117855562000fbc565b8280016001018555821562000fbc579182015b8281111562000fbb57825182559160200191906001019062000f9e565b5b50905062000fcb919062000fcf565b5090565b62000ff491905b8082111562000ff057600081600090555060010162000fd6565b5090565b90565b611a2880620010076000396000f3fe608060405234801561001057600080fd5b506004361061005e576000357c01000000000000000000000000000000000000000000000000000000009004806329a00e7c1461006357806349f9b0f7146100c957806354fd4d501461012f575b600080fd5b6100b36004803603608081101561007957600080fd5b810190808035906020019092919080359060200190929190803563ffffffff169060200190929190803590602001909291905050506101b2565b6040518082815260200191505060405180910390f35b610119600480360360808110156100df57600080fd5b810190808035906020019092919080359060200190929190803563ffffffff169060200190929190803590602001909291905050506102bb565b6040518082815260200191505060405180910390f35b6101376103f3565b6040518080602001828103825283818151815260200191508051906020019080838360005b8381101561017757808201518184015260208101905061015c565b50505050905090810190601f1680156101a45780820380516001836020036101000a031916815260200191505b509250505060405180910390f35b600080851180156101c35750600084115b80156101d5575060008363ffffffff16115b80156101f157506305f5e10063ffffffff168363ffffffff1611155b15156101fc57600080fd5b600082141561020e57600090506102b3565b6305f5e10063ffffffff168363ffffffff1614156102525761024b8461023d848861049190919063ffffffff16565b6104cf90919063ffffffff16565b90506102b3565b600080600061026a87866104f990919063ffffffff16565b905061027c8188886305f5e10061051a565b809350819450505060008260ff1661029d858b61049190919063ffffffff16565b908060020a820491505090508881039450505050505b949350505050565b600080851180156102cc5750600084115b80156102de575060008363ffffffff16115b80156102fa57506305f5e10063ffffffff168363ffffffff1611155b80156103065750848211155b151561031157600080fd5b600082141561032357600090506103eb565b84821415610333578390506103eb565b6305f5e10063ffffffff168363ffffffff1614156103775761037085610362848761049190919063ffffffff16565b6104cf90919063ffffffff16565b90506103eb565b6000806000848803905061039188826305f5e1008961051a565b809350819450505060006103ae848961049190919063ffffffff16565b905060008360ff16899060020a0290506103e3856103d583856106fe90919063ffffffff16565b6104cf90919063ffffffff16565b955050505050505b949350505050565b60008054600181600116156101000203166002900480601f0160208091040260200160405190810160405280929190818152602001828054600181600116156101000203166002900480156104895780601f1061045e57610100808354040283529160200191610489565b820191906000526020600020905b81548152906001019060200180831161046c57829003601f168201915b505050505081565b6000808314156104a457600090506104c9565b600082840290508284828115156104b757fe5b041415156104c457600080fd5b809150505b92915050565b600080821115156104df57600080fd5b600082848115156104ec57fe5b0490508091505092915050565b600080828401905083811015151561051057600080fd5b8091505092915050565b600080700200000000000000000000000000000000861015156105a5576040517f08c379a00000000000000000000000000000000000000000000000000000000081526004018080602001828103825260188152602001807f626173654e2065786365656473206d61782076616c75652e000000000000000081525060200191505060405180910390fd5b84861015151561061d576040517f08c379a000000000000000000000000000000000000000000000000000000000815260040180806020018281038252601c8152602001807f4261736573203c203120617265206e6f7420737570706f727465642e0000000081525060200191505060405180910390fd5b600080866f80000000000000000000000000000000890281151561063d57fe5b04905070015bf0a8b1457695355fb8ac404e7a79e38110156106695761066281610720565b9150610675565b61067281610cf0565b91505b60008563ffffffff168763ffffffff16840281151561069057fe5b0490507008000000000000000000000000000000008110156106c3576106b581610e35565b607f945094505050506106f5565b60006106ce826113f5565b90506106eb81607f0360ff1683908060020a8204915050826114ba565b8195509550505050505b94509492505050565b600082821115151561070f57600080fd5b600082840390508091505092915050565b6000806000905060008060006fd3094c70f034de4b96ff7d5b6f99fcd88610151561078b576f40000000000000000000000000000000840193506fd3094c70f034de4b96ff7d5b6f99fcd86f80000000000000000000000000000000870281151561078757fe5b0495505b6fa45af1e1f40c333b3de1db4dd55f29a7861015156107ea576f20000000000000000000000000000000840193506fa45af1e1f40c333b3de1db4dd55f29a76f8000000000000000000000000000000087028115156107e657fe5b0495505b6f910b022db7ae67ce76b441c27035c6a186101515610849576f10000000000000000000000000000000840193506f910b022db7ae67ce76b441c27035c6a16f80000000000000000000000000000000870281151561084557fe5b0495505b6f88415abbe9a76bead8d00cf112e4d4a8861015156108a8576f08000000000000000000000000000000840193506f88415abbe9a76bead8d00cf112e4d4a86f8000000000000000000000000000000087028115156108a457fe5b0495505b6f84102b00893f64c705e841d5d4064bd386101515610907576f04000000000000000000000000000000840193506f84102b00893f64c705e841d5d4064bd36f80000000000000000000000000000000870281151561090357fe5b0495505b6f8204055aaef1c8bd5c3259f4822735a286101515610966576f02000000000000000000000000000000840193506f8204055aaef1c8bd5c3259f4822735a26f80000000000000000000000000000000870281151561096257fe5b0495505b6f810100ab00222d861931c15e39b44e99861015156109c5576f01000000000000000000000000000000840193506f810100ab00222d861931c15e39b44e996f8000000000000000000000000000000087028115156109c157fe5b0495505b6f808040155aabbbe9451521693554f73386101515610a23576e800000000000000000000000000000840193506f808040155aabbbe9451521693554f7336f800000000000000000000000000000008702811515610a1f57fe5b0495505b6f80000000000000000000000000000000860392508291506f80000000000000000000000000000000838402811515610a5857fe5b04905070010000000000000000000000000000000083700100000000000000000000000000000000038302811515610a8c57fe5b04840193506f80000000000000000000000000000000818302811515610aae57fe5b049150700200000000000000000000000000000000836faaaaaaaaaaaaaaaaaaaaaaaaaaaaaaaa038302811515610ae157fe5b04840193506f80000000000000000000000000000000818302811515610b0357fe5b049150700300000000000000000000000000000000836f99999999999999999999999999999999038302811515610b3657fe5b04840193506f80000000000000000000000000000000818302811515610b5857fe5b049150700400000000000000000000000000000000836f92492492492492492492492492492492038302811515610b8b57fe5b04840193506f80000000000000000000000000000000818302811515610bad57fe5b049150700500000000000000000000000000000000836f8e38e38e38e38e38e38e38e38e38e38e038302811515610be057fe5b04840193506f80000000000000000000000000000000818302811515610c0257fe5b049150700600000000000000000000000000000000836f8ba2e8ba2e8ba2e8ba2e8ba2e8ba2e8b038302811515610c3557fe5b04840193506f80000000000000000000000000000000818302811515610c5757fe5b049150700700000000000000000000000000000000836f89d89d89d89d89d89d89d89d89d89d89038302811515610c8a57fe5b04840193506f80000000000000000000000000000000818302811515610cac57fe5b049150700800000000000000000000000000000000836f88888888888888888888888888888888038302811515610cdf57fe5b048401935083945050505050919050565b60008060009050600083905070010000000000000000000000000000000081101515610d69576000610d3c6f8000000000000000000000000000000083811515610d3657fe5b0461195d565b90508060ff1682908060020a820491505091506f800000000000000000000000000000008160ff16029250505b6f80000000000000000000000000000000811115610dfe576000607f90505b60008160ff161115610dfc576f80000000000000000000000000000000828302811515610db157fe5b04915070010000000000000000000000000000000082101515610df057600182908060020a820491505091506001810360ff1660019060020a02830192505b80600190039050610d88565b505b6f05b9de1d10bf4103d647b0955897ba806f03f80fe03f80fe03f80fe03f80fe03f88302811515610e2b57fe5b0492505050919050565b600080600090506000806f1000000000000000000000000000000085811515610e5a57fe5b0691508190506f80000000000000000000000000000000828202811515610e7d57fe5b0490506710e1b3be415a00008102830192506f80000000000000000000000000000000828202811515610eac57fe5b0490506705a0913f6b1e00008102830192506f80000000000000000000000000000000828202811515610edb57fe5b049050670168244fdac780008102830192506f80000000000000000000000000000000828202811515610f0a57fe5b049050664807432bc180008102830192506f80000000000000000000000000000000828202811515610f3857fe5b049050660c0135dca040008102830192506f80000000000000000000000000000000828202811515610f6657fe5b0490506601b707b1cdc0008102830192506f80000000000000000000000000000000828202811515610f9457fe5b0490506536e0f639b8008102830192506f80000000000000000000000000000000828202811515610fc157fe5b049050650618fee9f8008102830192506f80000000000000000000000000000000828202811515610fee57fe5b049050649c197dcc008102830192506f8000000000000000000000000000000082820281151561101a57fe5b049050640e30dce4008102830192506f8000000000000000000000000000000082820281151561104657fe5b04905064012ebd13008102830192506f8000000000000000000000000000000082820281151561107257fe5b0490506317499f008102830192506f8000000000000000000000000000000082820281151561109d57fe5b0490506301a9d4808102830192506f800000000000000000000000000000008282028115156110c857fe5b049050621c63808102830192506f800000000000000000000000000000008282028115156110f257fe5b0490506201c6388102830192506f8000000000000000000000000000000082820281151561111c57fe5b049050611ab88102830192506f8000000000000000000000000000000082820281151561114557fe5b04905061017c8102830192506f8000000000000000000000000000000082820281151561116e57fe5b04905060148102830192506f8000000000000000000000000000000082820281151561119657fe5b04905060018102830192506f80000000000000000000000000000000826721c3677c82b40000858115156111c657fe5b040101925060006f10000000000000000000000000000000861614151561121a5770018ebef9eac820ae8682b9793ac6d1e7767001c3d6a24ed82218787d624d3e5eba95f9840281151561121657fe5b0492505b60006f200000000000000000000000000000008616141515611269577001368b2fc6f9609fe7aceb46aa619baed470018ebef9eac820ae8682b9793ac6d1e778840281151561126557fe5b0492505b60006f4000000000000000000000000000000086161415156112b7576fbc5ab1b16779be3575bd8f0520a9f21f7001368b2fc6f9609fe7aceb46aa619baed584028115156112b357fe5b0492505b60006f800000000000000000000000000000008616141515611304576f454aaa8efe072e7f6ddbab84b40a55c96fbc5ab1b16779be3575bd8f0520a9f21e840281151561130057fe5b0492505b60007001000000000000000000000000000000008616141515611352576f0960aadc109e7a3bf4578099615711ea6f454aaa8efe072e7f6ddbab84b40a55c5840281151561134e57fe5b0492505b6000700200000000000000000000000000000000861614151561139f576e2bf84208204f5977f9a8cf01fdce3d6f0960aadc109e7a3bf4578099615711d7840281151561139b57fe5b0492505b600070040000000000000000000000000000000086161415156113ea576d03c6ab775dd0b95b4cbee7e65d116e2bf84208204f5977f9a8cf01fdc30784028115156113e657fe5b0492505b829350505050919050565b600080602090506000607f90505b8060ff166001830160ff161015611458576000600282840160ff1681151561142757fe5b0490508460018260ff1660808110151561143d57fe5b015410151561144e57809250611452565b8091505b50611403565b8360018260ff1660808110151561146b57fe5b015410151561147e5780925050506114b5565b8360018360ff1660808110151561149157fe5b01541015156114a45781925050506114b5565b600015156114ae57fe5b6000925050505b919050565b60008083905060008090508360ff16858302908060020a820491505091506f03442c4e6074a82f1797f72ac00000008202810190508360ff16858302908060020a820491505091506f0116b96f757c380fb287fd0e400000008202810190508360ff16858302908060020a820491505091506e45ae5bdd5f0e03eca1ff43900000008202810190508360ff16858302908060020a820491505091506e0defabf91302cd95b9ffda500000008202810190508360ff16858302908060020a820491505091506e02529ca9832b22439efff9b80000008202810190508360ff16858302908060020a820491505091506d54f1cf12bd04e516b6da880000008202810190508360ff16858302908060020a820491505091506d0a9e39e257a09ca2d6db510000008202810190508360ff16858302908060020a820491505091506d012e066e7b839fa050c3090000008202810190508360ff16858302908060020a820491505091506c1e33d7d926c329a1ad1a8000008202810190508360ff16858302908060020a820491505091506c02bee513bdb4a6b19b5f8000008202810190508360ff16858302908060020a820491505091506b3a9316fa79b88eccf2a000008202810190508360ff16858302908060020a820491505091506b048177ebe1fa8123752000008202810190508360ff16858302908060020a820491505091506a5263fe90242dcbacf000008202810190508360ff16858302908060020a820491505091506a057e22099c030d941000008202810190508360ff16858302908060020a820491505091506957e22099c030d94100008202810190508360ff16858302908060020a8204915050915069052b6b545699763100008202810190508360ff16858302908060020a82049150509150684985f67696bf7480008202810190508360ff16858302908060020a820491505091506803dea12ea99e4980008202810190508360ff16858302908060020a820491505091506731880f2214b6e0008202810190508360ff16858302908060020a8204915050915067025bcff56eb360008202810190508360ff16858302908060020a82049150509150661b722e10ab10008202810190508360ff16858302908060020a820491505091506601317c700770008202810190508360ff16858302908060020a82049150509150650cba84aafa008202810190508360ff16858302908060020a820491505091506482573a0a008202810190508360ff16858302908060020a820491505091506405035ad9008202810190508360ff16858302908060020a82049150509150632f881b008202810190508360ff16858302908060020a820491505091506301b293408202810190508360ff16858302908060020a82049150509150620efc408202810190508360ff16858302908060020a82049150509150617fe08202810190508360ff16858302908060020a820491505091506104208202810190508360ff16858302908060020a8204915050915060218202810190508360ff16858302908060020a8204915050915060018202810190508360ff1660019060020a02856f0688589cc0e9505e2f2fee55800000008381151561195057fe5b0401019250505092915050565b60008060009050600083905061010081101561199c575b600181111561199757600181908060020a82049150509050600182019150611974565b6119f2565b6000608090505b60008160ff1611156119f0578060ff1660019060020a02821015156119d9578060ff1682908060020a8204915050915080831792505b60018160ff16908060020a820491505090506119a3565b505b819250505091905056fea165627a7a723058202494f2b5a628365990183a47a84cb4d1d2dc9c4bde1a5dbabd0903649a139ef50029",
  "source": "pragma solidity ^0.5.0;\n\nimport \"openzeppelin-solidity/contracts/math/SafeMath.sol\";\n\nimport \"./Power.sol\"; // Efficient power function.\n\n/**\n* @title Bancor formula by Bancor\n*\n* Licensed to the Apache Software Foundation (ASF) under one or more contributor license agreements;\n* and to You under the Apache License, Version 2.0. \"\n*/\ncontract BancorBondingCurve is Power {\n   using SafeMath for uint256;\n   uint32 private constant MAX_RESERVE_RATIO = 100000000;\n\n   /**\n   * @dev given a continuous token supply, reserve token balance, reserve ratio, and a deposit amount (in the reserve token),\n   * calculates the return for a given conversion (in the continuous token)\n   *\n   * Formula:\n   * Return = _supply * ((1 + _depositAmount / _reserveBalance) ^ (_reserveRatio / MAX_RESERVE_RATIO) - 1)\n   *\n   * @param _supply              continuous token total supply\n   * @param _reserveBalance    total reserve token balance\n   * @param _reserveRatio     reserve ratio, represented in ppm, 1-1000000\n   * @param _depositAmount       deposit amount, in reserve token\n   *\n   *  @return purchase return amount\n  */\n  function calculatePurchaseReturn(\n    uint256 _supply,\n    uint256 _reserveBalance,\n    uint32 _reserveRatio,\n    uint256 _depositAmount) public view returns (uint256)\n  {\n    // validate input\n    require(_supply > 0 && _reserveBalance > 0 && _reserveRatio > 0 && _reserveRatio <= MAX_RESERVE_RATIO);\n     // special case for 0 deposit amount\n    if (_depositAmount == 0) {\n      return 0;\n    }\n     // special case if the ratio = 100%\n    if (_reserveRatio == MAX_RESERVE_RATIO) {\n      return _supply.mul(_depositAmount).div(_reserveBalance);\n    }\n     uint256 result;\n    uint8 precision;\n    uint256 baseN = _depositAmount.add(_reserveBalance);\n    (result, precision) = power(\n      baseN, _reserveBalance, _reserveRatio, MAX_RESERVE_RATIO\n    );\n    uint256 newTokenSupply = _supply.mul(result) >> precision;\n    return newTokenSupply - _supply;\n  }\n   /**\n   * @dev given a continuous token supply, reserve token balance, reserve ratio and a sell amount (in the continuous token),\n   * calculates the return for a given conversion (in the reserve token)\n   *\n   * Formula:\n   * Return = _reserveBalance * (1 - (1 - _sellAmount / _supply) ^ (1 / (_reserveRatio / MAX_RESERVE_RATIO)))\n   *\n   * @param _supply              continuous token total supply\n   * @param _reserveBalance    total reserve token balance\n   * @param _reserveRatio     constant reserve ratio, represented in ppm, 1-1000000\n   * @param _sellAmount          sell amount, in the continuous token itself\n   *\n   * @return sale return amount\n  */\n  function calculateSaleReturn(\n    uint256 _supply,\n    uint256 _reserveBalance,\n    uint32 _reserveRatio,\n    uint256 _sellAmount) public view returns (uint256)\n  {\n    // validate input\n    require(_supply > 0 && _reserveBalance > 0 && _reserveRatio > 0 && _reserveRatio <= MAX_RESERVE_RATIO && _sellAmount <= _supply);\n     // special case for 0 sell amount\n    if (_sellAmount == 0) {\n      return 0;\n    }\n     // special case for selling the entire supply\n    if (_sellAmount == _supply) {\n      return _reserveBalance;\n    }\n     // special case if the ratio = 100%\n    if (_reserveRatio == MAX_RESERVE_RATIO) {\n      return _reserveBalance.mul(_sellAmount).div(_supply);\n    }\n     uint256 result;\n    uint8 precision;\n    uint256 baseD = _supply - _sellAmount;\n    (result, precision) = power(\n      _supply, baseD, MAX_RESERVE_RATIO, _reserveRatio\n    );\n    uint256 oldBalance = _reserveBalance.mul(result);\n    uint256 newBalance = _reserveBalance << precision;\n    return oldBalance.sub(newBalance).div(result);\n  }\n}",
  "sourcePath": "/Users/jterrazz/Projects/clean/ethparis/contracts/BancorBondingCurve.sol",
  "compiler": {
    "name": "solc",
    "version": "0.5.2+commit.1df8f40c.Emscripten.clang"
  },
  "schemaVersion": "3.0.2",
  "updatedAt": "2019-03-10T01:58:31.402Z",
  "devdoc": {
    "methods": {
      "calculatePurchaseReturn(uint256,uint256,uint32,uint256)": {
        "details": "given a continuous token supply, reserve token balance, reserve ratio, and a deposit amount (in the reserve token), calculates the return for a given conversion (in the continuous token)   * Formula: Return = _supply * ((1 + _depositAmount / _reserveBalance) ^ (_reserveRatio / MAX_RESERVE_RATIO) - 1)",
        "params": {
          "_depositAmount": "deposit amount, in reserve token",
          "_reserveBalance": "total reserve token balance",
          "_reserveRatio": "reserve ratio, represented in ppm, 1-1000000",
          "_supply": "continuous token total supply"
        },
        "return": "purchase return amount"
      },
      "calculateSaleReturn(uint256,uint256,uint32,uint256)": {
        "details": "given a continuous token supply, reserve token balance, reserve ratio and a sell amount (in the continuous token), calculates the return for a given conversion (in the reserve token)   * Formula: Return = _reserveBalance * (1 - (1 - _sellAmount / _supply) ^ (1 / (_reserveRatio / MAX_RESERVE_RATIO)))",
        "params": {
          "_reserveBalance": "total reserve token balance",
          "_reserveRatio": "constant reserve ratio, represented in ppm, 1-1000000",
          "_sellAmount": "sell amount, in the continuous token itself",
          "_supply": "continuous token total supply"
        },
        "return": "sale return amount"
      }
    },
    "title": "Bancor formula by Bancor * Licensed to the Apache Software Foundation (ASF) under one or more contributor license agreements; and to You under the Apache License, Version 2.0. \""
  },
  "userdoc": {
    "methods": {}
  }
}