{
  "contractName": "ContinuousToken",
  "abi": [
    {
      "constant": false,
      "inputs": [
        {
          "name": "spender",
          "type": "address"
        },
        {
          "name": "value",
          "type": "uint256"
        }
      ],
      "name": "approve",
      "outputs": [
        {
          "name": "",
          "type": "bool"
        }
      ],
      "payable": false,
      "stateMutability": "nonpayable",
      "type": "function",
      "signature": "0x095ea7b3"
    },
    {
      "constant": true,
      "inputs": [],
      "name": "reserveRatio",
      "outputs": [
        {
          "name": "",
          "type": "uint256"
        }
      ],
      "payable": false,
      "stateMutability": "view",
      "type": "function",
      "signature": "0x0c7d5cd8"
    },
    {
      "constant": true,
      "inputs": [],
      "name": "totalSupply",
      "outputs": [
        {
          "name": "",
          "type": "uint256"
        }
      ],
      "payable": false,
      "stateMutability": "view",
      "type": "function",
      "signature": "0x18160ddd"
    },
    {
      "constant": false,
      "inputs": [
        {
          "name": "from",
          "type": "address"
        },
        {
          "name": "to",
          "type": "address"
        },
        {
          "name": "value",
          "type": "uint256"
        }
      ],
      "name": "transferFrom",
      "outputs": [
        {
          "name": "",
          "type": "bool"
        }
      ],
      "payable": false,
      "stateMutability": "nonpayable",
      "type": "function",
      "signature": "0x23b872dd"
    },
    {
      "constant": true,
      "inputs": [
        {
          "name": "_supply",
          "type": "uint256"
        },
        {
          "name": "_reserveBalance",
          "type": "uint256"
        },
        {
          "name": "_reserveRatio",
          "type": "uint32"
        },
        {
          "name": "_depositAmount",
          "type": "uint256"
        }
      ],
      "name": "calculatePurchaseReturn",
      "outputs": [
        {
          "name": "",
          "type": "uint256"
        }
      ],
      "payable": false,
      "stateMutability": "view",
      "type": "function",
      "signature": "0x29a00e7c"
    },
    {
      "constant": false,
      "inputs": [
        {
          "name": "spender",
          "type": "address"
        },
        {
          "name": "addedValue",
          "type": "uint256"
        }
      ],
      "name": "increaseAllowance",
      "outputs": [
        {
          "name": "",
          "type": "bool"
        }
      ],
      "payable": false,
      "stateMutability": "nonpayable",
      "type": "function",
      "signature": "0x39509351"
    },
    {
      "constant": true,
      "inputs": [],
      "name": "maxGasPrice",
      "outputs": [
        {
          "name": "",
          "type": "uint256"
        }
      ],
      "payable": false,
      "stateMutability": "view",
      "type": "function",
      "signature": "0x3de39c11"
    },
    {
      "constant": true,
      "inputs": [
        {
          "name": "_supply",
          "type": "uint256"
        },
        {
          "name": "_reserveBalance",
          "type": "uint256"
        },
        {
          "name": "_reserveRatio",
          "type": "uint32"
        },
        {
          "name": "_sellAmount",
          "type": "uint256"
        }
      ],
      "name": "calculateSaleReturn",
      "outputs": [
        {
          "name": "",
          "type": "uint256"
        }
      ],
      "payable": false,
      "stateMutability": "view",
      "type": "function",
      "signature": "0x49f9b0f7"
    },
    {
      "constant": true,
      "inputs": [],
      "name": "version",
      "outputs": [
        {
          "name": "",
          "type": "string"
        }
      ],
      "payable": false,
      "stateMutability": "view",
      "type": "function",
      "signature": "0x54fd4d50"
    },
    {
      "constant": true,
      "inputs": [
        {
          "name": "owner",
          "type": "address"
        }
      ],
      "name": "balanceOf",
      "outputs": [
        {
          "name": "",
          "type": "uint256"
        }
      ],
      "payable": false,
      "stateMutability": "view",
      "type": "function",
      "signature": "0x70a08231"
    },
    {
      "constant": false,
      "inputs": [],
      "name": "renounceOwnership",
      "outputs": [],
      "payable": false,
      "stateMutability": "nonpayable",
      "type": "function",
      "signature": "0x715018a6"
    },
    {
      "constant": true,
      "inputs": [],
      "name": "owner",
      "outputs": [
        {
          "name": "",
          "type": "address"
        }
      ],
      "payable": false,
      "stateMutability": "view",
      "type": "function",
      "signature": "0x8da5cb5b"
    },
    {
      "constant": true,
      "inputs": [],
      "name": "isOwner",
      "outputs": [
        {
          "name": "",
          "type": "bool"
        }
      ],
      "payable": false,
      "stateMutability": "view",
      "type": "function",
      "signature": "0x8f32d59b"
    },
    {
      "constant": true,
      "inputs": [],
      "name": "reserveBalance",
      "outputs": [
        {
          "name": "",
          "type": "uint256"
        }
      ],
      "payable": false,
      "stateMutability": "view",
      "type": "function",
      "signature": "0xa10954fe"
    },
    {
      "constant": false,
      "inputs": [
        {
          "name": "spender",
          "type": "address"
        },
        {
          "name": "subtractedValue",
          "type": "uint256"
        }
      ],
      "name": "decreaseAllowance",
      "outputs": [
        {
          "name": "",
          "type": "bool"
        }
      ],
      "payable": false,
      "stateMutability": "nonpayable",
      "type": "function",
      "signature": "0xa457c2d7"
    },
    {
      "constant": false,
      "inputs": [
        {
          "name": "to",
          "type": "address"
        },
        {
          "name": "value",
          "type": "uint256"
        }
      ],
      "name": "transfer",
      "outputs": [
        {
          "name": "",
          "type": "bool"
        }
      ],
      "payable": false,
      "stateMutability": "nonpayable",
      "type": "function",
      "signature": "0xa9059cbb"
    },
    {
      "constant": false,
      "inputs": [
        {
          "name": "gasPrice",
          "type": "uint256"
        }
      ],
      "name": "setMaxGasPrice",
      "outputs": [],
      "payable": false,
      "stateMutability": "nonpayable",
      "type": "function",
      "signature": "0xd2fa635e"
    },
    {
      "constant": true,
      "inputs": [
        {
          "name": "owner",
          "type": "address"
        },
        {
          "name": "spender",
          "type": "address"
        }
      ],
      "name": "allowance",
      "outputs": [
        {
          "name": "",
          "type": "uint256"
        }
      ],
      "payable": false,
      "stateMutability": "view",
      "type": "function",
      "signature": "0xdd62ed3e"
    },
    {
      "constant": false,
      "inputs": [
        {
          "name": "newOwner",
          "type": "address"
        }
      ],
      "name": "transferOwnership",
      "outputs": [],
      "payable": false,
      "stateMutability": "nonpayable",
      "type": "function",
      "signature": "0xf2fde38b"
    },
    {
      "constant": true,
      "inputs": [],
      "name": "scale",
      "outputs": [
        {
          "name": "",
          "type": "uint256"
        }
      ],
      "payable": false,
      "stateMutability": "view",
      "type": "function",
      "signature": "0xf51e181a"
    },
    {
      "inputs": [
        {
          "name": "_reserveRatio",
          "type": "uint256"
        }
      ],
      "payable": false,
      "stateMutability": "nonpayable",
      "type": "constructor",
      "signature": "constructor"
    },
    {
      "payable": true,
      "stateMutability": "payable",
      "type": "fallback"
    },
    {
      "anonymous": false,
      "inputs": [
        {
          "indexed": false,
          "name": "_from",
          "type": "address"
        },
        {
          "indexed": false,
          "name": "_amount",
          "type": "uint256"
        },
        {
          "indexed": false,
          "name": "_deposit",
          "type": "uint256"
        }
      ],
      "name": "ContinuousMint",
      "type": "event",
      "signature": "0xa9b5c37908cbe11fc228c10af0ce98bf944b069510207388ac875a3d2a314bbe"
    },
    {
      "anonymous": false,
      "inputs": [
        {
          "indexed": false,
          "name": "_from",
          "type": "address"
        },
        {
          "indexed": false,
          "name": "_amount",
          "type": "uint256"
        },
        {
          "indexed": false,
          "name": "_reimbursement",
          "type": "uint256"
        }
      ],
      "name": "ContinuousBurn",
      "type": "event",
      "signature": "0x42cdee5ad59c78ee53adb50e8d3f4b66918ce660505ab55abb44035e4c79ad1d"
    },
    {
      "anonymous": false,
      "inputs": [
        {
          "indexed": true,
          "name": "previousOwner",
          "type": "address"
        },
        {
          "indexed": true,
          "name": "newOwner",
          "type": "address"
        }
      ],
      "name": "OwnershipTransferred",
      "type": "event",
      "signature": "0x8be0079c531659141344cd1fd0a4f28419497f9722a3daafe3b4186f6b6457e0"
    },
    {
      "anonymous": false,
      "inputs": [
        {
          "indexed": true,
          "name": "from",
          "type": "address"
        },
        {
          "indexed": true,
          "name": "to",
          "type": "address"
        },
        {
          "indexed": false,
          "name": "value",
          "type": "uint256"
        }
      ],
      "name": "Transfer",
      "type": "event",
      "signature": "0xddf252ad1be2c89b69c2b068fc378daa952ba7f163c4a11628f55a4df523b3ef"
    },
    {
      "anonymous": false,
      "inputs": [
        {
          "indexed": true,
          "name": "owner",
          "type": "address"
        },
        {
          "indexed": true,
          "name": "spender",
          "type": "address"
        },
        {
          "indexed": false,
          "name": "value",
          "type": "uint256"
        }
      ],
      "name": "Approval",
      "type": "event",
      "signature": "0x8c5be1e5ebec7d5bd14f71427d1e84f3dd0314c0f7b2291e5b200ac8c7c3b925"
    },
    {
      "constant": false,
      "inputs": [],
      "name": "mint",
      "outputs": [],
      "payable": true,
      "stateMutability": "payable",
      "type": "function",
      "signature": "0x1249c58b"
    },
    {
      "constant": false,
      "inputs": [
        {
          "name": "_amount",
          "type": "uint256"
        }
      ],
      "name": "burn",
      "outputs": [],
      "payable": false,
      "stateMutability": "nonpayable",
      "type": "function",
      "signature": "0x42966c68"
    },
    {
      "constant": true,
      "inputs": [
        {
          "name": "_amount",
          "type": "uint256"
        }
      ],
      "name": "calculateContinuousMintReturn",
      "outputs": [
        {
          "name": "mintAmount",
          "type": "uint256"
        }
      ],
      "payable": false,
      "stateMutability": "view",
      "type": "function",
      "signature": "0x28c3d701"
    },
    {
      "constant": true,
      "inputs": [
        {
          "name": "_amount",
          "type": "uint256"
        }
      ],
      "name": "calculateContinuousBurnReturn",
      "outputs": [
        {
          "name": "burnAmount",
          "type": "uint256"
        }
      ],
      "payable": false,
      "stateMutability": "view",
      "type": "function",
      "signature": "0x90f0c2ea"
    }
  ],
  "bytecode": "0x60806040526040805190810160405280600381526020017f302e330000000000000000000000000000000000000000000000000000000000815250600090805190602001906200005192919062001228565b50670de0b6b3a7640000608555670de0b6b3a7640000608655608654600a026087553480156200008057600080fd5b506040516020806200492183398101806040526020811015620000a257600080fd5b8101908080519060200190929190505050701c35fedd14ffffffffffffffffffffffff60016020608081101515620000d657fe5b0181905550701b0ce43b323fffffffffffffffffffffff60016021608081101515620000fe57fe5b01819055507019f0028ec1ffffffffffffffffffffffff600160226080811015156200012657fe5b01819055507018ded91f0e7fffffffffffffffffffffff600160236080811015156200014e57fe5b01819055507017d8ec7f0417ffffffffffffffffffffff600160246080811015156200017657fe5b01819055507016ddc6556cdbffffffffffffffffffffff600160256080811015156200019e57fe5b01819055507015ecf52776a1ffffffffffffffffffffff60016026608081101515620001c657fe5b01819055507015060c256cb2ffffffffffffffffffffff60016027608081101515620001ee57fe5b0181905550701428a2f98d72ffffffffffffffffffffff600160286080811015156200021657fe5b01819055507013545598e5c23fffffffffffffffffffff600160296080811015156200023e57fe5b0181905550701288c4161ce1dfffffffffffffffffffff6001602a6080811015156200026657fe5b01819055507011c592761c666fffffffffffffffffffff6001602b6080811015156200028e57fe5b018190555070110a688680a757ffffffffffffffffffff6001602c608081101515620002b657fe5b0181905550701056f1b5bedf77ffffffffffffffffffff6001602d608081101515620002de57fe5b0181905550700faadceceeff8bffffffffffffffffffff6001602e6080811015156200030657fe5b0181905550700f05dc6b27edadffffffffffffffffffff6001602f6080811015156200032e57fe5b0181905550700e67a5a25da4107fffffffffffffffffff600160306080811015156200035657fe5b0181905550700dcff115b14eedffffffffffffffffffff600160316080811015156200037e57fe5b0181905550700d3e7a392431239fffffffffffffffffff60016032608081101515620003a657fe5b0181905550700cb2ff529eb71e4fffffffffffffffffff60016033608081101515620003ce57fe5b0181905550700c2d415c3db974afffffffffffffffffff60016034608081101515620003f657fe5b0181905550700bad03e7d883f69bffffffffffffffffff600160356080811015156200041e57fe5b0181905550700b320d03b2c343d5ffffffffffffffffff600160366080811015156200044657fe5b0181905550700abc25204e02828dffffffffffffffffff600160376080811015156200046e57fe5b0181905550700a4b16f74ee4bb207fffffffffffffffff600160386080811015156200049657fe5b01819055507009deaf736ac1f569ffffffffffffffffff60016039608081101515620004be57fe5b0181905550700976bd9952c7aa957fffffffffffffffff6001603a608081101515620004e657fe5b01819055507009131271922eaa606fffffffffffffffff6001603b6080811015156200050e57fe5b01819055507008b380f3558668c46fffffffffffffffff6001603c6080811015156200053657fe5b0181905550700857ddf0117efa215bffffffffffffffff6001603d6080811015156200055e57fe5b01819055507007ffffffffffffffffffffffffffffffff6001603e6080811015156200058657fe5b01819055507007abbf6f6abb9d087fffffffffffffffff6001603f608081101515620005ae57fe5b018190555070075af62cbac95f7dfa7fffffffffffffff60016040608081101515620005d657fe5b018190555070070d7fb7452e187ac13fffffffffffffff60016041608081101515620005fe57fe5b01819055507006c3390ecc8af379295fffffffffffffff600160426080811015156200062657fe5b018190555070067c00a3b07ffc01fd6fffffffffffffff600160436080811015156200064e57fe5b0181905550700637b647c39cbb9d3d27ffffffffffffff600160446080811015156200067657fe5b01819055507005f63b1fc104dbd39587ffffffffffffff600160456080811015156200069e57fe5b01819055507005b771955b36e12f7235ffffffffffffff60016046608081101515620006c657fe5b018190555070057b3d49dda84556d6f6ffffffffffffff60016047608081101515620006ee57fe5b018190555070054183095b2c8ececf30ffffffffffffff600160486080811015156200071657fe5b018190555070050a28be635ca2b888f77fffffffffffff600160496080811015156200073e57fe5b01819055507004d5156639708c9db33c3fffffffffffff6001604a6080811015156200076657fe5b01819055507004a23105873875bd52dfdfffffffffffff6001604b6080811015156200078e57fe5b0181905550700471649d87199aa990756fffffffffffff6001604c608081101515620007b657fe5b01819055507004429a21a029d4c1457cfbffffffffffff6001604d608081101515620007de57fe5b0181905550700415bc6d6fb7dd71af2cb3ffffffffffff6001604e6080811015156200080657fe5b01819055507003eab73b3bbfe282243ce1ffffffffffff6001604f6080811015156200082e57fe5b01819055507003c1771ac9fb6b4c18e229ffffffffffff600160506080811015156200085657fe5b0181905550700399e96897690418f785257fffffffffff600160516080811015156200087e57fe5b0181905550700373fc456c53bb779bf0ea9fffffffffff60016052608081101515620008a657fe5b018190555070034f9e8e490c48e67e6ab8bfffffffffff60016053608081101515620008ce57fe5b018190555070032cbfd4a7adc790560b3337ffffffffff60016054608081101515620008f657fe5b018190555070030b50570f6e5d2acca94613ffffffffff600160556080811015156200091e57fe5b01819055507002eb40f9f620fda6b56c2861ffffffffff600160566080811015156200094657fe5b01819055507002cc8340ecb0d0f520a6af58ffffffffff600160576080811015156200096e57fe5b01819055507002af09481380a0a35cf1ba02ffffffffff600160586080811015156200099657fe5b0181905550700292c5bdd3b92ec810287b1b3fffffffff60016059608081101515620009be57fe5b0181905550700277abdcdab07d5a77ac6d6b9fffffffff6001605a608081101515620009e657fe5b018190555070025daf6654b1eaa55fd64df5efffffffff6001605b60808110151562000a0e57fe5b0181905550700244c49c648baa98192dce88b7ffffffff6001605c60808110151562000a3657fe5b018190555070022ce03cd5619a311b2471268bffffffff6001605d60808110151562000a5e57fe5b0181905550700215f77c045fbe885654a44a0fffffffff6001605e60808110151562000a8657fe5b01819055507001ffffffffffffffffffffffffffffffff6001605f60808110151562000aae57fe5b01819055507001eaefdbdaaee7421fc4d3ede5ffffffff6001606060808110151562000ad657fe5b01819055507001d6bd8b2eb257df7e8ca57b09bfffffff6001606160808110151562000afe57fe5b01819055507001c35fedd14b861eb0443f7f133fffffff6001606260808110151562000b2657fe5b01819055507001b0ce43b322bcde4a56e8ada5afffffff6001606360808110151562000b4e57fe5b018190555070019f0028ec1fff007f5a195a39dfffffff6001606460808110151562000b7657fe5b018190555070018ded91f0e72ee74f49b15ba527ffffff6001606560808110151562000b9e57fe5b018190555070017d8ec7f04136f4e5615fd41a63ffffff6001606660808110151562000bc657fe5b018190555070016ddc6556cdb84bdc8d12d22e6fffffff6001606760808110151562000bee57fe5b018190555070015ecf52776a1155b5bd8395814f7fffff6001606860808110151562000c1657fe5b018190555070015060c256cb23b3b3cc3754cf40ffffff6001606960808110151562000c3e57fe5b01819055507001428a2f98d728ae223ddab715be3fffff6001606a60808110151562000c6657fe5b018190555070013545598e5c23276ccf0ede68034fffff6001606b60808110151562000c8e57fe5b01819055507001288c4161ce1d6f54b7f61081194fffff6001606c60808110151562000cb657fe5b018190555070011c592761c666aa641d5a01a40f17ffff6001606d60808110151562000cde57fe5b0181905550700110a688680a7530515f3e6e6cfdcdffff6001606e60808110151562000d0657fe5b01819055507001056f1b5bedf75c6bcb2ce8aed428ffff6001606f60808110151562000d2e57fe5b01819055506ffaadceceeff8a0890f3875f008277fff6001607060808110151562000d5557fe5b01819055506ff05dc6b27edad306388a600f6ba0bfff6001607160808110151562000d7c57fe5b01819055506fe67a5a25da41063de1495d5b18cdbfff6001607260808110151562000da357fe5b01819055506fdcff115b14eedde6fc3aa5353f2e4fff6001607360808110151562000dca57fe5b01819055506fd3e7a3924312399f9aae2e0f868f8fff6001607460808110151562000df157fe5b01819055506fcb2ff529eb71e41582cccd5a1ee26fff6001607560808110151562000e1857fe5b01819055506fc2d415c3db974ab32a51840c0b67edff6001607660808110151562000e3f57fe5b01819055506fbad03e7d883f69ad5b0a186184e06bff6001607760808110151562000e6657fe5b01819055506fb320d03b2c343d4829abd6075f0cc5ff6001607860808110151562000e8d57fe5b01819055506fabc25204e02828d73c6e80bcdb1a95bf6001607960808110151562000eb457fe5b01819055506fa4b16f74ee4bb2040a1ec6c15fbbf2df6001607a60808110151562000edb57fe5b01819055506f9deaf736ac1f569deb1b5ae3f36c130f6001607b60808110151562000f0257fe5b01819055506f976bd9952c7aa957f5937d790ef650376001607c60808110151562000f2957fe5b01819055506f9131271922eaa6064b73a22d0bd4f2bf6001607d60808110151562000f5057fe5b01819055506f8b380f3558668c46c91c49a2f8e967b96001607e60808110151562000f7757fe5b01819055506f857ddf0117efa215952912839f6473e66001607f60808110151562000f9e57fe5b018190555033608160006101000a81548173ffffffffffffffffffffffffffffffffffffffff021916908373ffffffffffffffffffffffffffffffffffffffff160217905550608160009054906101000a900473ffffffffffffffffffffffffffffffffffffffff1673ffffffffffffffffffffffffffffffffffffffff16600073ffffffffffffffffffffffffffffffffffffffff167f8be0079c531659141344cd1fd0a4f28419497f9722a3daafe3b4186f6b6457e060405160405180910390a38060888190555062001088336086546001026200108f640100000000026401000000009004565b50620012d7565b600073ffffffffffffffffffffffffffffffffffffffff168273ffffffffffffffffffffffffffffffffffffffff1614151515620010cc57600080fd5b620010f181608454620012066401000000000262001bde179091906401000000009004565b6084819055506200115981608260008573ffffffffffffffffffffffffffffffffffffffff1673ffffffffffffffffffffffffffffffffffffffff16815260200190815260200160002054620012066401000000000262001bde179091906401000000009004565b608260008473ffffffffffffffffffffffffffffffffffffffff1673ffffffffffffffffffffffffffffffffffffffff168152602001908152602001600020819055508173ffffffffffffffffffffffffffffffffffffffff16600073ffffffffffffffffffffffffffffffffffffffff167fddf252ad1be2c89b69c2b068fc378daa952ba7f163c4a11628f55a4df523b3ef836040518082815260200191505060405180910390a35050565b60008082840190508381101515156200121e57600080fd5b8091505092915050565b828054600181600116156101000203166002900490600052602060002090601f016020900481019282601f106200126b57805160ff19168380011785556200129c565b828001600101855582156200129c579182015b828111156200129b5782518255916020019190600101906200127e565b5b509050620012ab9190620012af565b5090565b620012d491905b80821115620012d0576000816000905550600101620012b6565b5090565b90565b61363a80620012e76000396000f3fe60806040526004361061013e576000357c0100000000000000000000000000000000000000000000000000000000900463ffffffff168063095ea7b3146101485780630c7d5cd8146101bb5780631249c58b146101e657806318160ddd146101f057806323b872dd1461021b57806328c3d701146102ae57806329a00e7c146102fd57806339509351146103705780633de39c11146103e357806342966c681461040e57806349f9b0f71461044957806354fd4d50146104bc57806370a082311461054c578063715018a6146105b15780638da5cb5b146105c85780638f32d59b1461061f57806390f0c2ea1461064e578063a10954fe1461069d578063a457c2d7146106c8578063a9059cbb1461073b578063d2fa635e146107ae578063dd62ed3e146107e9578063f2fde38b1461086e578063f51e181a146108bf575b6101466108ea565b005b34801561015457600080fd5b506101a16004803603604081101561016b57600080fd5b81019080803573ffffffffffffffffffffffffffffffffffffffff16906020019092919080359060200190929190505050610a0e565b604051808215151515815260200191505060405180910390f35b3480156101c757600080fd5b506101d0610b3b565b6040518082815260200191505060405180910390f35b6101ee6108ea565b005b3480156101fc57600080fd5b50610205610b41565b6040518082815260200191505060405180910390f35b34801561022757600080fd5b506102946004803603606081101561023e57600080fd5b81019080803573ffffffffffffffffffffffffffffffffffffffff169060200190929190803573ffffffffffffffffffffffffffffffffffffffff16906020019092919080359060200190929190505050610b4b565b604051808215151515815260200191505060405180910390f35b3480156102ba57600080fd5b506102e7600480360360208110156102d157600080fd5b8101908080359060200190929190505050610d53565b6040518082815260200191505060405180910390f35b34801561030957600080fd5b5061035a6004803603608081101561032057600080fd5b810190808035906020019092919080359060200190929190803563ffffffff16906020019092919080359060200190929190505050610d73565b6040518082815260200191505060405180910390f35b34801561037c57600080fd5b506103c96004803603604081101561039357600080fd5b81019080803573ffffffffffffffffffffffffffffffffffffffff16906020019092919080359060200190929190505050610e79565b604051808215151515815260200191505060405180910390f35b3480156103ef57600080fd5b506103f86110b0565b6040518082815260200191505060405180910390f35b34801561041a57600080fd5b506104476004803603602081101561043157600080fd5b81019080803590602001909291905050506110b6565b005b34801561045557600080fd5b506104a66004803603608081101561046c57600080fd5b810190808035906020019092919080359060200190929190803563ffffffff169060200190929190803590602001909291905050506111ae565b6040518082815260200191505060405180910390f35b3480156104c857600080fd5b506104d16112e3565b6040518080602001828103825283818151815260200191508051906020019080838360005b838110156105115780820151818401526020810190506104f6565b50505050905090810190601f16801561053e5780820380516001836020036101000a031916815260200191505b509250505060405180910390f35b34801561055857600080fd5b5061059b6004803603602081101561056f57600080fd5b81019080803573ffffffffffffffffffffffffffffffffffffffff169060200190929190505050611381565b6040518082815260200191505060405180910390f35b3480156105bd57600080fd5b506105c66113ca565b005b3480156105d457600080fd5b506105dd61149e565b604051808273ffffffffffffffffffffffffffffffffffffffff1673ffffffffffffffffffffffffffffffffffffffff16815260200191505060405180910390f35b34801561062b57600080fd5b506106346114c8565b604051808215151515815260200191505060405180910390f35b34801561065a57600080fd5b506106876004803603602081101561067157600080fd5b8101908080359060200190929190505050611520565b6040518082815260200191505060405180910390f35b3480156106a957600080fd5b506106b2611540565b6040518082815260200191505060405180910390f35b3480156106d457600080fd5b50610721600480360360408110156106eb57600080fd5b81019080803573ffffffffffffffffffffffffffffffffffffffff16906020019092919080359060200190929190505050611546565b604051808215151515815260200191505060405180910390f35b34801561074757600080fd5b506107946004803603604081101561075e57600080fd5b81019080803573ffffffffffffffffffffffffffffffffffffffff1690602001909291908035906020019092919050505061177d565b604051808215151515815260200191505060405180910390f35b3480156107ba57600080fd5b506107e7600480360360208110156107d157600080fd5b8101908080359060200190929190505050611794565b005b3480156107f557600080fd5b506108586004803603604081101561080c57600080fd5b81019080803573ffffffffffffffffffffffffffffffffffffffff169060200190929190803573ffffffffffffffffffffffffffffffffffffffff1690602001909291905050506117b1565b6040518082815260200191505060405180910390f35b34801561087a57600080fd5b506108bd6004803603602081101561089157600080fd5b81019080803573ffffffffffffffffffffffffffffffffffffffff169060200190929190505050611838565b005b3480156108cb57600080fd5b506108d4611857565b6040518082815260200191505060405180910390f35b6085543a1115151561098a576040517f08c379a00000000000000000000000000000000000000000000000000000000081526004018080602001828103825260368152602001807f5472616e73616374696f6e206761732070726963652063616e6e6f742065786381526020017f656564206d6178696d756d206761732070726963652e0000000000000000000081525060400191505060405180910390fd5b600034111515610a02576040517f08c379a000000000000000000000000000000000000000000000000000000000815260040180806020018281038252601e8152602001807f4d7573742073656e6420657468657220746f2062757920746f6b656e732e000081525060200191505060405180910390fd5b610a0b3461185d565b50565b60008073ffffffffffffffffffffffffffffffffffffffff168373ffffffffffffffffffffffffffffffffffffffff1614151515610a4b57600080fd5b81608360003373ffffffffffffffffffffffffffffffffffffffff1673ffffffffffffffffffffffffffffffffffffffff16815260200190815260200160002060008573ffffffffffffffffffffffffffffffffffffffff1673ffffffffffffffffffffffffffffffffffffffff168152602001908152602001600020819055508273ffffffffffffffffffffffffffffffffffffffff163373ffffffffffffffffffffffffffffffffffffffff167f8c5be1e5ebec7d5bd14f71427d1e84f3dd0314c0f7b2291e5b200ac8c7c3b925846040518082815260200191505060405180910390a36001905092915050565b60885481565b6000608454905090565b6000610bdc82608360008773ffffffffffffffffffffffffffffffffffffffff1673ffffffffffffffffffffffffffffffffffffffff16815260200190815260200160002060003373ffffffffffffffffffffffffffffffffffffffff1673ffffffffffffffffffffffffffffffffffffffff1681526020019081526020016000205461198490919063ffffffff16565b608360008673ffffffffffffffffffffffffffffffffffffffff1673ffffffffffffffffffffffffffffffffffffffff16815260200190815260200160002060003373ffffffffffffffffffffffffffffffffffffffff1673ffffffffffffffffffffffffffffffffffffffff16815260200190815260200160002081905550610c678484846119a6565b3373ffffffffffffffffffffffffffffffffffffffff168473ffffffffffffffffffffffffffffffffffffffff167f8c5be1e5ebec7d5bd14f71427d1e84f3dd0314c0f7b2291e5b200ac8c7c3b925608360008873ffffffffffffffffffffffffffffffffffffffff1673ffffffffffffffffffffffffffffffffffffffff16815260200190815260200160002060003373ffffffffffffffffffffffffffffffffffffffff1673ffffffffffffffffffffffffffffffffffffffff168152602001908152602001600020546040518082815260200191505060405180910390a3600190509392505050565b6000610d6c610d60610b41565b60875460885485610d73565b9050919050565b60008085118015610d845750600084115b8015610d96575060008363ffffffff16115b8015610db15750620f424063ffffffff168363ffffffff1611155b1515610dbc57600080fd5b6000821415610dce5760009050610e71565b620f424063ffffffff168363ffffffff161415610e1157610e0a84610dfc8488611b7690919063ffffffff16565b611bb490919063ffffffff16565b9050610e71565b6000806000610e298786611bde90919063ffffffff16565b9050610e3a818888620f4240611bff565b809350819450505060008260ff16610e5b858b611b7690919063ffffffff16565b908060020a820491505090508881039450505050505b949350505050565b60008073ffffffffffffffffffffffffffffffffffffffff168373ffffffffffffffffffffffffffffffffffffffff1614151515610eb657600080fd5b610f4582608360003373ffffffffffffffffffffffffffffffffffffffff1673ffffffffffffffffffffffffffffffffffffffff16815260200190815260200160002060008673ffffffffffffffffffffffffffffffffffffffff1673ffffffffffffffffffffffffffffffffffffffff16815260200190815260200160002054611bde90919063ffffffff16565b608360003373ffffffffffffffffffffffffffffffffffffffff1673ffffffffffffffffffffffffffffffffffffffff16815260200190815260200160002060008573ffffffffffffffffffffffffffffffffffffffff1673ffffffffffffffffffffffffffffffffffffffff168152602001908152602001600020819055508273ffffffffffffffffffffffffffffffffffffffff163373ffffffffffffffffffffffffffffffffffffffff167f8c5be1e5ebec7d5bd14f71427d1e84f3dd0314c0f7b2291e5b200ac8c7c3b925608360003373ffffffffffffffffffffffffffffffffffffffff1673ffffffffffffffffffffffffffffffffffffffff16815260200190815260200160002060008773ffffffffffffffffffffffffffffffffffffffff1673ffffffffffffffffffffffffffffffffffffffff168152602001908152602001600020546040518082815260200191505060405180910390a36001905092915050565b60855481565b6085543a11151515611156576040517f08c379a00000000000000000000000000000000000000000000000000000000081526004018080602001828103825260368152602001807f5472616e73616374696f6e206761732070726963652063616e6e6f742065786381526020017f656564206d6178696d756d206761732070726963652e0000000000000000000081525060400191505060405180910390fd5b600061116182611de3565b90503373ffffffffffffffffffffffffffffffffffffffff166108fc829081150290604051600060405180830381858888f193505050501580156111a9573d6000803e3d6000fd5b505050565b600080851180156111bf5750600084115b80156111d1575060008363ffffffff16115b80156111ec5750620f424063ffffffff168363ffffffff1611155b80156111f85750848211155b151561120357600080fd5b600082141561121557600090506112db565b84821415611225578390506112db565b620f424063ffffffff168363ffffffff16141561126857611261856112538487611b7690919063ffffffff16565b611bb490919063ffffffff16565b90506112db565b600080600084880390506112818882620f424089611bff565b8093508194505050600061129e8489611b7690919063ffffffff16565b905060008360ff16899060020a0290506112d3856112c5838561198490919063ffffffff16565b611bb490919063ffffffff16565b955050505050505b949350505050565b60008054600181600116156101000203166002900480601f0160208091040260200160405190810160405280929190818152602001828054600181600116156101000203166002900480156113795780601f1061134e57610100808354040283529160200191611379565b820191906000526020600020905b81548152906001019060200180831161135c57829003601f168201915b505050505081565b6000608260008373ffffffffffffffffffffffffffffffffffffffff1673ffffffffffffffffffffffffffffffffffffffff168152602001908152602001600020549050919050565b6113d26114c8565b15156113dd57600080fd5b600073ffffffffffffffffffffffffffffffffffffffff16608160009054906101000a900473ffffffffffffffffffffffffffffffffffffffff1673ffffffffffffffffffffffffffffffffffffffff167f8be0079c531659141344cd1fd0a4f28419497f9722a3daafe3b4186f6b6457e060405160405180910390a36000608160006101000a81548173ffffffffffffffffffffffffffffffffffffffff021916908373ffffffffffffffffffffffffffffffffffffffff160217905550565b6000608160009054906101000a900473ffffffffffffffffffffffffffffffffffffffff16905090565b6000608160009054906101000a900473ffffffffffffffffffffffffffffffffffffffff1673ffffffffffffffffffffffffffffffffffffffff163373ffffffffffffffffffffffffffffffffffffffff1614905090565b600061153961152d610b41565b608754608854856111ae565b9050919050565b60875481565b60008073ffffffffffffffffffffffffffffffffffffffff168373ffffffffffffffffffffffffffffffffffffffff161415151561158357600080fd5b61161282608360003373ffffffffffffffffffffffffffffffffffffffff1673ffffffffffffffffffffffffffffffffffffffff16815260200190815260200160002060008673ffffffffffffffffffffffffffffffffffffffff1673ffffffffffffffffffffffffffffffffffffffff1681526020019081526020016000205461198490919063ffffffff16565b608360003373ffffffffffffffffffffffffffffffffffffffff1673ffffffffffffffffffffffffffffffffffffffff16815260200190815260200160002060008573ffffffffffffffffffffffffffffffffffffffff1673ffffffffffffffffffffffffffffffffffffffff168152602001908152602001600020819055508273ffffffffffffffffffffffffffffffffffffffff163373ffffffffffffffffffffffffffffffffffffffff167f8c5be1e5ebec7d5bd14f71427d1e84f3dd0314c0f7b2291e5b200ac8c7c3b925608360003373ffffffffffffffffffffffffffffffffffffffff1673ffffffffffffffffffffffffffffffffffffffff16815260200190815260200160002060008773ffffffffffffffffffffffffffffffffffffffff1673ffffffffffffffffffffffffffffffffffffffff168152602001908152602001600020546040518082815260200191505060405180910390a36001905092915050565b600061178a3384846119a6565b6001905092915050565b61179c6114c8565b15156117a757600080fd5b8060858190555050565b6000608360008473ffffffffffffffffffffffffffffffffffffffff1673ffffffffffffffffffffffffffffffffffffffff16815260200190815260200160002060008373ffffffffffffffffffffffffffffffffffffffff1673ffffffffffffffffffffffffffffffffffffffff16815260200190815260200160002054905092915050565b6118406114c8565b151561184b57600080fd5b61185481611f8a565b50565b60865481565b600080821115156118d6576040517f08c379a00000000000000000000000000000000000000000000000000000000081526004018080602001828103825260198152602001807f4465706f736974206d757374206265206e6f6e2d7a65726f2e0000000000000081525060200191505060405180910390fd5b60006118e183610d53565b90506118ed3382612086565b61190283608754611bde90919063ffffffff16565b6087819055507fa9b5c37908cbe11fc228c10af0ce98bf944b069510207388ac875a3d2a314bbe338285604051808473ffffffffffffffffffffffffffffffffffffffff1673ffffffffffffffffffffffffffffffffffffffff168152602001838152602001828152602001935050505060405180910390a180915050919050565b600082821115151561199557600080fd5b600082840390508091505092915050565b600073ffffffffffffffffffffffffffffffffffffffff168273ffffffffffffffffffffffffffffffffffffffff16141515156119e257600080fd5b611a3481608260008673ffffffffffffffffffffffffffffffffffffffff1673ffffffffffffffffffffffffffffffffffffffff1681526020019081526020016000205461198490919063ffffffff16565b608260008573ffffffffffffffffffffffffffffffffffffffff1673ffffffffffffffffffffffffffffffffffffffff16815260200190815260200160002081905550611ac981608260008573ffffffffffffffffffffffffffffffffffffffff1673ffffffffffffffffffffffffffffffffffffffff16815260200190815260200160002054611bde90919063ffffffff16565b608260008473ffffffffffffffffffffffffffffffffffffffff1673ffffffffffffffffffffffffffffffffffffffff168152602001908152602001600020819055508173ffffffffffffffffffffffffffffffffffffffff168373ffffffffffffffffffffffffffffffffffffffff167fddf252ad1be2c89b69c2b068fc378daa952ba7f163c4a11628f55a4df523b3ef836040518082815260200191505060405180910390a3505050565b600080831415611b895760009050611bae565b60008284029050828482811515611b9c57fe5b04141515611ba957600080fd5b809150505b92915050565b60008082111515611bc457600080fd5b60008284811515611bd157fe5b0490508091505092915050565b6000808284019050838110151515611bf557600080fd5b8091505092915050565b60008070020000000000000000000000000000000086101515611c8a576040517f08c379a00000000000000000000000000000000000000000000000000000000081526004018080602001828103825260188152602001807f626173654e2065786365656473206d61782076616c75652e000000000000000081525060200191505060405180910390fd5b848610151515611d02576040517f08c379a000000000000000000000000000000000000000000000000000000000815260040180806020018281038252601c8152602001807f4261736573203c203120617265206e6f7420737570706f727465642e0000000081525060200191505060405180910390fd5b600080866f800000000000000000000000000000008902811515611d2257fe5b04905070015bf0a8b1457695355fb8ac404e7a79e3811015611d4e57611d47816121dc565b9150611d5a565b611d57816127ac565b91505b60008563ffffffff168763ffffffff168402811515611d7557fe5b049050700800000000000000000000000000000000811015611da857611d9a816128f1565b607f94509450505050611dda565b6000611db382612eb1565b9050611dd081607f0360ff1683908060020a820491505082612f76565b8195509550505050505b94509492505050565b60008082111515611e5c576040517f08c379a00000000000000000000000000000000000000000000000000000000081526004018080602001828103825260188152602001807f416d6f756e74206d757374206265206e6f6e2d7a65726f2e000000000000000081525060200191505060405180910390fd5b81611e6633611381565b10151515611edc576040517f08c379a000000000000000000000000000000000000000000000000000000000815260040180806020018281038252601c8152602001807f496e73756666696369656e7420746f6b656e7320746f206275726e2e0000000081525060200191505060405180910390fd5b6000611ee783611520565b9050611efe8160875461198490919063ffffffff16565b608781905550611f0e3384613419565b7f42cdee5ad59c78ee53adb50e8d3f4b66918ce660505ab55abb44035e4c79ad1d338483604051808473ffffffffffffffffffffffffffffffffffffffff1673ffffffffffffffffffffffffffffffffffffffff168152602001838152602001828152602001935050505060405180910390a180915050919050565b600073ffffffffffffffffffffffffffffffffffffffff168173ffffffffffffffffffffffffffffffffffffffff1614151515611fc657600080fd5b8073ffffffffffffffffffffffffffffffffffffffff16608160009054906101000a900473ffffffffffffffffffffffffffffffffffffffff1673ffffffffffffffffffffffffffffffffffffffff167f8be0079c531659141344cd1fd0a4f28419497f9722a3daafe3b4186f6b6457e060405160405180910390a380608160006101000a81548173ffffffffffffffffffffffffffffffffffffffff021916908373ffffffffffffffffffffffffffffffffffffffff16021790555050565b600073ffffffffffffffffffffffffffffffffffffffff168273ffffffffffffffffffffffffffffffffffffffff16141515156120c257600080fd5b6120d781608454611bde90919063ffffffff16565b60848190555061212f81608260008573ffffffffffffffffffffffffffffffffffffffff1673ffffffffffffffffffffffffffffffffffffffff16815260200190815260200160002054611bde90919063ffffffff16565b608260008473ffffffffffffffffffffffffffffffffffffffff1673ffffffffffffffffffffffffffffffffffffffff168152602001908152602001600020819055508173ffffffffffffffffffffffffffffffffffffffff16600073ffffffffffffffffffffffffffffffffffffffff167fddf252ad1be2c89b69c2b068fc378daa952ba7f163c4a11628f55a4df523b3ef836040518082815260200191505060405180910390a35050565b6000806000905060008060006fd3094c70f034de4b96ff7d5b6f99fcd886101515612247576f40000000000000000000000000000000840193506fd3094c70f034de4b96ff7d5b6f99fcd86f80000000000000000000000000000000870281151561224357fe5b0495505b6fa45af1e1f40c333b3de1db4dd55f29a7861015156122a6576f20000000000000000000000000000000840193506fa45af1e1f40c333b3de1db4dd55f29a76f8000000000000000000000000000000087028115156122a257fe5b0495505b6f910b022db7ae67ce76b441c27035c6a186101515612305576f10000000000000000000000000000000840193506f910b022db7ae67ce76b441c27035c6a16f80000000000000000000000000000000870281151561230157fe5b0495505b6f88415abbe9a76bead8d00cf112e4d4a886101515612364576f08000000000000000000000000000000840193506f88415abbe9a76bead8d00cf112e4d4a86f80000000000000000000000000000000870281151561236057fe5b0495505b6f84102b00893f64c705e841d5d4064bd3861015156123c3576f04000000000000000000000000000000840193506f84102b00893f64c705e841d5d4064bd36f8000000000000000000000000000000087028115156123bf57fe5b0495505b6f8204055aaef1c8bd5c3259f4822735a286101515612422576f02000000000000000000000000000000840193506f8204055aaef1c8bd5c3259f4822735a26f80000000000000000000000000000000870281151561241e57fe5b0495505b6f810100ab00222d861931c15e39b44e9986101515612481576f01000000000000000000000000000000840193506f810100ab00222d861931c15e39b44e996f80000000000000000000000000000000870281151561247d57fe5b0495505b6f808040155aabbbe9451521693554f733861015156124df576e800000000000000000000000000000840193506f808040155aabbbe9451521693554f7336f8000000000000000000000000000000087028115156124db57fe5b0495505b6f80000000000000000000000000000000860392508291506f8000000000000000000000000000000083840281151561251457fe5b0490507001000000000000000000000000000000008370010000000000000000000000000000000003830281151561254857fe5b04840193506f8000000000000000000000000000000081830281151561256a57fe5b049150700200000000000000000000000000000000836faaaaaaaaaaaaaaaaaaaaaaaaaaaaaaaa03830281151561259d57fe5b04840193506f800000000000000000000000000000008183028115156125bf57fe5b049150700300000000000000000000000000000000836f999999999999999999999999999999990383028115156125f257fe5b04840193506f8000000000000000000000000000000081830281151561261457fe5b049150700400000000000000000000000000000000836f9249249249249249249249249249249203830281151561264757fe5b04840193506f8000000000000000000000000000000081830281151561266957fe5b049150700500000000000000000000000000000000836f8e38e38e38e38e38e38e38e38e38e38e03830281151561269c57fe5b04840193506f800000000000000000000000000000008183028115156126be57fe5b049150700600000000000000000000000000000000836f8ba2e8ba2e8ba2e8ba2e8ba2e8ba2e8b0383028115156126f157fe5b04840193506f8000000000000000000000000000000081830281151561271357fe5b049150700700000000000000000000000000000000836f89d89d89d89d89d89d89d89d89d89d8903830281151561274657fe5b04840193506f8000000000000000000000000000000081830281151561276857fe5b049150700800000000000000000000000000000000836f8888888888888888888888888888888803830281151561279b57fe5b048401935083945050505050919050565b600080600090506000839050700100000000000000000000000000000000811015156128255760006127f86f80000000000000000000000000000000838115156127f257fe5b0461356f565b90508060ff1682908060020a820491505091506f800000000000000000000000000000008160ff16029250505b6f800000000000000000000000000000008111156128ba576000607f90505b60008160ff1611156128b8576f8000000000000000000000000000000082830281151561286d57fe5b049150700100000000000000000000000000000000821015156128ac57600182908060020a820491505091506001810360ff1660019060020a02830192505b80600190039050612844565b505b6f05b9de1d10bf4103d647b0955897ba806f03f80fe03f80fe03f80fe03f80fe03f883028115156128e757fe5b0492505050919050565b600080600090506000806f100000000000000000000000000000008581151561291657fe5b0691508190506f8000000000000000000000000000000082820281151561293957fe5b0490506710e1b3be415a00008102830192506f8000000000000000000000000000000082820281151561296857fe5b0490506705a0913f6b1e00008102830192506f8000000000000000000000000000000082820281151561299757fe5b049050670168244fdac780008102830192506f800000000000000000000000000000008282028115156129c657fe5b049050664807432bc180008102830192506f800000000000000000000000000000008282028115156129f457fe5b049050660c0135dca040008102830192506f80000000000000000000000000000000828202811515612a2257fe5b0490506601b707b1cdc0008102830192506f80000000000000000000000000000000828202811515612a5057fe5b0490506536e0f639b8008102830192506f80000000000000000000000000000000828202811515612a7d57fe5b049050650618fee9f8008102830192506f80000000000000000000000000000000828202811515612aaa57fe5b049050649c197dcc008102830192506f80000000000000000000000000000000828202811515612ad657fe5b049050640e30dce4008102830192506f80000000000000000000000000000000828202811515612b0257fe5b04905064012ebd13008102830192506f80000000000000000000000000000000828202811515612b2e57fe5b0490506317499f008102830192506f80000000000000000000000000000000828202811515612b5957fe5b0490506301a9d4808102830192506f80000000000000000000000000000000828202811515612b8457fe5b049050621c63808102830192506f80000000000000000000000000000000828202811515612bae57fe5b0490506201c6388102830192506f80000000000000000000000000000000828202811515612bd857fe5b049050611ab88102830192506f80000000000000000000000000000000828202811515612c0157fe5b04905061017c8102830192506f80000000000000000000000000000000828202811515612c2a57fe5b04905060148102830192506f80000000000000000000000000000000828202811515612c5257fe5b04905060018102830192506f80000000000000000000000000000000826721c3677c82b4000085811515612c8257fe5b040101925060006f100000000000000000000000000000008616141515612cd65770018ebef9eac820ae8682b9793ac6d1e7767001c3d6a24ed82218787d624d3e5eba95f98402811515612cd257fe5b0492505b60006f200000000000000000000000000000008616141515612d25577001368b2fc6f9609fe7aceb46aa619baed470018ebef9eac820ae8682b9793ac6d1e7788402811515612d2157fe5b0492505b60006f400000000000000000000000000000008616141515612d73576fbc5ab1b16779be3575bd8f0520a9f21f7001368b2fc6f9609fe7aceb46aa619baed58402811515612d6f57fe5b0492505b60006f800000000000000000000000000000008616141515612dc0576f454aaa8efe072e7f6ddbab84b40a55c96fbc5ab1b16779be3575bd8f0520a9f21e8402811515612dbc57fe5b0492505b60007001000000000000000000000000000000008616141515612e0e576f0960aadc109e7a3bf4578099615711ea6f454aaa8efe072e7f6ddbab84b40a55c58402811515612e0a57fe5b0492505b60007002000000000000000000000000000000008616141515612e5b576e2bf84208204f5977f9a8cf01fdce3d6f0960aadc109e7a3bf4578099615711d78402811515612e5757fe5b0492505b60007004000000000000000000000000000000008616141515612ea6576d03c6ab775dd0b95b4cbee7e65d116e2bf84208204f5977f9a8cf01fdc3078402811515612ea257fe5b0492505b829350505050919050565b600080602090506000607f90505b8060ff166001830160ff161015612f14576000600282840160ff16811515612ee357fe5b0490508460018260ff16608081101515612ef957fe5b0154101515612f0a57809250612f0e565b8091505b50612ebf565b8360018260ff16608081101515612f2757fe5b0154101515612f3a578092505050612f71565b8360018360ff16608081101515612f4d57fe5b0154101515612f60578192505050612f71565b60001515612f6a57fe5b6000925050505b919050565b60008083905060008090508360ff16858302908060020a820491505091506f03442c4e6074a82f1797f72ac00000008202810190508360ff16858302908060020a820491505091506f0116b96f757c380fb287fd0e400000008202810190508360ff16858302908060020a820491505091506e45ae5bdd5f0e03eca1ff43900000008202810190508360ff16858302908060020a820491505091506e0defabf91302cd95b9ffda500000008202810190508360ff16858302908060020a820491505091506e02529ca9832b22439efff9b80000008202810190508360ff16858302908060020a820491505091506d54f1cf12bd04e516b6da880000008202810190508360ff16858302908060020a820491505091506d0a9e39e257a09ca2d6db510000008202810190508360ff16858302908060020a820491505091506d012e066e7b839fa050c3090000008202810190508360ff16858302908060020a820491505091506c1e33d7d926c329a1ad1a8000008202810190508360ff16858302908060020a820491505091506c02bee513bdb4a6b19b5f8000008202810190508360ff16858302908060020a820491505091506b3a9316fa79b88eccf2a000008202810190508360ff16858302908060020a820491505091506b048177ebe1fa8123752000008202810190508360ff16858302908060020a820491505091506a5263fe90242dcbacf000008202810190508360ff16858302908060020a820491505091506a057e22099c030d941000008202810190508360ff16858302908060020a820491505091506957e22099c030d94100008202810190508360ff16858302908060020a8204915050915069052b6b545699763100008202810190508360ff16858302908060020a82049150509150684985f67696bf7480008202810190508360ff16858302908060020a820491505091506803dea12ea99e4980008202810190508360ff16858302908060020a820491505091506731880f2214b6e0008202810190508360ff16858302908060020a8204915050915067025bcff56eb360008202810190508360ff16858302908060020a82049150509150661b722e10ab10008202810190508360ff16858302908060020a820491505091506601317c700770008202810190508360ff16858302908060020a82049150509150650cba84aafa008202810190508360ff16858302908060020a820491505091506482573a0a008202810190508360ff16858302908060020a820491505091506405035ad9008202810190508360ff16858302908060020a82049150509150632f881b008202810190508360ff16858302908060020a820491505091506301b293408202810190508360ff16858302908060020a82049150509150620efc408202810190508360ff16858302908060020a82049150509150617fe08202810190508360ff16858302908060020a820491505091506104208202810190508360ff16858302908060020a8204915050915060218202810190508360ff16858302908060020a8204915050915060018202810190508360ff1660019060020a02856f0688589cc0e9505e2f2fee55800000008381151561340c57fe5b0401019250505092915050565b600073ffffffffffffffffffffffffffffffffffffffff168273ffffffffffffffffffffffffffffffffffffffff161415151561345557600080fd5b61346a8160845461198490919063ffffffff16565b6084819055506134c281608260008573ffffffffffffffffffffffffffffffffffffffff1673ffffffffffffffffffffffffffffffffffffffff1681526020019081526020016000205461198490919063ffffffff16565b608260008473ffffffffffffffffffffffffffffffffffffffff1673ffffffffffffffffffffffffffffffffffffffff16815260200190815260200160002081905550600073ffffffffffffffffffffffffffffffffffffffff168273ffffffffffffffffffffffffffffffffffffffff167fddf252ad1be2c89b69c2b068fc378daa952ba7f163c4a11628f55a4df523b3ef836040518082815260200191505060405180910390a35050565b6000806000905060008390506101008110156135ae575b60018111156135a957600181908060020a82049150509050600182019150613586565b613604565b6000608090505b60008160ff161115613602578060ff1660019060020a02821015156135eb578060ff1682908060020a8204915050915080831792505b60018160ff16908060020a820491505090506135b5565b505b819250505091905056fea165627a7a7230582048f57a069200ef02b65539a98471934dd4ba1c9931268c9332ea0a5cf0b621370029",
  "source": "pragma solidity ^0.5.0;\n\nimport \"openzeppelin-solidity/contracts/math/SafeMath.sol\";\nimport \"openzeppelin-solidity/contracts/token/ERC20/ERC20.sol\";\nimport \"openzeppelin-solidity/contracts/ownership/Ownable.sol\";\n\nimport \"./BancorBondingCurve.sol\";\nimport \"./CappedGasPrice.sol\";\n\ncontract ContinuousToken is BancorBondingCurve, Ownable, ERC20, CappedGasPrice {\n    using SafeMath for uint256;\n\n    uint256 public scale = 10**18;\n    uint256 public reserveBalance = 10*scale;\n    uint256 public reserveRatio;\n\n    event ContinuousMint(\n        address _from,\n        uint256  _amount,\n        uint256 _deposit\n    );\n\n    event ContinuousBurn(\n        address _from,\n        uint256  _amount,\n        uint256 _reimbursement\n    );\n\n    constructor(\n        uint256 _reserveRatio\n    ) public {\n        reserveRatio = _reserveRatio;\n        _mint(msg.sender, 1*scale);\n    }\n\n    function mint() public payable validGasPrice {\n        require(msg.value > 0, \"Must send ether to buy tokens.\");\n        _continuousMint(msg.value);\n    }\n\n    function burn(uint256 _amount) public validGasPrice {\n        uint256 returnAmount = _continuousBurn(_amount);\n        msg.sender.transfer(returnAmount);\n    }\n\n    function () external payable  { mint(); }\n\n    function calculateContinuousMintReturn(uint256 _amount)\n        public view returns (uint256 mintAmount)\n    {\n        return calculatePurchaseReturn(totalSupply(), reserveBalance, uint32(reserveRatio), _amount);\n    }\n\n    function calculateContinuousBurnReturn(uint256 _amount)\n        public view returns (uint256 burnAmount)\n    {\n        return calculateSaleReturn(totalSupply(), reserveBalance, uint32(reserveRatio), _amount);\n    }\n\n    function _continuousMint(uint256 _deposit)\n        internal returns (uint256)\n    {\n        require(_deposit > 0, \"Deposit must be non-zero.\");\n\n        uint256 amount = calculateContinuousMintReturn(_deposit);\n        _mint(msg.sender, amount);\n        reserveBalance = reserveBalance.add(_deposit);\n        emit ContinuousMint(msg.sender, amount, _deposit);\n        return amount;\n    }\n\n    function _continuousBurn(uint256 _amount)\n        internal returns (uint256)\n    {\n        require(_amount > 0, \"Amount must be non-zero.\");\n        require(balanceOf(msg.sender) >= _amount, \"Insufficient tokens to burn.\");\n\n        uint256 reimburseAmount = calculateContinuousBurnReturn(_amount);\n        reserveBalance = reserveBalance.sub(reimburseAmount);\n        _burn(msg.sender, _amount);\n        emit ContinuousBurn(msg.sender, _amount, reimburseAmount);\n        return reimburseAmount;\n    }\n}",
  "sourcePath": "/Users/jterrazz/Projects/ethparis/contracts/ContinuousToken.sol",
  "compiler": {
    "name": "solc",
    "version": "0.5.0+commit.1d4f565a.Emscripten.clang"
  },
  "schemaVersion": "3.0.2",
  "updatedAt": "2019-03-09T11:33:28.305Z",
  "devdoc": {
    "methods": {
      "allowance(address,address)": {
        "details": "Function to check the amount of tokens that an owner allowed to a spender.",
        "params": {
          "owner": "address The address which owns the funds.",
          "spender": "address The address which will spend the funds."
        },
        "return": "A uint256 specifying the amount of tokens still available for the spender."
      },
      "approve(address,uint256)": {
        "details": "Approve the passed address to spend the specified amount of tokens on behalf of msg.sender. Beware that changing an allowance with this method brings the risk that someone may use both the old and the new allowance by unfortunate transaction ordering. One possible solution to mitigate this race condition is to first reduce the spender's allowance to 0 and set the desired value afterwards: https://github.com/ethereum/EIPs/issues/20#issuecomment-263524729",
        "params": {
          "spender": "The address which will spend the funds.",
          "value": "The amount of tokens to be spent."
        }
      },
      "balanceOf(address)": {
        "details": "Gets the balance of the specified address.",
        "params": {
          "owner": "The address to query the balance of."
        },
        "return": "An uint256 representing the amount owned by the passed address."
      },
      "calculatePurchaseReturn(uint256,uint256,uint32,uint256)": {
        "details": "given a continuous token supply, reserve token balance, reserve ratio, and a deposit amount (in the reserve token), calculates the return for a given conversion (in the continuous token)   * Formula: Return = _supply * ((1 + _depositAmount / _reserveBalance) ^ (_reserveRatio / MAX_RESERVE_RATIO) - 1)",
        "params": {
          "_depositAmount": "deposit amount, in reserve token",
          "_reserveBalance": "total reserve token balance",
          "_reserveRatio": "reserve ratio, represented in ppm, 1-1000000",
          "_supply": "continuous token total supply"
        },
        "return": "purchase return amount"
      },
      "calculateSaleReturn(uint256,uint256,uint32,uint256)": {
        "details": "given a continuous token supply, reserve token balance, reserve ratio and a sell amount (in the continuous token), calculates the return for a given conversion (in the reserve token)   * Formula: Return = _reserveBalance * (1 - (1 - _sellAmount / _supply) ^ (1 / (_reserveRatio / MAX_RESERVE_RATIO)))",
        "params": {
          "_reserveBalance": "total reserve token balance",
          "_reserveRatio": "constant reserve ratio, represented in ppm, 1-1000000",
          "_sellAmount": "sell amount, in the continuous token itself",
          "_supply": "continuous token total supply"
        },
        "return": "sale return amount"
      },
      "decreaseAllowance(address,uint256)": {
        "details": "Decrease the amount of tokens that an owner allowed to a spender. approve should be called when allowed_[_spender] == 0. To decrement allowed value is better to use this function to avoid 2 calls (and wait until the first transaction is mined) From MonolithDAO Token.sol Emits an Approval event.",
        "params": {
          "spender": "The address which will spend the funds.",
          "subtractedValue": "The amount of tokens to decrease the allowance by."
        }
      },
      "increaseAllowance(address,uint256)": {
        "details": "Increase the amount of tokens that an owner allowed to a spender. approve should be called when allowed_[_spender] == 0. To increment allowed value is better to use this function to avoid 2 calls (and wait until the first transaction is mined) From MonolithDAO Token.sol Emits an Approval event.",
        "params": {
          "addedValue": "The amount of tokens to increase the allowance by.",
          "spender": "The address which will spend the funds."
        }
      },
      "isOwner()": {
        "return": "true if `msg.sender` is the owner of the contract."
      },
      "owner()": {
        "return": "the address of the owner."
      },
      "renounceOwnership()": {
        "details": "Allows the current owner to relinquish control of the contract."
      },
      "totalSupply()": {
        "details": "Total number of tokens in existence"
      },
      "transfer(address,uint256)": {
        "details": "Transfer token for a specified address",
        "params": {
          "to": "The address to transfer to.",
          "value": "The amount to be transferred."
        }
      },
      "transferFrom(address,address,uint256)": {
        "details": "Transfer tokens from one address to another. Note that while this function emits an Approval event, this is not required as per the specification, and other compliant implementations may not emit the event.",
        "params": {
          "from": "address The address which you want to send tokens from",
          "to": "address The address which you want to transfer to",
          "value": "uint256 the amount of tokens to be transferred"
        }
      },
      "transferOwnership(address)": {
        "details": "Allows the current owner to transfer control of the contract to a newOwner.",
        "params": {
          "newOwner": "The address to transfer ownership to."
        }
      }
    }
  },
  "userdoc": {
    "methods": {
      "renounceOwnership()": {
        "notice": "Renouncing to ownership will leave the contract without an owner. It will not be possible to call the functions with the `onlyOwner` modifier anymore."
      }
    }
  }
}