{
  "contractName": "ContinuousToken",
  "abi": [
    {
      "constant": false,
      "inputs": [
        {
          "name": "spender",
          "type": "address"
        },
        {
          "name": "value",
          "type": "uint256"
        }
      ],
      "name": "approve",
      "outputs": [
        {
          "name": "",
          "type": "bool"
        }
      ],
      "payable": false,
      "stateMutability": "nonpayable",
      "type": "function"
    },
    {
      "constant": true,
      "inputs": [],
      "name": "reserveRatio",
      "outputs": [
        {
          "name": "",
          "type": "uint256"
        }
      ],
      "payable": false,
      "stateMutability": "view",
      "type": "function"
    },
    {
      "constant": true,
      "inputs": [],
      "name": "totalSupply",
      "outputs": [
        {
          "name": "",
          "type": "uint256"
        }
      ],
      "payable": false,
      "stateMutability": "view",
      "type": "function"
    },
    {
      "constant": false,
      "inputs": [
        {
          "name": "from",
          "type": "address"
        },
        {
          "name": "to",
          "type": "address"
        },
        {
          "name": "value",
          "type": "uint256"
        }
      ],
      "name": "transferFrom",
      "outputs": [
        {
          "name": "",
          "type": "bool"
        }
      ],
      "payable": false,
      "stateMutability": "nonpayable",
      "type": "function"
    },
    {
      "constant": true,
      "inputs": [
        {
          "name": "_supply",
          "type": "uint256"
        },
        {
          "name": "_reserveBalance",
          "type": "uint256"
        },
        {
          "name": "_reserveRatio",
          "type": "uint32"
        },
        {
          "name": "_depositAmount",
          "type": "uint256"
        }
      ],
      "name": "calculatePurchaseReturn",
      "outputs": [
        {
          "name": "",
          "type": "uint256"
        }
      ],
      "payable": false,
      "stateMutability": "view",
      "type": "function"
    },
    {
      "constant": false,
      "inputs": [
        {
          "name": "spender",
          "type": "address"
        },
        {
          "name": "addedValue",
          "type": "uint256"
        }
      ],
      "name": "increaseAllowance",
      "outputs": [
        {
          "name": "",
          "type": "bool"
        }
      ],
      "payable": false,
      "stateMutability": "nonpayable",
      "type": "function"
    },
    {
      "constant": true,
      "inputs": [],
      "name": "maxGasPrice",
      "outputs": [
        {
          "name": "",
          "type": "uint256"
        }
      ],
      "payable": false,
      "stateMutability": "view",
      "type": "function"
    },
    {
      "constant": true,
      "inputs": [
        {
          "name": "_supply",
          "type": "uint256"
        },
        {
          "name": "_reserveBalance",
          "type": "uint256"
        },
        {
          "name": "_reserveRatio",
          "type": "uint32"
        },
        {
          "name": "_sellAmount",
          "type": "uint256"
        }
      ],
      "name": "calculateSaleReturn",
      "outputs": [
        {
          "name": "",
          "type": "uint256"
        }
      ],
      "payable": false,
      "stateMutability": "view",
      "type": "function"
    },
    {
      "constant": true,
      "inputs": [],
      "name": "version",
      "outputs": [
        {
          "name": "",
          "type": "string"
        }
      ],
      "payable": false,
      "stateMutability": "view",
      "type": "function"
    },
    {
      "constant": true,
      "inputs": [
        {
          "name": "owner",
          "type": "address"
        }
      ],
      "name": "balanceOf",
      "outputs": [
        {
          "name": "",
          "type": "uint256"
        }
      ],
      "payable": false,
      "stateMutability": "view",
      "type": "function"
    },
    {
      "constant": false,
      "inputs": [],
      "name": "renounceOwnership",
      "outputs": [],
      "payable": false,
      "stateMutability": "nonpayable",
      "type": "function"
    },
    {
      "constant": true,
      "inputs": [],
      "name": "owner",
      "outputs": [
        {
          "name": "",
          "type": "address"
        }
      ],
      "payable": false,
      "stateMutability": "view",
      "type": "function"
    },
    {
      "constant": true,
      "inputs": [],
      "name": "isOwner",
      "outputs": [
        {
          "name": "",
          "type": "bool"
        }
      ],
      "payable": false,
      "stateMutability": "view",
      "type": "function"
    },
    {
      "constant": true,
      "inputs": [],
      "name": "reserveBalance",
      "outputs": [
        {
          "name": "",
          "type": "uint256"
        }
      ],
      "payable": false,
      "stateMutability": "view",
      "type": "function"
    },
    {
      "constant": false,
      "inputs": [
        {
          "name": "spender",
          "type": "address"
        },
        {
          "name": "subtractedValue",
          "type": "uint256"
        }
      ],
      "name": "decreaseAllowance",
      "outputs": [
        {
          "name": "",
          "type": "bool"
        }
      ],
      "payable": false,
      "stateMutability": "nonpayable",
      "type": "function"
    },
    {
      "constant": false,
      "inputs": [
        {
          "name": "to",
          "type": "address"
        },
        {
          "name": "value",
          "type": "uint256"
        }
      ],
      "name": "transfer",
      "outputs": [
        {
          "name": "",
          "type": "bool"
        }
      ],
      "payable": false,
      "stateMutability": "nonpayable",
      "type": "function"
    },
    {
      "constant": false,
      "inputs": [
        {
          "name": "gasPrice",
          "type": "uint256"
        }
      ],
      "name": "setMaxGasPrice",
      "outputs": [],
      "payable": false,
      "stateMutability": "nonpayable",
      "type": "function"
    },
    {
      "constant": true,
      "inputs": [
        {
          "name": "owner",
          "type": "address"
        },
        {
          "name": "spender",
          "type": "address"
        }
      ],
      "name": "allowance",
      "outputs": [
        {
          "name": "",
          "type": "uint256"
        }
      ],
      "payable": false,
      "stateMutability": "view",
      "type": "function"
    },
    {
      "constant": false,
      "inputs": [
        {
          "name": "newOwner",
          "type": "address"
        }
      ],
      "name": "transferOwnership",
      "outputs": [],
      "payable": false,
      "stateMutability": "nonpayable",
      "type": "function"
    },
    {
      "constant": true,
      "inputs": [],
      "name": "scale",
      "outputs": [
        {
          "name": "",
          "type": "uint256"
        }
      ],
      "payable": false,
      "stateMutability": "view",
      "type": "function"
    },
    {
      "inputs": [
        {
          "name": "_reserveRatio",
          "type": "uint256"
        }
      ],
      "payable": false,
      "stateMutability": "nonpayable",
      "type": "constructor"
    },
    {
      "payable": true,
      "stateMutability": "payable",
      "type": "fallback"
    },
    {
      "anonymous": false,
      "inputs": [
        {
          "indexed": false,
          "name": "_from",
          "type": "address"
        },
        {
          "indexed": false,
          "name": "_amount",
          "type": "uint256"
        },
        {
          "indexed": false,
          "name": "_deposit",
          "type": "uint256"
        }
      ],
      "name": "ContinuousMint",
      "type": "event"
    },
    {
      "anonymous": false,
      "inputs": [
        {
          "indexed": false,
          "name": "_from",
          "type": "address"
        },
        {
          "indexed": false,
          "name": "_amount",
          "type": "uint256"
        },
        {
          "indexed": false,
          "name": "_reimbursement",
          "type": "uint256"
        }
      ],
      "name": "ContinuousBurn",
      "type": "event"
    },
    {
      "anonymous": false,
      "inputs": [
        {
          "indexed": true,
          "name": "previousOwner",
          "type": "address"
        },
        {
          "indexed": true,
          "name": "newOwner",
          "type": "address"
        }
      ],
      "name": "OwnershipTransferred",
      "type": "event"
    },
    {
      "anonymous": false,
      "inputs": [
        {
          "indexed": true,
          "name": "from",
          "type": "address"
        },
        {
          "indexed": true,
          "name": "to",
          "type": "address"
        },
        {
          "indexed": false,
          "name": "value",
          "type": "uint256"
        }
      ],
      "name": "Transfer",
      "type": "event"
    },
    {
      "anonymous": false,
      "inputs": [
        {
          "indexed": true,
          "name": "owner",
          "type": "address"
        },
        {
          "indexed": true,
          "name": "spender",
          "type": "address"
        },
        {
          "indexed": false,
          "name": "value",
          "type": "uint256"
        }
      ],
      "name": "Approval",
      "type": "event"
    },
    {
      "constant": false,
      "inputs": [],
      "name": "mint",
      "outputs": [],
      "payable": true,
      "stateMutability": "payable",
      "type": "function"
    },
    {
      "constant": false,
      "inputs": [
        {
          "name": "_amount",
          "type": "uint256"
        }
      ],
      "name": "burn",
      "outputs": [],
      "payable": false,
      "stateMutability": "nonpayable",
      "type": "function"
    },
    {
      "constant": true,
      "inputs": [
        {
          "name": "_amount",
          "type": "uint256"
        }
      ],
      "name": "calculateContinuousMintReturn",
      "outputs": [
        {
          "name": "mintAmount",
          "type": "uint256"
        }
      ],
      "payable": false,
      "stateMutability": "view",
      "type": "function"
    },
    {
      "constant": true,
      "inputs": [
        {
          "name": "_amount",
          "type": "uint256"
        }
      ],
      "name": "calculateContinuousBurnReturn",
      "outputs": [
        {
          "name": "burnAmount",
          "type": "uint256"
        }
      ],
      "payable": false,
      "stateMutability": "view",
      "type": "function"
    }
  ],
  "bytecode": "0x60806040526040805190810160405280600381526020017f302e330000000000000000000000000000000000000000000000000000000000815250600090805190602001906200005192919062001228565b50670de0b6b3a7640000608555670de0b6b3a7640000608655608654600a026087553480156200008057600080fd5b506040516020806200490383398101806040526020811015620000a257600080fd5b8101908080519060200190929190505050701c35fedd14ffffffffffffffffffffffff60016020608081101515620000d657fe5b0181905550701b0ce43b323fffffffffffffffffffffff60016021608081101515620000fe57fe5b01819055507019f0028ec1ffffffffffffffffffffffff600160226080811015156200012657fe5b01819055507018ded91f0e7fffffffffffffffffffffff600160236080811015156200014e57fe5b01819055507017d8ec7f0417ffffffffffffffffffffff600160246080811015156200017657fe5b01819055507016ddc6556cdbffffffffffffffffffffff600160256080811015156200019e57fe5b01819055507015ecf52776a1ffffffffffffffffffffff60016026608081101515620001c657fe5b01819055507015060c256cb2ffffffffffffffffffffff60016027608081101515620001ee57fe5b0181905550701428a2f98d72ffffffffffffffffffffff600160286080811015156200021657fe5b01819055507013545598e5c23fffffffffffffffffffff600160296080811015156200023e57fe5b0181905550701288c4161ce1dfffffffffffffffffffff6001602a6080811015156200026657fe5b01819055507011c592761c666fffffffffffffffffffff6001602b6080811015156200028e57fe5b018190555070110a688680a757ffffffffffffffffffff6001602c608081101515620002b657fe5b0181905550701056f1b5bedf77ffffffffffffffffffff6001602d608081101515620002de57fe5b0181905550700faadceceeff8bffffffffffffffffffff6001602e6080811015156200030657fe5b0181905550700f05dc6b27edadffffffffffffffffffff6001602f6080811015156200032e57fe5b0181905550700e67a5a25da4107fffffffffffffffffff600160306080811015156200035657fe5b0181905550700dcff115b14eedffffffffffffffffffff600160316080811015156200037e57fe5b0181905550700d3e7a392431239fffffffffffffffffff60016032608081101515620003a657fe5b0181905550700cb2ff529eb71e4fffffffffffffffffff60016033608081101515620003ce57fe5b0181905550700c2d415c3db974afffffffffffffffffff60016034608081101515620003f657fe5b0181905550700bad03e7d883f69bffffffffffffffffff600160356080811015156200041e57fe5b0181905550700b320d03b2c343d5ffffffffffffffffff600160366080811015156200044657fe5b0181905550700abc25204e02828dffffffffffffffffff600160376080811015156200046e57fe5b0181905550700a4b16f74ee4bb207fffffffffffffffff600160386080811015156200049657fe5b01819055507009deaf736ac1f569ffffffffffffffffff60016039608081101515620004be57fe5b0181905550700976bd9952c7aa957fffffffffffffffff6001603a608081101515620004e657fe5b01819055507009131271922eaa606fffffffffffffffff6001603b6080811015156200050e57fe5b01819055507008b380f3558668c46fffffffffffffffff6001603c6080811015156200053657fe5b0181905550700857ddf0117efa215bffffffffffffffff6001603d6080811015156200055e57fe5b01819055507007ffffffffffffffffffffffffffffffff6001603e6080811015156200058657fe5b01819055507007abbf6f6abb9d087fffffffffffffffff6001603f608081101515620005ae57fe5b018190555070075af62cbac95f7dfa7fffffffffffffff60016040608081101515620005d657fe5b018190555070070d7fb7452e187ac13fffffffffffffff60016041608081101515620005fe57fe5b01819055507006c3390ecc8af379295fffffffffffffff600160426080811015156200062657fe5b018190555070067c00a3b07ffc01fd6fffffffffffffff600160436080811015156200064e57fe5b0181905550700637b647c39cbb9d3d27ffffffffffffff600160446080811015156200067657fe5b01819055507005f63b1fc104dbd39587ffffffffffffff600160456080811015156200069e57fe5b01819055507005b771955b36e12f7235ffffffffffffff60016046608081101515620006c657fe5b018190555070057b3d49dda84556d6f6ffffffffffffff60016047608081101515620006ee57fe5b018190555070054183095b2c8ececf30ffffffffffffff600160486080811015156200071657fe5b018190555070050a28be635ca2b888f77fffffffffffff600160496080811015156200073e57fe5b01819055507004d5156639708c9db33c3fffffffffffff6001604a6080811015156200076657fe5b01819055507004a23105873875bd52dfdfffffffffffff6001604b6080811015156200078e57fe5b0181905550700471649d87199aa990756fffffffffffff6001604c608081101515620007b657fe5b01819055507004429a21a029d4c1457cfbffffffffffff6001604d608081101515620007de57fe5b0181905550700415bc6d6fb7dd71af2cb3ffffffffffff6001604e6080811015156200080657fe5b01819055507003eab73b3bbfe282243ce1ffffffffffff6001604f6080811015156200082e57fe5b01819055507003c1771ac9fb6b4c18e229ffffffffffff600160506080811015156200085657fe5b0181905550700399e96897690418f785257fffffffffff600160516080811015156200087e57fe5b0181905550700373fc456c53bb779bf0ea9fffffffffff60016052608081101515620008a657fe5b018190555070034f9e8e490c48e67e6ab8bfffffffffff60016053608081101515620008ce57fe5b018190555070032cbfd4a7adc790560b3337ffffffffff60016054608081101515620008f657fe5b018190555070030b50570f6e5d2acca94613ffffffffff600160556080811015156200091e57fe5b01819055507002eb40f9f620fda6b56c2861ffffffffff600160566080811015156200094657fe5b01819055507002cc8340ecb0d0f520a6af58ffffffffff600160576080811015156200096e57fe5b01819055507002af09481380a0a35cf1ba02ffffffffff600160586080811015156200099657fe5b0181905550700292c5bdd3b92ec810287b1b3fffffffff60016059608081101515620009be57fe5b0181905550700277abdcdab07d5a77ac6d6b9fffffffff6001605a608081101515620009e657fe5b018190555070025daf6654b1eaa55fd64df5efffffffff6001605b60808110151562000a0e57fe5b0181905550700244c49c648baa98192dce88b7ffffffff6001605c60808110151562000a3657fe5b018190555070022ce03cd5619a311b2471268bffffffff6001605d60808110151562000a5e57fe5b0181905550700215f77c045fbe885654a44a0fffffffff6001605e60808110151562000a8657fe5b01819055507001ffffffffffffffffffffffffffffffff6001605f60808110151562000aae57fe5b01819055507001eaefdbdaaee7421fc4d3ede5ffffffff6001606060808110151562000ad657fe5b01819055507001d6bd8b2eb257df7e8ca57b09bfffffff6001606160808110151562000afe57fe5b01819055507001c35fedd14b861eb0443f7f133fffffff6001606260808110151562000b2657fe5b01819055507001b0ce43b322bcde4a56e8ada5afffffff6001606360808110151562000b4e57fe5b018190555070019f0028ec1fff007f5a195a39dfffffff6001606460808110151562000b7657fe5b018190555070018ded91f0e72ee74f49b15ba527ffffff6001606560808110151562000b9e57fe5b018190555070017d8ec7f04136f4e5615fd41a63ffffff6001606660808110151562000bc657fe5b018190555070016ddc6556cdb84bdc8d12d22e6fffffff6001606760808110151562000bee57fe5b018190555070015ecf52776a1155b5bd8395814f7fffff6001606860808110151562000c1657fe5b018190555070015060c256cb23b3b3cc3754cf40ffffff6001606960808110151562000c3e57fe5b01819055507001428a2f98d728ae223ddab715be3fffff6001606a60808110151562000c6657fe5b018190555070013545598e5c23276ccf0ede68034fffff6001606b60808110151562000c8e57fe5b01819055507001288c4161ce1d6f54b7f61081194fffff6001606c60808110151562000cb657fe5b018190555070011c592761c666aa641d5a01a40f17ffff6001606d60808110151562000cde57fe5b0181905550700110a688680a7530515f3e6e6cfdcdffff6001606e60808110151562000d0657fe5b01819055507001056f1b5bedf75c6bcb2ce8aed428ffff6001606f60808110151562000d2e57fe5b01819055506ffaadceceeff8a0890f3875f008277fff6001607060808110151562000d5557fe5b01819055506ff05dc6b27edad306388a600f6ba0bfff6001607160808110151562000d7c57fe5b01819055506fe67a5a25da41063de1495d5b18cdbfff6001607260808110151562000da357fe5b01819055506fdcff115b14eedde6fc3aa5353f2e4fff6001607360808110151562000dca57fe5b01819055506fd3e7a3924312399f9aae2e0f868f8fff6001607460808110151562000df157fe5b01819055506fcb2ff529eb71e41582cccd5a1ee26fff6001607560808110151562000e1857fe5b01819055506fc2d415c3db974ab32a51840c0b67edff6001607660808110151562000e3f57fe5b01819055506fbad03e7d883f69ad5b0a186184e06bff6001607760808110151562000e6657fe5b01819055506fb320d03b2c343d4829abd6075f0cc5ff6001607860808110151562000e8d57fe5b01819055506fabc25204e02828d73c6e80bcdb1a95bf6001607960808110151562000eb457fe5b01819055506fa4b16f74ee4bb2040a1ec6c15fbbf2df6001607a60808110151562000edb57fe5b01819055506f9deaf736ac1f569deb1b5ae3f36c130f6001607b60808110151562000f0257fe5b01819055506f976bd9952c7aa957f5937d790ef650376001607c60808110151562000f2957fe5b01819055506f9131271922eaa6064b73a22d0bd4f2bf6001607d60808110151562000f5057fe5b01819055506f8b380f3558668c46c91c49a2f8e967b96001607e60808110151562000f7757fe5b01819055506f857ddf0117efa215952912839f6473e66001607f60808110151562000f9e57fe5b018190555033608160006101000a81548173ffffffffffffffffffffffffffffffffffffffff021916908373ffffffffffffffffffffffffffffffffffffffff160217905550608160009054906101000a900473ffffffffffffffffffffffffffffffffffffffff1673ffffffffffffffffffffffffffffffffffffffff16600073ffffffffffffffffffffffffffffffffffffffff167f8be0079c531659141344cd1fd0a4f28419497f9722a3daafe3b4186f6b6457e060405160405180910390a38060888190555062001088336086546001026200108f640100000000026401000000009004565b50620012d7565b600073ffffffffffffffffffffffffffffffffffffffff168273ffffffffffffffffffffffffffffffffffffffff1614151515620010cc57600080fd5b620010f181608454620012066401000000000262001b8a179091906401000000009004565b6084819055506200115981608260008573ffffffffffffffffffffffffffffffffffffffff1673ffffffffffffffffffffffffffffffffffffffff16815260200190815260200160002054620012066401000000000262001b8a179091906401000000009004565b608260008473ffffffffffffffffffffffffffffffffffffffff1673ffffffffffffffffffffffffffffffffffffffff168152602001908152602001600020819055508173ffffffffffffffffffffffffffffffffffffffff16600073ffffffffffffffffffffffffffffffffffffffff167fddf252ad1be2c89b69c2b068fc378daa952ba7f163c4a11628f55a4df523b3ef836040518082815260200191505060405180910390a35050565b60008082840190508381101515156200121e57600080fd5b8091505092915050565b828054600181600116156101000203166002900490600052602060002090601f016020900481019282601f106200126b57805160ff19168380011785556200129c565b828001600101855582156200129c579182015b828111156200129b5782518255916020019190600101906200127e565b5b509050620012ab9190620012af565b5090565b620012d491905b80821115620012d0576000816000905550600101620012b6565b5090565b90565b61361c80620012e76000396000f3fe608060405260043610610168576000357c01000000000000000000000000000000000000000000000000000000009004806370a08231116100d3578063a457c2d71161008c578063a457c2d7146106f2578063a9059cbb14610765578063d2fa635e146107d8578063dd62ed3e14610813578063f2fde38b14610898578063f51e181a146108e957610168565b806370a0823114610576578063715018a6146105db5780638da5cb5b146105f25780638f32d59b1461064957806390f0c2ea14610678578063a10954fe146106c757610168565b806329a00e7c1161012557806329a00e7c14610327578063395093511461039a5780633de39c111461040d57806342966c681461043857806349f9b0f71461047357806354fd4d50146104e657610168565b8063095ea7b3146101725780630c7d5cd8146101e55780631249c58b1461021057806318160ddd1461021a57806323b872dd1461024557806328c3d701146102d8575b610170610914565b005b34801561017e57600080fd5b506101cb6004803603604081101561019557600080fd5b81019080803573ffffffffffffffffffffffffffffffffffffffff169060200190929190803590602001909291905050506109f6565b604051808215151515815260200191505060405180910390f35b3480156101f157600080fd5b506101fa610b23565b6040518082815260200191505060405180910390f35b610218610914565b005b34801561022657600080fd5b5061022f610b29565b6040518082815260200191505060405180910390f35b34801561025157600080fd5b506102be6004803603606081101561026857600080fd5b81019080803573ffffffffffffffffffffffffffffffffffffffff169060200190929190803573ffffffffffffffffffffffffffffffffffffffff16906020019092919080359060200190929190505050610b33565b604051808215151515815260200191505060405180910390f35b3480156102e457600080fd5b50610311600480360360208110156102fb57600080fd5b8101908080359060200190929190505050610d3b565b6040518082815260200191505060405180910390f35b34801561033357600080fd5b506103846004803603608081101561034a57600080fd5b810190808035906020019092919080359060200190929190803563ffffffff16906020019092919080359060200190929190505050610d5b565b6040518082815260200191505060405180910390f35b3480156103a657600080fd5b506103f3600480360360408110156103bd57600080fd5b81019080803573ffffffffffffffffffffffffffffffffffffffff16906020019092919080359060200190929190505050610e64565b604051808215151515815260200191505060405180910390f35b34801561041957600080fd5b5061042261109b565b6040518082815260200191505060405180910390f35b34801561044457600080fd5b506104716004803603602081101561045b57600080fd5b81019080803590602001909291905050506110a1565b005b34801561047f57600080fd5b506104d06004803603608081101561049657600080fd5b810190808035906020019092919080359060200190929190803563ffffffff16906020019092919080359060200190929190505050611156565b6040518082815260200191505060405180910390f35b3480156104f257600080fd5b506104fb61128e565b6040518080602001828103825283818151815260200191508051906020019080838360005b8381101561053b578082015181840152602081019050610520565b50505050905090810190601f1680156105685780820380516001836020036101000a031916815260200191505b509250505060405180910390f35b34801561058257600080fd5b506105c56004803603602081101561059957600080fd5b81019080803573ffffffffffffffffffffffffffffffffffffffff16906020019092919050505061132c565b6040518082815260200191505060405180910390f35b3480156105e757600080fd5b506105f0611375565b005b3480156105fe57600080fd5b50610607611449565b604051808273ffffffffffffffffffffffffffffffffffffffff1673ffffffffffffffffffffffffffffffffffffffff16815260200191505060405180910390f35b34801561065557600080fd5b5061065e611473565b604051808215151515815260200191505060405180910390f35b34801561068457600080fd5b506106b16004803603602081101561069b57600080fd5b81019080803590602001909291905050506114cb565b6040518082815260200191505060405180910390f35b3480156106d357600080fd5b506106dc6114eb565b6040518082815260200191505060405180910390f35b3480156106fe57600080fd5b5061074b6004803603604081101561071557600080fd5b81019080803573ffffffffffffffffffffffffffffffffffffffff169060200190929190803590602001909291905050506114f1565b604051808215151515815260200191505060405180910390f35b34801561077157600080fd5b506107be6004803603604081101561078857600080fd5b81019080803573ffffffffffffffffffffffffffffffffffffffff16906020019092919080359060200190929190505050611728565b604051808215151515815260200191505060405180910390f35b3480156107e457600080fd5b50610811600480360360208110156107fb57600080fd5b810190808035906020019092919050505061173f565b005b34801561081f57600080fd5b506108826004803603604081101561083657600080fd5b81019080803573ffffffffffffffffffffffffffffffffffffffff169060200190929190803573ffffffffffffffffffffffffffffffffffffffff16906020019092919050505061175c565b6040518082815260200191505060405180910390f35b3480156108a457600080fd5b506108e7600480360360208110156108bb57600080fd5b81019080803573ffffffffffffffffffffffffffffffffffffffff1690602001909291905050506117e3565b005b3480156108f557600080fd5b506108fe611802565b6040518082815260200191505060405180910390f35b6085543a11151515610971576040517f08c379a00000000000000000000000000000000000000000000000000000000081526004018080602001828103825260368152602001806135bb6036913960400191505060405180910390fd5b6000341115156109e9576040517f08c379a000000000000000000000000000000000000000000000000000000000815260040180806020018281038252601e8152602001807f4d7573742073656e6420657468657220746f2062757920746f6b656e732e000081525060200191505060405180910390fd5b6109f33433611808565b50565b60008073ffffffffffffffffffffffffffffffffffffffff168373ffffffffffffffffffffffffffffffffffffffff1614151515610a3357600080fd5b81608360003373ffffffffffffffffffffffffffffffffffffffff1673ffffffffffffffffffffffffffffffffffffffff16815260200190815260200160002060008573ffffffffffffffffffffffffffffffffffffffff1673ffffffffffffffffffffffffffffffffffffffff168152602001908152602001600020819055508273ffffffffffffffffffffffffffffffffffffffff163373ffffffffffffffffffffffffffffffffffffffff167f8c5be1e5ebec7d5bd14f71427d1e84f3dd0314c0f7b2291e5b200ac8c7c3b925846040518082815260200191505060405180910390a36001905092915050565b60885481565b6000608454905090565b6000610bc482608360008773ffffffffffffffffffffffffffffffffffffffff1673ffffffffffffffffffffffffffffffffffffffff16815260200190815260200160002060003373ffffffffffffffffffffffffffffffffffffffff1673ffffffffffffffffffffffffffffffffffffffff1681526020019081526020016000205461193090919063ffffffff16565b608360008673ffffffffffffffffffffffffffffffffffffffff1673ffffffffffffffffffffffffffffffffffffffff16815260200190815260200160002060003373ffffffffffffffffffffffffffffffffffffffff1673ffffffffffffffffffffffffffffffffffffffff16815260200190815260200160002081905550610c4f848484611952565b3373ffffffffffffffffffffffffffffffffffffffff168473ffffffffffffffffffffffffffffffffffffffff167f8c5be1e5ebec7d5bd14f71427d1e84f3dd0314c0f7b2291e5b200ac8c7c3b925608360008873ffffffffffffffffffffffffffffffffffffffff1673ffffffffffffffffffffffffffffffffffffffff16815260200190815260200160002060003373ffffffffffffffffffffffffffffffffffffffff1673ffffffffffffffffffffffffffffffffffffffff168152602001908152602001600020546040518082815260200191505060405180910390a3600190509392505050565b6000610d54610d48610b29565b60875460885485610d5b565b9050919050565b60008085118015610d6c5750600084115b8015610d7e575060008363ffffffff16115b8015610d9a57506305f5e10063ffffffff168363ffffffff1611155b1515610da557600080fd5b6000821415610db75760009050610e5c565b6305f5e10063ffffffff168363ffffffff161415610dfb57610df484610de68488611b2290919063ffffffff16565b611b6090919063ffffffff16565b9050610e5c565b6000806000610e138786611b8a90919063ffffffff16565b9050610e258188886305f5e100611bab565b809350819450505060008260ff16610e46858b611b2290919063ffffffff16565b908060020a820491505090508881039450505050505b949350505050565b60008073ffffffffffffffffffffffffffffffffffffffff168373ffffffffffffffffffffffffffffffffffffffff1614151515610ea157600080fd5b610f3082608360003373ffffffffffffffffffffffffffffffffffffffff1673ffffffffffffffffffffffffffffffffffffffff16815260200190815260200160002060008673ffffffffffffffffffffffffffffffffffffffff1673ffffffffffffffffffffffffffffffffffffffff16815260200190815260200160002054611b8a90919063ffffffff16565b608360003373ffffffffffffffffffffffffffffffffffffffff1673ffffffffffffffffffffffffffffffffffffffff16815260200190815260200160002060008573ffffffffffffffffffffffffffffffffffffffff1673ffffffffffffffffffffffffffffffffffffffff168152602001908152602001600020819055508273ffffffffffffffffffffffffffffffffffffffff163373ffffffffffffffffffffffffffffffffffffffff167f8c5be1e5ebec7d5bd14f71427d1e84f3dd0314c0f7b2291e5b200ac8c7c3b925608360003373ffffffffffffffffffffffffffffffffffffffff1673ffffffffffffffffffffffffffffffffffffffff16815260200190815260200160002060008773ffffffffffffffffffffffffffffffffffffffff1673ffffffffffffffffffffffffffffffffffffffff168152602001908152602001600020546040518082815260200191505060405180910390a36001905092915050565b60855481565b6085543a111515156110fe576040517f08c379a00000000000000000000000000000000000000000000000000000000081526004018080602001828103825260368152602001806135bb6036913960400191505060405180910390fd5b600061110982611d8f565b90503373ffffffffffffffffffffffffffffffffffffffff166108fc829081150290604051600060405180830381858888f19350505050158015611151573d6000803e3d6000fd5b505050565b600080851180156111675750600084115b8015611179575060008363ffffffff16115b801561119557506305f5e10063ffffffff168363ffffffff1611155b80156111a15750848211155b15156111ac57600080fd5b60008214156111be5760009050611286565b848214156111ce57839050611286565b6305f5e10063ffffffff168363ffffffff1614156112125761120b856111fd8487611b2290919063ffffffff16565b611b6090919063ffffffff16565b9050611286565b6000806000848803905061122c88826305f5e10089611bab565b809350819450505060006112498489611b2290919063ffffffff16565b905060008360ff16899060020a02905061127e85611270838561193090919063ffffffff16565b611b6090919063ffffffff16565b955050505050505b949350505050565b60008054600181600116156101000203166002900480601f0160208091040260200160405190810160405280929190818152602001828054600181600116156101000203166002900480156113245780601f106112f957610100808354040283529160200191611324565b820191906000526020600020905b81548152906001019060200180831161130757829003601f168201915b505050505081565b6000608260008373ffffffffffffffffffffffffffffffffffffffff1673ffffffffffffffffffffffffffffffffffffffff168152602001908152602001600020549050919050565b61137d611473565b151561138857600080fd5b600073ffffffffffffffffffffffffffffffffffffffff16608160009054906101000a900473ffffffffffffffffffffffffffffffffffffffff1673ffffffffffffffffffffffffffffffffffffffff167f8be0079c531659141344cd1fd0a4f28419497f9722a3daafe3b4186f6b6457e060405160405180910390a36000608160006101000a81548173ffffffffffffffffffffffffffffffffffffffff021916908373ffffffffffffffffffffffffffffffffffffffff160217905550565b6000608160009054906101000a900473ffffffffffffffffffffffffffffffffffffffff16905090565b6000608160009054906101000a900473ffffffffffffffffffffffffffffffffffffffff1673ffffffffffffffffffffffffffffffffffffffff163373ffffffffffffffffffffffffffffffffffffffff1614905090565b60006114e46114d8610b29565b60875460885485611156565b9050919050565b60875481565b60008073ffffffffffffffffffffffffffffffffffffffff168373ffffffffffffffffffffffffffffffffffffffff161415151561152e57600080fd5b6115bd82608360003373ffffffffffffffffffffffffffffffffffffffff1673ffffffffffffffffffffffffffffffffffffffff16815260200190815260200160002060008673ffffffffffffffffffffffffffffffffffffffff1673ffffffffffffffffffffffffffffffffffffffff1681526020019081526020016000205461193090919063ffffffff16565b608360003373ffffffffffffffffffffffffffffffffffffffff1673ffffffffffffffffffffffffffffffffffffffff16815260200190815260200160002060008573ffffffffffffffffffffffffffffffffffffffff1673ffffffffffffffffffffffffffffffffffffffff168152602001908152602001600020819055508273ffffffffffffffffffffffffffffffffffffffff163373ffffffffffffffffffffffffffffffffffffffff167f8c5be1e5ebec7d5bd14f71427d1e84f3dd0314c0f7b2291e5b200ac8c7c3b925608360003373ffffffffffffffffffffffffffffffffffffffff1673ffffffffffffffffffffffffffffffffffffffff16815260200190815260200160002060008773ffffffffffffffffffffffffffffffffffffffff1673ffffffffffffffffffffffffffffffffffffffff168152602001908152602001600020546040518082815260200191505060405180910390a36001905092915050565b6000611735338484611952565b6001905092915050565b611747611473565b151561175257600080fd5b8060858190555050565b6000608360008473ffffffffffffffffffffffffffffffffffffffff1673ffffffffffffffffffffffffffffffffffffffff16815260200190815260200160002060008373ffffffffffffffffffffffffffffffffffffffff1673ffffffffffffffffffffffffffffffffffffffff16815260200190815260200160002054905092915050565b6117eb611473565b15156117f657600080fd5b6117ff81611f36565b50565b60865481565b60008083111515611881576040517f08c379a00000000000000000000000000000000000000000000000000000000081526004018080602001828103825260198152602001807f4465706f736974206d757374206265206e6f6e2d7a65726f2e0000000000000081525060200191505060405180910390fd5b600061188c84610d3b565b90506118988382612032565b6118ad84608754611b8a90919063ffffffff16565b6087819055507fa9b5c37908cbe11fc228c10af0ce98bf944b069510207388ac875a3d2a314bbe838286604051808473ffffffffffffffffffffffffffffffffffffffff1673ffffffffffffffffffffffffffffffffffffffff168152602001838152602001828152602001935050505060405180910390a18091505092915050565b600082821115151561194157600080fd5b600082840390508091505092915050565b600073ffffffffffffffffffffffffffffffffffffffff168273ffffffffffffffffffffffffffffffffffffffff161415151561198e57600080fd5b6119e081608260008673ffffffffffffffffffffffffffffffffffffffff1673ffffffffffffffffffffffffffffffffffffffff1681526020019081526020016000205461193090919063ffffffff16565b608260008573ffffffffffffffffffffffffffffffffffffffff1673ffffffffffffffffffffffffffffffffffffffff16815260200190815260200160002081905550611a7581608260008573ffffffffffffffffffffffffffffffffffffffff1673ffffffffffffffffffffffffffffffffffffffff16815260200190815260200160002054611b8a90919063ffffffff16565b608260008473ffffffffffffffffffffffffffffffffffffffff1673ffffffffffffffffffffffffffffffffffffffff168152602001908152602001600020819055508173ffffffffffffffffffffffffffffffffffffffff168373ffffffffffffffffffffffffffffffffffffffff167fddf252ad1be2c89b69c2b068fc378daa952ba7f163c4a11628f55a4df523b3ef836040518082815260200191505060405180910390a3505050565b600080831415611b355760009050611b5a565b60008284029050828482811515611b4857fe5b04141515611b5557600080fd5b809150505b92915050565b60008082111515611b7057600080fd5b60008284811515611b7d57fe5b0490508091505092915050565b6000808284019050838110151515611ba157600080fd5b8091505092915050565b60008070020000000000000000000000000000000086101515611c36576040517f08c379a00000000000000000000000000000000000000000000000000000000081526004018080602001828103825260188152602001807f626173654e2065786365656473206d61782076616c75652e000000000000000081525060200191505060405180910390fd5b848610151515611cae576040517f08c379a000000000000000000000000000000000000000000000000000000000815260040180806020018281038252601c8152602001807f4261736573203c203120617265206e6f7420737570706f727465642e0000000081525060200191505060405180910390fd5b600080866f800000000000000000000000000000008902811515611cce57fe5b04905070015bf0a8b1457695355fb8ac404e7a79e3811015611cfa57611cf381612188565b9150611d06565b611d0381612758565b91505b60008563ffffffff168763ffffffff168402811515611d2157fe5b049050700800000000000000000000000000000000811015611d5457611d468161289d565b607f94509450505050611d86565b6000611d5f82612e5d565b9050611d7c81607f0360ff1683908060020a820491505082612f22565b8195509550505050505b94509492505050565b60008082111515611e08576040517f08c379a00000000000000000000000000000000000000000000000000000000081526004018080602001828103825260188152602001807f416d6f756e74206d757374206265206e6f6e2d7a65726f2e000000000000000081525060200191505060405180910390fd5b81611e123361132c565b10151515611e88576040517f08c379a000000000000000000000000000000000000000000000000000000000815260040180806020018281038252601c8152602001807f496e73756666696369656e7420746f6b656e7320746f206275726e2e0000000081525060200191505060405180910390fd5b6000611e93836114cb565b9050611eaa8160875461193090919063ffffffff16565b608781905550611eba33846133c5565b7f42cdee5ad59c78ee53adb50e8d3f4b66918ce660505ab55abb44035e4c79ad1d338483604051808473ffffffffffffffffffffffffffffffffffffffff1673ffffffffffffffffffffffffffffffffffffffff168152602001838152602001828152602001935050505060405180910390a180915050919050565b600073ffffffffffffffffffffffffffffffffffffffff168173ffffffffffffffffffffffffffffffffffffffff1614151515611f7257600080fd5b8073ffffffffffffffffffffffffffffffffffffffff16608160009054906101000a900473ffffffffffffffffffffffffffffffffffffffff1673ffffffffffffffffffffffffffffffffffffffff167f8be0079c531659141344cd1fd0a4f28419497f9722a3daafe3b4186f6b6457e060405160405180910390a380608160006101000a81548173ffffffffffffffffffffffffffffffffffffffff021916908373ffffffffffffffffffffffffffffffffffffffff16021790555050565b600073ffffffffffffffffffffffffffffffffffffffff168273ffffffffffffffffffffffffffffffffffffffff161415151561206e57600080fd5b61208381608454611b8a90919063ffffffff16565b6084819055506120db81608260008573ffffffffffffffffffffffffffffffffffffffff1673ffffffffffffffffffffffffffffffffffffffff16815260200190815260200160002054611b8a90919063ffffffff16565b608260008473ffffffffffffffffffffffffffffffffffffffff1673ffffffffffffffffffffffffffffffffffffffff168152602001908152602001600020819055508173ffffffffffffffffffffffffffffffffffffffff16600073ffffffffffffffffffffffffffffffffffffffff167fddf252ad1be2c89b69c2b068fc378daa952ba7f163c4a11628f55a4df523b3ef836040518082815260200191505060405180910390a35050565b6000806000905060008060006fd3094c70f034de4b96ff7d5b6f99fcd8861015156121f3576f40000000000000000000000000000000840193506fd3094c70f034de4b96ff7d5b6f99fcd86f8000000000000000000000000000000087028115156121ef57fe5b0495505b6fa45af1e1f40c333b3de1db4dd55f29a786101515612252576f20000000000000000000000000000000840193506fa45af1e1f40c333b3de1db4dd55f29a76f80000000000000000000000000000000870281151561224e57fe5b0495505b6f910b022db7ae67ce76b441c27035c6a1861015156122b1576f10000000000000000000000000000000840193506f910b022db7ae67ce76b441c27035c6a16f8000000000000000000000000000000087028115156122ad57fe5b0495505b6f88415abbe9a76bead8d00cf112e4d4a886101515612310576f08000000000000000000000000000000840193506f88415abbe9a76bead8d00cf112e4d4a86f80000000000000000000000000000000870281151561230c57fe5b0495505b6f84102b00893f64c705e841d5d4064bd38610151561236f576f04000000000000000000000000000000840193506f84102b00893f64c705e841d5d4064bd36f80000000000000000000000000000000870281151561236b57fe5b0495505b6f8204055aaef1c8bd5c3259f4822735a2861015156123ce576f02000000000000000000000000000000840193506f8204055aaef1c8bd5c3259f4822735a26f8000000000000000000000000000000087028115156123ca57fe5b0495505b6f810100ab00222d861931c15e39b44e998610151561242d576f01000000000000000000000000000000840193506f810100ab00222d861931c15e39b44e996f80000000000000000000000000000000870281151561242957fe5b0495505b6f808040155aabbbe9451521693554f7338610151561248b576e800000000000000000000000000000840193506f808040155aabbbe9451521693554f7336f80000000000000000000000000000000870281151561248757fe5b0495505b6f80000000000000000000000000000000860392508291506f800000000000000000000000000000008384028115156124c057fe5b049050700100000000000000000000000000000000837001000000000000000000000000000000000383028115156124f457fe5b04840193506f8000000000000000000000000000000081830281151561251657fe5b049150700200000000000000000000000000000000836faaaaaaaaaaaaaaaaaaaaaaaaaaaaaaaa03830281151561254957fe5b04840193506f8000000000000000000000000000000081830281151561256b57fe5b049150700300000000000000000000000000000000836f9999999999999999999999999999999903830281151561259e57fe5b04840193506f800000000000000000000000000000008183028115156125c057fe5b049150700400000000000000000000000000000000836f924924924924924924924924924924920383028115156125f357fe5b04840193506f8000000000000000000000000000000081830281151561261557fe5b049150700500000000000000000000000000000000836f8e38e38e38e38e38e38e38e38e38e38e03830281151561264857fe5b04840193506f8000000000000000000000000000000081830281151561266a57fe5b049150700600000000000000000000000000000000836f8ba2e8ba2e8ba2e8ba2e8ba2e8ba2e8b03830281151561269d57fe5b04840193506f800000000000000000000000000000008183028115156126bf57fe5b049150700700000000000000000000000000000000836f89d89d89d89d89d89d89d89d89d89d890383028115156126f257fe5b04840193506f8000000000000000000000000000000081830281151561271457fe5b049150700800000000000000000000000000000000836f8888888888888888888888888888888803830281151561274757fe5b048401935083945050505050919050565b600080600090506000839050700100000000000000000000000000000000811015156127d15760006127a46f800000000000000000000000000000008381151561279e57fe5b0461351b565b90508060ff1682908060020a820491505091506f800000000000000000000000000000008160ff16029250505b6f80000000000000000000000000000000811115612866576000607f90505b60008160ff161115612864576f8000000000000000000000000000000082830281151561281957fe5b0491507001000000000000000000000000000000008210151561285857600182908060020a820491505091506001810360ff1660019060020a02830192505b806001900390506127f0565b505b6f05b9de1d10bf4103d647b0955897ba806f03f80fe03f80fe03f80fe03f80fe03f8830281151561289357fe5b0492505050919050565b600080600090506000806f10000000000000000000000000000000858115156128c257fe5b0691508190506f800000000000000000000000000000008282028115156128e557fe5b0490506710e1b3be415a00008102830192506f8000000000000000000000000000000082820281151561291457fe5b0490506705a0913f6b1e00008102830192506f8000000000000000000000000000000082820281151561294357fe5b049050670168244fdac780008102830192506f8000000000000000000000000000000082820281151561297257fe5b049050664807432bc180008102830192506f800000000000000000000000000000008282028115156129a057fe5b049050660c0135dca040008102830192506f800000000000000000000000000000008282028115156129ce57fe5b0490506601b707b1cdc0008102830192506f800000000000000000000000000000008282028115156129fc57fe5b0490506536e0f639b8008102830192506f80000000000000000000000000000000828202811515612a2957fe5b049050650618fee9f8008102830192506f80000000000000000000000000000000828202811515612a5657fe5b049050649c197dcc008102830192506f80000000000000000000000000000000828202811515612a8257fe5b049050640e30dce4008102830192506f80000000000000000000000000000000828202811515612aae57fe5b04905064012ebd13008102830192506f80000000000000000000000000000000828202811515612ada57fe5b0490506317499f008102830192506f80000000000000000000000000000000828202811515612b0557fe5b0490506301a9d4808102830192506f80000000000000000000000000000000828202811515612b3057fe5b049050621c63808102830192506f80000000000000000000000000000000828202811515612b5a57fe5b0490506201c6388102830192506f80000000000000000000000000000000828202811515612b8457fe5b049050611ab88102830192506f80000000000000000000000000000000828202811515612bad57fe5b04905061017c8102830192506f80000000000000000000000000000000828202811515612bd657fe5b04905060148102830192506f80000000000000000000000000000000828202811515612bfe57fe5b04905060018102830192506f80000000000000000000000000000000826721c3677c82b4000085811515612c2e57fe5b040101925060006f100000000000000000000000000000008616141515612c825770018ebef9eac820ae8682b9793ac6d1e7767001c3d6a24ed82218787d624d3e5eba95f98402811515612c7e57fe5b0492505b60006f200000000000000000000000000000008616141515612cd1577001368b2fc6f9609fe7aceb46aa619baed470018ebef9eac820ae8682b9793ac6d1e7788402811515612ccd57fe5b0492505b60006f400000000000000000000000000000008616141515612d1f576fbc5ab1b16779be3575bd8f0520a9f21f7001368b2fc6f9609fe7aceb46aa619baed58402811515612d1b57fe5b0492505b60006f800000000000000000000000000000008616141515612d6c576f454aaa8efe072e7f6ddbab84b40a55c96fbc5ab1b16779be3575bd8f0520a9f21e8402811515612d6857fe5b0492505b60007001000000000000000000000000000000008616141515612dba576f0960aadc109e7a3bf4578099615711ea6f454aaa8efe072e7f6ddbab84b40a55c58402811515612db657fe5b0492505b60007002000000000000000000000000000000008616141515612e07576e2bf84208204f5977f9a8cf01fdce3d6f0960aadc109e7a3bf4578099615711d78402811515612e0357fe5b0492505b60007004000000000000000000000000000000008616141515612e52576d03c6ab775dd0b95b4cbee7e65d116e2bf84208204f5977f9a8cf01fdc3078402811515612e4e57fe5b0492505b829350505050919050565b600080602090506000607f90505b8060ff166001830160ff161015612ec0576000600282840160ff16811515612e8f57fe5b0490508460018260ff16608081101515612ea557fe5b0154101515612eb657809250612eba565b8091505b50612e6b565b8360018260ff16608081101515612ed357fe5b0154101515612ee6578092505050612f1d565b8360018360ff16608081101515612ef957fe5b0154101515612f0c578192505050612f1d565b60001515612f1657fe5b6000925050505b919050565b60008083905060008090508360ff16858302908060020a820491505091506f03442c4e6074a82f1797f72ac00000008202810190508360ff16858302908060020a820491505091506f0116b96f757c380fb287fd0e400000008202810190508360ff16858302908060020a820491505091506e45ae5bdd5f0e03eca1ff43900000008202810190508360ff16858302908060020a820491505091506e0defabf91302cd95b9ffda500000008202810190508360ff16858302908060020a820491505091506e02529ca9832b22439efff9b80000008202810190508360ff16858302908060020a820491505091506d54f1cf12bd04e516b6da880000008202810190508360ff16858302908060020a820491505091506d0a9e39e257a09ca2d6db510000008202810190508360ff16858302908060020a820491505091506d012e066e7b839fa050c3090000008202810190508360ff16858302908060020a820491505091506c1e33d7d926c329a1ad1a8000008202810190508360ff16858302908060020a820491505091506c02bee513bdb4a6b19b5f8000008202810190508360ff16858302908060020a820491505091506b3a9316fa79b88eccf2a000008202810190508360ff16858302908060020a820491505091506b048177ebe1fa8123752000008202810190508360ff16858302908060020a820491505091506a5263fe90242dcbacf000008202810190508360ff16858302908060020a820491505091506a057e22099c030d941000008202810190508360ff16858302908060020a820491505091506957e22099c030d94100008202810190508360ff16858302908060020a8204915050915069052b6b545699763100008202810190508360ff16858302908060020a82049150509150684985f67696bf7480008202810190508360ff16858302908060020a820491505091506803dea12ea99e4980008202810190508360ff16858302908060020a820491505091506731880f2214b6e0008202810190508360ff16858302908060020a8204915050915067025bcff56eb360008202810190508360ff16858302908060020a82049150509150661b722e10ab10008202810190508360ff16858302908060020a820491505091506601317c700770008202810190508360ff16858302908060020a82049150509150650cba84aafa008202810190508360ff16858302908060020a820491505091506482573a0a008202810190508360ff16858302908060020a820491505091506405035ad9008202810190508360ff16858302908060020a82049150509150632f881b008202810190508360ff16858302908060020a820491505091506301b293408202810190508360ff16858302908060020a82049150509150620efc408202810190508360ff16858302908060020a82049150509150617fe08202810190508360ff16858302908060020a820491505091506104208202810190508360ff16858302908060020a8204915050915060218202810190508360ff16858302908060020a8204915050915060018202810190508360ff1660019060020a02856f0688589cc0e9505e2f2fee5580000000838115156133b857fe5b0401019250505092915050565b600073ffffffffffffffffffffffffffffffffffffffff168273ffffffffffffffffffffffffffffffffffffffff161415151561340157600080fd5b6134168160845461193090919063ffffffff16565b60848190555061346e81608260008573ffffffffffffffffffffffffffffffffffffffff1673ffffffffffffffffffffffffffffffffffffffff1681526020019081526020016000205461193090919063ffffffff16565b608260008473ffffffffffffffffffffffffffffffffffffffff1673ffffffffffffffffffffffffffffffffffffffff16815260200190815260200160002081905550600073ffffffffffffffffffffffffffffffffffffffff168273ffffffffffffffffffffffffffffffffffffffff167fddf252ad1be2c89b69c2b068fc378daa952ba7f163c4a11628f55a4df523b3ef836040518082815260200191505060405180910390a35050565b60008060009050600083905061010081101561355a575b600181111561355557600181908060020a82049150509050600182019150613532565b6135b0565b6000608090505b60008160ff1611156135ae578060ff1660019060020a0282101515613597578060ff1682908060020a8204915050915080831792505b60018160ff16908060020a82049150509050613561565b505b819250505091905056fe5472616e73616374696f6e206761732070726963652063616e6e6f7420657863656564206d6178696d756d206761732070726963652ea165627a7a7230582003e676e5397a594d6afa104ac36daf15409db71a34806eae7a43315df8e50b670029",
  "source": "pragma solidity ^0.5.2;\n\nimport \"openzeppelin-solidity/contracts/math/SafeMath.sol\";\nimport \"openzeppelin-solidity/contracts/token/ERC20/ERC20.sol\";\nimport \"openzeppelin-solidity/contracts/ownership/Ownable.sol\";\n\nimport \"./BancorBondingCurve.sol\";\nimport \"./CappedGasPrice.sol\";\n\ncontract ContinuousToken is BancorBondingCurve, Ownable, ERC20, CappedGasPrice {\n    using SafeMath for uint256;\n\n    uint256 public scale = 10**18;\n    uint256 public reserveBalance = 10*scale;\n    uint256 public reserveRatio;\n\n    event ContinuousMint(\n        address _from,\n        uint256  _amount,\n        uint256 _deposit\n    );\n\n    event ContinuousBurn(\n        address _from,\n        uint256  _amount,\n        uint256 _reimbursement\n    );\n\n    constructor(\n        uint256 _reserveRatio\n    ) public {\n        reserveRatio = _reserveRatio;\n        _mint(msg.sender, 1*scale);\n    }\n\n    function mint() public payable validGasPrice {\n        require(msg.value > 0, \"Must send ether to buy tokens.\");\n        _continuousMint(msg.value, msg.sender);\n    }\n\n    function burn(uint256 _amount) public validGasPrice {\n        uint256 returnAmount = _continuousBurn(_amount);\n        msg.sender.transfer(returnAmount);\n    }\n\n    function () external payable  { mint(); }\n\n    function calculateContinuousMintReturn(uint256 _amount)\n        public view returns (uint256 mintAmount)\n    {\n        return calculatePurchaseReturn(totalSupply(), reserveBalance, uint32(reserveRatio), _amount);\n    }\n\n    function calculateContinuousBurnReturn(uint256 _amount)\n        public view returns (uint256 burnAmount)\n    {\n        return calculateSaleReturn(totalSupply(), reserveBalance, uint32(reserveRatio), _amount);\n    }\n\n    function _continuousMint(uint256 _deposit, address _beneficiary)\n        internal returns (uint256)\n    {\n        require(_deposit > 0, \"Deposit must be non-zero.\");\n        uint256 amount = calculateContinuousMintReturn(_deposit);\n        _mint(_beneficiary, amount);\n        reserveBalance = reserveBalance.add(_deposit);\n        emit ContinuousMint(_beneficiary, amount, _deposit);\n        return amount;\n    }\n\n    function _continuousBurn(uint256 _amount)\n        internal returns (uint256)\n    {\n        require(_amount > 0, \"Amount must be non-zero.\");\n        require(balanceOf(msg.sender) >= _amount, \"Insufficient tokens to burn.\");\n\n        uint256 reimburseAmount = calculateContinuousBurnReturn(_amount);\n        reserveBalance = reserveBalance.sub(reimburseAmount);\n        _burn(msg.sender, _amount);\n        emit ContinuousBurn(msg.sender, _amount, reimburseAmount);\n        return reimburseAmount;\n    }\n}",
  "sourcePath": "/Users/jterrazz/Projects/clean/ethparis/contracts/ContinuousToken.sol",
  "compiler": {
    "name": "solc",
    "version": "0.5.2+commit.1df8f40c.Emscripten.clang"
  },
  "schemaVersion": "3.0.2",
  "updatedAt": "2019-03-10T01:58:31.407Z",
  "devdoc": {
    "methods": {
      "allowance(address,address)": {
        "details": "Function to check the amount of tokens that an owner allowed to a spender.",
        "params": {
          "owner": "address The address which owns the funds.",
          "spender": "address The address which will spend the funds."
        },
        "return": "A uint256 specifying the amount of tokens still available for the spender."
      },
      "approve(address,uint256)": {
        "details": "Approve the passed address to spend the specified amount of tokens on behalf of msg.sender. Beware that changing an allowance with this method brings the risk that someone may use both the old and the new allowance by unfortunate transaction ordering. One possible solution to mitigate this race condition is to first reduce the spender's allowance to 0 and set the desired value afterwards: https://github.com/ethereum/EIPs/issues/20#issuecomment-263524729",
        "params": {
          "spender": "The address which will spend the funds.",
          "value": "The amount of tokens to be spent."
        }
      },
      "balanceOf(address)": {
        "details": "Gets the balance of the specified address.",
        "params": {
          "owner": "The address to query the balance of."
        },
        "return": "An uint256 representing the amount owned by the passed address."
      },
      "calculatePurchaseReturn(uint256,uint256,uint32,uint256)": {
        "details": "given a continuous token supply, reserve token balance, reserve ratio, and a deposit amount (in the reserve token), calculates the return for a given conversion (in the continuous token)   * Formula: Return = _supply * ((1 + _depositAmount / _reserveBalance) ^ (_reserveRatio / MAX_RESERVE_RATIO) - 1)",
        "params": {
          "_depositAmount": "deposit amount, in reserve token",
          "_reserveBalance": "total reserve token balance",
          "_reserveRatio": "reserve ratio, represented in ppm, 1-1000000",
          "_supply": "continuous token total supply"
        },
        "return": "purchase return amount"
      },
      "calculateSaleReturn(uint256,uint256,uint32,uint256)": {
        "details": "given a continuous token supply, reserve token balance, reserve ratio and a sell amount (in the continuous token), calculates the return for a given conversion (in the reserve token)   * Formula: Return = _reserveBalance * (1 - (1 - _sellAmount / _supply) ^ (1 / (_reserveRatio / MAX_RESERVE_RATIO)))",
        "params": {
          "_reserveBalance": "total reserve token balance",
          "_reserveRatio": "constant reserve ratio, represented in ppm, 1-1000000",
          "_sellAmount": "sell amount, in the continuous token itself",
          "_supply": "continuous token total supply"
        },
        "return": "sale return amount"
      },
      "decreaseAllowance(address,uint256)": {
        "details": "Decrease the amount of tokens that an owner allowed to a spender. approve should be called when allowed_[_spender] == 0. To decrement allowed value is better to use this function to avoid 2 calls (and wait until the first transaction is mined) From MonolithDAO Token.sol Emits an Approval event.",
        "params": {
          "spender": "The address which will spend the funds.",
          "subtractedValue": "The amount of tokens to decrease the allowance by."
        }
      },
      "increaseAllowance(address,uint256)": {
        "details": "Increase the amount of tokens that an owner allowed to a spender. approve should be called when allowed_[_spender] == 0. To increment allowed value is better to use this function to avoid 2 calls (and wait until the first transaction is mined) From MonolithDAO Token.sol Emits an Approval event.",
        "params": {
          "addedValue": "The amount of tokens to increase the allowance by.",
          "spender": "The address which will spend the funds."
        }
      },
      "isOwner()": {
        "return": "true if `msg.sender` is the owner of the contract."
      },
      "owner()": {
        "return": "the address of the owner."
      },
      "renounceOwnership()": {
        "details": "Allows the current owner to relinquish control of the contract."
      },
      "totalSupply()": {
        "details": "Total number of tokens in existence"
      },
      "transfer(address,uint256)": {
        "details": "Transfer token for a specified address",
        "params": {
          "to": "The address to transfer to.",
          "value": "The amount to be transferred."
        }
      },
      "transferFrom(address,address,uint256)": {
        "details": "Transfer tokens from one address to another. Note that while this function emits an Approval event, this is not required as per the specification, and other compliant implementations may not emit the event.",
        "params": {
          "from": "address The address which you want to send tokens from",
          "to": "address The address which you want to transfer to",
          "value": "uint256 the amount of tokens to be transferred"
        }
      },
      "transferOwnership(address)": {
        "details": "Allows the current owner to transfer control of the contract to a newOwner.",
        "params": {
          "newOwner": "The address to transfer ownership to."
        }
      }
    }
  },
  "userdoc": {
    "methods": {
      "renounceOwnership()": {
        "notice": "Renouncing to ownership will leave the contract without an owner. It will not be possible to call the functions with the `onlyOwner` modifier anymore."
      }
    }
  }
}