{
  "contractName": "DB",
  "abi": [
    {
      "constant": false,
      "inputs": [],
      "name": "renounceOwnership",
      "outputs": [],
      "payable": false,
      "stateMutability": "nonpayable",
      "type": "function"
    },
    {
      "constant": true,
      "inputs": [
        {
          "name": "",
          "type": "uint256"
        }
      ],
      "name": "permittedContractsAddresses",
      "outputs": [
        {
          "name": "",
          "type": "address"
        }
      ],
      "payable": false,
      "stateMutability": "view",
      "type": "function"
    },
    {
      "constant": false,
      "inputs": [],
      "name": "destroy",
      "outputs": [],
      "payable": false,
      "stateMutability": "nonpayable",
      "type": "function"
    },
    {
      "constant": true,
      "inputs": [],
      "name": "owner",
      "outputs": [
        {
          "name": "",
          "type": "address"
        }
      ],
      "payable": false,
      "stateMutability": "view",
      "type": "function"
    },
    {
      "constant": true,
      "inputs": [],
      "name": "isOwner",
      "outputs": [
        {
          "name": "",
          "type": "bool"
        }
      ],
      "payable": false,
      "stateMutability": "view",
      "type": "function"
    },
    {
      "constant": true,
      "inputs": [
        {
          "name": "",
          "type": "address"
        }
      ],
      "name": "permissionStatusForContract",
      "outputs": [
        {
          "name": "",
          "type": "bool"
        }
      ],
      "payable": false,
      "stateMutability": "view",
      "type": "function"
    },
    {
      "constant": false,
      "inputs": [
        {
          "name": "newOwner",
          "type": "address"
        }
      ],
      "name": "transferOwnership",
      "outputs": [],
      "payable": false,
      "stateMutability": "nonpayable",
      "type": "function"
    },
    {
      "constant": false,
      "inputs": [
        {
          "name": "_recipient",
          "type": "address"
        }
      ],
      "name": "destroyAndSend",
      "outputs": [],
      "payable": false,
      "stateMutability": "nonpayable",
      "type": "function"
    },
    {
      "inputs": [],
      "payable": false,
      "stateMutability": "nonpayable",
      "type": "constructor"
    },
    {
      "anonymous": false,
      "inputs": [
        {
          "indexed": true,
          "name": "previousOwner",
          "type": "address"
        },
        {
          "indexed": true,
          "name": "newOwner",
          "type": "address"
        }
      ],
      "name": "OwnershipTransferred",
      "type": "event"
    },
    {
      "constant": true,
      "inputs": [
        {
          "name": "recordFieldName",
          "type": "bytes32"
        }
      ],
      "name": "getAddressValue",
      "outputs": [
        {
          "name": "",
          "type": "address"
        }
      ],
      "payable": false,
      "stateMutability": "view",
      "type": "function"
    },
    {
      "constant": false,
      "inputs": [
        {
          "name": "recordFieldName",
          "type": "bytes32"
        },
        {
          "name": "value",
          "type": "address"
        }
      ],
      "name": "setAddressValue",
      "outputs": [],
      "payable": false,
      "stateMutability": "nonpayable",
      "type": "function"
    },
    {
      "constant": false,
      "inputs": [
        {
          "name": "recordFieldName",
          "type": "bytes32"
        }
      ],
      "name": "deleteAddressValue",
      "outputs": [],
      "payable": false,
      "stateMutability": "nonpayable",
      "type": "function"
    },
    {
      "constant": true,
      "inputs": [
        {
          "name": "recordFieldName",
          "type": "bytes32"
        }
      ],
      "name": "getBoolValue",
      "outputs": [
        {
          "name": "",
          "type": "bool"
        }
      ],
      "payable": false,
      "stateMutability": "view",
      "type": "function"
    },
    {
      "constant": false,
      "inputs": [
        {
          "name": "recordFieldName",
          "type": "bytes32"
        },
        {
          "name": "value",
          "type": "bool"
        }
      ],
      "name": "setBoolValue",
      "outputs": [],
      "payable": false,
      "stateMutability": "nonpayable",
      "type": "function"
    },
    {
      "constant": false,
      "inputs": [
        {
          "name": "recordFieldName",
          "type": "bytes32"
        }
      ],
      "name": "deleteBoolValue",
      "outputs": [],
      "payable": false,
      "stateMutability": "nonpayable",
      "type": "function"
    },
    {
      "constant": true,
      "inputs": [
        {
          "name": "recordFieldName",
          "type": "bytes32"
        }
      ],
      "name": "getBytesValue",
      "outputs": [
        {
          "name": "",
          "type": "bytes"
        }
      ],
      "payable": false,
      "stateMutability": "view",
      "type": "function"
    },
    {
      "constant": false,
      "inputs": [
        {
          "name": "recordFieldName",
          "type": "bytes32"
        },
        {
          "name": "value",
          "type": "bytes"
        }
      ],
      "name": "setBytesValue",
      "outputs": [],
      "payable": false,
      "stateMutability": "nonpayable",
      "type": "function"
    },
    {
      "constant": false,
      "inputs": [
        {
          "name": "recordFieldName",
          "type": "bytes32"
        }
      ],
      "name": "deleteBytesValue",
      "outputs": [],
      "payable": false,
      "stateMutability": "nonpayable",
      "type": "function"
    },
    {
      "constant": true,
      "inputs": [
        {
          "name": "recordFieldName",
          "type": "bytes32"
        }
      ],
      "name": "getBytes32Value",
      "outputs": [
        {
          "name": "",
          "type": "bytes32"
        }
      ],
      "payable": false,
      "stateMutability": "view",
      "type": "function"
    },
    {
      "constant": false,
      "inputs": [
        {
          "name": "recordFieldName",
          "type": "bytes32"
        },
        {
          "name": "value",
          "type": "bytes32"
        }
      ],
      "name": "setBytes32Value",
      "outputs": [],
      "payable": false,
      "stateMutability": "nonpayable",
      "type": "function"
    },
    {
      "constant": false,
      "inputs": [
        {
          "name": "recordFieldName",
          "type": "bytes32"
        }
      ],
      "name": "deleteBytes32Value",
      "outputs": [],
      "payable": false,
      "stateMutability": "nonpayable",
      "type": "function"
    },
    {
      "constant": true,
      "inputs": [
        {
          "name": "recordFieldName",
          "type": "bytes32"
        }
      ],
      "name": "getIntValue",
      "outputs": [
        {
          "name": "",
          "type": "int256"
        }
      ],
      "payable": false,
      "stateMutability": "view",
      "type": "function"
    },
    {
      "constant": false,
      "inputs": [
        {
          "name": "recordFieldName",
          "type": "bytes32"
        },
        {
          "name": "value",
          "type": "int256"
        }
      ],
      "name": "setIntValue",
      "outputs": [],
      "payable": false,
      "stateMutability": "nonpayable",
      "type": "function"
    },
    {
      "constant": false,
      "inputs": [
        {
          "name": "recordFieldName",
          "type": "bytes32"
        }
      ],
      "name": "deleteIntValue",
      "outputs": [],
      "payable": false,
      "stateMutability": "nonpayable",
      "type": "function"
    },
    {
      "constant": true,
      "inputs": [
        {
          "name": "recordFieldName",
          "type": "bytes32"
        }
      ],
      "name": "getUIntValue",
      "outputs": [
        {
          "name": "",
          "type": "uint256"
        }
      ],
      "payable": false,
      "stateMutability": "view",
      "type": "function"
    },
    {
      "constant": false,
      "inputs": [
        {
          "name": "recordFieldName",
          "type": "bytes32"
        },
        {
          "name": "value",
          "type": "uint256"
        }
      ],
      "name": "setUIntValue",
      "outputs": [],
      "payable": false,
      "stateMutability": "nonpayable",
      "type": "function"
    },
    {
      "constant": false,
      "inputs": [
        {
          "name": "recordFieldName",
          "type": "bytes32"
        },
        {
          "name": "value",
          "type": "uint256"
        }
      ],
      "name": "addUIntValue",
      "outputs": [],
      "payable": false,
      "stateMutability": "nonpayable",
      "type": "function"
    },
    {
      "constant": false,
      "inputs": [
        {
          "name": "recordFieldName",
          "type": "bytes32"
        },
        {
          "name": "value",
          "type": "uint256"
        }
      ],
      "name": "subUIntValue",
      "outputs": [],
      "payable": false,
      "stateMutability": "nonpayable",
      "type": "function"
    },
    {
      "constant": false,
      "inputs": [
        {
          "name": "recordFieldName",
          "type": "bytes32"
        }
      ],
      "name": "deleteUIntValue",
      "outputs": [],
      "payable": false,
      "stateMutability": "nonpayable",
      "type": "function"
    },
    {
      "constant": true,
      "inputs": [
        {
          "name": "recordFieldName",
          "type": "bytes32"
        }
      ],
      "name": "getUInt8Value",
      "outputs": [
        {
          "name": "",
          "type": "uint8"
        }
      ],
      "payable": false,
      "stateMutability": "view",
      "type": "function"
    },
    {
      "constant": false,
      "inputs": [
        {
          "name": "recordFieldName",
          "type": "bytes32"
        },
        {
          "name": "value",
          "type": "uint8"
        }
      ],
      "name": "setUInt8Value",
      "outputs": [],
      "payable": false,
      "stateMutability": "nonpayable",
      "type": "function"
    },
    {
      "constant": false,
      "inputs": [
        {
          "name": "recordFieldName",
          "type": "bytes32"
        }
      ],
      "name": "deleteUInt8Value",
      "outputs": [],
      "payable": false,
      "stateMutability": "nonpayable",
      "type": "function"
    },
    {
      "constant": true,
      "inputs": [
        {
          "name": "recordFieldName",
          "type": "bytes32"
        }
      ],
      "name": "getStringValue",
      "outputs": [
        {
          "name": "",
          "type": "string"
        }
      ],
      "payable": false,
      "stateMutability": "view",
      "type": "function"
    },
    {
      "constant": false,
      "inputs": [
        {
          "name": "recordFieldName",
          "type": "bytes32"
        },
        {
          "name": "value",
          "type": "string"
        }
      ],
      "name": "setStringValue",
      "outputs": [],
      "payable": false,
      "stateMutability": "nonpayable",
      "type": "function"
    },
    {
      "constant": false,
      "inputs": [
        {
          "name": "recordFieldName",
          "type": "bytes32"
        }
      ],
      "name": "deleteStringValue",
      "outputs": [],
      "payable": false,
      "stateMutability": "nonpayable",
      "type": "function"
    },
    {
      "constant": false,
      "inputs": [
        {
          "name": "contractAddress",
          "type": "address"
        }
      ],
      "name": "addPermittedContract",
      "outputs": [],
      "payable": false,
      "stateMutability": "nonpayable",
      "type": "function"
    },
    {
      "constant": false,
      "inputs": [
        {
          "name": "addresses",
          "type": "address[]"
        }
      ],
      "name": "addPermittedContracts",
      "outputs": [],
      "payable": false,
      "stateMutability": "nonpayable",
      "type": "function"
    },
    {
      "constant": false,
      "inputs": [
        {
          "name": "addresses",
          "type": "address"
        }
      ],
      "name": "removePermittedContract",
      "outputs": [],
      "payable": false,
      "stateMutability": "nonpayable",
      "type": "function"
    },
    {
      "constant": false,
      "inputs": [
        {
          "name": "addresses",
          "type": "address[]"
        }
      ],
      "name": "removePermittedContracts",
      "outputs": [],
      "payable": false,
      "stateMutability": "nonpayable",
      "type": "function"
    },
    {
      "constant": true,
      "inputs": [],
      "name": "permittedContractsCount",
      "outputs": [
        {
          "name": "count",
          "type": "uint256"
        }
      ],
      "payable": false,
      "stateMutability": "view",
      "type": "function"
    },
    {
      "constant": true,
      "inputs": [],
      "name": "getPermittedContracts",
      "outputs": [
        {
          "name": "addresses",
          "type": "address[]"
        }
      ],
      "payable": false,
      "stateMutability": "view",
      "type": "function"
    },
    {
      "constant": true,
      "inputs": [
        {
          "name": "recordFieldNames",
          "type": "bytes32[]"
        },
        {
          "name": "recordFieldTypes",
          "type": "uint8[]"
        }
      ],
      "name": "getObjectData",
      "outputs": [
        {
          "name": "items",
          "type": "uint256[]"
        },
        {
          "name": "strings",
          "type": "string"
        }
      ],
      "payable": false,
      "stateMutability": "view",
      "type": "function"
    },
    {
      "constant": true,
      "inputs": [
        {
          "name": "recordFieldTypes",
          "type": "uint8[]"
        }
      ],
      "name": "getCountOfIntegerTypes",
      "outputs": [
        {
          "name": "count",
          "type": "uint256"
        }
      ],
      "payable": false,
      "stateMutability": "pure",
      "type": "function"
    },
    {
      "constant": true,
      "inputs": [
        {
          "name": "recordFieldName",
          "type": "bytes32"
        },
        {
          "name": "uintType",
          "type": "uint8"
        }
      ],
      "name": "getCorrespondingIntegerValue",
      "outputs": [
        {
          "name": "",
          "type": "uint256"
        }
      ],
      "payable": false,
      "stateMutability": "view",
      "type": "function"
    },
    {
      "constant": true,
      "inputs": [
        {
          "name": "logicEntry",
          "type": "bool"
        }
      ],
      "name": "boolToUInt",
      "outputs": [
        {
          "name": "",
          "type": "uint256"
        }
      ],
      "payable": false,
      "stateMutability": "pure",
      "type": "function"
    }
  ],
  "bytecode": "0x608060405234801561001057600080fd5b50336000806101000a81548173ffffffffffffffffffffffffffffffffffffffff021916908373ffffffffffffffffffffffffffffffffffffffff1602179055506000809054906101000a900473ffffffffffffffffffffffffffffffffffffffff1673ffffffffffffffffffffffffffffffffffffffff16600073ffffffffffffffffffffffffffffffffffffffff167f8be0079c531659141344cd1fd0a4f28419497f9722a3daafe3b4186f6b6457e060405160405180910390a361322c806100dc6000396000f3fe608060405260043610610219576000357c0100000000000000000000000000000000000000000000000000000000900463ffffffff168062a35aa21461021e578063025ec81a14610259578063043106c0146102a85780630489fa70146102e35780630bd85158146103695780630c55d925146103b1578063124f2418146103ec57806325cf512d1461042757806326df61f61461046c5780633138ee5c146104975780633562fd20146105035780633836fe6e1461054857806344bfa56e146105995780634c77e5ba1461064d578063506d7d00146106c857806352d2d83d146107245780635a2bf25a1461076b5780636aebbbd9146107c65780636d38156f1461080b578063715018a6146108e457806373fb35ee146108fb5780637a0e03ec146109765780638267a9ee146109cb57806382914e5d14610a0657806383197ef014610ba257806384d7c99d14610bb95780638da5cb5b14610bf45780638f32d59b14610c4b5780638ffa969014610c7a5780639007127b14610ccd57806393fe424814610d1c5780639420e58d14610d57578063a209a29c14610dc0578063a77aa49e14610e74578063a98ad19914610eb9578063ba69fcaa14610f0a578063bdc963d814610f45578063c8d1c01714610f94578063c9a52d2c14610fd9578063dc02511e14611069578063f2fde38b146110ef578063f5074f4114611140578063f586606614611191578063ffbd400b14611221575b600080fd5b34801561022a57600080fd5b506102576004803603602081101561024157600080fd5b8101908080359060200190929190505050611272565b005b34801561026557600080fd5b506102926004803603602081101561027c57600080fd5b810190808035906020019092919050505061132d565b6040518082815260200191505060405180910390f35b3480156102b457600080fd5b506102e1600480360360208110156102cb57600080fd5b810190808035906020019092919050505061134a565b005b3480156102ef57600080fd5b506103676004803603602081101561030657600080fd5b810190808035906020019064010000000081111561032357600080fd5b82018360208201111561033557600080fd5b8035906020019184602083028401116401000000008311171561035757600080fd5b9091929391929390505050611418565b005b34801561037557600080fd5b506103af6004803603604081101561038c57600080fd5b8101908080359060200190929190803560ff1690602001909291905050506114d0565b005b3480156103bd57600080fd5b506103ea600480360360208110156103d457600080fd5b8101908080359060200190929190505050611595565b005b3480156103f857600080fd5b506104256004803603602081101561040f57600080fd5b810190808035906020019092919050505061164c565b005b34801561043357600080fd5b5061046a6004803603604081101561044a57600080fd5b8101908080359060200190929190803590602001909291905050506116fb565b005b34801561047857600080fd5b506104816117ac565b6040518082815260200191505060405180910390f35b3480156104a357600080fd5b506104ac611869565b6040518080602001828103825283818151815260200191508051906020019060200280838360005b838110156104ef5780820151818401526020810190506104d4565b505050509050019250505060405180910390f35b34801561050f57600080fd5b506105466004803603604081101561052657600080fd5b8101908080359060200190929190803590602001909291905050506119db565b005b34801561055457600080fd5b506105976004803603602081101561056b57600080fd5b81019080803573ffffffffffffffffffffffffffffffffffffffff169060200190929190505050611a8c565b005b3480156105a557600080fd5b506105d2600480360360208110156105bc57600080fd5b8101908080359060200190929190505050611b60565b6040518080602001828103825283818151815260200191508051906020019080838360005b838110156106125780820151818401526020810190506105f7565b50505050905090810190601f16801561063f5780820380516001836020036101000a031916815260200191505b509250505060405180910390f35b34801561065957600080fd5b506106866004803603602081101561067057600080fd5b8101908080359060200190929190505050611c15565b604051808273ffffffffffffffffffffffffffffffffffffffff1673ffffffffffffffffffffffffffffffffffffffff16815260200191505060405180910390f35b3480156106d457600080fd5b5061070e600480360360408110156106eb57600080fd5b8101908080359060200190929190803560ff169060200190929190505050611c52565b6040518082815260200191505060405180910390f35b34801561073057600080fd5b506107696004803603604081101561074757600080fd5b8101908080359060200190929190803515159060200190929190505050611d10565b005b34801561077757600080fd5b506107c46004803603604081101561078e57600080fd5b8101908080359060200190929190803573ffffffffffffffffffffffffffffffffffffffff169060200190929190505050611dd4565b005b3480156107d257600080fd5b50610809600480360360408110156107e957600080fd5b810190808035906020019092919080359060200190929190505050611ebf565b005b34801561081757600080fd5b506108ce6004803603602081101561082e57600080fd5b810190808035906020019064010000000081111561084b57600080fd5b82018360208201111561085d57600080fd5b8035906020019184602083028401116401000000008311171561087f57600080fd5b919080806020026020016040519081016040528093929190818152602001838360200280828437600081840152601f19601f820116905080830192505050505050509192919290505050611f8c565b6040518082815260200191505060405180910390f35b3480156108f057600080fd5b506108f9611fe1565b005b34801561090757600080fd5b506109346004803603602081101561091e57600080fd5b81019080803590602001909291905050506120b3565b604051808273ffffffffffffffffffffffffffffffffffffffff1673ffffffffffffffffffffffffffffffffffffffff16815260200191505060405180910390f35b34801561098257600080fd5b506109af6004803603602081101561099957600080fd5b81019080803590602001909291905050506120f1565b604051808260ff1660ff16815260200191505060405180910390f35b3480156109d757600080fd5b50610a04600480360360208110156109ee57600080fd5b810190808035906020019092919050505061211b565b005b348015610a1257600080fd5b50610adf60048036036040811015610a2957600080fd5b8101908080359060200190640100000000811115610a4657600080fd5b820183602082011115610a5857600080fd5b80359060200191846020830284011164010000000083111715610a7a57600080fd5b909192939192939080359060200190640100000000811115610a9b57600080fd5b820183602082011115610aad57600080fd5b80359060200191846020830284011164010000000083111715610acf57600080fd5b90919293919293905050506121ca565b604051808060200180602001838103835285818151815260200191508051906020019060200280838360005b83811015610b26578082015181840152602081019050610b0b565b50505050905001838103825284818151815260200191508051906020019080838360005b83811015610b65578082015181840152602081019050610b4a565b50505050905090810190601f168015610b925780820380516001836020036101000a031916815260200191505b5094505050505060405180910390f35b348015610bae57600080fd5b50610bb7612438565b005b348015610bc557600080fd5b50610bf260048036036020811015610bdc57600080fd5b810190808035906020019092919050505061246b565b005b348015610c0057600080fd5b50610c09612526565b604051808273ffffffffffffffffffffffffffffffffffffffff1673ffffffffffffffffffffffffffffffffffffffff16815260200191505060405180910390f35b348015610c5757600080fd5b50610c6061254f565b604051808215151515815260200191505060405180910390f35b348015610c8657600080fd5b50610cb360048036036020811015610c9d57600080fd5b81019080803590602001909291905050506125a6565b604051808215151515815260200191505060405180910390f35b348015610cd957600080fd5b50610d0660048036036020811015610cf057600080fd5b81019080803590602001909291905050506125d0565b6040518082815260200191505060405180910390f35b348015610d2857600080fd5b50610d5560048036036020811015610d3f57600080fd5b81019080803590602001909291905050506125ed565b005b348015610d6357600080fd5b50610da660048036036020811015610d7a57600080fd5b81019080803573ffffffffffffffffffffffffffffffffffffffff16906020019092919050505061269c565b604051808215151515815260200191505060405180910390f35b348015610dcc57600080fd5b50610df960048036036020811015610de357600080fd5b81019080803590602001909291905050506126bc565b6040518080602001828103825283818151815260200191508051906020019080838360005b83811015610e39578082015181840152602081019050610e1e565b50505050905090810190601f168015610e665780820380516001836020036101000a031916815260200191505b509250505060405180910390f35b348015610e8057600080fd5b50610eb760048036036040811015610e9757600080fd5b810190808035906020019092919080359060200190929190505050612771565b005b348015610ec557600080fd5b50610f0860048036036020811015610edc57600080fd5b81019080803573ffffffffffffffffffffffffffffffffffffffff169060200190929190505050612822565b005b348015610f1657600080fd5b50610f4360048036036020811015610f2d57600080fd5b8101908080359060200190929190505050612890565b005b348015610f5157600080fd5b50610f7e60048036036020811015610f6857600080fd5b8101908080359060200190929190505050612947565b6040518082815260200191505060405180910390f35b348015610fa057600080fd5b50610fd760048036036040811015610fb757600080fd5b810190808035906020019092919080359060200190929190505050612964565b005b348015610fe557600080fd5b5061106760048036036040811015610ffc57600080fd5b81019080803590602001909291908035906020019064010000000081111561102357600080fd5b82018360208201111561103557600080fd5b8035906020019184600183028401116401000000008311171561105757600080fd5b9091929391929390505050612a31565b005b34801561107557600080fd5b506110ed6004803603602081101561108c57600080fd5b81019080803590602001906401000000008111156110a957600080fd5b8201836020820111156110bb57600080fd5b803590602001918460208302840111640100000000831117156110dd57600080fd5b9091929391929390505050612aee565b005b3480156110fb57600080fd5b5061113e6004803603602081101561111257600080fd5b81019080803573ffffffffffffffffffffffffffffffffffffffff169060200190929190505050612c36565b005b34801561114c57600080fd5b5061118f6004803603602081101561116357600080fd5b81019080803573ffffffffffffffffffffffffffffffffffffffff169060200190929190505050612c55565b005b34801561119d57600080fd5b5061121f600480360360408110156111b457600080fd5b8101908080359060200190929190803590602001906401000000008111156111db57600080fd5b8201836020820111156111ed57600080fd5b8035906020019184600183028401116401000000008311171561120f57600080fd5b9091929391929390505050612c81565b005b34801561122d57600080fd5b5061125c6004803603602081101561124457600080fd5b81019080803515159060200190929190505050612dde565b6040518082815260200191505060405180910390f35b600260003373ffffffffffffffffffffffffffffffffffffffff1673ffffffffffffffffffffffffffffffffffffffff16815260200190815260200160002060009054906101000a900460ff16806112fc57506112cd612526565b73ffffffffffffffffffffffffffffffffffffffff163373ffffffffffffffffffffffffffffffffffffffff16145b151561130757600080fd5b6004600082815260200190815260200160002060006101000a81549060ff021916905550565b600060066000838152602001908152602001600020549050919050565b600260003373ffffffffffffffffffffffffffffffffffffffff1673ffffffffffffffffffffffffffffffffffffffff16815260200190815260200160002060009054906101000a900460ff16806113d457506113a5612526565b73ffffffffffffffffffffffffffffffffffffffff163373ffffffffffffffffffffffffffffffffffffffff16145b15156113df57600080fd5b6003600082815260200190815260200160002060006101000a81549073ffffffffffffffffffffffffffffffffffffffff021916905550565b61142061254f565b151561142b57600080fd5b60008090505b828290508110156114cb57600060026000858585818110151561145057fe5b9050602002013573ffffffffffffffffffffffffffffffffffffffff1673ffffffffffffffffffffffffffffffffffffffff1673ffffffffffffffffffffffffffffffffffffffff16815260200190815260200160002060006101000a81548160ff0219169083151502179055508080600101915050611431565b505050565b600260003373ffffffffffffffffffffffffffffffffffffffff1673ffffffffffffffffffffffffffffffffffffffff16815260200190815260200160002060009054906101000a900460ff168061155a575061152b612526565b73ffffffffffffffffffffffffffffffffffffffff163373ffffffffffffffffffffffffffffffffffffffff16145b151561156557600080fd5b806009600084815260200190815260200160002060006101000a81548160ff021916908360ff1602179055505050565b600260003373ffffffffffffffffffffffffffffffffffffffff1673ffffffffffffffffffffffffffffffffffffffff16815260200190815260200160002060009054906101000a900460ff168061161f57506115f0612526565b73ffffffffffffffffffffffffffffffffffffffff163373ffffffffffffffffffffffffffffffffffffffff16145b151561162a57600080fd5b6005600082815260200190815260200160002060006116499190613031565b50565b600260003373ffffffffffffffffffffffffffffffffffffffff1673ffffffffffffffffffffffffffffffffffffffff16815260200190815260200160002060009054906101000a900460ff16806116d657506116a7612526565b73ffffffffffffffffffffffffffffffffffffffff163373ffffffffffffffffffffffffffffffffffffffff16145b15156116e157600080fd5b600660008281526020019081526020016000206000905550565b600260003373ffffffffffffffffffffffffffffffffffffffff1673ffffffffffffffffffffffffffffffffffffffff16815260200190815260200160002060009054906101000a900460ff16806117855750611756612526565b73ffffffffffffffffffffffffffffffffffffffff163373ffffffffffffffffffffffffffffffffffffffff16145b151561179057600080fd5b8060066000848152602001908152602001600020819055505050565b600080600090505b60018054905081101561186257600260006001838154811015156117d457fe5b9060005260206000200160009054906101000a900473ffffffffffffffffffffffffffffffffffffffff1673ffffffffffffffffffffffffffffffffffffffff1673ffffffffffffffffffffffffffffffffffffffff16815260200190815260200160002060009054906101000a900460ff16156118555781806001019250505b80806001019150506117b4565b5080905090565b60606118736117ac565b6040519080825280602002602001820160405280156118a15781602001602082028038833980820191505090505b50905060008090505b6001805490508110156119d457600260006001838154811015156118ca57fe5b9060005260206000200160009054906101000a900473ffffffffffffffffffffffffffffffffffffffff1673ffffffffffffffffffffffffffffffffffffffff1673ffffffffffffffffffffffffffffffffffffffff16815260200190815260200160002060009054906101000a900460ff16156119c75760018181548110151561195157fe5b9060005260206000200160009054906101000a900473ffffffffffffffffffffffffffffffffffffffff16828281518110151561198a57fe5b9060200190602002019073ffffffffffffffffffffffffffffffffffffffff16908173ffffffffffffffffffffffffffffffffffffffff16815250505b80806001019150506118aa565b5080905090565b600260003373ffffffffffffffffffffffffffffffffffffffff1673ffffffffffffffffffffffffffffffffffffffff16815260200190815260200160002060009054906101000a900460ff1680611a655750611a36612526565b73ffffffffffffffffffffffffffffffffffffffff163373ffffffffffffffffffffffffffffffffffffffff16145b1515611a7057600080fd5b8060086000848152602001908152602001600020819055505050565b611a9461254f565b1515611a9f57600080fd5b6001600260008373ffffffffffffffffffffffffffffffffffffffff1673ffffffffffffffffffffffffffffffffffffffff16815260200190815260200160002060006101000a81548160ff02191690831515021790555060018190806001815401808255809150509060018203906000526020600020016000909192909190916101000a81548173ffffffffffffffffffffffffffffffffffffffff021916908373ffffffffffffffffffffffffffffffffffffffff1602179055505050565b6060600560008381526020019081526020016000208054600181600116156101000203166002900480601f016020809104026020016040519081016040528092919081815260200182805460018160011615610100020316600290048015611c095780601f10611bde57610100808354040283529160200191611c09565b820191906000526020600020905b815481529060010190602001808311611bec57829003601f168201915b50505050509050919050565b60006003600083815260200190815260200160002060009054906101000a900473ffffffffffffffffffffffffffffffffffffffff169050919050565b600060018260ff161415611c7857611c71611c6c846125a6565b612dde565b9050611d0a565b60028260ff161415611c9757611c8d836120f1565b60ff169050611d0a565b60038260ff161415611cb357611cac83612947565b9050611d0a565b60048260ff161415611ce557611cc883611c15565b73ffffffffffffffffffffffffffffffffffffffff169050611d0a565b60058260ff161415611d0557611cfa8361132d565b600190049050611d0a565b600090505b92915050565b600260003373ffffffffffffffffffffffffffffffffffffffff1673ffffffffffffffffffffffffffffffffffffffff16815260200190815260200160002060009054906101000a900460ff1680611d9a5750611d6b612526565b73ffffffffffffffffffffffffffffffffffffffff163373ffffffffffffffffffffffffffffffffffffffff16145b1515611da557600080fd5b806004600084815260200190815260200160002060006101000a81548160ff0219169083151502179055505050565b600260003373ffffffffffffffffffffffffffffffffffffffff1673ffffffffffffffffffffffffffffffffffffffff16815260200190815260200160002060009054906101000a900460ff1680611e5e5750611e2f612526565b73ffffffffffffffffffffffffffffffffffffffff163373ffffffffffffffffffffffffffffffffffffffff16145b1515611e6957600080fd5b806003600084815260200190815260200160002060006101000a81548173ffffffffffffffffffffffffffffffffffffffff021916908373ffffffffffffffffffffffffffffffffffffffff1602179055505050565b600260003373ffffffffffffffffffffffffffffffffffffffff1673ffffffffffffffffffffffffffffffffffffffff16815260200190815260200160002060009054906101000a900460ff1680611f495750611f1a612526565b73ffffffffffffffffffffffffffffffffffffffff163373ffffffffffffffffffffffffffffffffffffffff16145b1515611f5457600080fd5b611f71600860008481526020019081526020016000205482612df9565b60086000848152602001908152602001600020819055505050565b600080905060008090505b8251811015611fd85760078382815181101515611fb057fe5b9060200190602002015160ff16141515611fcb576001820191505b8080600101915050611f97565b50809050919050565b611fe961254f565b1515611ff457600080fd5b600073ffffffffffffffffffffffffffffffffffffffff166000809054906101000a900473ffffffffffffffffffffffffffffffffffffffff1673ffffffffffffffffffffffffffffffffffffffff167f8be0079c531659141344cd1fd0a4f28419497f9722a3daafe3b4186f6b6457e060405160405180910390a360008060006101000a81548173ffffffffffffffffffffffffffffffffffffffff021916908373ffffffffffffffffffffffffffffffffffffffff160217905550565b6001818154811015156120c257fe5b906000526020600020016000915054906101000a900473ffffffffffffffffffffffffffffffffffffffff1681565b60006009600083815260200190815260200160002060009054906101000a900460ff169050919050565b600260003373ffffffffffffffffffffffffffffffffffffffff1673ffffffffffffffffffffffffffffffffffffffff16815260200190815260200160002060009054906101000a900460ff16806121a55750612176612526565b73ffffffffffffffffffffffffffffffffffffffff163373ffffffffffffffffffffffffffffffffffffffff16145b15156121b057600080fd5b600760008281526020019081526020016000206000905550565b6060806000612219858580806020026020016040519081016040528093929190818152602001838360200280828437600081840152601f19601f82011690508083019250505050505050611f8c565b90506000858590508888905081151561222e57fe5b0490508181026040519080825280602002602001820160405280156122625781602001602082028038833980820191505090505b509350600080600090505b828110156124255760008090505b888890508110156123bd576000818a8a9050840201905060078a8a8481811015156122a257fe5b9050602002013560ff1660ff161415612355576122f46122dd6122d88e8e8581811015156122cc57fe5b905060200201356126bc565b612e1b565b6122e689612e1b565b612e4990919063ffffffff16565b965061234e6123376040805190810160405280601181526020017f3636362d2d4554482d5655452d2d363636000000000000000000000000000000815250612e1b565b61234089612e1b565b612e4990919063ffffffff16565b96506123af565b61238a8c8c83818110151561236657fe5b905060200201358b8b85818110151561237b57fe5b9050602002013560ff16611c52565b888581518110151561239857fe5b906020019060200201818152505083806001019450505b50808060010191505061227b565b506124166123ff6040805190810160405280601681526020017f3636362d2d4554482d5655452d4c4953542d2d36363600000000000000000000815250612e1b565b61240887612e1b565b612e4990919063ffffffff16565b9450808060010191505061226d565b5084849450945050505094509492505050565b61244061254f565b151561244b57600080fd5b612453612526565b73ffffffffffffffffffffffffffffffffffffffff16ff5b600260003373ffffffffffffffffffffffffffffffffffffffff1673ffffffffffffffffffffffffffffffffffffffff16815260200190815260200160002060009054906101000a900460ff16806124f557506124c6612526565b73ffffffffffffffffffffffffffffffffffffffff163373ffffffffffffffffffffffffffffffffffffffff16145b151561250057600080fd5b6009600082815260200190815260200160002060006101000a81549060ff021916905550565b60008060009054906101000a900473ffffffffffffffffffffffffffffffffffffffff16905090565b60008060009054906101000a900473ffffffffffffffffffffffffffffffffffffffff1673ffffffffffffffffffffffffffffffffffffffff163373ffffffffffffffffffffffffffffffffffffffff1614905090565b60006004600083815260200190815260200160002060009054906101000a900460ff169050919050565b600060076000838152602001908152602001600020549050919050565b600260003373ffffffffffffffffffffffffffffffffffffffff1673ffffffffffffffffffffffffffffffffffffffff16815260200190815260200160002060009054906101000a900460ff16806126775750612648612526565b73ffffffffffffffffffffffffffffffffffffffff163373ffffffffffffffffffffffffffffffffffffffff16145b151561268257600080fd5b600860008281526020019081526020016000206000905550565b60026020528060005260406000206000915054906101000a900460ff1681565b6060600a60008381526020019081526020016000208054600181600116156101000203166002900480601f0160208091040260200160405190810160405280929190818152602001828054600181600116156101000203166002900480156127655780601f1061273a57610100808354040283529160200191612765565b820191906000526020600020905b81548152906001019060200180831161274857829003601f168201915b50505050509050919050565b600260003373ffffffffffffffffffffffffffffffffffffffff1673ffffffffffffffffffffffffffffffffffffffff16815260200190815260200160002060009054906101000a900460ff16806127fb57506127cc612526565b73ffffffffffffffffffffffffffffffffffffffff163373ffffffffffffffffffffffffffffffffffffffff16145b151561280657600080fd5b8060076000848152602001908152602001600020819055505050565b61282a61254f565b151561283557600080fd5b6000600260008373ffffffffffffffffffffffffffffffffffffffff1673ffffffffffffffffffffffffffffffffffffffff16815260200190815260200160002060006101000a81548160ff02191690831515021790555050565b600260003373ffffffffffffffffffffffffffffffffffffffff1673ffffffffffffffffffffffffffffffffffffffff16815260200190815260200160002060009054906101000a900460ff168061291a57506128eb612526565b73ffffffffffffffffffffffffffffffffffffffff163373ffffffffffffffffffffffffffffffffffffffff16145b151561292557600080fd5b600a600082815260200190815260200160002060006129449190613079565b50565b600060086000838152602001908152602001600020549050919050565b600260003373ffffffffffffffffffffffffffffffffffffffff1673ffffffffffffffffffffffffffffffffffffffff16815260200190815260200160002060009054906101000a900460ff16806129ee57506129bf612526565b73ffffffffffffffffffffffffffffffffffffffff163373ffffffffffffffffffffffffffffffffffffffff16145b15156129f957600080fd5b612a16600860008481526020019081526020016000205482612ecb565b60086000848152602001908152602001600020819055505050565b600260003373ffffffffffffffffffffffffffffffffffffffff1673ffffffffffffffffffffffffffffffffffffffff16815260200190815260200160002060009054906101000a900460ff1680612abb5750612a8c612526565b73ffffffffffffffffffffffffffffffffffffffff163373ffffffffffffffffffffffffffffffffffffffff16145b1515612ac657600080fd5b8181600560008681526020019081526020016000209190612ae89291906130c1565b50505050565b612af661254f565b1515612b0157600080fd5b60008090505b82829050811015612c31576001600260008585858181101515612b2657fe5b9050602002013573ffffffffffffffffffffffffffffffffffffffff1673ffffffffffffffffffffffffffffffffffffffff1673ffffffffffffffffffffffffffffffffffffffff16815260200190815260200160002060006101000a81548160ff02191690831515021790555060018383838181101515612ba457fe5b9050602002013573ffffffffffffffffffffffffffffffffffffffff1690806001815401808255809150509060018203906000526020600020016000909192909190916101000a81548173ffffffffffffffffffffffffffffffffffffffff021916908373ffffffffffffffffffffffffffffffffffffffff160217905550508080600101915050612b07565b505050565b612c3e61254f565b1515612c4957600080fd5b612c5281612eec565b50565b612c5d61254f565b1515612c6857600080fd5b8073ffffffffffffffffffffffffffffffffffffffff16ff5b600260003373ffffffffffffffffffffffffffffffffffffffff1673ffffffffffffffffffffffffffffffffffffffff16815260200190815260200160002060009054906101000a900460ff1680612d0b5750612cdc612526565b73ffffffffffffffffffffffffffffffffffffffff163373ffffffffffffffffffffffffffffffffffffffff16145b1515612d1657600080fd5b612db2612d6683838080601f016020809104026020016040519081016040528093929190818152602001838380828437600081840152601f19601f82011690508083019250505050505050612e1b565b612da46040805190810160405280600181526020017f5e00000000000000000000000000000000000000000000000000000000000000815250612e1b565b612e4990919063ffffffff16565b600a60008581526020019081526020016000209080519060200190612dd8929190613141565b50505050565b60008115612def5760019050612df4565b600090505b919050565b6000828211151515612e0a57600080fd5b600082840390508091505092915050565b612e236131c1565b600060208301905060408051908101604052808451815260200182815250915050919050565b60608082600001518460000151016040519080825280601f01601f191660200182016040528015612e895781602001600182028038833980820191505090505b5090506000602082019050612ea78186602001518760000151612fe6565b612ec08560000151820185602001518660000151612fe6565b819250505092915050565b6000808284019050838110151515612ee257600080fd5b8091505092915050565b600073ffffffffffffffffffffffffffffffffffffffff168173ffffffffffffffffffffffffffffffffffffffff1614151515612f2857600080fd5b8073ffffffffffffffffffffffffffffffffffffffff166000809054906101000a900473ffffffffffffffffffffffffffffffffffffffff1673ffffffffffffffffffffffffffffffffffffffff167f8be0079c531659141344cd1fd0a4f28419497f9722a3daafe3b4186f6b6457e060405160405180910390a3806000806101000a81548173ffffffffffffffffffffffffffffffffffffffff021916908373ffffffffffffffffffffffffffffffffffffffff16021790555050565b5b60208110151561300c5781518352602083019250602082019150602081039050612fe7565b60006001826020036101000a0390508019835116818551168181178652505050505050565b50805460018160011615610100020316600290046000825580601f106130575750613076565b601f01602090049060005260206000209081019061307591906131db565b5b50565b50805460018160011615610100020316600290046000825580601f1061309f57506130be565b601f0160209004906000526020600020908101906130bd91906131db565b5b50565b828054600181600116156101000203166002900490600052602060002090601f016020900481019282601f1061310257803560ff1916838001178555613130565b82800160010185558215613130579182015b8281111561312f578235825591602001919060010190613114565b5b50905061313d91906131db565b5090565b828054600181600116156101000203166002900490600052602060002090601f016020900481019282601f1061318257805160ff19168380011785556131b0565b828001600101855582156131b0579182015b828111156131af578251825591602001919060010190613194565b5b5090506131bd91906131db565b5090565b604080519081016040528060008152602001600081525090565b6131fd91905b808211156131f95760008160009055506001016131e1565b5090565b9056fea165627a7a72305820e1a36453e0a1c92aa6a1a764322d16b963e3013f21dc0d6d6a614ace466eca3b0029",
  "source": "pragma solidity 0.5.0;\n\nimport './zeppelin/lifecycle/Destructible.sol';\nimport \"./zeppelin/math/SafeMath.sol\";\nimport \"./lib/arachnid/solidity-stringutils/strings.sol\";\n\ncontract DB is Destructible {\n  using strings for *;\n\n  address[] public permittedContractsAddresses;\n  mapping(address => bool) public permissionStatusForContract;\n\n  // DB implemented as bytes32 mappings\n  mapping(bytes32 => address) AddressDataStore;\n  mapping(bytes32 => bool) BoolDataStore;\n  mapping(bytes32 => bytes) BytesDataStore;\n  mapping(bytes32 => bytes32) Bytes32DataStore;\n  mapping(bytes32 => int) IntDataStore;\n  mapping(bytes32 => uint) UIntDataStore;\n  mapping(bytes32 => uint8) UInt8DataStore;\n  mapping(bytes32 => string) StringDataStore;\n\n  modifier onlyPermittedContractOrOwner {\n    require(permissionStatusForContract[msg.sender] || msg.sender == owner());\n    _;\n  }\n\n  constructor () public { }\n\n  // AddressDataStore\n  function getAddressValue (bytes32 recordFieldName) public view returns (address) {\n    return AddressDataStore[recordFieldName];\n  }\n\n  function setAddressValue (bytes32 recordFieldName, address value) external\n    onlyPermittedContractOrOwner\n  {\n    AddressDataStore[recordFieldName] = value;\n  }\n\n  function deleteAddressValue (bytes32 recordFieldName) external\n    onlyPermittedContractOrOwner\n  {\n    delete AddressDataStore[recordFieldName];\n  }\n\n  // BoolDataStore\n  function getBoolValue (bytes32 recordFieldName) public view returns (bool) {\n    return BoolDataStore[recordFieldName];\n  }\n\n  function setBoolValue (bytes32 recordFieldName, bool value) external\n    onlyPermittedContractOrOwner\n  {\n    BoolDataStore[recordFieldName] = value;\n  }\n\n  function deleteBoolValue (bytes32 recordFieldName) external\n    onlyPermittedContractOrOwner\n  {\n    delete BoolDataStore[recordFieldName];\n  }\n\n  // BytesDataStore\n  function getBytesValue (bytes32 recordFieldName) public view returns (bytes memory) {\n    return BytesDataStore[recordFieldName];\n  }\n\n  function setBytesValue (bytes32 recordFieldName, bytes calldata value) external\n    onlyPermittedContractOrOwner\n  {\n    BytesDataStore[recordFieldName] = value;\n  }\n\n  function deleteBytesValue (bytes32 recordFieldName) external\n    onlyPermittedContractOrOwner\n  {\n    delete BytesDataStore[recordFieldName];\n  }\n\n  // Bytes32DataStore\n  function getBytes32Value (bytes32 recordFieldName) public view returns (bytes32) {\n    return Bytes32DataStore[recordFieldName];\n  }\n\n  function setBytes32Value (bytes32 recordFieldName, bytes32 value) external\n    onlyPermittedContractOrOwner\n  {\n    Bytes32DataStore[recordFieldName] = value;\n  }\n\n  function deleteBytes32Value (bytes32 recordFieldName) external\n    onlyPermittedContractOrOwner\n  {\n    delete Bytes32DataStore[recordFieldName];\n  }\n\n  // IntDataStore\n  function getIntValue (bytes32 recordFieldName) public view returns (int) {\n    return IntDataStore[recordFieldName];\n  }\n\n  function setIntValue (bytes32 recordFieldName, int value) external\n    onlyPermittedContractOrOwner\n  {\n    IntDataStore[recordFieldName] = value;\n  }\n\n  function deleteIntValue (bytes32 recordFieldName) external\n    onlyPermittedContractOrOwner\n  {\n    delete IntDataStore[recordFieldName];\n  }\n\n  // UIntDataStore\n  function getUIntValue (bytes32 recordFieldName) public view returns (uint) {\n    return UIntDataStore[recordFieldName];\n  }\n\n  function setUIntValue (bytes32 recordFieldName, uint value) public\n    onlyPermittedContractOrOwner\n  {\n    UIntDataStore[recordFieldName] = value;\n  }\n\n  function addUIntValue (bytes32 recordFieldName, uint value) external\n    onlyPermittedContractOrOwner\n  {\n    UIntDataStore[recordFieldName] = SafeMath.add(UIntDataStore[recordFieldName], value);\n  }\n\n  function subUIntValue (bytes32 recordFieldName, uint value) external\n    onlyPermittedContractOrOwner\n  {\n    UIntDataStore[recordFieldName] = SafeMath.sub(UIntDataStore[recordFieldName], value);\n  }\n\n  function deleteUIntValue (bytes32 recordFieldName) external\n    onlyPermittedContractOrOwner\n  {\n    delete UIntDataStore[recordFieldName];\n  }\n\n  // UInt8DataStore\n  function getUInt8Value (bytes32 recordFieldName) public view returns (uint8){\n    return UInt8DataStore[recordFieldName];\n  }\n\n  function setUInt8Value (bytes32 recordFieldName, uint8 value) public\n    onlyPermittedContractOrOwner\n  {\n    UInt8DataStore[recordFieldName] = value;\n  }\n\n  function deleteUInt8Value (bytes32 recordFieldName) external\n    onlyPermittedContractOrOwner\n  {\n    delete UInt8DataStore[recordFieldName];\n  }\n\n  // StringDataStore\n  function getStringValue (bytes32 recordFieldName) public view returns (string memory) {\n    return StringDataStore[recordFieldName];\n  }\n\n  function setStringValue (bytes32 recordFieldName, string calldata value) external\n    onlyPermittedContractOrOwner\n  {\n    StringDataStore[recordFieldName] = \"^\".toSlice().concat(value.toSlice());\n  }\n\n  function deleteStringValue (bytes32 recordFieldName) external\n    onlyPermittedContractOrOwner\n  {\n    delete StringDataStore[recordFieldName];\n  }\n\n  // DB Utilities\n\n  function addPermittedContract (address contractAddress) external\n  onlyOwner {\n    permissionStatusForContract[contractAddress] = true;\n    permittedContractsAddresses.push(contractAddress);\n  }\n\n  function addPermittedContracts (address[] calldata addresses) external\n  onlyOwner {\n    for (uint i = 0; i < addresses.length; i++) {\n      permissionStatusForContract[addresses[i]] = true;\n      permittedContractsAddresses.push(addresses[i]);\n    }\n  }\n\n  function removePermittedContract (address addresses) external\n  onlyOwner {\n    permissionStatusForContract[addresses] = false;\n  }\n\n  function removePermittedContracts (address[] calldata addresses) external\n  onlyOwner {\n    for (uint i = 0; i < addresses.length; i++) {\n      permissionStatusForContract[addresses[i]] = false;\n    }\n  }\n\n  function permittedContractsCount () public view returns (uint count) {\n    for (uint i = 0; i < permittedContractsAddresses.length; i++) {\n      if (permissionStatusForContract[permittedContractsAddresses[i]]) {\n        count++;\n      }\n    }\n\n    return count;\n  }\n\n  function getPermittedContracts () external view returns (address[] memory addresses) {\n    addresses = new address[](permittedContractsCount());\n    for (uint i = 0; i < permittedContractsAddresses.length; i++) {\n      if (permissionStatusForContract[permittedContractsAddresses[i]]) {\n        addresses[i] = permittedContractsAddresses[i];\n      }\n    }\n\n    return addresses;\n  }\n\n  // Fetch Data\n  function getObjectData (bytes32[] calldata recordFieldNames, uint8[] calldata recordFieldTypes)\n    external view returns\n  (\n    uint[] memory items,\n    string memory strings\n  )\n  {\n    uint countOfIntegerTypes = getCountOfIntegerTypes(recordFieldTypes);\n    /*\n      objectsCount gives the number of entities we're basing the search on. Search may be needed for several entities for which recordFieldTypes[] is the same for all of them. E.g. get the name, email, gender, and state of 5 people:\n      recordFieldNames: [\n        keccak256(\"user/name\", \"0x9838cdba...\"), keccak256(\"user/email\", \"0x9838cdba...\"), keccak256(\"user/gender\", \"0x9838cdba...\"), keccak256(\"user/state\", \"0x9838cdba...\"),\n\n        keccak256(\"user/name\", \"0xabc63533...\"), keccak256(\"user/email\", \"0xabc63533...\"), keccak256(\"user/gender\", \"0xabc63533...\"), keccak256(\"user/state\", \"0xabc63533...\"),\n\n        keccak256(\"user/name\", \"0x08253befd...\"), keccak256(\"user/email\", \"0x08253befd...\"), keccak256(\"user/gender\", \"0x08253befd...\"), keccak256(\"user/state\", \"0x08253befd...\"),\n\n        keccak256(\"user/name\", \"0x0b6354a...\"), keccak256(\"user/email\", \"0x0b6354a...\"), keccak256(\"user/gender\", \"0x0b6354a...\"), keccak256(\"user/state\", \"0x0b6354a...\"),\n\n        keccak256(\"user/name\", \"0x07352bac36...\"), keccak256(\"user/email\", \"0x07352bac36...\"), keccak256(\"user/gender\", \"0x07352bac36...\"), keccak256(\"user/state\", \"0x07352bac36...\")\n\n      ],\n      recordFieldTypes: [7, 7, 5, 3]\n      In this case, recordFieldNames.length = 20, recordFieldTypes.length = 4 => objectsCount = 5 [the search is being done for 5 entities]\n    */\n    uint objectsCount = recordFieldNames.length / recordFieldTypes.length;\n    items = new uint[](objectsCount * countOfIntegerTypes);\n    uint k;\n    for (uint i = 0; i < objectsCount; i++) {\n      for (uint j = 0; j < recordFieldTypes.length; j++) {\n        uint r_i = (i * recordFieldTypes.length) + j;\n        if (recordFieldTypes[j] == 7) {\n          strings = strings.toSlice().concat(getStringValue(recordFieldNames[r_i]).toSlice());\n          strings = strings.toSlice().concat(\"666--ETH-VUE--666\".toSlice());\n        } else {\n          items[k] = getCorrespondingIntegerValue(recordFieldNames[r_i], recordFieldTypes[j]);\n          k++;\n        }\n      }\n      strings = strings.toSlice().concat(\"666--ETH-VUE-LIST--666\".toSlice());\n    }\n\n    return (items, strings);\n  }\n\n  function getCountOfIntegerTypes (uint8[] memory recordFieldTypes) public pure returns (uint count) {\n    count = 0;\n    for (uint i = 0; i < recordFieldTypes.length ; i++) {\n      if (recordFieldTypes[i] != 7) { // recordFieldType 7 is for strings\n        count += 1;\n      }\n    }\n\n    return count;\n  }\n\n  function getCorrespondingIntegerValue (bytes32 recordFieldName, uint8 uintType) public view returns (uint) {\n    // recordFieldTypes: 1 => bool, 2 => uint8, 3 => uint, 4 => address, 5 => bytes32, 7 => string\n    if (uintType == 1) {\n      return boolToUInt(getBoolValue(recordFieldName));\n    } else if (uintType == 2) {\n      return uint(getUInt8Value(recordFieldName));\n    } else if (uintType == 3) {\n      return getUIntValue(recordFieldName);\n    } else if (uintType == 4) {\n      return uint(getAddressValue(recordFieldName));\n    } else if (uintType == 5) {\n      return uint(getBytes32Value(recordFieldName));\n    } else {\n      return 0;\n    }\n  }\n\n  function boolToUInt (bool logicEntry) public pure returns (uint) {\n    if (logicEntry) {\n      return 1;\n    } else {\n      return 0;\n    }\n  }\n}\n",
  "sourcePath": "/Users/jterrazz/Projects/ethparis/contracts/DB.sol",
  "compiler": {
    "name": "solc",
    "version": "0.5.0+commit.1d4f565a.Emscripten.clang"
  },
  "schemaVersion": "3.0.2",
  "updatedAt": "2019-03-09T12:40:34.553Z",
  "devdoc": {
    "methods": {
      "destroy()": {
        "details": "Transfers the current balance to the owner and terminates the contract."
      },
      "isOwner()": {
        "return": "true if `msg.sender` is the owner of the contract."
      },
      "owner()": {
        "return": "the address of the owner."
      },
      "renounceOwnership()": {
        "details": "Allows the current owner to relinquish control of the contract."
      },
      "transferOwnership(address)": {
        "details": "Allows the current owner to transfer control of the contract to a newOwner.",
        "params": {
          "newOwner": "The address to transfer ownership to."
        }
      }
    }
  },
  "userdoc": {
    "methods": {
      "renounceOwnership()": {
        "notice": "Renouncing to ownership will leave the contract without an owner. It will not be possible to call the functions with the `onlyOwner` modifier anymore."
      }
    }
  }
}