{
  "contractName": "FundingToken",
  "abi": [
    {
      "constant": true,
      "inputs": [
        {
          "name": "",
          "type": "address"
        }
      ],
      "name": "lastSubscriptionTime",
      "outputs": [
        {
          "name": "",
          "type": "uint256"
        }
      ],
      "payable": false,
      "stateMutability": "view",
      "type": "function"
    },
    {
      "constant": false,
      "inputs": [
        {
          "name": "spender",
          "type": "address"
        },
        {
          "name": "value",
          "type": "uint256"
        }
      ],
      "name": "approve",
      "outputs": [
        {
          "name": "",
          "type": "bool"
        }
      ],
      "payable": false,
      "stateMutability": "nonpayable",
      "type": "function"
    },
    {
      "constant": true,
      "inputs": [],
      "name": "reserveRatio",
      "outputs": [
        {
          "name": "",
          "type": "uint256"
        }
      ],
      "payable": false,
      "stateMutability": "view",
      "type": "function"
    },
    {
      "constant": false,
      "inputs": [],
      "name": "mint",
      "outputs": [],
      "payable": true,
      "stateMutability": "payable",
      "type": "function"
    },
    {
      "constant": true,
      "inputs": [],
      "name": "totalSupply",
      "outputs": [
        {
          "name": "",
          "type": "uint256"
        }
      ],
      "payable": false,
      "stateMutability": "view",
      "type": "function"
    },
    {
      "constant": false,
      "inputs": [
        {
          "name": "from",
          "type": "address"
        },
        {
          "name": "to",
          "type": "address"
        },
        {
          "name": "value",
          "type": "uint256"
        }
      ],
      "name": "transferFrom",
      "outputs": [
        {
          "name": "",
          "type": "bool"
        }
      ],
      "payable": false,
      "stateMutability": "nonpayable",
      "type": "function"
    },
    {
      "constant": true,
      "inputs": [
        {
          "name": "_amount",
          "type": "uint256"
        }
      ],
      "name": "calculateContinuousMintReturn",
      "outputs": [
        {
          "name": "mintAmount",
          "type": "uint256"
        }
      ],
      "payable": false,
      "stateMutability": "view",
      "type": "function"
    },
    {
      "constant": true,
      "inputs": [
        {
          "name": "_supply",
          "type": "uint256"
        },
        {
          "name": "_reserveBalance",
          "type": "uint256"
        },
        {
          "name": "_reserveRatio",
          "type": "uint32"
        },
        {
          "name": "_depositAmount",
          "type": "uint256"
        }
      ],
      "name": "calculatePurchaseReturn",
      "outputs": [
        {
          "name": "",
          "type": "uint256"
        }
      ],
      "payable": false,
      "stateMutability": "view",
      "type": "function"
    },
    {
      "constant": false,
      "inputs": [
        {
          "name": "spender",
          "type": "address"
        },
        {
          "name": "addedValue",
          "type": "uint256"
        }
      ],
      "name": "increaseAllowance",
      "outputs": [
        {
          "name": "",
          "type": "bool"
        }
      ],
      "payable": false,
      "stateMutability": "nonpayable",
      "type": "function"
    },
    {
      "constant": true,
      "inputs": [],
      "name": "maxGasPrice",
      "outputs": [
        {
          "name": "",
          "type": "uint256"
        }
      ],
      "payable": false,
      "stateMutability": "view",
      "type": "function"
    },
    {
      "constant": false,
      "inputs": [
        {
          "name": "_amount",
          "type": "uint256"
        }
      ],
      "name": "burn",
      "outputs": [],
      "payable": false,
      "stateMutability": "nonpayable",
      "type": "function"
    },
    {
      "constant": true,
      "inputs": [
        {
          "name": "_supply",
          "type": "uint256"
        },
        {
          "name": "_reserveBalance",
          "type": "uint256"
        },
        {
          "name": "_reserveRatio",
          "type": "uint32"
        },
        {
          "name": "_sellAmount",
          "type": "uint256"
        }
      ],
      "name": "calculateSaleReturn",
      "outputs": [
        {
          "name": "",
          "type": "uint256"
        }
      ],
      "payable": false,
      "stateMutability": "view",
      "type": "function"
    },
    {
      "constant": true,
      "inputs": [],
      "name": "winnerListSize",
      "outputs": [
        {
          "name": "",
          "type": "uint256"
        }
      ],
      "payable": false,
      "stateMutability": "view",
      "type": "function"
    },
    {
      "constant": true,
      "inputs": [],
      "name": "version",
      "outputs": [
        {
          "name": "",
          "type": "string"
        }
      ],
      "payable": false,
      "stateMutability": "view",
      "type": "function"
    },
    {
      "constant": true,
      "inputs": [
        {
          "name": "",
          "type": "uint256"
        }
      ],
      "name": "winnerList",
      "outputs": [
        {
          "name": "",
          "type": "address"
        }
      ],
      "payable": false,
      "stateMutability": "view",
      "type": "function"
    },
    {
      "constant": true,
      "inputs": [
        {
          "name": "",
          "type": "uint256"
        }
      ],
      "name": "projectList",
      "outputs": [
        {
          "name": "",
          "type": "address"
        }
      ],
      "payable": false,
      "stateMutability": "view",
      "type": "function"
    },
    {
      "constant": true,
      "inputs": [
        {
          "name": "owner",
          "type": "address"
        }
      ],
      "name": "balanceOf",
      "outputs": [
        {
          "name": "",
          "type": "uint256"
        }
      ],
      "payable": false,
      "stateMutability": "view",
      "type": "function"
    },
    {
      "constant": false,
      "inputs": [],
      "name": "renounceOwnership",
      "outputs": [],
      "payable": false,
      "stateMutability": "nonpayable",
      "type": "function"
    },
    {
      "constant": true,
      "inputs": [],
      "name": "contractFeePerThousand",
      "outputs": [
        {
          "name": "",
          "type": "uint256"
        }
      ],
      "payable": false,
      "stateMutability": "view",
      "type": "function"
    },
    {
      "constant": true,
      "inputs": [
        {
          "name": "",
          "type": "address"
        }
      ],
      "name": "projects",
      "outputs": [
        {
          "name": "funds",
          "type": "uint256"
        },
        {
          "name": "minFunding",
          "type": "uint256"
        },
        {
          "name": "field",
          "type": "uint256"
        },
        {
          "name": "time",
          "type": "uint256"
        },
        {
          "name": "pointer",
          "type": "uint256"
        }
      ],
      "payable": false,
      "stateMutability": "view",
      "type": "function"
    },
    {
      "constant": true,
      "inputs": [],
      "name": "owner",
      "outputs": [
        {
          "name": "",
          "type": "address"
        }
      ],
      "payable": false,
      "stateMutability": "view",
      "type": "function"
    },
    {
      "constant": true,
      "inputs": [],
      "name": "isOwner",
      "outputs": [
        {
          "name": "",
          "type": "bool"
        }
      ],
      "payable": false,
      "stateMutability": "view",
      "type": "function"
    },
    {
      "constant": true,
      "inputs": [
        {
          "name": "_amount",
          "type": "uint256"
        }
      ],
      "name": "calculateContinuousBurnReturn",
      "outputs": [
        {
          "name": "burnAmount",
          "type": "uint256"
        }
      ],
      "payable": false,
      "stateMutability": "view",
      "type": "function"
    },
    {
      "constant": true,
      "inputs": [],
      "name": "totalFunds",
      "outputs": [
        {
          "name": "",
          "type": "uint256"
        }
      ],
      "payable": false,
      "stateMutability": "view",
      "type": "function"
    },
    {
      "constant": true,
      "inputs": [],
      "name": "reserveBalance",
      "outputs": [
        {
          "name": "",
          "type": "uint256"
        }
      ],
      "payable": false,
      "stateMutability": "view",
      "type": "function"
    },
    {
      "constant": false,
      "inputs": [
        {
          "name": "spender",
          "type": "address"
        },
        {
          "name": "subtractedValue",
          "type": "uint256"
        }
      ],
      "name": "decreaseAllowance",
      "outputs": [
        {
          "name": "",
          "type": "bool"
        }
      ],
      "payable": false,
      "stateMutability": "nonpayable",
      "type": "function"
    },
    {
      "constant": false,
      "inputs": [
        {
          "name": "to",
          "type": "address"
        },
        {
          "name": "value",
          "type": "uint256"
        }
      ],
      "name": "transfer",
      "outputs": [
        {
          "name": "",
          "type": "bool"
        }
      ],
      "payable": false,
      "stateMutability": "nonpayable",
      "type": "function"
    },
    {
      "constant": true,
      "inputs": [
        {
          "name": "",
          "type": "address"
        },
        {
          "name": "",
          "type": "uint256"
        }
      ],
      "name": "fundedProjects",
      "outputs": [
        {
          "name": "",
          "type": "address"
        }
      ],
      "payable": false,
      "stateMutability": "view",
      "type": "function"
    },
    {
      "constant": true,
      "inputs": [],
      "name": "timeframe",
      "outputs": [
        {
          "name": "",
          "type": "uint256"
        }
      ],
      "payable": false,
      "stateMutability": "view",
      "type": "function"
    },
    {
      "constant": true,
      "inputs": [],
      "name": "subscriptionModifierUpdateTime",
      "outputs": [
        {
          "name": "",
          "type": "uint256"
        }
      ],
      "payable": false,
      "stateMutability": "view",
      "type": "function"
    },
    {
      "constant": false,
      "inputs": [
        {
          "name": "gasPrice",
          "type": "uint256"
        }
      ],
      "name": "setMaxGasPrice",
      "outputs": [],
      "payable": false,
      "stateMutability": "nonpayable",
      "type": "function"
    },
    {
      "constant": true,
      "inputs": [
        {
          "name": "owner",
          "type": "address"
        },
        {
          "name": "spender",
          "type": "address"
        }
      ],
      "name": "allowance",
      "outputs": [
        {
          "name": "",
          "type": "uint256"
        }
      ],
      "payable": false,
      "stateMutability": "view",
      "type": "function"
    },
    {
      "constant": true,
      "inputs": [
        {
          "name": "",
          "type": "address"
        }
      ],
      "name": "subscriptions",
      "outputs": [
        {
          "name": "",
          "type": "uint256"
        }
      ],
      "payable": false,
      "stateMutability": "view",
      "type": "function"
    },
    {
      "constant": false,
      "inputs": [
        {
          "name": "newOwner",
          "type": "address"
        }
      ],
      "name": "transferOwnership",
      "outputs": [],
      "payable": false,
      "stateMutability": "nonpayable",
      "type": "function"
    },
    {
      "constant": true,
      "inputs": [],
      "name": "scale",
      "outputs": [
        {
          "name": "",
          "type": "uint256"
        }
      ],
      "payable": false,
      "stateMutability": "view",
      "type": "function"
    },
    {
      "inputs": [
        {
          "name": "_reserveRatio",
          "type": "uint256"
        },
        {
          "name": "_timeframe",
          "type": "uint256"
        }
      ],
      "payable": false,
      "stateMutability": "nonpayable",
      "type": "constructor"
    },
    {
      "payable": true,
      "stateMutability": "payable",
      "type": "fallback"
    },
    {
      "anonymous": false,
      "inputs": [
        {
          "indexed": false,
          "name": "_from",
          "type": "address"
        },
        {
          "indexed": false,
          "name": "_to",
          "type": "address"
        },
        {
          "indexed": false,
          "name": "_amount",
          "type": "uint256"
        }
      ],
      "name": "Funding",
      "type": "event"
    },
    {
      "anonymous": false,
      "inputs": [
        {
          "indexed": false,
          "name": "_addr",
          "type": "address"
        }
      ],
      "name": "NewProject",
      "type": "event"
    },
    {
      "anonymous": false,
      "inputs": [
        {
          "indexed": false,
          "name": "addr",
          "type": "address"
        },
        {
          "indexed": false,
          "name": "fund",
          "type": "uint256"
        }
      ],
      "name": "FundDistributed",
      "type": "event"
    },
    {
      "anonymous": false,
      "inputs": [
        {
          "indexed": false,
          "name": "_from",
          "type": "address"
        },
        {
          "indexed": false,
          "name": "_amount",
          "type": "uint256"
        },
        {
          "indexed": false,
          "name": "_deposit",
          "type": "uint256"
        }
      ],
      "name": "ContinuousMint",
      "type": "event"
    },
    {
      "anonymous": false,
      "inputs": [
        {
          "indexed": false,
          "name": "_from",
          "type": "address"
        },
        {
          "indexed": false,
          "name": "_amount",
          "type": "uint256"
        },
        {
          "indexed": false,
          "name": "_reimbursement",
          "type": "uint256"
        }
      ],
      "name": "ContinuousBurn",
      "type": "event"
    },
    {
      "anonymous": false,
      "inputs": [
        {
          "indexed": true,
          "name": "previousOwner",
          "type": "address"
        },
        {
          "indexed": true,
          "name": "newOwner",
          "type": "address"
        }
      ],
      "name": "OwnershipTransferred",
      "type": "event"
    },
    {
      "anonymous": false,
      "inputs": [
        {
          "indexed": true,
          "name": "from",
          "type": "address"
        },
        {
          "indexed": true,
          "name": "to",
          "type": "address"
        },
        {
          "indexed": false,
          "name": "value",
          "type": "uint256"
        }
      ],
      "name": "Transfer",
      "type": "event"
    },
    {
      "anonymous": false,
      "inputs": [
        {
          "indexed": true,
          "name": "owner",
          "type": "address"
        },
        {
          "indexed": true,
          "name": "spender",
          "type": "address"
        },
        {
          "indexed": false,
          "name": "value",
          "type": "uint256"
        }
      ],
      "name": "Approval",
      "type": "event"
    },
    {
      "constant": false,
      "inputs": [
        {
          "name": "_beneficiary",
          "type": "address"
        }
      ],
      "name": "mintFor",
      "outputs": [],
      "payable": true,
      "stateMutability": "payable",
      "type": "function"
    },
    {
      "constant": true,
      "inputs": [
        {
          "name": "addr",
          "type": "address"
        }
      ],
      "name": "isProject",
      "outputs": [
        {
          "name": "res",
          "type": "bool"
        }
      ],
      "payable": false,
      "stateMutability": "view",
      "type": "function"
    },
    {
      "constant": true,
      "inputs": [
        {
          "name": "addr",
          "type": "address"
        }
      ],
      "name": "getProjectByAddress",
      "outputs": [
        {
          "name": "funds",
          "type": "uint256"
        },
        {
          "name": "min",
          "type": "uint256"
        },
        {
          "name": "field",
          "type": "uint256"
        },
        {
          "name": "time",
          "type": "uint256"
        }
      ],
      "payable": false,
      "stateMutability": "view",
      "type": "function"
    },
    {
      "constant": true,
      "inputs": [
        {
          "name": "index",
          "type": "uint256"
        }
      ],
      "name": "getProjectByIndex",
      "outputs": [
        {
          "name": "funds",
          "type": "uint256"
        },
        {
          "name": "min",
          "type": "uint256"
        },
        {
          "name": "field",
          "type": "uint256"
        },
        {
          "name": "time",
          "type": "uint256"
        }
      ],
      "payable": false,
      "stateMutability": "view",
      "type": "function"
    },
    {
      "constant": true,
      "inputs": [
        {
          "name": "funder",
          "type": "address"
        },
        {
          "name": "index",
          "type": "uint256"
        }
      ],
      "name": "getFundedProjectAddressByIndex",
      "outputs": [
        {
          "name": "addr",
          "type": "address"
        }
      ],
      "payable": false,
      "stateMutability": "view",
      "type": "function"
    },
    {
      "constant": true,
      "inputs": [
        {
          "name": "addr",
          "type": "address"
        }
      ],
      "name": "getProjectFundsByAddress",
      "outputs": [
        {
          "name": "funds",
          "type": "uint256"
        }
      ],
      "payable": false,
      "stateMutability": "view",
      "type": "function"
    },
    {
      "constant": true,
      "inputs": [
        {
          "name": "index",
          "type": "uint256"
        }
      ],
      "name": "getProjectFundsByIndex",
      "outputs": [
        {
          "name": "funds",
          "type": "uint256"
        }
      ],
      "payable": false,
      "stateMutability": "view",
      "type": "function"
    },
    {
      "constant": true,
      "inputs": [
        {
          "name": "addr",
          "type": "address"
        }
      ],
      "name": "getProjectPointerByAddress",
      "outputs": [
        {
          "name": "pointer",
          "type": "uint256"
        }
      ],
      "payable": false,
      "stateMutability": "view",
      "type": "function"
    },
    {
      "constant": false,
      "inputs": [
        {
          "name": "addr",
          "type": "address"
        },
        {
          "name": "amount",
          "type": "uint256"
        }
      ],
      "name": "fundByAddress",
      "outputs": [
        {
          "name": "res",
          "type": "bool"
        }
      ],
      "payable": false,
      "stateMutability": "nonpayable",
      "type": "function"
    },
    {
      "constant": false,
      "inputs": [
        {
          "name": "min",
          "type": "uint256"
        },
        {
          "name": "field",
          "type": "uint256"
        }
      ],
      "name": "newProject",
      "outputs": [
        {
          "name": "res",
          "type": "bool"
        }
      ],
      "payable": false,
      "stateMutability": "nonpayable",
      "type": "function"
    },
    {
      "constant": true,
      "inputs": [],
      "name": "getProjectCount",
      "outputs": [
        {
          "name": "count",
          "type": "uint256"
        }
      ],
      "payable": false,
      "stateMutability": "view",
      "type": "function"
    },
    {
      "constant": true,
      "inputs": [
        {
          "name": "funder",
          "type": "address"
        }
      ],
      "name": "getFundedProjectCount",
      "outputs": [
        {
          "name": "count",
          "type": "uint256"
        }
      ],
      "payable": false,
      "stateMutability": "view",
      "type": "function"
    },
    {
      "constant": false,
      "inputs": [
        {
          "name": "addr",
          "type": "address"
        }
      ],
      "name": "deleteProjectByAddress",
      "outputs": [
        {
          "name": "success",
          "type": "bool"
        }
      ],
      "payable": false,
      "stateMutability": "nonpayable",
      "type": "function"
    },
    {
      "constant": false,
      "inputs": [],
      "name": "distributeFunds",
      "outputs": [
        {
          "name": "res",
          "type": "bool"
        }
      ],
      "payable": false,
      "stateMutability": "nonpayable",
      "type": "function"
    },
    {
      "constant": true,
      "inputs": [
        {
          "name": "prizeIndex",
          "type": "uint256"
        },
        {
          "name": "funds",
          "type": "uint256"
        }
      ],
      "name": "calculatePrize",
      "outputs": [
        {
          "name": "prize",
          "type": "uint256"
        }
      ],
      "payable": false,
      "stateMutability": "view",
      "type": "function"
    }
  ],
  "bytecode": "0x60806040526040805190810160405280600381526020017f302e330000000000000000000000000000000000000000000000000000000000815250600090805190602001906200005192919062001249565b50670de0b6b3a7640000608555670de0b6b3a7640000608655608654600a026087556003608b553480156200008557600080fd5b506040516040806200738683398101806040526040811015620000a757600080fd5b81019080805190602001909291908051906020019092919050505081701c35fedd14ffffffffffffffffffffffff60016020608081101515620000e657fe5b0181905550701b0ce43b323fffffffffffffffffffffff600160216080811015156200010e57fe5b01819055507019f0028ec1ffffffffffffffffffffffff600160226080811015156200013657fe5b01819055507018ded91f0e7fffffffffffffffffffffff600160236080811015156200015e57fe5b01819055507017d8ec7f0417ffffffffffffffffffffff600160246080811015156200018657fe5b01819055507016ddc6556cdbffffffffffffffffffffff60016025608081101515620001ae57fe5b01819055507015ecf52776a1ffffffffffffffffffffff60016026608081101515620001d657fe5b01819055507015060c256cb2ffffffffffffffffffffff60016027608081101515620001fe57fe5b0181905550701428a2f98d72ffffffffffffffffffffff600160286080811015156200022657fe5b01819055507013545598e5c23fffffffffffffffffffff600160296080811015156200024e57fe5b0181905550701288c4161ce1dfffffffffffffffffffff6001602a6080811015156200027657fe5b01819055507011c592761c666fffffffffffffffffffff6001602b6080811015156200029e57fe5b018190555070110a688680a757ffffffffffffffffffff6001602c608081101515620002c657fe5b0181905550701056f1b5bedf77ffffffffffffffffffff6001602d608081101515620002ee57fe5b0181905550700faadceceeff8bffffffffffffffffffff6001602e6080811015156200031657fe5b0181905550700f05dc6b27edadffffffffffffffffffff6001602f6080811015156200033e57fe5b0181905550700e67a5a25da4107fffffffffffffffffff600160306080811015156200036657fe5b0181905550700dcff115b14eedffffffffffffffffffff600160316080811015156200038e57fe5b0181905550700d3e7a392431239fffffffffffffffffff60016032608081101515620003b657fe5b0181905550700cb2ff529eb71e4fffffffffffffffffff60016033608081101515620003de57fe5b0181905550700c2d415c3db974afffffffffffffffffff600160346080811015156200040657fe5b0181905550700bad03e7d883f69bffffffffffffffffff600160356080811015156200042e57fe5b0181905550700b320d03b2c343d5ffffffffffffffffff600160366080811015156200045657fe5b0181905550700abc25204e02828dffffffffffffffffff600160376080811015156200047e57fe5b0181905550700a4b16f74ee4bb207fffffffffffffffff60016038608081101515620004a657fe5b01819055507009deaf736ac1f569ffffffffffffffffff60016039608081101515620004ce57fe5b0181905550700976bd9952c7aa957fffffffffffffffff6001603a608081101515620004f657fe5b01819055507009131271922eaa606fffffffffffffffff6001603b6080811015156200051e57fe5b01819055507008b380f3558668c46fffffffffffffffff6001603c6080811015156200054657fe5b0181905550700857ddf0117efa215bffffffffffffffff6001603d6080811015156200056e57fe5b01819055507007ffffffffffffffffffffffffffffffff6001603e6080811015156200059657fe5b01819055507007abbf6f6abb9d087fffffffffffffffff6001603f608081101515620005be57fe5b018190555070075af62cbac95f7dfa7fffffffffffffff60016040608081101515620005e657fe5b018190555070070d7fb7452e187ac13fffffffffffffff600160416080811015156200060e57fe5b01819055507006c3390ecc8af379295fffffffffffffff600160426080811015156200063657fe5b018190555070067c00a3b07ffc01fd6fffffffffffffff600160436080811015156200065e57fe5b0181905550700637b647c39cbb9d3d27ffffffffffffff600160446080811015156200068657fe5b01819055507005f63b1fc104dbd39587ffffffffffffff60016045608081101515620006ae57fe5b01819055507005b771955b36e12f7235ffffffffffffff60016046608081101515620006d657fe5b018190555070057b3d49dda84556d6f6ffffffffffffff60016047608081101515620006fe57fe5b018190555070054183095b2c8ececf30ffffffffffffff600160486080811015156200072657fe5b018190555070050a28be635ca2b888f77fffffffffffff600160496080811015156200074e57fe5b01819055507004d5156639708c9db33c3fffffffffffff6001604a6080811015156200077657fe5b01819055507004a23105873875bd52dfdfffffffffffff6001604b6080811015156200079e57fe5b0181905550700471649d87199aa990756fffffffffffff6001604c608081101515620007c657fe5b01819055507004429a21a029d4c1457cfbffffffffffff6001604d608081101515620007ee57fe5b0181905550700415bc6d6fb7dd71af2cb3ffffffffffff6001604e6080811015156200081657fe5b01819055507003eab73b3bbfe282243ce1ffffffffffff6001604f6080811015156200083e57fe5b01819055507003c1771ac9fb6b4c18e229ffffffffffff600160506080811015156200086657fe5b0181905550700399e96897690418f785257fffffffffff600160516080811015156200088e57fe5b0181905550700373fc456c53bb779bf0ea9fffffffffff60016052608081101515620008b657fe5b018190555070034f9e8e490c48e67e6ab8bfffffffffff60016053608081101515620008de57fe5b018190555070032cbfd4a7adc790560b3337ffffffffff600160546080811015156200090657fe5b018190555070030b50570f6e5d2acca94613ffffffffff600160556080811015156200092e57fe5b01819055507002eb40f9f620fda6b56c2861ffffffffff600160566080811015156200095657fe5b01819055507002cc8340ecb0d0f520a6af58ffffffffff600160576080811015156200097e57fe5b01819055507002af09481380a0a35cf1ba02ffffffffff60016058608081101515620009a657fe5b0181905550700292c5bdd3b92ec810287b1b3fffffffff60016059608081101515620009ce57fe5b0181905550700277abdcdab07d5a77ac6d6b9fffffffff6001605a608081101515620009f657fe5b018190555070025daf6654b1eaa55fd64df5efffffffff6001605b60808110151562000a1e57fe5b0181905550700244c49c648baa98192dce88b7ffffffff6001605c60808110151562000a4657fe5b018190555070022ce03cd5619a311b2471268bffffffff6001605d60808110151562000a6e57fe5b0181905550700215f77c045fbe885654a44a0fffffffff6001605e60808110151562000a9657fe5b01819055507001ffffffffffffffffffffffffffffffff6001605f60808110151562000abe57fe5b01819055507001eaefdbdaaee7421fc4d3ede5ffffffff6001606060808110151562000ae657fe5b01819055507001d6bd8b2eb257df7e8ca57b09bfffffff6001606160808110151562000b0e57fe5b01819055507001c35fedd14b861eb0443f7f133fffffff6001606260808110151562000b3657fe5b01819055507001b0ce43b322bcde4a56e8ada5afffffff6001606360808110151562000b5e57fe5b018190555070019f0028ec1fff007f5a195a39dfffffff6001606460808110151562000b8657fe5b018190555070018ded91f0e72ee74f49b15ba527ffffff6001606560808110151562000bae57fe5b018190555070017d8ec7f04136f4e5615fd41a63ffffff6001606660808110151562000bd657fe5b018190555070016ddc6556cdb84bdc8d12d22e6fffffff6001606760808110151562000bfe57fe5b018190555070015ecf52776a1155b5bd8395814f7fffff6001606860808110151562000c2657fe5b018190555070015060c256cb23b3b3cc3754cf40ffffff6001606960808110151562000c4e57fe5b01819055507001428a2f98d728ae223ddab715be3fffff6001606a60808110151562000c7657fe5b018190555070013545598e5c23276ccf0ede68034fffff6001606b60808110151562000c9e57fe5b01819055507001288c4161ce1d6f54b7f61081194fffff6001606c60808110151562000cc657fe5b018190555070011c592761c666aa641d5a01a40f17ffff6001606d60808110151562000cee57fe5b0181905550700110a688680a7530515f3e6e6cfdcdffff6001606e60808110151562000d1657fe5b01819055507001056f1b5bedf75c6bcb2ce8aed428ffff6001606f60808110151562000d3e57fe5b01819055506ffaadceceeff8a0890f3875f008277fff6001607060808110151562000d6557fe5b01819055506ff05dc6b27edad306388a600f6ba0bfff6001607160808110151562000d8c57fe5b01819055506fe67a5a25da41063de1495d5b18cdbfff6001607260808110151562000db357fe5b01819055506fdcff115b14eedde6fc3aa5353f2e4fff6001607360808110151562000dda57fe5b01819055506fd3e7a3924312399f9aae2e0f868f8fff6001607460808110151562000e0157fe5b01819055506fcb2ff529eb71e41582cccd5a1ee26fff6001607560808110151562000e2857fe5b01819055506fc2d415c3db974ab32a51840c0b67edff6001607660808110151562000e4f57fe5b01819055506fbad03e7d883f69ad5b0a186184e06bff6001607760808110151562000e7657fe5b01819055506fb320d03b2c343d4829abd6075f0cc5ff6001607860808110151562000e9d57fe5b01819055506fabc25204e02828d73c6e80bcdb1a95bf6001607960808110151562000ec457fe5b01819055506fa4b16f74ee4bb2040a1ec6c15fbbf2df6001607a60808110151562000eeb57fe5b01819055506f9deaf736ac1f569deb1b5ae3f36c130f6001607b60808110151562000f1257fe5b01819055506f976bd9952c7aa957f5937d790ef650376001607c60808110151562000f3957fe5b01819055506f9131271922eaa6064b73a22d0bd4f2bf6001607d60808110151562000f6057fe5b01819055506f8b380f3558668c46c91c49a2f8e967b96001607e60808110151562000f8757fe5b01819055506f857ddf0117efa215952912839f6473e66001607f60808110151562000fae57fe5b018190555033608160006101000a81548173ffffffffffffffffffffffffffffffffffffffff021916908373ffffffffffffffffffffffffffffffffffffffff160217905550608160009054906101000a900473ffffffffffffffffffffffffffffffffffffffff1673ffffffffffffffffffffffffffffffffffffffff16600073ffffffffffffffffffffffffffffffffffffffff167f8be0079c531659141344cd1fd0a4f28419497f9722a3daafe3b4186f6b6457e060405160405180910390a3806088819055506200109833608654600102620010b0640100000000026401000000009004565b50806089819055506000608a819055505050620012f8565b600073ffffffffffffffffffffffffffffffffffffffff168273ffffffffffffffffffffffffffffffffffffffff1614151515620010ed57600080fd5b6200111281608454620012276401000000000262003b86179091906401000000009004565b6084819055506200117a81608260008573ffffffffffffffffffffffffffffffffffffffff1673ffffffffffffffffffffffffffffffffffffffff16815260200190815260200160002054620012276401000000000262003b86179091906401000000009004565b608260008473ffffffffffffffffffffffffffffffffffffffff1673ffffffffffffffffffffffffffffffffffffffff168152602001908152602001600020819055508173ffffffffffffffffffffffffffffffffffffffff16600073ffffffffffffffffffffffffffffffffffffffff167fddf252ad1be2c89b69c2b068fc378daa952ba7f163c4a11628f55a4df523b3ef836040518082815260200191505060405180910390a35050565b60008082840190508381101515156200123f57600080fd5b8091505092915050565b828054600181600116156101000203166002900490600052602060002090601f016020900481019282601f106200128c57805160ff1916838001178555620012bd565b82800160010185558215620012bd579182015b82811115620012bc5782518255916020019190600101906200129f565b5b509050620012cc9190620012d0565b5090565b620012f591905b80821115620012f1576000816000905550600101620012d7565b5090565b90565b61607e80620013086000396000f3fe6080604052600436106102e6576000357c0100000000000000000000000000000000000000000000000000000000900480636f45b59911610192578063a10954fe116100f9578063d2fa635e116100b2578063f2fde38b1161008c578063f2fde38b1461128b578063f4a496b7146112dc578063f51e181a14611345578063fafbdbdd14611370576102e6565b8063d2fa635e14611166578063dd62ed3e146111a1578063f046395a14611226576102e6565b8063a10954fe14610f64578063a457c2d714610f8f578063a9059cbb14611002578063a9978db714611075578063ba59b66f14611110578063d05ebc911461113b576102e6565b8063840e78fd1161014b578063840e78fd14610d8a57806386bc4e9314610e0b5780638da5cb5b14610e645780638f32d59b14610ebb57806390f0c2ea14610eea578063968ed60014610f39576102e6565b80636f45b59914610bc057806370a0823114610c25578063715018a614610c8a57806371e578dc14610ca157806377d0a54714610ce55780637a6d4da214610d5f576102e6565b8063395093511161025157806349f9b0f71161020a57806354fd4d50116101e457806354fd4d50146109c75780635578027e14610a5757806359da250f14610ad257806360570b2e14610b45576102e6565b806349f9b0f7146108cc5780634f7c026e1461093f578063535748c01461096a576102e6565b806339509351146106fe5780633a6a4d2e146107715780633bcff3b0146107a05780633c8e90c5146107cb5780633de39c111461086657806342966c6814610891576102e6565b806318160ddd116102a357806318160ddd146104cb5780631b9c607c146104f657806323b872dd1461054557806328c3d701146105d857806329a00e7c146106275780632b7e328a1461069a576102e6565b806305c81408146102f057806306b7253614610359578063093125d6146103be578063095ea7b3146104235780630c7d5cd8146104965780631249c58b146104c1575b6102ee6113d5565b005b3480156102fc57600080fd5b5061033f6004803603602081101561031357600080fd5b81019080803573ffffffffffffffffffffffffffffffffffffffff1690602001909291905050506114b7565b604051808215151515815260200191505060405180910390f35b34801561036557600080fd5b506103a86004803603602081101561037c57600080fd5b81019080803573ffffffffffffffffffffffffffffffffffffffff169060200190929190505050611581565b6040518082815260200191505060405180910390f35b3480156103ca57600080fd5b5061040d600480360360208110156103e157600080fd5b81019080803573ffffffffffffffffffffffffffffffffffffffff169060200190929190505050611599565b6040518082815260200191505060405180910390f35b34801561042f57600080fd5b5061047c6004803603604081101561044657600080fd5b81019080803573ffffffffffffffffffffffffffffffffffffffff1690602001909291908035906020019092919050505061162f565b604051808215151515815260200191505060405180910390f35b3480156104a257600080fd5b506104ab61175c565b6040518082815260200191505060405180910390f35b6104c96113d5565b005b3480156104d757600080fd5b506104e0611762565b6040518082815260200191505060405180910390f35b34801561050257600080fd5b5061052f6004803603602081101561051957600080fd5b810190808035906020019092919050505061176c565b6040518082815260200191505060405180910390f35b34801561055157600080fd5b506105be6004803603606081101561056857600080fd5b81019080803573ffffffffffffffffffffffffffffffffffffffff169060200190929190803573ffffffffffffffffffffffffffffffffffffffff169060200190929190803590602001909291905050506118cb565b604051808215151515815260200191505060405180910390f35b3480156105e457600080fd5b50610611600480360360208110156105fb57600080fd5b8101908080359060200190929190505050611ad3565b6040518082815260200191505060405180910390f35b34801561063357600080fd5b506106846004803603608081101561064a57600080fd5b810190808035906020019092919080359060200190929190803563ffffffff16906020019092919080359060200190929190505050611af3565b6040518082815260200191505060405180910390f35b3480156106a657600080fd5b506106d3600480360360208110156106bd57600080fd5b8101908080359060200190929190505050611bfc565b6040518085815260200184815260200183815260200182815260200194505050505060405180910390f35b34801561070a57600080fd5b506107576004803603604081101561072157600080fd5b81019080803573ffffffffffffffffffffffffffffffffffffffff16906020019092919080359060200190929190505050611d77565b604051808215151515815260200191505060405180910390f35b34801561077d57600080fd5b50610786611fae565b604051808215151515815260200191505060405180910390f35b3480156107ac57600080fd5b506107b5612156565b6040518082815260200191505060405180910390f35b3480156107d757600080fd5b50610824600480360360408110156107ee57600080fd5b81019080803573ffffffffffffffffffffffffffffffffffffffff16906020019092919080359060200190929190505050612163565b604051808273ffffffffffffffffffffffffffffffffffffffff1673ffffffffffffffffffffffffffffffffffffffff16815260200191505060405180910390f35b34801561087257600080fd5b5061087b61226f565b6040518082815260200191505060405180910390f35b34801561089d57600080fd5b506108ca600480360360208110156108b457600080fd5b8101908080359060200190929190505050612275565b005b3480156108d857600080fd5b50610929600480360360808110156108ef57600080fd5b810190808035906020019092919080359060200190929190803563ffffffff1690602001909291908035906020019092919050505061232a565b6040518082815260200191505060405180910390f35b34801561094b57600080fd5b50610954612462565b6040518082815260200191505060405180910390f35b34801561097657600080fd5b506109ad6004803603604081101561098d57600080fd5b810190808035906020019092919080359060200190929190505050612468565b604051808215151515815260200191505060405180910390f35b3480156109d357600080fd5b506109dc612796565b6040518080602001828103825283818151815260200191508051906020019080838360005b83811015610a1c578082015181840152602081019050610a01565b50505050905090810190601f168015610a495780820380516001836020036101000a031916815260200191505b509250505060405180910390f35b348015610a6357600080fd5b50610a9060048036036020811015610a7a57600080fd5b8101908080359060200190929190505050612834565b604051808273ffffffffffffffffffffffffffffffffffffffff1673ffffffffffffffffffffffffffffffffffffffff16815260200191505060405180910390f35b348015610ade57600080fd5b50610b2b60048036036040811015610af557600080fd5b81019080803573ffffffffffffffffffffffffffffffffffffffff16906020019092919080359060200190929190505050612872565b604051808215151515815260200191505060405180910390f35b348015610b5157600080fd5b50610b7e60048036036020811015610b6857600080fd5b8101908080359060200190929190505050612ab3565b604051808273ffffffffffffffffffffffffffffffffffffffff1673ffffffffffffffffffffffffffffffffffffffff16815260200191505060405180910390f35b348015610bcc57600080fd5b50610c0f60048036036020811015610be357600080fd5b81019080803573ffffffffffffffffffffffffffffffffffffffff169060200190929190505050612af1565b6040518082815260200191505060405180910390f35b348015610c3157600080fd5b50610c7460048036036020811015610c4857600080fd5b81019080803573ffffffffffffffffffffffffffffffffffffffff169060200190929190505050612b3d565b6040518082815260200191505060405180910390f35b348015610c9657600080fd5b50610c9f612b86565b005b610ce360048036036020811015610cb757600080fd5b81019080803573ffffffffffffffffffffffffffffffffffffffff169060200190929190505050612c5a565b005b348015610cf157600080fd5b50610d3460048036036020811015610d0857600080fd5b81019080803573ffffffffffffffffffffffffffffffffffffffff169060200190929190505050612f48565b6040518085815260200184815260200183815260200182815260200194505050505060405180910390f35b348015610d6b57600080fd5b50610d74612ff9565b6040518082815260200191505060405180910390f35b348015610d9657600080fd5b50610dd960048036036020811015610dad57600080fd5b81019080803573ffffffffffffffffffffffffffffffffffffffff169060200190929190505050612ffe565b604051808681526020018581526020018481526020018381526020018281526020019550505050505060405180910390f35b348015610e1757600080fd5b50610e4e60048036036040811015610e2e57600080fd5b810190808035906020019092919080359060200190929190505050613034565b6040518082815260200191505060405180910390f35b348015610e7057600080fd5b50610e79613177565b604051808273ffffffffffffffffffffffffffffffffffffffff1673ffffffffffffffffffffffffffffffffffffffff16815260200191505060405180910390f35b348015610ec757600080fd5b50610ed06131a1565b604051808215151515815260200191505060405180910390f35b348015610ef657600080fd5b50610f2360048036036020811015610f0d57600080fd5b81019080803590602001909291905050506131f9565b6040518082815260200191505060405180910390f35b348015610f4557600080fd5b50610f4e613219565b6040518082815260200191505060405180910390f35b348015610f7057600080fd5b50610f7961321f565b6040518082815260200191505060405180910390f35b348015610f9b57600080fd5b50610fe860048036036040811015610fb257600080fd5b81019080803573ffffffffffffffffffffffffffffffffffffffff16906020019092919080359060200190929190505050613225565b604051808215151515815260200191505060405180910390f35b34801561100e57600080fd5b5061105b6004803603604081101561102557600080fd5b81019080803573ffffffffffffffffffffffffffffffffffffffff1690602001909291908035906020019092919050505061345c565b604051808215151515815260200191505060405180910390f35b34801561108157600080fd5b506110ce6004803603604081101561109857600080fd5b81019080803573ffffffffffffffffffffffffffffffffffffffff16906020019092919080359060200190929190505050613473565b604051808273ffffffffffffffffffffffffffffffffffffffff1673ffffffffffffffffffffffffffffffffffffffff16815260200191505060405180910390f35b34801561111c57600080fd5b506111256134c0565b6040518082815260200191505060405180910390f35b34801561114757600080fd5b506111506134c6565b6040518082815260200191505060405180910390f35b34801561117257600080fd5b5061119f6004803603602081101561118957600080fd5b81019080803590602001909291905050506134cb565b005b3480156111ad57600080fd5b50611210600480360360408110156111c457600080fd5b81019080803573ffffffffffffffffffffffffffffffffffffffff169060200190929190803573ffffffffffffffffffffffffffffffffffffffff1690602001909291905050506134e8565b6040518082815260200191505060405180910390f35b34801561123257600080fd5b506112756004803603602081101561124957600080fd5b81019080803573ffffffffffffffffffffffffffffffffffffffff16906020019092919050505061356f565b6040518082815260200191505060405180910390f35b34801561129757600080fd5b506112da600480360360208110156112ae57600080fd5b81019080803573ffffffffffffffffffffffffffffffffffffffff169060200190929190505050613587565b005b3480156112e857600080fd5b5061132b600480360360208110156112ff57600080fd5b81019080803573ffffffffffffffffffffffffffffffffffffffff1690602001909291905050506135a6565b604051808215151515815260200191505060405180910390f35b34801561135157600080fd5b5061135a613768565b6040518082815260200191505060405180910390f35b34801561137c57600080fd5b506113bf6004803603602081101561139357600080fd5b81019080803573ffffffffffffffffffffffffffffffffffffffff16906020019092919050505061376e565b6040518082815260200191505060405180910390f35b6085543a11151515611432576040517f08c379a0000000000000000000000000000000000000000000000000000000008152600401808060200182810382526036815260200180615f5f6036913960400191505060405180910390fd5b6000341115156114aa576040517f08c379a000000000000000000000000000000000000000000000000000000000815260040180806020018281038252601e8152602001807f4d7573742073656e6420657468657220746f2062757920746f6b656e732e000081525060200191505060405180910390fd5b6114b43433613804565b50565b60008060908054905014156114cf576000905061157c565b8173ffffffffffffffffffffffffffffffffffffffff166090608c60008573ffffffffffffffffffffffffffffffffffffffff1673ffffffffffffffffffffffffffffffffffffffff1681526020019081526020016000206004015481548110151561153757fe5b9060005260206000200160009054906101000a900473ffffffffffffffffffffffffffffffffffffffff1673ffffffffffffffffffffffffffffffffffffffff161490505b919050565b608e6020528060005260406000206000915090505481565b60006115a3615edd565b608c60008473ffffffffffffffffffffffffffffffffffffffff1673ffffffffffffffffffffffffffffffffffffffff16815260200190815260200160002060a060405190810160405290816000820154815260200160018201548152602001600282015481526020016003820154815260200160048201548152505090508060800151915050919050565b60008073ffffffffffffffffffffffffffffffffffffffff168373ffffffffffffffffffffffffffffffffffffffff161415151561166c57600080fd5b81608360003373ffffffffffffffffffffffffffffffffffffffff1673ffffffffffffffffffffffffffffffffffffffff16815260200190815260200160002060008573ffffffffffffffffffffffffffffffffffffffff1673ffffffffffffffffffffffffffffffffffffffff168152602001908152602001600020819055508273ffffffffffffffffffffffffffffffffffffffff163373ffffffffffffffffffffffffffffffffffffffff167f8c5be1e5ebec7d5bd14f71427d1e84f3dd0314c0f7b2291e5b200ac8c7c3b925846040518082815260200191505060405180910390a36001905092915050565b60885481565b6000608454905090565b60008082101580156117845750611781612156565b82105b15156117f8576040517f08c379a000000000000000000000000000000000000000000000000000000000815260040180806020018281038252600d8152602001807f496e76616c696420696e6465780000000000000000000000000000000000000081525060200191505060405180910390fd5b600060908381548110151561180957fe5b9060005260206000200160009054906101000a900473ffffffffffffffffffffffffffffffffffffffff16905061183e615edd565b608c60008373ffffffffffffffffffffffffffffffffffffffff1673ffffffffffffffffffffffffffffffffffffffff16815260200190815260200160002060a06040519081016040529081600082015481526020016001820154815260200160028201548152602001600382015481526020016004820154815250509050806000015192505050919050565b600061195c82608360008773ffffffffffffffffffffffffffffffffffffffff1673ffffffffffffffffffffffffffffffffffffffff16815260200190815260200160002060003373ffffffffffffffffffffffffffffffffffffffff1673ffffffffffffffffffffffffffffffffffffffff1681526020019081526020016000205461392c90919063ffffffff16565b608360008673ffffffffffffffffffffffffffffffffffffffff1673ffffffffffffffffffffffffffffffffffffffff16815260200190815260200160002060003373ffffffffffffffffffffffffffffffffffffffff1673ffffffffffffffffffffffffffffffffffffffff168152602001908152602001600020819055506119e784848461394e565b3373ffffffffffffffffffffffffffffffffffffffff168473ffffffffffffffffffffffffffffffffffffffff167f8c5be1e5ebec7d5bd14f71427d1e84f3dd0314c0f7b2291e5b200ac8c7c3b925608360008873ffffffffffffffffffffffffffffffffffffffff1673ffffffffffffffffffffffffffffffffffffffff16815260200190815260200160002060003373ffffffffffffffffffffffffffffffffffffffff1673ffffffffffffffffffffffffffffffffffffffff168152602001908152602001600020546040518082815260200191505060405180910390a3600190509392505050565b6000611aec611ae0611762565b60875460885485611af3565b9050919050565b60008085118015611b045750600084115b8015611b16575060008363ffffffff16115b8015611b3257506305f5e10063ffffffff168363ffffffff1611155b1515611b3d57600080fd5b6000821415611b4f5760009050611bf4565b6305f5e10063ffffffff168363ffffffff161415611b9357611b8c84611b7e8488613b1e90919063ffffffff16565b613b5c90919063ffffffff16565b9050611bf4565b6000806000611bab8786613b8690919063ffffffff16565b9050611bbd8188886305f5e100613ba7565b809350819450505060008260ff16611bde858b613b1e90919063ffffffff16565b908060020a820491505090508881039450505050505b949350505050565b60008060008060008510158015611c195750611c16612156565b85105b1515611c8d576040517f08c379a000000000000000000000000000000000000000000000000000000000815260040180806020018281038252600d8152602001807f496e76616c696420696e6465780000000000000000000000000000000000000081525060200191505060405180910390fd5b6000609086815481101515611c9e57fe5b9060005260206000200160009054906101000a900473ffffffffffffffffffffffffffffffffffffffff169050611cd3615edd565b608c60008373ffffffffffffffffffffffffffffffffffffffff1673ffffffffffffffffffffffffffffffffffffffff16815260200190815260200160002060a060405190810160405290816000820154815260200160018201548152602001600282015481526020016003820154815260200160048201548152505090508060000151816020015182604001518360600151955095509550955050509193509193565b60008073ffffffffffffffffffffffffffffffffffffffff168373ffffffffffffffffffffffffffffffffffffffff1614151515611db457600080fd5b611e4382608360003373ffffffffffffffffffffffffffffffffffffffff1673ffffffffffffffffffffffffffffffffffffffff16815260200190815260200160002060008673ffffffffffffffffffffffffffffffffffffffff1673ffffffffffffffffffffffffffffffffffffffff16815260200190815260200160002054613b8690919063ffffffff16565b608360003373ffffffffffffffffffffffffffffffffffffffff1673ffffffffffffffffffffffffffffffffffffffff16815260200190815260200160002060008573ffffffffffffffffffffffffffffffffffffffff1673ffffffffffffffffffffffffffffffffffffffff168152602001908152602001600020819055508273ffffffffffffffffffffffffffffffffffffffff163373ffffffffffffffffffffffffffffffffffffffff167f8c5be1e5ebec7d5bd14f71427d1e84f3dd0314c0f7b2291e5b200ac8c7c3b925608360003373ffffffffffffffffffffffffffffffffffffffff1673ffffffffffffffffffffffffffffffffffffffff16815260200190815260200160002060008773ffffffffffffffffffffffffffffffffffffffff1673ffffffffffffffffffffffffffffffffffffffff168152602001908152602001600020546040518082815260200191505060405180910390a36001905092915050565b6000611fb86131a1565b1515611fc357600080fd5b608b54609180549050141515611fd857600080fd5b6000608a54905060008090505b609180549050811015612122576000611ffc613d8b565b9050612006615edd565b608c60008373ffffffffffffffffffffffffffffffffffffffff1673ffffffffffffffffffffffffffffffffffffffff16815260200190815260200160002060a060405190810160405290816000820154815260200160018201548152602001600282015481526020016003820154815260200160048201548152505090506000612095848360000151613034565b90506120a1838261345c565b5080850394507f34c5678585a489ad2beb41e46660a35d2aacb6e739ffc2ea3720e04ab711e3298382604051808373ffffffffffffffffffffffffffffffffffffffff1673ffffffffffffffffffffffffffffffffffffffff1681526020018281526020019250505060405180910390a15050508080600101915050611fe5565b5060006091816121329190615f0d565b5061213b613e9f565b5061214581613f95565b506000608a81905550600191505090565b6000609080549050905090565b600080821015801561217c575061217983612af1565b82105b15156121f0576040517f08c379a000000000000000000000000000000000000000000000000000000000815260040180806020018281038252600d8152602001807f496e76616c696420696e6465780000000000000000000000000000000000000081525060200191505060405180910390fd5b608f60008473ffffffffffffffffffffffffffffffffffffffff1673ffffffffffffffffffffffffffffffffffffffff1681526020019081526020016000208281548110151561223c57fe5b9060005260206000200160009054906101000a900473ffffffffffffffffffffffffffffffffffffffff16905092915050565b60855481565b6085543a111515156122d2576040517f08c379a0000000000000000000000000000000000000000000000000000000008152600401808060200182810382526036815260200180615f5f6036913960400191505060405180910390fd5b60006122dd82613fbc565b90503373ffffffffffffffffffffffffffffffffffffffff166108fc829081150290604051600060405180830381858888f19350505050158015612325573d6000803e3d6000fd5b505050565b6000808511801561233b5750600084115b801561234d575060008363ffffffff16115b801561236957506305f5e10063ffffffff168363ffffffff1611155b80156123755750848211155b151561238057600080fd5b6000821415612392576000905061245a565b848214156123a25783905061245a565b6305f5e10063ffffffff168363ffffffff1614156123e6576123df856123d18487613b1e90919063ffffffff16565b613b5c90919063ffffffff16565b905061245a565b6000806000848803905061240088826305f5e10089613ba7565b8093508194505050600061241d8489613b1e90919063ffffffff16565b905060008360ff16899060020a02905061245285612444838561392c90919063ffffffff16565b613b5c90919063ffffffff16565b955050505050505b949350505050565b608b5481565b6000612472613177565b73ffffffffffffffffffffffffffffffffffffffff163373ffffffffffffffffffffffffffffffffffffffff16141515156124f8576040517f08c379a000000000000000000000000000000000000000000000000000000000815260040180806020018281038252602a815260200180615fba602a913960400191505060405180910390fd5b600083111515612570576040517f08c379a000000000000000000000000000000000000000000000000000000000815260040180806020018281038252601c8152602001807f4d696e696d756d2066756e64696e672063616e6e6f7420626520302e0000000081525060200191505060405180910390fd5b612579336114b7565b1515156125d1576040517f08c379a0000000000000000000000000000000000000000000000000000000008152600401808060200182810382526047815260200180615fe46047913960600191505060405180910390fd5b6125d9615edd565b60a060405190810160405280600081526020018581526020018481526020014281526020016000815250905080608c60003373ffffffffffffffffffffffffffffffffffffffff1673ffffffffffffffffffffffffffffffffffffffff1681526020019081526020016000206000820151816000015560208201518160010155604082015181600201556060820151816003015560808201518160040155905050600160903390806001815401808255809150509060018203906000526020600020016000909192909190916101000a81548173ffffffffffffffffffffffffffffffffffffffff021916908373ffffffffffffffffffffffffffffffffffffffff16021790555003608c60003373ffffffffffffffffffffffffffffffffffffffff1673ffffffffffffffffffffffffffffffffffffffff168152602001908152602001600020600401819055507f68365eb7cc3ad309735136b92b0742f9588ae91c706315a4088a06ec255dd29233604051808273ffffffffffffffffffffffffffffffffffffffff1673ffffffffffffffffffffffffffffffffffffffff16815260200191505060405180910390a1600191505092915050565b60008054600181600116156101000203166002900480601f01602080910402602001604051908101604052809291908181526020018280546001816001161561010002031660029004801561282c5780601f106128015761010080835404028352916020019161282c565b820191906000526020600020905b81548152906001019060200180831161280f57829003601f168201915b505050505081565b60918181548110151561284357fe5b906000526020600020016000915054906101000a900473ffffffffffffffffffffffffffffffffffffffff1681565b600080821115156128eb576040517f08c379a000000000000000000000000000000000000000000000000000000000815260040180806020018281038252601a8152602001807f4d757374207370656e6420746f6b656e7320746f20766f74652e00000000000081525060200191505060405180910390fd5b6128fc6128f6613177565b8361345c565b5081608a6000828254019250508190555081608c60008573ffffffffffffffffffffffffffffffffffffffff1673ffffffffffffffffffffffffffffffffffffffff1681526020019081526020016000206000016000828254019250508190555061296683614163565b50608f60003373ffffffffffffffffffffffffffffffffffffffff1673ffffffffffffffffffffffffffffffffffffffff1681526020019081526020016000208390806001815401808255809150509060018203906000526020600020016000909192909190916101000a81548173ffffffffffffffffffffffffffffffffffffffff021916908373ffffffffffffffffffffffffffffffffffffffff160217905550507fe866e43e4702dd55440f06418e56b0ea16a1bfef2ee7442a4a81c77877a1b350338484604051808473ffffffffffffffffffffffffffffffffffffffff1673ffffffffffffffffffffffffffffffffffffffff1681526020018373ffffffffffffffffffffffffffffffffffffffff1673ffffffffffffffffffffffffffffffffffffffff168152602001828152602001935050505060405180910390a16001905092915050565b609081815481101515612ac257fe5b906000526020600020016000915054906101000a900473ffffffffffffffffffffffffffffffffffffffff1681565b6000608f60008373ffffffffffffffffffffffffffffffffffffffff1673ffffffffffffffffffffffffffffffffffffffff168152602001908152602001600020805490509050919050565b6000608260008373ffffffffffffffffffffffffffffffffffffffff1673ffffffffffffffffffffffffffffffffffffffff168152602001908152602001600020549050919050565b612b8e6131a1565b1515612b9957600080fd5b600073ffffffffffffffffffffffffffffffffffffffff16608160009054906101000a900473ffffffffffffffffffffffffffffffffffffffff1673ffffffffffffffffffffffffffffffffffffffff167f8be0079c531659141344cd1fd0a4f28419497f9722a3daafe3b4186f6b6457e060405160405180910390a36000608160006101000a81548173ffffffffffffffffffffffffffffffffffffffff021916908373ffffffffffffffffffffffffffffffffffffffff160217905550565b6085543a11151515612cb7576040517f08c379a0000000000000000000000000000000000000000000000000000000008152600401808060200182810382526036815260200180615f5f6036913960400191505060405180910390fd5b600034111515612d2f576040517f08c379a000000000000000000000000000000000000000000000000000000000815260040180806020018281038252601e8152602001807f4d7573742073656e6420657468657220746f2062757920746f6b656e732e000081525060200191505060405180910390fd5b608954600202608e60008373ffffffffffffffffffffffffffffffffffffffff1673ffffffffffffffffffffffffffffffffffffffff1681526020019081526020016000205442031115612dc7576001608d60008373ffffffffffffffffffffffffffffffffffffffff1673ffffffffffffffffffffffffffffffffffffffff16815260200190815260200160002081905550612e9b565b608954608e60008373ffffffffffffffffffffffffffffffffffffffff1673ffffffffffffffffffffffffffffffffffffffff168152602001908152602001600020544203101515612e9a576001608d60008373ffffffffffffffffffffffffffffffffffffffff1673ffffffffffffffffffffffffffffffffffffffff1681526020019081526020016000205401608d60008373ffffffffffffffffffffffffffffffffffffffff1673ffffffffffffffffffffffffffffffffffffffff168152602001908152602001600020819055505b5b42608e60008373ffffffffffffffffffffffffffffffffffffffff1673ffffffffffffffffffffffffffffffffffffffff168152602001908152602001600020819055506000612f29608d60008473ffffffffffffffffffffffffffffffffffffffff1673ffffffffffffffffffffffffffffffffffffffff16815260200190815260200160002054614370565b9050612f436064823402811515612f3c57fe5b0483613804565b505050565b600080600080612f56615edd565b608c60008773ffffffffffffffffffffffffffffffffffffffff1673ffffffffffffffffffffffffffffffffffffffff16815260200190815260200160002060a0604051908101604052908160008201548152602001600182015481526020016002820154815260200160038201548152602001600482015481525050905080600001518160200151826040015183606001519450945094509450509193509193565b600181565b608c6020528060005260406000206000915090508060000154908060010154908060020154908060030154908060040154905085565b6000608a548211151515613093576040517f08c379a000000000000000000000000000000000000000000000000000000000815260040180806020018281038252602881526020018061602b6028913960400191505060405180910390fd5b600083101580156130a55750608b5483105b1515613119576040517f08c379a00000000000000000000000000000000000000000000000000000000081526004018080602001828103825260118152602001807f5072697a65206e6f742070726573656e7400000000000000000000000000000081525060200191505060405180910390fd5b6000608a54836103e80281151561312c57fe5b04905060008161314186609180549050614405565b019050600060026103e883613154614445565b0281151561315e57fe5b0481151561316857fe5b04905080935050505092915050565b6000608160009054906101000a900473ffffffffffffffffffffffffffffffffffffffff16905090565b6000608160009054906101000a900473ffffffffffffffffffffffffffffffffffffffff1673ffffffffffffffffffffffffffffffffffffffff163373ffffffffffffffffffffffffffffffffffffffff1614905090565b6000613212613206611762565b6087546088548561232a565b9050919050565b608a5481565b60875481565b60008073ffffffffffffffffffffffffffffffffffffffff168373ffffffffffffffffffffffffffffffffffffffff161415151561326257600080fd5b6132f182608360003373ffffffffffffffffffffffffffffffffffffffff1673ffffffffffffffffffffffffffffffffffffffff16815260200190815260200160002060008673ffffffffffffffffffffffffffffffffffffffff1673ffffffffffffffffffffffffffffffffffffffff1681526020019081526020016000205461392c90919063ffffffff16565b608360003373ffffffffffffffffffffffffffffffffffffffff1673ffffffffffffffffffffffffffffffffffffffff16815260200190815260200160002060008573ffffffffffffffffffffffffffffffffffffffff1673ffffffffffffffffffffffffffffffffffffffff168152602001908152602001600020819055508273ffffffffffffffffffffffffffffffffffffffff163373ffffffffffffffffffffffffffffffffffffffff167f8c5be1e5ebec7d5bd14f71427d1e84f3dd0314c0f7b2291e5b200ac8c7c3b925608360003373ffffffffffffffffffffffffffffffffffffffff1673ffffffffffffffffffffffffffffffffffffffff16815260200190815260200160002060008773ffffffffffffffffffffffffffffffffffffffff1673ffffffffffffffffffffffffffffffffffffffff168152602001908152602001600020546040518082815260200191505060405180910390a36001905092915050565b600061346933848461394e565b6001905092915050565b608f6020528160005260406000208181548110151561348e57fe5b906000526020600020016000915091509054906101000a900473ffffffffffffffffffffffffffffffffffffffff1681565b60895481565b600681565b6134d36131a1565b15156134de57600080fd5b8060858190555050565b6000608360008473ffffffffffffffffffffffffffffffffffffffff1673ffffffffffffffffffffffffffffffffffffffff16815260200190815260200160002060008373ffffffffffffffffffffffffffffffffffffffff1673ffffffffffffffffffffffffffffffffffffffff16815260200190815260200160002054905092915050565b608d6020528060005260406000206000915090505481565b61358f6131a1565b151561359a57600080fd5b6135a381614463565b50565b60006135b06131a1565b15156135bb57600080fd5b6135c4826114b7565b151561361b576040517f08c379a0000000000000000000000000000000000000000000000000000000008152600401808060200182810382526025815260200180615f956025913960400191505060405180910390fd5b6000608c60008473ffffffffffffffffffffffffffffffffffffffff1673ffffffffffffffffffffffffffffffffffffffff1681526020019081526020016000206004015490506000609060016090805490500381548110151561367b57fe5b9060005260206000200160009054906101000a900473ffffffffffffffffffffffffffffffffffffffff169050806090838154811015156136b857fe5b9060005260206000200160006101000a81548173ffffffffffffffffffffffffffffffffffffffff021916908373ffffffffffffffffffffffffffffffffffffffff16021790555081608c60008373ffffffffffffffffffffffffffffffffffffffff1673ffffffffffffffffffffffffffffffffffffffff16815260200190815260200160002060040181905550609080548091906001900361375c9190615f0d565b50600192505050919050565b60865481565b6000613778615edd565b608c60008473ffffffffffffffffffffffffffffffffffffffff1673ffffffffffffffffffffffffffffffffffffffff16815260200190815260200160002060a060405190810160405290816000820154815260200160018201548152602001600282015481526020016003820154815260200160048201548152505090508060000151915050919050565b6000808311151561387d576040517f08c379a00000000000000000000000000000000000000000000000000000000081526004018080602001828103825260198152602001807f4465706f736974206d757374206265206e6f6e2d7a65726f2e0000000000000081525060200191505060405180910390fd5b600061388884611ad3565b9050613894838261455f565b6138a984608754613b8690919063ffffffff16565b6087819055507fa9b5c37908cbe11fc228c10af0ce98bf944b069510207388ac875a3d2a314bbe838286604051808473ffffffffffffffffffffffffffffffffffffffff1673ffffffffffffffffffffffffffffffffffffffff168152602001838152602001828152602001935050505060405180910390a18091505092915050565b600082821115151561393d57600080fd5b600082840390508091505092915050565b600073ffffffffffffffffffffffffffffffffffffffff168273ffffffffffffffffffffffffffffffffffffffff161415151561398a57600080fd5b6139dc81608260008673ffffffffffffffffffffffffffffffffffffffff1673ffffffffffffffffffffffffffffffffffffffff1681526020019081526020016000205461392c90919063ffffffff16565b608260008573ffffffffffffffffffffffffffffffffffffffff1673ffffffffffffffffffffffffffffffffffffffff16815260200190815260200160002081905550613a7181608260008573ffffffffffffffffffffffffffffffffffffffff1673ffffffffffffffffffffffffffffffffffffffff16815260200190815260200160002054613b8690919063ffffffff16565b608260008473ffffffffffffffffffffffffffffffffffffffff1673ffffffffffffffffffffffffffffffffffffffff168152602001908152602001600020819055508173ffffffffffffffffffffffffffffffffffffffff168373ffffffffffffffffffffffffffffffffffffffff167fddf252ad1be2c89b69c2b068fc378daa952ba7f163c4a11628f55a4df523b3ef836040518082815260200191505060405180910390a3505050565b600080831415613b315760009050613b56565b60008284029050828482811515613b4457fe5b04141515613b5157600080fd5b809150505b92915050565b60008082111515613b6c57600080fd5b60008284811515613b7957fe5b0490508091505092915050565b6000808284019050838110151515613b9d57600080fd5b8091505092915050565b60008070020000000000000000000000000000000086101515613c32576040517f08c379a00000000000000000000000000000000000000000000000000000000081526004018080602001828103825260188152602001807f626173654e2065786365656473206d61782076616c75652e000000000000000081525060200191505060405180910390fd5b848610151515613caa576040517f08c379a000000000000000000000000000000000000000000000000000000000815260040180806020018281038252601c8152602001807f4261736573203c203120617265206e6f7420737570706f727465642e0000000081525060200191505060405180910390fd5b600080866f800000000000000000000000000000008902811515613cca57fe5b04905070015bf0a8b1457695355fb8ac404e7a79e3811015613cf657613cef816146b5565b9150613d02565b613cff81614c85565b91505b60008563ffffffff168763ffffffff168402811515613d1d57fe5b049050700800000000000000000000000000000000811015613d5057613d4281614dca565b607f94509450505050613d82565b6000613d5b8261538a565b9050613d7881607f0360ff1683908060020a82049150508261544f565b8195509550505050505b94509492505050565b600080613d966158f2565b90506000609182815481101515613da957fe5b9060005260206000200160009054906101000a900473ffffffffffffffffffffffffffffffffffffffff16905060016091805490500382141515613e81576091600160918054905003815481101515613dfe57fe5b9060005260206000200160009054906101000a900473ffffffffffffffffffffffffffffffffffffffff16609183815481101515613e3857fe5b9060005260206000200160006101000a81548173ffffffffffffffffffffffffffffffffffffffff021916908373ffffffffffffffffffffffffffffffffffffffff1602179055505b6091805480919060019003613e969190615f0d565b50809250505090565b600080600090505b609080549050811015613f8d57613ebc615edd565b608c6000609084815481101515613ecf57fe5b9060005260206000200160009054906101000a900473ffffffffffffffffffffffffffffffffffffffff1673ffffffffffffffffffffffffffffffffffffffff1673ffffffffffffffffffffffffffffffffffffffff16815260200190815260200160002060a060405190810160405290816000820154815260200160018201548152602001600282015481526020016003820154815260200160048201548152505090506000816000018181525050508080600101915050613ea7565b506001905090565b6000613f9f6131a1565b1515613faa57600080fd5b613fb382612275565b60019050919050565b60008082111515614035576040517f08c379a00000000000000000000000000000000000000000000000000000000081526004018080602001828103825260188152602001807f416d6f756e74206d757374206265206e6f6e2d7a65726f2e000000000000000081525060200191505060405180910390fd5b8161403f33612b3d565b101515156140b5576040517f08c379a000000000000000000000000000000000000000000000000000000000815260040180806020018281038252601c8152602001807f496e73756666696369656e7420746f6b656e7320746f206275726e2e0000000081525060200191505060405180910390fd5b60006140c0836131f9565b90506140d78160875461392c90919063ffffffff16565b6087819055506140e73384615aed565b7f42cdee5ad59c78ee53adb50e8d3f4b66918ce660505ab55abb44035e4c79ad1d338483604051808473ffffffffffffffffffffffffffffffffffffffff1673ffffffffffffffffffffffffffffffffffffffff168152602001838152602001828152602001935050505060405180910390a180915050919050565b600061416d615edd565b608c60008473ffffffffffffffffffffffffffffffffffffffff1673ffffffffffffffffffffffffffffffffffffffff16815260200190815260200160002060a060405190810160405290816000820154815260200160018201548152602001600282015481526020016003820154815260200160048201548152505090508060200151816000015110151561436657608b5460918054905010156142775760918390806001815401808255809150509060018203906000526020600020016000909192909190916101000a81548173ffffffffffffffffffffffffffffffffffffffff021916908373ffffffffffffffffffffffffffffffffffffffff16021790555050614365565b6000614281615c43565b90508160000151608c600060918481548110151561429b57fe5b9060005260206000200160009054906101000a900473ffffffffffffffffffffffffffffffffffffffff1673ffffffffffffffffffffffffffffffffffffffff1673ffffffffffffffffffffffffffffffffffffffff168152602001908152602001600020600001541015614363578360918281548110151561431a57fe5b9060005260206000200160006101000a81548173ffffffffffffffffffffffffffffffffffffffff021916908373ffffffffffffffffffffffffffffffffffffffff1602179055505b505b5b6001915050919050565b600060066005028210151561438b576006600f029050614400565b6006600402821015156143a657816006600a02019050614400565b6006600302821015156143c3578160020260068002019050614400565b6006600202821015156143e157816003026006600302019050614400565b6006821015156143f957816004026006019050614400565b8160050290505b919050565b60008060066001846003026002860a6002020101840281151561442457fe5b0490508060028585030a6103e80281151561443b57fe5b0491505092915050565b60006103e860016103e803608a540281151561445d57fe5b04905090565b600073ffffffffffffffffffffffffffffffffffffffff168173ffffffffffffffffffffffffffffffffffffffff161415151561449f57600080fd5b8073ffffffffffffffffffffffffffffffffffffffff16608160009054906101000a900473ffffffffffffffffffffffffffffffffffffffff1673ffffffffffffffffffffffffffffffffffffffff167f8be0079c531659141344cd1fd0a4f28419497f9722a3daafe3b4186f6b6457e060405160405180910390a380608160006101000a81548173ffffffffffffffffffffffffffffffffffffffff021916908373ffffffffffffffffffffffffffffffffffffffff16021790555050565b600073ffffffffffffffffffffffffffffffffffffffff168273ffffffffffffffffffffffffffffffffffffffff161415151561459b57600080fd5b6145b081608454613b8690919063ffffffff16565b60848190555061460881608260008573ffffffffffffffffffffffffffffffffffffffff1673ffffffffffffffffffffffffffffffffffffffff16815260200190815260200160002054613b8690919063ffffffff16565b608260008473ffffffffffffffffffffffffffffffffffffffff1673ffffffffffffffffffffffffffffffffffffffff168152602001908152602001600020819055508173ffffffffffffffffffffffffffffffffffffffff16600073ffffffffffffffffffffffffffffffffffffffff167fddf252ad1be2c89b69c2b068fc378daa952ba7f163c4a11628f55a4df523b3ef836040518082815260200191505060405180910390a35050565b6000806000905060008060006fd3094c70f034de4b96ff7d5b6f99fcd886101515614720576f40000000000000000000000000000000840193506fd3094c70f034de4b96ff7d5b6f99fcd86f80000000000000000000000000000000870281151561471c57fe5b0495505b6fa45af1e1f40c333b3de1db4dd55f29a78610151561477f576f20000000000000000000000000000000840193506fa45af1e1f40c333b3de1db4dd55f29a76f80000000000000000000000000000000870281151561477b57fe5b0495505b6f910b022db7ae67ce76b441c27035c6a1861015156147de576f10000000000000000000000000000000840193506f910b022db7ae67ce76b441c27035c6a16f8000000000000000000000000000000087028115156147da57fe5b0495505b6f88415abbe9a76bead8d00cf112e4d4a88610151561483d576f08000000000000000000000000000000840193506f88415abbe9a76bead8d00cf112e4d4a86f80000000000000000000000000000000870281151561483957fe5b0495505b6f84102b00893f64c705e841d5d4064bd38610151561489c576f04000000000000000000000000000000840193506f84102b00893f64c705e841d5d4064bd36f80000000000000000000000000000000870281151561489857fe5b0495505b6f8204055aaef1c8bd5c3259f4822735a2861015156148fb576f02000000000000000000000000000000840193506f8204055aaef1c8bd5c3259f4822735a26f8000000000000000000000000000000087028115156148f757fe5b0495505b6f810100ab00222d861931c15e39b44e998610151561495a576f01000000000000000000000000000000840193506f810100ab00222d861931c15e39b44e996f80000000000000000000000000000000870281151561495657fe5b0495505b6f808040155aabbbe9451521693554f733861015156149b8576e800000000000000000000000000000840193506f808040155aabbbe9451521693554f7336f8000000000000000000000000000000087028115156149b457fe5b0495505b6f80000000000000000000000000000000860392508291506f800000000000000000000000000000008384028115156149ed57fe5b04905070010000000000000000000000000000000083700100000000000000000000000000000000038302811515614a2157fe5b04840193506f80000000000000000000000000000000818302811515614a4357fe5b049150700200000000000000000000000000000000836faaaaaaaaaaaaaaaaaaaaaaaaaaaaaaaa038302811515614a7657fe5b04840193506f80000000000000000000000000000000818302811515614a9857fe5b049150700300000000000000000000000000000000836f99999999999999999999999999999999038302811515614acb57fe5b04840193506f80000000000000000000000000000000818302811515614aed57fe5b049150700400000000000000000000000000000000836f92492492492492492492492492492492038302811515614b2057fe5b04840193506f80000000000000000000000000000000818302811515614b4257fe5b049150700500000000000000000000000000000000836f8e38e38e38e38e38e38e38e38e38e38e038302811515614b7557fe5b04840193506f80000000000000000000000000000000818302811515614b9757fe5b049150700600000000000000000000000000000000836f8ba2e8ba2e8ba2e8ba2e8ba2e8ba2e8b038302811515614bca57fe5b04840193506f80000000000000000000000000000000818302811515614bec57fe5b049150700700000000000000000000000000000000836f89d89d89d89d89d89d89d89d89d89d89038302811515614c1f57fe5b04840193506f80000000000000000000000000000000818302811515614c4157fe5b049150700800000000000000000000000000000000836f88888888888888888888888888888888038302811515614c7457fe5b048401935083945050505050919050565b60008060009050600083905070010000000000000000000000000000000081101515614cfe576000614cd16f8000000000000000000000000000000083811515614ccb57fe5b04615e3e565b90508060ff1682908060020a820491505091506f800000000000000000000000000000008160ff16029250505b6f80000000000000000000000000000000811115614d93576000607f90505b60008160ff161115614d91576f80000000000000000000000000000000828302811515614d4657fe5b04915070010000000000000000000000000000000082101515614d8557600182908060020a820491505091506001810360ff1660019060020a02830192505b80600190039050614d1d565b505b6f05b9de1d10bf4103d647b0955897ba806f03f80fe03f80fe03f80fe03f80fe03f88302811515614dc057fe5b0492505050919050565b600080600090506000806f1000000000000000000000000000000085811515614def57fe5b0691508190506f80000000000000000000000000000000828202811515614e1257fe5b0490506710e1b3be415a00008102830192506f80000000000000000000000000000000828202811515614e4157fe5b0490506705a0913f6b1e00008102830192506f80000000000000000000000000000000828202811515614e7057fe5b049050670168244fdac780008102830192506f80000000000000000000000000000000828202811515614e9f57fe5b049050664807432bc180008102830192506f80000000000000000000000000000000828202811515614ecd57fe5b049050660c0135dca040008102830192506f80000000000000000000000000000000828202811515614efb57fe5b0490506601b707b1cdc0008102830192506f80000000000000000000000000000000828202811515614f2957fe5b0490506536e0f639b8008102830192506f80000000000000000000000000000000828202811515614f5657fe5b049050650618fee9f8008102830192506f80000000000000000000000000000000828202811515614f8357fe5b049050649c197dcc008102830192506f80000000000000000000000000000000828202811515614faf57fe5b049050640e30dce4008102830192506f80000000000000000000000000000000828202811515614fdb57fe5b04905064012ebd13008102830192506f8000000000000000000000000000000082820281151561500757fe5b0490506317499f008102830192506f8000000000000000000000000000000082820281151561503257fe5b0490506301a9d4808102830192506f8000000000000000000000000000000082820281151561505d57fe5b049050621c63808102830192506f8000000000000000000000000000000082820281151561508757fe5b0490506201c6388102830192506f800000000000000000000000000000008282028115156150b157fe5b049050611ab88102830192506f800000000000000000000000000000008282028115156150da57fe5b04905061017c8102830192506f8000000000000000000000000000000082820281151561510357fe5b04905060148102830192506f8000000000000000000000000000000082820281151561512b57fe5b04905060018102830192506f80000000000000000000000000000000826721c3677c82b400008581151561515b57fe5b040101925060006f1000000000000000000000000000000086161415156151af5770018ebef9eac820ae8682b9793ac6d1e7767001c3d6a24ed82218787d624d3e5eba95f984028115156151ab57fe5b0492505b60006f2000000000000000000000000000000086161415156151fe577001368b2fc6f9609fe7aceb46aa619baed470018ebef9eac820ae8682b9793ac6d1e77884028115156151fa57fe5b0492505b60006f40000000000000000000000000000000861614151561524c576fbc5ab1b16779be3575bd8f0520a9f21f7001368b2fc6f9609fe7aceb46aa619baed5840281151561524857fe5b0492505b60006f800000000000000000000000000000008616141515615299576f454aaa8efe072e7f6ddbab84b40a55c96fbc5ab1b16779be3575bd8f0520a9f21e840281151561529557fe5b0492505b600070010000000000000000000000000000000086161415156152e7576f0960aadc109e7a3bf4578099615711ea6f454aaa8efe072e7f6ddbab84b40a55c584028115156152e357fe5b0492505b60007002000000000000000000000000000000008616141515615334576e2bf84208204f5977f9a8cf01fdce3d6f0960aadc109e7a3bf4578099615711d7840281151561533057fe5b0492505b6000700400000000000000000000000000000000861614151561537f576d03c6ab775dd0b95b4cbee7e65d116e2bf84208204f5977f9a8cf01fdc307840281151561537b57fe5b0492505b829350505050919050565b600080602090506000607f90505b8060ff166001830160ff1610156153ed576000600282840160ff168115156153bc57fe5b0490508460018260ff166080811015156153d257fe5b01541015156153e3578092506153e7565b8091505b50615398565b8360018260ff1660808110151561540057fe5b015410151561541357809250505061544a565b8360018360ff1660808110151561542657fe5b015410151561543957819250505061544a565b6000151561544357fe5b6000925050505b919050565b60008083905060008090508360ff16858302908060020a820491505091506f03442c4e6074a82f1797f72ac00000008202810190508360ff16858302908060020a820491505091506f0116b96f757c380fb287fd0e400000008202810190508360ff16858302908060020a820491505091506e45ae5bdd5f0e03eca1ff43900000008202810190508360ff16858302908060020a820491505091506e0defabf91302cd95b9ffda500000008202810190508360ff16858302908060020a820491505091506e02529ca9832b22439efff9b80000008202810190508360ff16858302908060020a820491505091506d54f1cf12bd04e516b6da880000008202810190508360ff16858302908060020a820491505091506d0a9e39e257a09ca2d6db510000008202810190508360ff16858302908060020a820491505091506d012e066e7b839fa050c3090000008202810190508360ff16858302908060020a820491505091506c1e33d7d926c329a1ad1a8000008202810190508360ff16858302908060020a820491505091506c02bee513bdb4a6b19b5f8000008202810190508360ff16858302908060020a820491505091506b3a9316fa79b88eccf2a000008202810190508360ff16858302908060020a820491505091506b048177ebe1fa8123752000008202810190508360ff16858302908060020a820491505091506a5263fe90242dcbacf000008202810190508360ff16858302908060020a820491505091506a057e22099c030d941000008202810190508360ff16858302908060020a820491505091506957e22099c030d94100008202810190508360ff16858302908060020a8204915050915069052b6b545699763100008202810190508360ff16858302908060020a82049150509150684985f67696bf7480008202810190508360ff16858302908060020a820491505091506803dea12ea99e4980008202810190508360ff16858302908060020a820491505091506731880f2214b6e0008202810190508360ff16858302908060020a8204915050915067025bcff56eb360008202810190508360ff16858302908060020a82049150509150661b722e10ab10008202810190508360ff16858302908060020a820491505091506601317c700770008202810190508360ff16858302908060020a82049150509150650cba84aafa008202810190508360ff16858302908060020a820491505091506482573a0a008202810190508360ff16858302908060020a820491505091506405035ad9008202810190508360ff16858302908060020a82049150509150632f881b008202810190508360ff16858302908060020a820491505091506301b293408202810190508360ff16858302908060020a82049150509150620efc408202810190508360ff16858302908060020a82049150509150617fe08202810190508360ff16858302908060020a820491505091506104208202810190508360ff16858302908060020a8204915050915060218202810190508360ff16858302908060020a8204915050915060018202810190508360ff1660019060020a02856f0688589cc0e9505e2f2fee5580000000838115156158e557fe5b0401019250505092915050565b60008060918054905011151561590757600080fd5b6091805490506090805490501015151561592057600080fd5b600080905061592d615edd565b608c600060918481548110151561594057fe5b9060005260206000200160009054906101000a900473ffffffffffffffffffffffffffffffffffffffff1673ffffffffffffffffffffffffffffffffffffffff1673ffffffffffffffffffffffffffffffffffffffff16815260200190815260200160002060a06040519081016040529081600082015481526020016001820154815260200160028201548152602001600382015481526020016004820154815250509050600081600001519050600060016091805490500390505b600081101515615ae357608c6000609183815481101515615a1957fe5b9060005260206000200160009054906101000a900473ffffffffffffffffffffffffffffffffffffffff1673ffffffffffffffffffffffffffffffffffffffff1673ffffffffffffffffffffffffffffffffffffffff16815260200190815260200160002060a060405190810160405290816000820154815260200160018201548152602001600282015481526020016003820154815260200160048201548152505092508183600001511115615ad557809350826000015191505b8080600190039150506159fc565b5082935050505090565b600073ffffffffffffffffffffffffffffffffffffffff168273ffffffffffffffffffffffffffffffffffffffff1614151515615b2957600080fd5b615b3e8160845461392c90919063ffffffff16565b608481905550615b9681608260008573ffffffffffffffffffffffffffffffffffffffff1673ffffffffffffffffffffffffffffffffffffffff1681526020019081526020016000205461392c90919063ffffffff16565b608260008473ffffffffffffffffffffffffffffffffffffffff1673ffffffffffffffffffffffffffffffffffffffff16815260200190815260200160002081905550600073ffffffffffffffffffffffffffffffffffffffff168273ffffffffffffffffffffffffffffffffffffffff167fddf252ad1be2c89b69c2b068fc378daa952ba7f163c4a11628f55a4df523b3ef836040518082815260200191505060405180910390a35050565b600080609180549050111515615c5857600080fd5b60918054905060908054905010151515615c7157600080fd5b6000809050615c7e615edd565b608c6000609184815481101515615c9157fe5b9060005260206000200160009054906101000a900473ffffffffffffffffffffffffffffffffffffffff1673ffffffffffffffffffffffffffffffffffffffff1673ffffffffffffffffffffffffffffffffffffffff16815260200190815260200160002060a06040519081016040529081600082015481526020016001820154815260200160028201548152602001600382015481526020016004820154815250509050600081600001519050600060016091805490500390505b600081101515615e3457608c6000609183815481101515615d6a57fe5b9060005260206000200160009054906101000a900473ffffffffffffffffffffffffffffffffffffffff1673ffffffffffffffffffffffffffffffffffffffff1673ffffffffffffffffffffffffffffffffffffffff16815260200190815260200160002060a060405190810160405290816000820154815260200160018201548152602001600282015481526020016003820154815260200160048201548152505092508183600001511015615e2657809350826000015191505b808060019003915050615d4d565b5082935050505090565b600080600090506000839050610100811015615e7d575b6001811115615e7857600181908060020a82049150509050600182019150615e55565b615ed3565b6000608090505b60008160ff161115615ed1578060ff1660019060020a0282101515615eba578060ff1682908060020a8204915050915080831792505b60018160ff16908060020a82049150509050615e84565b505b8192505050919050565b60a06040519081016040528060008152602001600081526020016000815260200160008152602001600081525090565b815481835581811115615f3457818360005260206000209182019101615f339190615f39565b5b505050565b615f5b91905b80821115615f57576000816000905550600101615f3f565b5090565b9056fe5472616e73616374696f6e206761732070726963652063616e6e6f7420657863656564206d6178696d756d206761732070726963652e50726f6a656374206e6f742070726573656e742c2063616e6e6f742064656c657465206974436f6e7472616374206f776e65722063616e6e6f74206372656174652061206e65772070726f6a6563744170706c6963616e7420616c72656164792073656e7420612070726f6a6563742c2064656c657465206974206265666f7265207375626d697474696e672061206e6577206f6e6546756e647320617265206d6f7265207468616e2074686520746f74616c2066756e647320706f6f6ca165627a7a723058209a7f6b90c743ac257cb87a111ecc04ce60c0ac3901e16ef2f6cb1d155bb5be830029",
  "source": "pragma solidity ^0.5.2;\n\nimport \"openzeppelin-solidity/contracts/math/SafeMath.sol\";\n\nimport \"./ContinuousToken.sol\";\n\ncontract FundingToken is ContinuousToken {\n    using SafeMath for uint256;\n\n    uint256 public timeframe;\n    uint256 public totalFunds;\n    uint public winnerListSize = 3;\n    uint256 constant public contractFeePerThousand = 1;\n    uint256 constant public subscriptionModifierUpdateTime = 6;\n\n    event Funding(\n        address _from,\n        address  _to,\n        uint256 _amount\n    );\n\n    event NewProject(\n        address  _addr\n    );\n\n    event FundDistributed(\n        address addr,\n        uint256 fund\n    );\n\n\n    struct Project {\n        uint256 funds;\n        uint256 minFunding;\n        uint field;\n        uint256 time;\n        uint pointer;\n    }\n\n    mapping (address => Project) public projects;\n    mapping (address => uint) public subscriptions;\n    mapping (address => uint256) public lastSubscriptionTime;\n    mapping (address => address[]) public fundedProjects;\n    address[] public projectList;\n    address[] public winnerList;\n\n\n    constructor(uint256 _reserveRatio, uint256 _timeframe) ContinuousToken(_reserveRatio) public {\n        timeframe = _timeframe;\n        totalFunds = 0;\n    }\n\n    function mintFor(address _beneficiary) public payable validGasPrice {\n        require(msg.value > 0, \"Must send ether to buy tokens.\");\n        if (now - lastSubscriptionTime[_beneficiary] > 2 * timeframe) {\n            subscriptions[_beneficiary] = 1;\n        } else if (now - lastSubscriptionTime[_beneficiary] >= timeframe){\n            subscriptions[_beneficiary] = subscriptions[_beneficiary] + 1;\n        }\n        lastSubscriptionTime[_beneficiary] = now;\n\n        uint256 _subscriptionModifier = getSubscriptionModifier(subscriptions[_beneficiary]);\n        _continuousMint(msg.value * _subscriptionModifier/100, _beneficiary);\n    }\n\n\n    function getSubscriptionModifier(uint _subscriptionPeriod)\n        internal pure\n        returns(uint256 mod)\n    {\n         if (_subscriptionPeriod >= 5* subscriptionModifierUpdateTime) {\n            return 15 * subscriptionModifierUpdateTime;\n         }  else if (_subscriptionPeriod >= 4* subscriptionModifierUpdateTime) {\n            return 10 * subscriptionModifierUpdateTime + uint256(_subscriptionPeriod);\n         } else if (_subscriptionPeriod >= 3* subscriptionModifierUpdateTime) {\n            return 6 * subscriptionModifierUpdateTime + 2*uint256(_subscriptionPeriod);\n         } else if (_subscriptionPeriod >= 2* subscriptionModifierUpdateTime) {\n            return 3 * subscriptionModifierUpdateTime + 3*uint256(_subscriptionPeriod) ;\n         } else if (_subscriptionPeriod >= subscriptionModifierUpdateTime) {\n            return subscriptionModifierUpdateTime + 4 * uint256(_subscriptionPeriod) ;\n         } else {\n            return 5 * uint256(_subscriptionPeriod);\n         }\n    }\n\n    function burnExtraFunds (uint256 _amount)\n        internal onlyOwner\n        returns(bool res)\n    {\n        burn(_amount);\n        return true;\n    }\n\n\n    function isProject(address addr)\n        public\n        view\n        returns(bool res)\n    {\n        if(projectList.length == 0) {\n            return false;\n        }\n        return (projectList[projects[addr].pointer] == addr);\n    }\n\n    function getProjectByAddress(address addr)\n        public\n        view\n        returns(uint256 funds, uint256 min, uint field, uint256 time)\n    {\n        Project memory p = projects[addr];\n        return (p.funds, p.minFunding, p.field, p.time);\n    }\n\n    function getProjectByIndex(uint index)\n        public\n        view\n        returns(uint256 funds, uint256 min, uint field, uint256 time)\n    {\n        require (index >= 0 && index < getProjectCount(), \"Invalid index\");\n        address _addr = projectList[index];\n        Project memory p = projects[_addr];\n        return (p.funds, p.minFunding, p.field, p.time);\n    }\n\n    function getFundedProjectAddressByIndex(address funder, uint index)\n        public\n        view\n        returns(address addr)\n    {\n        require (index >= 0 && index < getFundedProjectCount(funder), \"Invalid index\");\n        return fundedProjects[funder][index];\n    }\n\n    function getProjectFundsByAddress(address addr)\n        public\n        view\n        returns(uint256 funds)\n    {\n        Project memory p = projects[addr];\n        return p.funds;\n    }\n\n    function getProjectFundsByIndex(uint index)\n        public\n        view\n        returns(uint256 funds)\n    {\n        require (index >= 0 && index < getProjectCount(), \"Invalid index\");\n        address _addr = projectList[index];\n        Project memory p = projects[_addr];\n        return p.funds;\n    }\n\n    function getProjectPointerByAddress(address addr)\n        public\n        view\n        returns(uint pointer)\n    {\n        Project memory p = projects[addr];\n        return p.pointer;\n    }\n\n\n    function fundByAddress (address addr, uint256 amount)\n        external returns(bool res)\n    {\n        require(amount > 0, \"Must spend tokens to vote.\");\n        //transfer amount to smart contract\n        transfer(owner(), amount);\n        totalFunds += amount;\n        projects[addr].funds += amount;\n        //update winnerList\n        updateWinnerList(addr);\n        fundedProjects[msg.sender].push(addr);\n        emit Funding(msg.sender, addr, amount);\n        return true;\n    }\n\n    function newProject (uint256 min,  uint field)\n    //can create or fund a project only when not distributing\n        external\n        returns(bool res)\n    {\n        require(msg.sender != owner(), \"Contract owner cannot create a new project\");\n        require (min > 0, \"Minimum funding cannot be 0.\");\n        //check the user didn't submit another project already. We are gonna extend this to allow for multiple projects per user/account (maybe)\n        require(!isProject(msg.sender), \"Applicant already sent a project, delete it before submitting a new one\");\n        Project memory _newProject = Project({funds:0, minFunding:min, field:field, time:now, pointer:0});\n        projects[msg.sender] = _newProject;\n        projects[msg.sender].pointer = projectList.push(msg.sender) - 1;\n        emit NewProject(msg.sender);\n        return true;\n    }\n\n    function getProjectCount()\n        public view\n        returns(uint count)\n    {\n        return projectList.length;\n    }\n\n    function getFundedProjectCount(address funder)\n        public view\n        returns(uint count)\n    {\n        return fundedProjects[funder].length;\n    }\n\n    function deleteProjectByAddress(address addr) public onlyOwner returns(bool success) {\n        require(isProject(addr), \"Project not present, cannot delete it\");\n        uint rowToDelete = projects[addr].pointer;\n        address keyToMove   = projectList[projectList.length-1];\n        projectList[rowToDelete] = keyToMove;\n        projects[keyToMove].pointer = rowToDelete;\n        projectList.length--;\n        return true;\n    }\n\n    function distributeFunds ()\n        public onlyOwner\n        returns(bool res)\n    {\n\n        require (winnerList.length == winnerListSize);\n\n        //make sure ties get the same prize. Right now is time ordered (not even sure)\n        uint256 extraFunds = totalFunds;\n        for (uint i=0; i<winnerList.length; i++) {\n            //popWinner, it returns the most voted project address and removes it from the winnerList\n            address wAddress = popWinner();\n            Project memory p = projects[wAddress];\n            uint256 wPrize = calculatePrize(i, p.funds);\n            transfer(wAddress, wPrize);\n            extraFunds -= wPrize;\n            emit FundDistributed(wAddress, wPrize);\n        }\n        winnerList.length = 0;\n\n        resetVotes();\n        burnExtraFunds(extraFunds);\n        totalFunds = 0;\n\n        return true;\n    }\n\n    function resetVotes()\n        internal view\n        returns(bool res)\n    {\n        //reset funds to 0\n        for (uint i=0; i<projectList.length; i++) {\n            //popWinner, it returns the most voted project and removes it from the winnerList\n            Project memory p = projects[projectList[i]];\n            p.funds = 0;\n        }\n\n        return true;\n    }\n\n\n    function popWinner ()\n        internal\n        returns(address wAddress)\n    {\n        uint wIndex = findMostVotedIndex();\n        address wAddr = winnerList[wIndex];\n        //remove winner from winnerList\n        if(wIndex != winnerList.length - 1) {\n            //copy last project to wIndex\n            winnerList[wIndex] = winnerList[winnerList.length - 1];\n        }\n        //remove last project\n        winnerList.length--;\n        return wAddr;\n\n    }\n\n\n    function updateWinnerList(address addr)\n        internal\n        returns(bool res)\n    {\n        Project memory p = projects[addr];\n        //check if the project reached the minFunding\n        if (p.funds >= p.minFunding) {\n            if (winnerList.length < winnerListSize) {\n\n                winnerList.push(addr);\n            } else {\n                uint index = findLeastVotedIndex();\n                if(projects[winnerList[index]].funds < p.funds) {\n                    winnerList[index] = addr;\n                }\n            }\n        }\n\n        return true;\n    }\n\n    function findLeastVotedIndex ()\n        internal view\n        returns(uint index)\n    {\n        require (winnerList.length > 0);\n        require (projectList.length >= winnerList.length);\n\n        uint _index = 0;\n        Project memory p = projects[winnerList[_index]];\n        uint256 smallest = p.funds;\n\n        for (uint i=winnerList.length - 1; i>=0; i--) {\n            p = projects[winnerList[i]];\n            if(p.funds < smallest) {\n                _index = i;\n                smallest = p.funds;\n            }\n        }\n\n        return _index;\n    }\n\n    function findMostVotedIndex ()\n        internal view\n        returns(uint index)\n    {\n        require (winnerList.length > 0);\n        require (projectList.length >= winnerList.length);\n\n        uint _index = 0;\n        Project memory p = projects[winnerList[_index]];\n        uint256 largest = p.funds;\n\n        for (uint i=winnerList.length - 1; i>=0; i--) {\n            p = projects[winnerList[i]];\n            if(p.funds > largest) {\n                _index = i;\n                largest = p.funds;\n            }\n        }\n\n        return _index;\n    }\n\n    function calculateModifiedTotalPrize ()\n        view internal\n        returns(uint256 prize)\n    {\n        return totalFunds * (1000 - contractFeePerThousand) / 1000;\n    }\n\n    function calculatePrize (uint prizeIndex, uint256 funds)\n        view public\n        returns(uint256 prize)\n    {\n\n        require (funds <= totalFunds, \"Funds are more than the total funds pool\");\n        require (prizeIndex >= 0 && prizeIndex < winnerListSize, \"Prize not present\");\n\n        uint256 propPrizePerThousand = 1000 * funds/ totalFunds;\n        uint256 prizeModPerThousand = getRankingPrizePerThousand(prizeIndex, winnerList.length) + propPrizePerThousand;\n        uint256 _prize = calculateModifiedTotalPrize() * prizeModPerThousand/1000/2;//the 2 is because we assign half funds proportionally and half based on ranking.\n        //this are all rounded down numbers, in this case it is fine (we are not gonna spend all of the totalFunds).\n\n        return _prize;\n    }\n\n\n    //returns rangking prizes modifier dividing them as (total # of prizes - prizeIndex)**2/normalization\n    function getRankingPrizePerThousand (uint prizeIndex, uint n)\n        internal pure\n        returns(uint256 rp)\n    {\n        uint256 norm = n * (2*n**2 + 3*n + 1) / 6;\n        return 1000*(n - prizeIndex)**2/norm;\n    }\n\n}\n",
  "sourcePath": "/Users/jterrazz/Projects/ethParisFinal/ethparis/contracts/FundingToken.sol",
  "compiler": {
    "name": "solc",
    "version": "0.5.2+commit.1df8f40c.Emscripten.clang"
  },
  "schemaVersion": "3.0.2",
  "updatedAt": "2019-03-10T02:28:36.495Z",
  "devdoc": {
    "methods": {
      "allowance(address,address)": {
        "details": "Function to check the amount of tokens that an owner allowed to a spender.",
        "params": {
          "owner": "address The address which owns the funds.",
          "spender": "address The address which will spend the funds."
        },
        "return": "A uint256 specifying the amount of tokens still available for the spender."
      },
      "approve(address,uint256)": {
        "details": "Approve the passed address to spend the specified amount of tokens on behalf of msg.sender. Beware that changing an allowance with this method brings the risk that someone may use both the old and the new allowance by unfortunate transaction ordering. One possible solution to mitigate this race condition is to first reduce the spender's allowance to 0 and set the desired value afterwards: https://github.com/ethereum/EIPs/issues/20#issuecomment-263524729",
        "params": {
          "spender": "The address which will spend the funds.",
          "value": "The amount of tokens to be spent."
        }
      },
      "balanceOf(address)": {
        "details": "Gets the balance of the specified address.",
        "params": {
          "owner": "The address to query the balance of."
        },
        "return": "An uint256 representing the amount owned by the passed address."
      },
      "calculatePurchaseReturn(uint256,uint256,uint32,uint256)": {
        "details": "given a continuous token supply, reserve token balance, reserve ratio, and a deposit amount (in the reserve token), calculates the return for a given conversion (in the continuous token)   * Formula: Return = _supply * ((1 + _depositAmount / _reserveBalance) ^ (_reserveRatio / MAX_RESERVE_RATIO) - 1)",
        "params": {
          "_depositAmount": "deposit amount, in reserve token",
          "_reserveBalance": "total reserve token balance",
          "_reserveRatio": "reserve ratio, represented in ppm, 1-1000000",
          "_supply": "continuous token total supply"
        },
        "return": "purchase return amount"
      },
      "calculateSaleReturn(uint256,uint256,uint32,uint256)": {
        "details": "given a continuous token supply, reserve token balance, reserve ratio and a sell amount (in the continuous token), calculates the return for a given conversion (in the reserve token)   * Formula: Return = _reserveBalance * (1 - (1 - _sellAmount / _supply) ^ (1 / (_reserveRatio / MAX_RESERVE_RATIO)))",
        "params": {
          "_reserveBalance": "total reserve token balance",
          "_reserveRatio": "constant reserve ratio, represented in ppm, 1-1000000",
          "_sellAmount": "sell amount, in the continuous token itself",
          "_supply": "continuous token total supply"
        },
        "return": "sale return amount"
      },
      "decreaseAllowance(address,uint256)": {
        "details": "Decrease the amount of tokens that an owner allowed to a spender. approve should be called when allowed_[_spender] == 0. To decrement allowed value is better to use this function to avoid 2 calls (and wait until the first transaction is mined) From MonolithDAO Token.sol Emits an Approval event.",
        "params": {
          "spender": "The address which will spend the funds.",
          "subtractedValue": "The amount of tokens to decrease the allowance by."
        }
      },
      "increaseAllowance(address,uint256)": {
        "details": "Increase the amount of tokens that an owner allowed to a spender. approve should be called when allowed_[_spender] == 0. To increment allowed value is better to use this function to avoid 2 calls (and wait until the first transaction is mined) From MonolithDAO Token.sol Emits an Approval event.",
        "params": {
          "addedValue": "The amount of tokens to increase the allowance by.",
          "spender": "The address which will spend the funds."
        }
      },
      "isOwner()": {
        "return": "true if `msg.sender` is the owner of the contract."
      },
      "owner()": {
        "return": "the address of the owner."
      },
      "renounceOwnership()": {
        "details": "Allows the current owner to relinquish control of the contract."
      },
      "totalSupply()": {
        "details": "Total number of tokens in existence"
      },
      "transfer(address,uint256)": {
        "details": "Transfer token for a specified address",
        "params": {
          "to": "The address to transfer to.",
          "value": "The amount to be transferred."
        }
      },
      "transferFrom(address,address,uint256)": {
        "details": "Transfer tokens from one address to another. Note that while this function emits an Approval event, this is not required as per the specification, and other compliant implementations may not emit the event.",
        "params": {
          "from": "address The address which you want to send tokens from",
          "to": "address The address which you want to transfer to",
          "value": "uint256 the amount of tokens to be transferred"
        }
      },
      "transferOwnership(address)": {
        "details": "Allows the current owner to transfer control of the contract to a newOwner.",
        "params": {
          "newOwner": "The address to transfer ownership to."
        }
      }
    }
  },
  "userdoc": {
    "methods": {
      "renounceOwnership()": {
        "notice": "Renouncing to ownership will leave the contract without an owner. It will not be possible to call the functions with the `onlyOwner` modifier anymore."
      }
    }
  }
}