{
  "contractName": "FundingToken",
  "abi": [
    {
      "constant": false,
      "inputs": [
        {
          "name": "spender",
          "type": "address"
        },
        {
          "name": "value",
          "type": "uint256"
        }
      ],
      "name": "approve",
      "outputs": [
        {
          "name": "",
          "type": "bool"
        }
      ],
      "payable": false,
      "stateMutability": "nonpayable",
      "type": "function"
    },
    {
      "constant": true,
      "inputs": [],
      "name": "reserveRatio",
      "outputs": [
        {
          "name": "",
          "type": "uint256"
        }
      ],
      "payable": false,
      "stateMutability": "view",
      "type": "function"
    },
    {
      "constant": false,
      "inputs": [],
      "name": "mint",
      "outputs": [],
      "payable": true,
      "stateMutability": "payable",
      "type": "function"
    },
    {
      "constant": true,
      "inputs": [],
      "name": "totalSupply",
      "outputs": [
        {
          "name": "",
          "type": "uint256"
        }
      ],
      "payable": false,
      "stateMutability": "view",
      "type": "function"
    },
    {
      "constant": false,
      "inputs": [
        {
          "name": "from",
          "type": "address"
        },
        {
          "name": "to",
          "type": "address"
        },
        {
          "name": "value",
          "type": "uint256"
        }
      ],
      "name": "transferFrom",
      "outputs": [
        {
          "name": "",
          "type": "bool"
        }
      ],
      "payable": false,
      "stateMutability": "nonpayable",
      "type": "function"
    },
    {
      "constant": true,
      "inputs": [
        {
          "name": "_amount",
          "type": "uint256"
        }
      ],
      "name": "calculateContinuousMintReturn",
      "outputs": [
        {
          "name": "mintAmount",
          "type": "uint256"
        }
      ],
      "payable": false,
      "stateMutability": "view",
      "type": "function"
    },
    {
      "constant": true,
      "inputs": [
        {
          "name": "_supply",
          "type": "uint256"
        },
        {
          "name": "_reserveBalance",
          "type": "uint256"
        },
        {
          "name": "_reserveRatio",
          "type": "uint32"
        },
        {
          "name": "_depositAmount",
          "type": "uint256"
        }
      ],
      "name": "calculatePurchaseReturn",
      "outputs": [
        {
          "name": "",
          "type": "uint256"
        }
      ],
      "payable": false,
      "stateMutability": "view",
      "type": "function"
    },
    {
      "constant": false,
      "inputs": [
        {
          "name": "spender",
          "type": "address"
        },
        {
          "name": "addedValue",
          "type": "uint256"
        }
      ],
      "name": "increaseAllowance",
      "outputs": [
        {
          "name": "",
          "type": "bool"
        }
      ],
      "payable": false,
      "stateMutability": "nonpayable",
      "type": "function"
    },
    {
      "constant": true,
      "inputs": [],
      "name": "maxGasPrice",
      "outputs": [
        {
          "name": "",
          "type": "uint256"
        }
      ],
      "payable": false,
      "stateMutability": "view",
      "type": "function"
    },
    {
      "constant": false,
      "inputs": [
        {
          "name": "_amount",
          "type": "uint256"
        }
      ],
      "name": "burn",
      "outputs": [],
      "payable": false,
      "stateMutability": "nonpayable",
      "type": "function"
    },
    {
      "constant": true,
      "inputs": [
        {
          "name": "_supply",
          "type": "uint256"
        },
        {
          "name": "_reserveBalance",
          "type": "uint256"
        },
        {
          "name": "_reserveRatio",
          "type": "uint32"
        },
        {
          "name": "_sellAmount",
          "type": "uint256"
        }
      ],
      "name": "calculateSaleReturn",
      "outputs": [
        {
          "name": "",
          "type": "uint256"
        }
      ],
      "payable": false,
      "stateMutability": "view",
      "type": "function"
    },
    {
      "constant": true,
      "inputs": [],
      "name": "winnerListSize",
      "outputs": [
        {
          "name": "",
          "type": "uint256"
        }
      ],
      "payable": false,
      "stateMutability": "view",
      "type": "function"
    },
    {
      "constant": true,
      "inputs": [],
      "name": "version",
      "outputs": [
        {
          "name": "",
          "type": "string"
        }
      ],
      "payable": false,
      "stateMutability": "view",
      "type": "function"
    },
    {
      "constant": true,
      "inputs": [
        {
          "name": "",
          "type": "uint256"
        }
      ],
      "name": "winnerList",
      "outputs": [
        {
          "name": "",
          "type": "address"
        }
      ],
      "payable": false,
      "stateMutability": "view",
      "type": "function"
    },
    {
      "constant": true,
      "inputs": [
        {
          "name": "",
          "type": "uint256"
        }
      ],
      "name": "projectList",
      "outputs": [
        {
          "name": "",
          "type": "address"
        }
      ],
      "payable": false,
      "stateMutability": "view",
      "type": "function"
    },
    {
      "constant": true,
      "inputs": [
        {
          "name": "owner",
          "type": "address"
        }
      ],
      "name": "balanceOf",
      "outputs": [
        {
          "name": "",
          "type": "uint256"
        }
      ],
      "payable": false,
      "stateMutability": "view",
      "type": "function"
    },
    {
      "constant": false,
      "inputs": [],
      "name": "renounceOwnership",
      "outputs": [],
      "payable": false,
      "stateMutability": "nonpayable",
      "type": "function"
    },
    {
      "constant": true,
      "inputs": [
        {
          "name": "",
          "type": "address"
        }
      ],
      "name": "projects",
      "outputs": [
        {
          "name": "votes",
          "type": "uint256"
        },
        {
          "name": "minPayment",
          "type": "uint256"
        },
        {
          "name": "maxPayment",
          "type": "uint256"
        },
        {
          "name": "field",
          "type": "uint256"
        },
        {
          "name": "time",
          "type": "uint256"
        },
        {
          "name": "pointer",
          "type": "uint256"
        }
      ],
      "payable": false,
      "stateMutability": "view",
      "type": "function"
    },
    {
      "constant": true,
      "inputs": [],
      "name": "owner",
      "outputs": [
        {
          "name": "",
          "type": "address"
        }
      ],
      "payable": false,
      "stateMutability": "view",
      "type": "function"
    },
    {
      "constant": true,
      "inputs": [],
      "name": "isOwner",
      "outputs": [
        {
          "name": "",
          "type": "bool"
        }
      ],
      "payable": false,
      "stateMutability": "view",
      "type": "function"
    },
    {
      "constant": true,
      "inputs": [
        {
          "name": "_amount",
          "type": "uint256"
        }
      ],
      "name": "calculateContinuousBurnReturn",
      "outputs": [
        {
          "name": "burnAmount",
          "type": "uint256"
        }
      ],
      "payable": false,
      "stateMutability": "view",
      "type": "function"
    },
    {
      "constant": true,
      "inputs": [],
      "name": "totalFunds",
      "outputs": [
        {
          "name": "",
          "type": "uint256"
        }
      ],
      "payable": false,
      "stateMutability": "view",
      "type": "function"
    },
    {
      "constant": true,
      "inputs": [],
      "name": "reserveBalance",
      "outputs": [
        {
          "name": "",
          "type": "uint256"
        }
      ],
      "payable": false,
      "stateMutability": "view",
      "type": "function"
    },
    {
      "constant": false,
      "inputs": [
        {
          "name": "spender",
          "type": "address"
        },
        {
          "name": "subtractedValue",
          "type": "uint256"
        }
      ],
      "name": "decreaseAllowance",
      "outputs": [
        {
          "name": "",
          "type": "bool"
        }
      ],
      "payable": false,
      "stateMutability": "nonpayable",
      "type": "function"
    },
    {
      "constant": false,
      "inputs": [
        {
          "name": "to",
          "type": "address"
        },
        {
          "name": "value",
          "type": "uint256"
        }
      ],
      "name": "transfer",
      "outputs": [
        {
          "name": "",
          "type": "bool"
        }
      ],
      "payable": false,
      "stateMutability": "nonpayable",
      "type": "function"
    },
    {
      "constant": true,
      "inputs": [],
      "name": "timeframe",
      "outputs": [
        {
          "name": "",
          "type": "uint256"
        }
      ],
      "payable": false,
      "stateMutability": "view",
      "type": "function"
    },
    {
      "constant": false,
      "inputs": [
        {
          "name": "gasPrice",
          "type": "uint256"
        }
      ],
      "name": "setMaxGasPrice",
      "outputs": [],
      "payable": false,
      "stateMutability": "nonpayable",
      "type": "function"
    },
    {
      "constant": true,
      "inputs": [],
      "name": "contractFee",
      "outputs": [
        {
          "name": "",
          "type": "uint256"
        }
      ],
      "payable": false,
      "stateMutability": "view",
      "type": "function"
    },
    {
      "constant": true,
      "inputs": [
        {
          "name": "owner",
          "type": "address"
        },
        {
          "name": "spender",
          "type": "address"
        }
      ],
      "name": "allowance",
      "outputs": [
        {
          "name": "",
          "type": "uint256"
        }
      ],
      "payable": false,
      "stateMutability": "view",
      "type": "function"
    },
    {
      "constant": false,
      "inputs": [
        {
          "name": "newOwner",
          "type": "address"
        }
      ],
      "name": "transferOwnership",
      "outputs": [],
      "payable": false,
      "stateMutability": "nonpayable",
      "type": "function"
    },
    {
      "constant": true,
      "inputs": [],
      "name": "scale",
      "outputs": [
        {
          "name": "",
          "type": "uint256"
        }
      ],
      "payable": false,
      "stateMutability": "view",
      "type": "function"
    },
    {
      "inputs": [
        {
          "name": "_reserveRatio",
          "type": "uint256"
        },
        {
          "name": "_timeframe",
          "type": "uint256"
        }
      ],
      "payable": false,
      "stateMutability": "nonpayable",
      "type": "constructor"
    },
    {
      "payable": true,
      "stateMutability": "payable",
      "type": "fallback"
    },
    {
      "anonymous": false,
      "inputs": [
        {
          "indexed": false,
          "name": "_from",
          "type": "address"
        },
        {
          "indexed": false,
          "name": "_to",
          "type": "address"
        },
        {
          "indexed": false,
          "name": "_amount",
          "type": "uint256"
        }
      ],
      "name": "Voting",
      "type": "event"
    },
    {
      "anonymous": false,
      "inputs": [
        {
          "indexed": false,
          "name": "_addr",
          "type": "address"
        }
      ],
      "name": "NewProject",
      "type": "event"
    },
    {
      "anonymous": false,
      "inputs": [
        {
          "indexed": false,
          "name": "_from",
          "type": "address"
        },
        {
          "indexed": false,
          "name": "_amount",
          "type": "uint256"
        },
        {
          "indexed": false,
          "name": "_deposit",
          "type": "uint256"
        }
      ],
      "name": "ContinuousMint",
      "type": "event"
    },
    {
      "anonymous": false,
      "inputs": [
        {
          "indexed": false,
          "name": "_from",
          "type": "address"
        },
        {
          "indexed": false,
          "name": "_amount",
          "type": "uint256"
        },
        {
          "indexed": false,
          "name": "_reimbursement",
          "type": "uint256"
        }
      ],
      "name": "ContinuousBurn",
      "type": "event"
    },
    {
      "anonymous": false,
      "inputs": [
        {
          "indexed": true,
          "name": "previousOwner",
          "type": "address"
        },
        {
          "indexed": true,
          "name": "newOwner",
          "type": "address"
        }
      ],
      "name": "OwnershipTransferred",
      "type": "event"
    },
    {
      "anonymous": false,
      "inputs": [
        {
          "indexed": true,
          "name": "from",
          "type": "address"
        },
        {
          "indexed": true,
          "name": "to",
          "type": "address"
        },
        {
          "indexed": false,
          "name": "value",
          "type": "uint256"
        }
      ],
      "name": "Transfer",
      "type": "event"
    },
    {
      "anonymous": false,
      "inputs": [
        {
          "indexed": true,
          "name": "owner",
          "type": "address"
        },
        {
          "indexed": true,
          "name": "spender",
          "type": "address"
        },
        {
          "indexed": false,
          "name": "value",
          "type": "uint256"
        }
      ],
      "name": "Approval",
      "type": "event"
    },
    {
      "constant": true,
      "inputs": [
        {
          "name": "addr",
          "type": "address"
        }
      ],
      "name": "isProject",
      "outputs": [
        {
          "name": "res",
          "type": "bool"
        }
      ],
      "payable": false,
      "stateMutability": "view",
      "type": "function"
    },
    {
      "constant": true,
      "inputs": [
        {
          "name": "addr",
          "type": "address"
        }
      ],
      "name": "getProjectByAddress",
      "outputs": [
        {
          "name": "votes",
          "type": "uint256"
        },
        {
          "name": "min",
          "type": "uint256"
        },
        {
          "name": "max",
          "type": "uint256"
        },
        {
          "name": "field",
          "type": "uint256"
        },
        {
          "name": "time",
          "type": "uint256"
        }
      ],
      "payable": false,
      "stateMutability": "view",
      "type": "function"
    },
    {
      "constant": true,
      "inputs": [
        {
          "name": "index",
          "type": "uint256"
        }
      ],
      "name": "getProjectByIndex",
      "outputs": [
        {
          "name": "votes",
          "type": "uint256"
        },
        {
          "name": "min",
          "type": "uint256"
        },
        {
          "name": "max",
          "type": "uint256"
        },
        {
          "name": "field",
          "type": "uint256"
        },
        {
          "name": "time",
          "type": "uint256"
        }
      ],
      "payable": false,
      "stateMutability": "view",
      "type": "function"
    },
    {
      "constant": true,
      "inputs": [
        {
          "name": "addr",
          "type": "address"
        }
      ],
      "name": "getProjectVotesByAddress",
      "outputs": [
        {
          "name": "votes",
          "type": "uint256"
        }
      ],
      "payable": false,
      "stateMutability": "view",
      "type": "function"
    },
    {
      "constant": true,
      "inputs": [
        {
          "name": "index",
          "type": "uint256"
        }
      ],
      "name": "getProjectVotesByIndex",
      "outputs": [
        {
          "name": "votes",
          "type": "uint256"
        }
      ],
      "payable": false,
      "stateMutability": "view",
      "type": "function"
    },
    {
      "constant": true,
      "inputs": [
        {
          "name": "addr",
          "type": "address"
        }
      ],
      "name": "getProjectPointerByAddress",
      "outputs": [
        {
          "name": "pointer",
          "type": "uint256"
        }
      ],
      "payable": false,
      "stateMutability": "view",
      "type": "function"
    },
    {
      "constant": false,
      "inputs": [
        {
          "name": "addr",
          "type": "address"
        },
        {
          "name": "amount",
          "type": "uint256"
        }
      ],
      "name": "voteByAddress",
      "outputs": [
        {
          "name": "res",
          "type": "bool"
        }
      ],
      "payable": false,
      "stateMutability": "nonpayable",
      "type": "function"
    },
    {
      "constant": false,
      "inputs": [
        {
          "name": "min",
          "type": "uint256"
        },
        {
          "name": "max",
          "type": "uint256"
        },
        {
          "name": "field",
          "type": "uint256"
        }
      ],
      "name": "newProject",
      "outputs": [
        {
          "name": "res",
          "type": "bool"
        }
      ],
      "payable": false,
      "stateMutability": "nonpayable",
      "type": "function"
    },
    {
      "constant": true,
      "inputs": [],
      "name": "getProjectCount",
      "outputs": [
        {
          "name": "count",
          "type": "uint256"
        }
      ],
      "payable": false,
      "stateMutability": "view",
      "type": "function"
    },
    {
      "constant": false,
      "inputs": [
        {
          "name": "addr",
          "type": "address"
        }
      ],
      "name": "deleteProjectByAddress",
      "outputs": [
        {
          "name": "success",
          "type": "bool"
        }
      ],
      "payable": false,
      "stateMutability": "nonpayable",
      "type": "function"
    },
    {
      "constant": false,
      "inputs": [],
      "name": "distributeFunds",
      "outputs": [
        {
          "name": "res",
          "type": "bool"
        }
      ],
      "payable": false,
      "stateMutability": "nonpayable",
      "type": "function"
    }
  ],
  "bytecode": "0x60806040526040805190810160405280600381526020017f302e330000000000000000000000000000000000000000000000000000000000815250600090805190602001906200005192919062001244565b50670de0b6b3a7640000608555670de0b6b3a7640000608655608654600a026087553480156200008057600080fd5b506040516040806200664683398101806040526040811015620000a257600080fd5b81019080805190602001909291908051906020019092919050505081701c35fedd14ffffffffffffffffffffffff60016020608081101515620000e157fe5b0181905550701b0ce43b323fffffffffffffffffffffff600160216080811015156200010957fe5b01819055507019f0028ec1ffffffffffffffffffffffff600160226080811015156200013157fe5b01819055507018ded91f0e7fffffffffffffffffffffff600160236080811015156200015957fe5b01819055507017d8ec7f0417ffffffffffffffffffffff600160246080811015156200018157fe5b01819055507016ddc6556cdbffffffffffffffffffffff60016025608081101515620001a957fe5b01819055507015ecf52776a1ffffffffffffffffffffff60016026608081101515620001d157fe5b01819055507015060c256cb2ffffffffffffffffffffff60016027608081101515620001f957fe5b0181905550701428a2f98d72ffffffffffffffffffffff600160286080811015156200022157fe5b01819055507013545598e5c23fffffffffffffffffffff600160296080811015156200024957fe5b0181905550701288c4161ce1dfffffffffffffffffffff6001602a6080811015156200027157fe5b01819055507011c592761c666fffffffffffffffffffff6001602b6080811015156200029957fe5b018190555070110a688680a757ffffffffffffffffffff6001602c608081101515620002c157fe5b0181905550701056f1b5bedf77ffffffffffffffffffff6001602d608081101515620002e957fe5b0181905550700faadceceeff8bffffffffffffffffffff6001602e6080811015156200031157fe5b0181905550700f05dc6b27edadffffffffffffffffffff6001602f6080811015156200033957fe5b0181905550700e67a5a25da4107fffffffffffffffffff600160306080811015156200036157fe5b0181905550700dcff115b14eedffffffffffffffffffff600160316080811015156200038957fe5b0181905550700d3e7a392431239fffffffffffffffffff60016032608081101515620003b157fe5b0181905550700cb2ff529eb71e4fffffffffffffffffff60016033608081101515620003d957fe5b0181905550700c2d415c3db974afffffffffffffffffff600160346080811015156200040157fe5b0181905550700bad03e7d883f69bffffffffffffffffff600160356080811015156200042957fe5b0181905550700b320d03b2c343d5ffffffffffffffffff600160366080811015156200045157fe5b0181905550700abc25204e02828dffffffffffffffffff600160376080811015156200047957fe5b0181905550700a4b16f74ee4bb207fffffffffffffffff60016038608081101515620004a157fe5b01819055507009deaf736ac1f569ffffffffffffffffff60016039608081101515620004c957fe5b0181905550700976bd9952c7aa957fffffffffffffffff6001603a608081101515620004f157fe5b01819055507009131271922eaa606fffffffffffffffff6001603b6080811015156200051957fe5b01819055507008b380f3558668c46fffffffffffffffff6001603c6080811015156200054157fe5b0181905550700857ddf0117efa215bffffffffffffffff6001603d6080811015156200056957fe5b01819055507007ffffffffffffffffffffffffffffffff6001603e6080811015156200059157fe5b01819055507007abbf6f6abb9d087fffffffffffffffff6001603f608081101515620005b957fe5b018190555070075af62cbac95f7dfa7fffffffffffffff60016040608081101515620005e157fe5b018190555070070d7fb7452e187ac13fffffffffffffff600160416080811015156200060957fe5b01819055507006c3390ecc8af379295fffffffffffffff600160426080811015156200063157fe5b018190555070067c00a3b07ffc01fd6fffffffffffffff600160436080811015156200065957fe5b0181905550700637b647c39cbb9d3d27ffffffffffffff600160446080811015156200068157fe5b01819055507005f63b1fc104dbd39587ffffffffffffff60016045608081101515620006a957fe5b01819055507005b771955b36e12f7235ffffffffffffff60016046608081101515620006d157fe5b018190555070057b3d49dda84556d6f6ffffffffffffff60016047608081101515620006f957fe5b018190555070054183095b2c8ececf30ffffffffffffff600160486080811015156200072157fe5b018190555070050a28be635ca2b888f77fffffffffffff600160496080811015156200074957fe5b01819055507004d5156639708c9db33c3fffffffffffff6001604a6080811015156200077157fe5b01819055507004a23105873875bd52dfdfffffffffffff6001604b6080811015156200079957fe5b0181905550700471649d87199aa990756fffffffffffff6001604c608081101515620007c157fe5b01819055507004429a21a029d4c1457cfbffffffffffff6001604d608081101515620007e957fe5b0181905550700415bc6d6fb7dd71af2cb3ffffffffffff6001604e6080811015156200081157fe5b01819055507003eab73b3bbfe282243ce1ffffffffffff6001604f6080811015156200083957fe5b01819055507003c1771ac9fb6b4c18e229ffffffffffff600160506080811015156200086157fe5b0181905550700399e96897690418f785257fffffffffff600160516080811015156200088957fe5b0181905550700373fc456c53bb779bf0ea9fffffffffff60016052608081101515620008b157fe5b018190555070034f9e8e490c48e67e6ab8bfffffffffff60016053608081101515620008d957fe5b018190555070032cbfd4a7adc790560b3337ffffffffff600160546080811015156200090157fe5b018190555070030b50570f6e5d2acca94613ffffffffff600160556080811015156200092957fe5b01819055507002eb40f9f620fda6b56c2861ffffffffff600160566080811015156200095157fe5b01819055507002cc8340ecb0d0f520a6af58ffffffffff600160576080811015156200097957fe5b01819055507002af09481380a0a35cf1ba02ffffffffff60016058608081101515620009a157fe5b0181905550700292c5bdd3b92ec810287b1b3fffffffff60016059608081101515620009c957fe5b0181905550700277abdcdab07d5a77ac6d6b9fffffffff6001605a608081101515620009f157fe5b018190555070025daf6654b1eaa55fd64df5efffffffff6001605b60808110151562000a1957fe5b0181905550700244c49c648baa98192dce88b7ffffffff6001605c60808110151562000a4157fe5b018190555070022ce03cd5619a311b2471268bffffffff6001605d60808110151562000a6957fe5b0181905550700215f77c045fbe885654a44a0fffffffff6001605e60808110151562000a9157fe5b01819055507001ffffffffffffffffffffffffffffffff6001605f60808110151562000ab957fe5b01819055507001eaefdbdaaee7421fc4d3ede5ffffffff6001606060808110151562000ae157fe5b01819055507001d6bd8b2eb257df7e8ca57b09bfffffff6001606160808110151562000b0957fe5b01819055507001c35fedd14b861eb0443f7f133fffffff6001606260808110151562000b3157fe5b01819055507001b0ce43b322bcde4a56e8ada5afffffff6001606360808110151562000b5957fe5b018190555070019f0028ec1fff007f5a195a39dfffffff6001606460808110151562000b8157fe5b018190555070018ded91f0e72ee74f49b15ba527ffffff6001606560808110151562000ba957fe5b018190555070017d8ec7f04136f4e5615fd41a63ffffff6001606660808110151562000bd157fe5b018190555070016ddc6556cdb84bdc8d12d22e6fffffff6001606760808110151562000bf957fe5b018190555070015ecf52776a1155b5bd8395814f7fffff6001606860808110151562000c2157fe5b018190555070015060c256cb23b3b3cc3754cf40ffffff6001606960808110151562000c4957fe5b01819055507001428a2f98d728ae223ddab715be3fffff6001606a60808110151562000c7157fe5b018190555070013545598e5c23276ccf0ede68034fffff6001606b60808110151562000c9957fe5b01819055507001288c4161ce1d6f54b7f61081194fffff6001606c60808110151562000cc157fe5b018190555070011c592761c666aa641d5a01a40f17ffff6001606d60808110151562000ce957fe5b0181905550700110a688680a7530515f3e6e6cfdcdffff6001606e60808110151562000d1157fe5b01819055507001056f1b5bedf75c6bcb2ce8aed428ffff6001606f60808110151562000d3957fe5b01819055506ffaadceceeff8a0890f3875f008277fff6001607060808110151562000d6057fe5b01819055506ff05dc6b27edad306388a600f6ba0bfff6001607160808110151562000d8757fe5b01819055506fe67a5a25da41063de1495d5b18cdbfff6001607260808110151562000dae57fe5b01819055506fdcff115b14eedde6fc3aa5353f2e4fff6001607360808110151562000dd557fe5b01819055506fd3e7a3924312399f9aae2e0f868f8fff6001607460808110151562000dfc57fe5b01819055506fcb2ff529eb71e41582cccd5a1ee26fff6001607560808110151562000e2357fe5b01819055506fc2d415c3db974ab32a51840c0b67edff6001607660808110151562000e4a57fe5b01819055506fbad03e7d883f69ad5b0a186184e06bff6001607760808110151562000e7157fe5b01819055506fb320d03b2c343d4829abd6075f0cc5ff6001607860808110151562000e9857fe5b01819055506fabc25204e02828d73c6e80bcdb1a95bf6001607960808110151562000ebf57fe5b01819055506fa4b16f74ee4bb2040a1ec6c15fbbf2df6001607a60808110151562000ee657fe5b01819055506f9deaf736ac1f569deb1b5ae3f36c130f6001607b60808110151562000f0d57fe5b01819055506f976bd9952c7aa957f5937d790ef650376001607c60808110151562000f3457fe5b01819055506f9131271922eaa6064b73a22d0bd4f2bf6001607d60808110151562000f5b57fe5b01819055506f8b380f3558668c46c91c49a2f8e967b96001607e60808110151562000f8257fe5b01819055506f857ddf0117efa215952912839f6473e66001607f60808110151562000fa957fe5b018190555033608160006101000a81548173ffffffffffffffffffffffffffffffffffffffff021916908373ffffffffffffffffffffffffffffffffffffffff160217905550608160009054906101000a900473ffffffffffffffffffffffffffffffffffffffff1673ffffffffffffffffffffffffffffffffffffffff16600073ffffffffffffffffffffffffffffffffffffffff167f8be0079c531659141344cd1fd0a4f28419497f9722a3daafe3b4186f6b6457e060405160405180910390a3806088819055506200109333608654600102620010ab640100000000026401000000009004565b50806089819055506000608a819055505050620012f3565b600073ffffffffffffffffffffffffffffffffffffffff168273ffffffffffffffffffffffffffffffffffffffff1614151515620010e857600080fd5b6200110d81608454620012226401000000000262003221179091906401000000009004565b6084819055506200117581608260008573ffffffffffffffffffffffffffffffffffffffff1673ffffffffffffffffffffffffffffffffffffffff16815260200190815260200160002054620012226401000000000262003221179091906401000000009004565b608260008473ffffffffffffffffffffffffffffffffffffffff1673ffffffffffffffffffffffffffffffffffffffff168152602001908152602001600020819055508173ffffffffffffffffffffffffffffffffffffffff16600073ffffffffffffffffffffffffffffffffffffffff167fddf252ad1be2c89b69c2b068fc378daa952ba7f163c4a11628f55a4df523b3ef836040518082815260200191505060405180910390a35050565b60008082840190508381101515156200123a57600080fd5b8091505092915050565b828054600181600116156101000203166002900490600052602060002090601f016020900481019282601f106200128757805160ff1916838001178555620012b8565b82800160010185558215620012b8579182015b82811115620012b75782518255916020019190600101906200129a565b5b509050620012c79190620012cb565b5090565b620012f091905b80821115620012ec576000816000905550600101620012d2565b5090565b90565b61534380620013036000396000f3fe608060405260043610610204576000357c0100000000000000000000000000000000000000000000000000000000900463ffffffff16806305c814081461020e578063093125d614610277578063095ea7b3146102dc5780630c7d5cd81461034f5780631249c58b1461037a57806318160ddd1461038457806323b872dd146103af57806328c3d7011461044257806329a00e7c146104915780632b7e328a14610504578063395093511461056f5780633a6a4d2e146105e25780633bcff3b0146106115780633de39c111461063c57806342966c681461066757806349f9b0f7146106a25780634f7c026e1461071557806354fd4d50146107405780635578027e146107d057806360570b2e1461084b57806369665df5146108c657806370a0823114610915578063715018a61461097a57806377d0a54714610991578063840e78fd14610a125780638da5cb5b14610a9a5780638f32d59b14610af157806390f0c2ea14610b20578063968ed60014610b6f578063a076ea5114610b9a578063a0b5f0a814610bff578063a10954fe14610c72578063a457c2d714610c9d578063a9059cbb14610d10578063b514d3df14610d83578063ba59b66f14610dea578063d2fa635e14610e15578063d41977cd14610e50578063dd62ed3e14610e7b578063f2fde38b14610f00578063f4a496b714610f51578063f51e181a14610fba575b61020c610fe5565b005b34801561021a57600080fd5b5061025d6004803603602081101561023157600080fd5b81019080803573ffffffffffffffffffffffffffffffffffffffff169060200190929190505050611109565b604051808215151515815260200191505060405180910390f35b34801561028357600080fd5b506102c66004803603602081101561029a57600080fd5b81019080803573ffffffffffffffffffffffffffffffffffffffff1690602001909291905050506111d3565b6040518082815260200191505060405180910390f35b3480156102e857600080fd5b50610335600480360360408110156102ff57600080fd5b81019080803573ffffffffffffffffffffffffffffffffffffffff16906020019092919080359060200190929190505050611273565b604051808215151515815260200191505060405180910390f35b34801561035b57600080fd5b506103646113a0565b6040518082815260200191505060405180910390f35b610382610fe5565b005b34801561039057600080fd5b506103996113a6565b6040518082815260200191505060405180910390f35b3480156103bb57600080fd5b50610428600480360360608110156103d257600080fd5b81019080803573ffffffffffffffffffffffffffffffffffffffff169060200190929190803573ffffffffffffffffffffffffffffffffffffffff169060200190929190803590602001909291905050506113b0565b604051808215151515815260200191505060405180910390f35b34801561044e57600080fd5b5061047b6004803603602081101561046557600080fd5b81019080803590602001909291905050506115b8565b6040518082815260200191505060405180910390f35b34801561049d57600080fd5b506104ee600480360360808110156104b457600080fd5b810190808035906020019092919080359060200190929190803563ffffffff169060200190929190803590602001909291905050506115d8565b6040518082815260200191505060405180910390f35b34801561051057600080fd5b5061053d6004803603602081101561052757600080fd5b81019080803590602001909291905050506116de565b604051808681526020018581526020018481526020018381526020018281526020019550505050505060405180910390f35b34801561057b57600080fd5b506105c86004803603604081101561059257600080fd5b81019080803573ffffffffffffffffffffffffffffffffffffffff1690602001909291908035906020019092919050505061186d565b604051808215151515815260200191505060405180910390f35b3480156105ee57600080fd5b506105f7611aa4565b604051808215151515815260200191505060405180910390f35b34801561061d57600080fd5b50610626611c33565b6040518082815260200191505060405180910390f35b34801561064857600080fd5b50610651611c40565b6040518082815260200191505060405180910390f35b34801561067357600080fd5b506106a06004803603602081101561068a57600080fd5b8101908080359060200190929190505050611c46565b005b3480156106ae57600080fd5b506106ff600480360360808110156106c557600080fd5b810190808035906020019092919080359060200190929190803563ffffffff16906020019092919080359060200190929190505050611d3e565b6040518082815260200191505060405180910390f35b34801561072157600080fd5b5061072a611e73565b6040518082815260200191505060405180910390f35b34801561074c57600080fd5b50610755611e78565b6040518080602001828103825283818151815260200191508051906020019080838360005b8381101561079557808201518184015260208101905061077a565b50505050905090810190601f1680156107c25780820380516001836020036101000a031916815260200191505b509250505060405180910390f35b3480156107dc57600080fd5b50610809600480360360208110156107f357600080fd5b8101908080359060200190929190505050611f16565b604051808273ffffffffffffffffffffffffffffffffffffffff1673ffffffffffffffffffffffffffffffffffffffff16815260200191505060405180910390f35b34801561085757600080fd5b506108846004803603602081101561086e57600080fd5b8101908080359060200190929190505050611f54565b604051808273ffffffffffffffffffffffffffffffffffffffff1673ffffffffffffffffffffffffffffffffffffffff16815260200191505060405180910390f35b3480156108d257600080fd5b506108ff600480360360208110156108e957600080fd5b8101908080359060200190929190505050611f92565b6040518082815260200191505060405180910390f35b34801561092157600080fd5b506109646004803603602081101561093857600080fd5b81019080803573ffffffffffffffffffffffffffffffffffffffff1690602001909291905050506120fb565b6040518082815260200191505060405180910390f35b34801561098657600080fd5b5061098f612144565b005b34801561099d57600080fd5b506109e0600480360360208110156109b457600080fd5b81019080803573ffffffffffffffffffffffffffffffffffffffff169060200190929190505050612218565b604051808681526020018581526020018481526020018381526020018281526020019550505050505060405180910390f35b348015610a1e57600080fd5b50610a6160048036036020811015610a3557600080fd5b81019080803573ffffffffffffffffffffffffffffffffffffffff1690602001909291905050506122de565b60405180878152602001868152602001858152602001848152602001838152602001828152602001965050505050505060405180910390f35b348015610aa657600080fd5b50610aaf61231a565b604051808273ffffffffffffffffffffffffffffffffffffffff1673ffffffffffffffffffffffffffffffffffffffff16815260200191505060405180910390f35b348015610afd57600080fd5b50610b06612344565b604051808215151515815260200191505060405180910390f35b348015610b2c57600080fd5b50610b5960048036036020811015610b4357600080fd5b810190808035906020019092919050505061239c565b6040518082815260200191505060405180910390f35b348015610b7b57600080fd5b50610b846123bc565b6040518082815260200191505060405180910390f35b348015610ba657600080fd5b50610be960048036036020811015610bbd57600080fd5b81019080803573ffffffffffffffffffffffffffffffffffffffff1690602001909291905050506123c2565b6040518082815260200191505060405180910390f35b348015610c0b57600080fd5b50610c5860048036036040811015610c2257600080fd5b81019080803573ffffffffffffffffffffffffffffffffffffffff16906020019092919080359060200190929190505050612462565b604051808215151515815260200191505060405180910390f35b348015610c7e57600080fd5b50610c87612600565b6040518082815260200191505060405180910390f35b348015610ca957600080fd5b50610cf660048036036040811015610cc057600080fd5b81019080803573ffffffffffffffffffffffffffffffffffffffff16906020019092919080359060200190929190505050612606565b604051808215151515815260200191505060405180910390f35b348015610d1c57600080fd5b50610d6960048036036040811015610d3357600080fd5b81019080803573ffffffffffffffffffffffffffffffffffffffff1690602001909291908035906020019092919050505061283d565b604051808215151515815260200191505060405180910390f35b348015610d8f57600080fd5b50610dd060048036036060811015610da657600080fd5b81019080803590602001909291908035906020019092919080359060200190929190505050612854565b604051808215151515815260200191505060405180910390f35b348015610df657600080fd5b50610dff612bc7565b6040518082815260200191505060405180910390f35b348015610e2157600080fd5b50610e4e60048036036020811015610e3857600080fd5b8101908080359060200190929190505050612bcd565b005b348015610e5c57600080fd5b50610e65612bea565b6040518082815260200191505060405180910390f35b348015610e8757600080fd5b50610eea60048036036040811015610e9e57600080fd5b81019080803573ffffffffffffffffffffffffffffffffffffffff169060200190929190803573ffffffffffffffffffffffffffffffffffffffff169060200190929190505050612bef565b6040518082815260200191505060405180910390f35b348015610f0c57600080fd5b50610f4f60048036036020811015610f2357600080fd5b81019080803573ffffffffffffffffffffffffffffffffffffffff169060200190929190505050612c76565b005b348015610f5d57600080fd5b50610fa060048036036020811015610f7457600080fd5b81019080803573ffffffffffffffffffffffffffffffffffffffff169060200190929190505050612c95565b604051808215151515815260200191505060405180910390f35b348015610fc657600080fd5b50610fcf612e9a565b6040518082815260200191505060405180910390f35b6085543a11151515611085576040517f08c379a00000000000000000000000000000000000000000000000000000000081526004018080602001828103825260368152602001807f5472616e73616374696f6e206761732070726963652063616e6e6f742065786381526020017f656564206d6178696d756d206761732070726963652e0000000000000000000081525060400191505060405180910390fd5b6000341115156110fd576040517f08c379a000000000000000000000000000000000000000000000000000000000815260040180806020018281038252601e8152602001807f4d7573742073656e6420657468657220746f2062757920746f6b656e732e000081525060200191505060405180910390fd5b61110634612ea0565b50565b600080608c80549050141561112157600090506111ce565b8173ffffffffffffffffffffffffffffffffffffffff16608c608b60008573ffffffffffffffffffffffffffffffffffffffff1673ffffffffffffffffffffffffffffffffffffffff1681526020019081526020016000206005015481548110151561118957fe5b9060005260206000200160009054906101000a900473ffffffffffffffffffffffffffffffffffffffff1673ffffffffffffffffffffffffffffffffffffffff161490505b919050565b60006111dd61528f565b608b60008473ffffffffffffffffffffffffffffffffffffffff1673ffffffffffffffffffffffffffffffffffffffff16815260200190815260200160002060c06040519081016040529081600082015481526020016001820154815260200160028201548152602001600382015481526020016004820154815260200160058201548152505090508060a00151915050919050565b60008073ffffffffffffffffffffffffffffffffffffffff168373ffffffffffffffffffffffffffffffffffffffff16141515156112b057600080fd5b81608360003373ffffffffffffffffffffffffffffffffffffffff1673ffffffffffffffffffffffffffffffffffffffff16815260200190815260200160002060008573ffffffffffffffffffffffffffffffffffffffff1673ffffffffffffffffffffffffffffffffffffffff168152602001908152602001600020819055508273ffffffffffffffffffffffffffffffffffffffff163373ffffffffffffffffffffffffffffffffffffffff167f8c5be1e5ebec7d5bd14f71427d1e84f3dd0314c0f7b2291e5b200ac8c7c3b925846040518082815260200191505060405180910390a36001905092915050565b60885481565b6000608454905090565b600061144182608360008773ffffffffffffffffffffffffffffffffffffffff1673ffffffffffffffffffffffffffffffffffffffff16815260200190815260200160002060003373ffffffffffffffffffffffffffffffffffffffff1673ffffffffffffffffffffffffffffffffffffffff16815260200190815260200160002054612fc790919063ffffffff16565b608360008673ffffffffffffffffffffffffffffffffffffffff1673ffffffffffffffffffffffffffffffffffffffff16815260200190815260200160002060003373ffffffffffffffffffffffffffffffffffffffff1673ffffffffffffffffffffffffffffffffffffffff168152602001908152602001600020819055506114cc848484612fe9565b3373ffffffffffffffffffffffffffffffffffffffff168473ffffffffffffffffffffffffffffffffffffffff167f8c5be1e5ebec7d5bd14f71427d1e84f3dd0314c0f7b2291e5b200ac8c7c3b925608360008873ffffffffffffffffffffffffffffffffffffffff1673ffffffffffffffffffffffffffffffffffffffff16815260200190815260200160002060003373ffffffffffffffffffffffffffffffffffffffff1673ffffffffffffffffffffffffffffffffffffffff168152602001908152602001600020546040518082815260200191505060405180910390a3600190509392505050565b60006115d16115c56113a6565b608754608854856115d8565b9050919050565b600080851180156115e95750600084115b80156115fb575060008363ffffffff16115b80156116165750620f424063ffffffff168363ffffffff1611155b151561162157600080fd5b600082141561163357600090506116d6565b620f424063ffffffff168363ffffffff1614156116765761166f8461166184886131b990919063ffffffff16565b6131f790919063ffffffff16565b90506116d6565b600080600061168e878661322190919063ffffffff16565b905061169f818888620f4240613242565b809350819450505060008260ff166116c0858b6131b990919063ffffffff16565b908060020a820491505090508881039450505050505b949350505050565b60008060008060008086101580156116fc57506116f9611c33565b86105b1515611770576040517f08c379a000000000000000000000000000000000000000000000000000000000815260040180806020018281038252600d8152602001807f496e76616c696420696e6465780000000000000000000000000000000000000081525060200191505060405180910390fd5b6000608c8781548110151561178157fe5b9060005260206000200160009054906101000a900473ffffffffffffffffffffffffffffffffffffffff1690506117b661528f565b608b60008373ffffffffffffffffffffffffffffffffffffffff1673ffffffffffffffffffffffffffffffffffffffff16815260200190815260200160002060c06040519081016040529081600082015481526020016001820154815260200160028201548152602001600382015481526020016004820154815260200160058201548152505090508060000151816020015182604001518360600151846080015196509650965096509650505091939590929450565b60008073ffffffffffffffffffffffffffffffffffffffff168373ffffffffffffffffffffffffffffffffffffffff16141515156118aa57600080fd5b61193982608360003373ffffffffffffffffffffffffffffffffffffffff1673ffffffffffffffffffffffffffffffffffffffff16815260200190815260200160002060008673ffffffffffffffffffffffffffffffffffffffff1673ffffffffffffffffffffffffffffffffffffffff1681526020019081526020016000205461322190919063ffffffff16565b608360003373ffffffffffffffffffffffffffffffffffffffff1673ffffffffffffffffffffffffffffffffffffffff16815260200190815260200160002060008573ffffffffffffffffffffffffffffffffffffffff1673ffffffffffffffffffffffffffffffffffffffff168152602001908152602001600020819055508273ffffffffffffffffffffffffffffffffffffffff163373ffffffffffffffffffffffffffffffffffffffff167f8c5be1e5ebec7d5bd14f71427d1e84f3dd0314c0f7b2291e5b200ac8c7c3b925608360003373ffffffffffffffffffffffffffffffffffffffff1673ffffffffffffffffffffffffffffffffffffffff16815260200190815260200160002060008773ffffffffffffffffffffffffffffffffffffffff1673ffffffffffffffffffffffffffffffffffffffff168152602001908152602001600020546040518082815260200191505060405180910390a36001905092915050565b6000611aae612344565b1515611ab957600080fd5b6000611ac3613426565b90506000611acf613442565b90506000608d82815481101515611ae257fe5b9060005260206000200160009054906101000a900473ffffffffffffffffffffffffffffffffffffffff16905060008090505b608d80549050811015611c0557611b2a61528f565b608b6000608d84815481101515611b3d57fe5b9060005260206000200160009054906101000a900473ffffffffffffffffffffffffffffffffffffffff1673ffffffffffffffffffffffffffffffffffffffff1673ffffffffffffffffffffffffffffffffffffffff16815260200190815260200160002060c06040519081016040529081600082015481526020016001820154815260200160028201548152602001600382015481526020016004820154815260200160058201548152505090506000816000018181525050508080600101915050611b15565b506000608d81611c1591906152c6565b50611c20818461283d565b506000608a819055506001935050505090565b6000608c80549050905090565b60855481565b6085543a11151515611ce6576040517f08c379a00000000000000000000000000000000000000000000000000000000081526004018080602001828103825260368152602001807f5472616e73616374696f6e206761732070726963652063616e6e6f742065786381526020017f656564206d6178696d756d206761732070726963652e0000000000000000000081525060400191505060405180910390fd5b6000611cf182613651565b90503373ffffffffffffffffffffffffffffffffffffffff166108fc829081150290604051600060405180830381858888f19350505050158015611d39573d6000803e3d6000fd5b505050565b60008085118015611d4f5750600084115b8015611d61575060008363ffffffff16115b8015611d7c5750620f424063ffffffff168363ffffffff1611155b8015611d885750848211155b1515611d9357600080fd5b6000821415611da55760009050611e6b565b84821415611db557839050611e6b565b620f424063ffffffff168363ffffffff161415611df857611df185611de384876131b990919063ffffffff16565b6131f790919063ffffffff16565b9050611e6b565b60008060008488039050611e118882620f424089613242565b80935081945050506000611e2e84896131b990919063ffffffff16565b905060008360ff16899060020a029050611e6385611e558385612fc790919063ffffffff16565b6131f790919063ffffffff16565b955050505050505b949350505050565b600281565b60008054600181600116156101000203166002900480601f016020809104026020016040519081016040528092919081815260200182805460018160011615610100020316600290048015611f0e5780601f10611ee357610100808354040283529160200191611f0e565b820191906000526020600020905b815481529060010190602001808311611ef157829003601f168201915b505050505081565b608d81815481101515611f2557fe5b906000526020600020016000915054906101000a900473ffffffffffffffffffffffffffffffffffffffff1681565b608c81815481101515611f6357fe5b906000526020600020016000915054906101000a900473ffffffffffffffffffffffffffffffffffffffff1681565b6000808210158015611faa5750611fa7611c33565b82105b151561201e576040517f08c379a000000000000000000000000000000000000000000000000000000000815260040180806020018281038252600d8152602001807f496e76616c696420696e6465780000000000000000000000000000000000000081525060200191505060405180910390fd5b6000608c8381548110151561202f57fe5b9060005260206000200160009054906101000a900473ffffffffffffffffffffffffffffffffffffffff16905061206461528f565b608b60008373ffffffffffffffffffffffffffffffffffffffff1673ffffffffffffffffffffffffffffffffffffffff16815260200190815260200160002060c0604051908101604052908160008201548152602001600182015481526020016002820154815260200160038201548152602001600482015481526020016005820154815250509050806000015192505050919050565b6000608260008373ffffffffffffffffffffffffffffffffffffffff1673ffffffffffffffffffffffffffffffffffffffff168152602001908152602001600020549050919050565b61214c612344565b151561215757600080fd5b600073ffffffffffffffffffffffffffffffffffffffff16608160009054906101000a900473ffffffffffffffffffffffffffffffffffffffff1673ffffffffffffffffffffffffffffffffffffffff167f8be0079c531659141344cd1fd0a4f28419497f9722a3daafe3b4186f6b6457e060405160405180910390a36000608160006101000a81548173ffffffffffffffffffffffffffffffffffffffff021916908373ffffffffffffffffffffffffffffffffffffffff160217905550565b600080600080600061222861528f565b608b60008873ffffffffffffffffffffffffffffffffffffffff1673ffffffffffffffffffffffffffffffffffffffff16815260200190815260200160002060c060405190810160405290816000820154815260200160018201548152602001600282015481526020016003820154815260200160048201548152602001600582015481525050905080600001518160200151826040015183606001518460800151955095509550955095505091939590929450565b608b6020528060005260406000206000915090508060000154908060010154908060020154908060030154908060040154908060050154905086565b6000608160009054906101000a900473ffffffffffffffffffffffffffffffffffffffff16905090565b6000608160009054906101000a900473ffffffffffffffffffffffffffffffffffffffff1673ffffffffffffffffffffffffffffffffffffffff163373ffffffffffffffffffffffffffffffffffffffff1614905090565b60006123b56123a96113a6565b60875460885485611d3e565b9050919050565b608a5481565b60006123cc61528f565b608b60008473ffffffffffffffffffffffffffffffffffffffff1673ffffffffffffffffffffffffffffffffffffffff16815260200190815260200160002060c06040519081016040529081600082015481526020016001820154815260200160028201548152602001600382015481526020016004820154815260200160058201548152505090508060000151915050919050565b600080821115156124db576040517f08c379a000000000000000000000000000000000000000000000000000000000815260040180806020018281038252601a8152602001807f4d757374207370656e6420746f6b656e7320746f20766f74652e00000000000081525060200191505060405180910390fd5b6124ec6124e661231a565b8361283d565b5081608a6000828254019250508190555081608b60008573ffffffffffffffffffffffffffffffffffffffff1673ffffffffffffffffffffffffffffffffffffffff16815260200190815260200160002060000160008282540192505081905550612556836137f8565b507ffb8cc7ee835f831650eb0bf4d799376693d4b64e133236afc3a40a38dce391f1338484604051808473ffffffffffffffffffffffffffffffffffffffff1673ffffffffffffffffffffffffffffffffffffffff1681526020018373ffffffffffffffffffffffffffffffffffffffff1673ffffffffffffffffffffffffffffffffffffffff168152602001828152602001935050505060405180910390a16001905092915050565b60875481565b60008073ffffffffffffffffffffffffffffffffffffffff168373ffffffffffffffffffffffffffffffffffffffff161415151561264357600080fd5b6126d282608360003373ffffffffffffffffffffffffffffffffffffffff1673ffffffffffffffffffffffffffffffffffffffff16815260200190815260200160002060008673ffffffffffffffffffffffffffffffffffffffff1673ffffffffffffffffffffffffffffffffffffffff16815260200190815260200160002054612fc790919063ffffffff16565b608360003373ffffffffffffffffffffffffffffffffffffffff1673ffffffffffffffffffffffffffffffffffffffff16815260200190815260200160002060008573ffffffffffffffffffffffffffffffffffffffff1673ffffffffffffffffffffffffffffffffffffffff168152602001908152602001600020819055508273ffffffffffffffffffffffffffffffffffffffff163373ffffffffffffffffffffffffffffffffffffffff167f8c5be1e5ebec7d5bd14f71427d1e84f3dd0314c0f7b2291e5b200ac8c7c3b925608360003373ffffffffffffffffffffffffffffffffffffffff1673ffffffffffffffffffffffffffffffffffffffff16815260200190815260200160002060008773ffffffffffffffffffffffffffffffffffffffff1673ffffffffffffffffffffffffffffffffffffffff168152602001908152602001600020546040518082815260200191505060405180910390a36001905092915050565b600061284a338484612fe9565b6001905092915050565b600061285e61231a565b73ffffffffffffffffffffffffffffffffffffffff163373ffffffffffffffffffffffffffffffffffffffff1614151515612927576040517f08c379a000000000000000000000000000000000000000000000000000000000815260040180806020018281038252602a8152602001807f436f6e7472616374206f776e65722063616e6e6f74206372656174652061206e81526020017f65772070726f6a6563740000000000000000000000000000000000000000000081525060400191505060405180910390fd5b61293033611109565b1515156129f1576040517f08c379a00000000000000000000000000000000000000000000000000000000081526004018080602001828103825260478152602001807f4170706c6963616e7420616c72656164792073656e7420612070726f6a65637481526020017f2c2064656c657465206974206265666f7265207375626d697474696e6720612081526020017f6e6577206f6e650000000000000000000000000000000000000000000000000081525060600191505060405180910390fd5b6129f961528f565b60c060405190810160405280600081526020018681526020018581526020018481526020014281526020016000815250905080608b60003373ffffffffffffffffffffffffffffffffffffffff1673ffffffffffffffffffffffffffffffffffffffff168152602001908152602001600020600082015181600001556020820151816001015560408201518160020155606082015181600301556080820151816004015560a082015181600501559050506001608c3390806001815401808255809150509060018203906000526020600020016000909192909190916101000a81548173ffffffffffffffffffffffffffffffffffffffff021916908373ffffffffffffffffffffffffffffffffffffffff16021790555003608b60003373ffffffffffffffffffffffffffffffffffffffff1673ffffffffffffffffffffffffffffffffffffffff168152602001908152602001600020600501819055507f68365eb7cc3ad309735136b92b0742f9588ae91c706315a4088a06ec255dd29233604051808273ffffffffffffffffffffffffffffffffffffffff1673ffffffffffffffffffffffffffffffffffffffff16815260200191505060405180910390a160019150509392505050565b60895481565b612bd5612344565b1515612be057600080fd5b8060858190555050565b600581565b6000608360008473ffffffffffffffffffffffffffffffffffffffff1673ffffffffffffffffffffffffffffffffffffffff16815260200190815260200160002060008373ffffffffffffffffffffffffffffffffffffffff1673ffffffffffffffffffffffffffffffffffffffff16815260200190815260200160002054905092915050565b612c7e612344565b1515612c8957600080fd5b612c92816139fc565b50565b6000612c9f612344565b1515612caa57600080fd5b612cb382611109565b1515612d4d576040517f08c379a00000000000000000000000000000000000000000000000000000000081526004018080602001828103825260258152602001807f50726f6a656374206e6f742070726573656e742c2063616e6e6f742064656c6581526020017f746520697400000000000000000000000000000000000000000000000000000081525060400191505060405180910390fd5b6000608b60008473ffffffffffffffffffffffffffffffffffffffff1673ffffffffffffffffffffffffffffffffffffffff1681526020019081526020016000206005015490506000608c6001608c8054905003815481101515612dad57fe5b9060005260206000200160009054906101000a900473ffffffffffffffffffffffffffffffffffffffff16905080608c83815481101515612dea57fe5b9060005260206000200160006101000a81548173ffffffffffffffffffffffffffffffffffffffff021916908373ffffffffffffffffffffffffffffffffffffffff16021790555081608b60008373ffffffffffffffffffffffffffffffffffffffff1673ffffffffffffffffffffffffffffffffffffffff16815260200190815260200160002060050181905550608c805480919060019003612e8e91906152c6565b50600192505050919050565b60865481565b60008082111515612f19576040517f08c379a00000000000000000000000000000000000000000000000000000000081526004018080602001828103825260198152602001807f4465706f736974206d757374206265206e6f6e2d7a65726f2e0000000000000081525060200191505060405180910390fd5b6000612f24836115b8565b9050612f303382613af8565b612f458360875461322190919063ffffffff16565b6087819055507fa9b5c37908cbe11fc228c10af0ce98bf944b069510207388ac875a3d2a314bbe338285604051808473ffffffffffffffffffffffffffffffffffffffff1673ffffffffffffffffffffffffffffffffffffffff168152602001838152602001828152602001935050505060405180910390a180915050919050565b6000828211151515612fd857600080fd5b600082840390508091505092915050565b600073ffffffffffffffffffffffffffffffffffffffff168273ffffffffffffffffffffffffffffffffffffffff161415151561302557600080fd5b61307781608260008673ffffffffffffffffffffffffffffffffffffffff1673ffffffffffffffffffffffffffffffffffffffff16815260200190815260200160002054612fc790919063ffffffff16565b608260008573ffffffffffffffffffffffffffffffffffffffff1673ffffffffffffffffffffffffffffffffffffffff1681526020019081526020016000208190555061310c81608260008573ffffffffffffffffffffffffffffffffffffffff1673ffffffffffffffffffffffffffffffffffffffff1681526020019081526020016000205461322190919063ffffffff16565b608260008473ffffffffffffffffffffffffffffffffffffffff1673ffffffffffffffffffffffffffffffffffffffff168152602001908152602001600020819055508173ffffffffffffffffffffffffffffffffffffffff168373ffffffffffffffffffffffffffffffffffffffff167fddf252ad1be2c89b69c2b068fc378daa952ba7f163c4a11628f55a4df523b3ef836040518082815260200191505060405180910390a3505050565b6000808314156131cc57600090506131f1565b600082840290508284828115156131df57fe5b041415156131ec57600080fd5b809150505b92915050565b6000808211151561320757600080fd5b6000828481151561321457fe5b0490508091505092915050565b600080828401905083811015151561323857600080fd5b8091505092915050565b600080700200000000000000000000000000000000861015156132cd576040517f08c379a00000000000000000000000000000000000000000000000000000000081526004018080602001828103825260188152602001807f626173654e2065786365656473206d61782076616c75652e000000000000000081525060200191505060405180910390fd5b848610151515613345576040517f08c379a000000000000000000000000000000000000000000000000000000000815260040180806020018281038252601c8152602001807f4261736573203c203120617265206e6f7420737570706f727465642e0000000081525060200191505060405180910390fd5b600080866f80000000000000000000000000000000890281151561336557fe5b04905070015bf0a8b1457695355fb8ac404e7a79e38110156133915761338a81613c4e565b915061339d565b61339a8161421e565b91505b60008563ffffffff168763ffffffff1684028115156133b857fe5b0490507008000000000000000000000000000000008110156133eb576133dd81614363565b607f9450945050505061341d565b60006133f682614923565b905061341381607f0360ff1683908060020a8204915050826149e8565b8195509550505050505b94509492505050565b600060646005606403608a540281151561343c57fe5b04905090565b600080608d8054905011151561345757600080fd5b608d80549050608c805490501015151561347057600080fd5b600080905061347d61528f565b608b6000608d8481548110151561349057fe5b9060005260206000200160009054906101000a900473ffffffffffffffffffffffffffffffffffffffff1673ffffffffffffffffffffffffffffffffffffffff1673ffffffffffffffffffffffffffffffffffffffff16815260200190815260200160002060c060405190810160405290816000820154815260200160018201548152602001600282015481526020016003820154815260200160048201548152602001600582015481525050905060008160000151905060006001608d805490500390505b60008110151561364757608b6000608d8381548110151561357357fe5b9060005260206000200160009054906101000a900473ffffffffffffffffffffffffffffffffffffffff1673ffffffffffffffffffffffffffffffffffffffff1673ffffffffffffffffffffffffffffffffffffffff16815260200190815260200160002060c0604051908101604052908160008201548152602001600182015481526020016002820154815260200160038201548152602001600482015481526020016005820154815250509250818360000151111561363957809350826000015191505b808060019003915050613556565b5082935050505090565b600080821115156136ca576040517f08c379a00000000000000000000000000000000000000000000000000000000081526004018080602001828103825260188152602001807f416d6f756e74206d757374206265206e6f6e2d7a65726f2e000000000000000081525060200191505060405180910390fd5b816136d4336120fb565b1015151561374a576040517f08c379a000000000000000000000000000000000000000000000000000000000815260040180806020018281038252601c8152602001807f496e73756666696369656e7420746f6b656e7320746f206275726e2e0000000081525060200191505060405180910390fd5b60006137558361239c565b905061376c81608754612fc790919063ffffffff16565b60878190555061377c3384614e8b565b7f42cdee5ad59c78ee53adb50e8d3f4b66918ce660505ab55abb44035e4c79ad1d338483604051808473ffffffffffffffffffffffffffffffffffffffff1673ffffffffffffffffffffffffffffffffffffffff168152602001838152602001828152602001935050505060405180910390a180915050919050565b600061380261528f565b608b60008473ffffffffffffffffffffffffffffffffffffffff1673ffffffffffffffffffffffffffffffffffffffff16815260200190815260200160002060c06040519081016040529081600082015481526020016001820154815260200160028201548152602001600382015481526020016004820154815260200160058201548152505090506002608d80549050101561390457608d8390806001815401808255809150509060018203906000526020600020016000909192909190916101000a81548173ffffffffffffffffffffffffffffffffffffffff021916908373ffffffffffffffffffffffffffffffffffffffff160217905550506139f2565b600061390e614fe1565b90508160000151608b6000608d8481548110151561392857fe5b9060005260206000200160009054906101000a900473ffffffffffffffffffffffffffffffffffffffff1673ffffffffffffffffffffffffffffffffffffffff1673ffffffffffffffffffffffffffffffffffffffff1681526020019081526020016000206000015410156139f05783608d828154811015156139a757fe5b9060005260206000200160006101000a81548173ffffffffffffffffffffffffffffffffffffffff021916908373ffffffffffffffffffffffffffffffffffffffff1602179055505b505b6001915050919050565b600073ffffffffffffffffffffffffffffffffffffffff168173ffffffffffffffffffffffffffffffffffffffff1614151515613a3857600080fd5b8073ffffffffffffffffffffffffffffffffffffffff16608160009054906101000a900473ffffffffffffffffffffffffffffffffffffffff1673ffffffffffffffffffffffffffffffffffffffff167f8be0079c531659141344cd1fd0a4f28419497f9722a3daafe3b4186f6b6457e060405160405180910390a380608160006101000a81548173ffffffffffffffffffffffffffffffffffffffff021916908373ffffffffffffffffffffffffffffffffffffffff16021790555050565b600073ffffffffffffffffffffffffffffffffffffffff168273ffffffffffffffffffffffffffffffffffffffff1614151515613b3457600080fd5b613b498160845461322190919063ffffffff16565b608481905550613ba181608260008573ffffffffffffffffffffffffffffffffffffffff1673ffffffffffffffffffffffffffffffffffffffff1681526020019081526020016000205461322190919063ffffffff16565b608260008473ffffffffffffffffffffffffffffffffffffffff1673ffffffffffffffffffffffffffffffffffffffff168152602001908152602001600020819055508173ffffffffffffffffffffffffffffffffffffffff16600073ffffffffffffffffffffffffffffffffffffffff167fddf252ad1be2c89b69c2b068fc378daa952ba7f163c4a11628f55a4df523b3ef836040518082815260200191505060405180910390a35050565b6000806000905060008060006fd3094c70f034de4b96ff7d5b6f99fcd886101515613cb9576f40000000000000000000000000000000840193506fd3094c70f034de4b96ff7d5b6f99fcd86f800000000000000000000000000000008702811515613cb557fe5b0495505b6fa45af1e1f40c333b3de1db4dd55f29a786101515613d18576f20000000000000000000000000000000840193506fa45af1e1f40c333b3de1db4dd55f29a76f800000000000000000000000000000008702811515613d1457fe5b0495505b6f910b022db7ae67ce76b441c27035c6a186101515613d77576f10000000000000000000000000000000840193506f910b022db7ae67ce76b441c27035c6a16f800000000000000000000000000000008702811515613d7357fe5b0495505b6f88415abbe9a76bead8d00cf112e4d4a886101515613dd6576f08000000000000000000000000000000840193506f88415abbe9a76bead8d00cf112e4d4a86f800000000000000000000000000000008702811515613dd257fe5b0495505b6f84102b00893f64c705e841d5d4064bd386101515613e35576f04000000000000000000000000000000840193506f84102b00893f64c705e841d5d4064bd36f800000000000000000000000000000008702811515613e3157fe5b0495505b6f8204055aaef1c8bd5c3259f4822735a286101515613e94576f02000000000000000000000000000000840193506f8204055aaef1c8bd5c3259f4822735a26f800000000000000000000000000000008702811515613e9057fe5b0495505b6f810100ab00222d861931c15e39b44e9986101515613ef3576f01000000000000000000000000000000840193506f810100ab00222d861931c15e39b44e996f800000000000000000000000000000008702811515613eef57fe5b0495505b6f808040155aabbbe9451521693554f73386101515613f51576e800000000000000000000000000000840193506f808040155aabbbe9451521693554f7336f800000000000000000000000000000008702811515613f4d57fe5b0495505b6f80000000000000000000000000000000860392508291506f80000000000000000000000000000000838402811515613f8657fe5b04905070010000000000000000000000000000000083700100000000000000000000000000000000038302811515613fba57fe5b04840193506f80000000000000000000000000000000818302811515613fdc57fe5b049150700200000000000000000000000000000000836faaaaaaaaaaaaaaaaaaaaaaaaaaaaaaaa03830281151561400f57fe5b04840193506f8000000000000000000000000000000081830281151561403157fe5b049150700300000000000000000000000000000000836f9999999999999999999999999999999903830281151561406457fe5b04840193506f8000000000000000000000000000000081830281151561408657fe5b049150700400000000000000000000000000000000836f924924924924924924924924924924920383028115156140b957fe5b04840193506f800000000000000000000000000000008183028115156140db57fe5b049150700500000000000000000000000000000000836f8e38e38e38e38e38e38e38e38e38e38e03830281151561410e57fe5b04840193506f8000000000000000000000000000000081830281151561413057fe5b049150700600000000000000000000000000000000836f8ba2e8ba2e8ba2e8ba2e8ba2e8ba2e8b03830281151561416357fe5b04840193506f8000000000000000000000000000000081830281151561418557fe5b049150700700000000000000000000000000000000836f89d89d89d89d89d89d89d89d89d89d890383028115156141b857fe5b04840193506f800000000000000000000000000000008183028115156141da57fe5b049150700800000000000000000000000000000000836f8888888888888888888888888888888803830281151561420d57fe5b048401935083945050505050919050565b6000806000905060008390507001000000000000000000000000000000008110151561429757600061426a6f800000000000000000000000000000008381151561426457fe5b046151f0565b90508060ff1682908060020a820491505091506f800000000000000000000000000000008160ff16029250505b6f8000000000000000000000000000000081111561432c576000607f90505b60008160ff16111561432a576f800000000000000000000000000000008283028115156142df57fe5b0491507001000000000000000000000000000000008210151561431e57600182908060020a820491505091506001810360ff1660019060020a02830192505b806001900390506142b6565b505b6f05b9de1d10bf4103d647b0955897ba806f03f80fe03f80fe03f80fe03f80fe03f8830281151561435957fe5b0492505050919050565b600080600090506000806f100000000000000000000000000000008581151561438857fe5b0691508190506f800000000000000000000000000000008282028115156143ab57fe5b0490506710e1b3be415a00008102830192506f800000000000000000000000000000008282028115156143da57fe5b0490506705a0913f6b1e00008102830192506f8000000000000000000000000000000082820281151561440957fe5b049050670168244fdac780008102830192506f8000000000000000000000000000000082820281151561443857fe5b049050664807432bc180008102830192506f8000000000000000000000000000000082820281151561446657fe5b049050660c0135dca040008102830192506f8000000000000000000000000000000082820281151561449457fe5b0490506601b707b1cdc0008102830192506f800000000000000000000000000000008282028115156144c257fe5b0490506536e0f639b8008102830192506f800000000000000000000000000000008282028115156144ef57fe5b049050650618fee9f8008102830192506f8000000000000000000000000000000082820281151561451c57fe5b049050649c197dcc008102830192506f8000000000000000000000000000000082820281151561454857fe5b049050640e30dce4008102830192506f8000000000000000000000000000000082820281151561457457fe5b04905064012ebd13008102830192506f800000000000000000000000000000008282028115156145a057fe5b0490506317499f008102830192506f800000000000000000000000000000008282028115156145cb57fe5b0490506301a9d4808102830192506f800000000000000000000000000000008282028115156145f657fe5b049050621c63808102830192506f8000000000000000000000000000000082820281151561462057fe5b0490506201c6388102830192506f8000000000000000000000000000000082820281151561464a57fe5b049050611ab88102830192506f8000000000000000000000000000000082820281151561467357fe5b04905061017c8102830192506f8000000000000000000000000000000082820281151561469c57fe5b04905060148102830192506f800000000000000000000000000000008282028115156146c457fe5b04905060018102830192506f80000000000000000000000000000000826721c3677c82b40000858115156146f457fe5b040101925060006f1000000000000000000000000000000086161415156147485770018ebef9eac820ae8682b9793ac6d1e7767001c3d6a24ed82218787d624d3e5eba95f9840281151561474457fe5b0492505b60006f200000000000000000000000000000008616141515614797577001368b2fc6f9609fe7aceb46aa619baed470018ebef9eac820ae8682b9793ac6d1e778840281151561479357fe5b0492505b60006f4000000000000000000000000000000086161415156147e5576fbc5ab1b16779be3575bd8f0520a9f21f7001368b2fc6f9609fe7aceb46aa619baed584028115156147e157fe5b0492505b60006f800000000000000000000000000000008616141515614832576f454aaa8efe072e7f6ddbab84b40a55c96fbc5ab1b16779be3575bd8f0520a9f21e840281151561482e57fe5b0492505b60007001000000000000000000000000000000008616141515614880576f0960aadc109e7a3bf4578099615711ea6f454aaa8efe072e7f6ddbab84b40a55c5840281151561487c57fe5b0492505b600070020000000000000000000000000000000086161415156148cd576e2bf84208204f5977f9a8cf01fdce3d6f0960aadc109e7a3bf4578099615711d784028115156148c957fe5b0492505b60007004000000000000000000000000000000008616141515614918576d03c6ab775dd0b95b4cbee7e65d116e2bf84208204f5977f9a8cf01fdc307840281151561491457fe5b0492505b829350505050919050565b600080602090506000607f90505b8060ff166001830160ff161015614986576000600282840160ff1681151561495557fe5b0490508460018260ff1660808110151561496b57fe5b015410151561497c57809250614980565b8091505b50614931565b8360018260ff1660808110151561499957fe5b01541015156149ac5780925050506149e3565b8360018360ff166080811015156149bf57fe5b01541015156149d25781925050506149e3565b600015156149dc57fe5b6000925050505b919050565b60008083905060008090508360ff16858302908060020a820491505091506f03442c4e6074a82f1797f72ac00000008202810190508360ff16858302908060020a820491505091506f0116b96f757c380fb287fd0e400000008202810190508360ff16858302908060020a820491505091506e45ae5bdd5f0e03eca1ff43900000008202810190508360ff16858302908060020a820491505091506e0defabf91302cd95b9ffda500000008202810190508360ff16858302908060020a820491505091506e02529ca9832b22439efff9b80000008202810190508360ff16858302908060020a820491505091506d54f1cf12bd04e516b6da880000008202810190508360ff16858302908060020a820491505091506d0a9e39e257a09ca2d6db510000008202810190508360ff16858302908060020a820491505091506d012e066e7b839fa050c3090000008202810190508360ff16858302908060020a820491505091506c1e33d7d926c329a1ad1a8000008202810190508360ff16858302908060020a820491505091506c02bee513bdb4a6b19b5f8000008202810190508360ff16858302908060020a820491505091506b3a9316fa79b88eccf2a000008202810190508360ff16858302908060020a820491505091506b048177ebe1fa8123752000008202810190508360ff16858302908060020a820491505091506a5263fe90242dcbacf000008202810190508360ff16858302908060020a820491505091506a057e22099c030d941000008202810190508360ff16858302908060020a820491505091506957e22099c030d94100008202810190508360ff16858302908060020a8204915050915069052b6b545699763100008202810190508360ff16858302908060020a82049150509150684985f67696bf7480008202810190508360ff16858302908060020a820491505091506803dea12ea99e4980008202810190508360ff16858302908060020a820491505091506731880f2214b6e0008202810190508360ff16858302908060020a8204915050915067025bcff56eb360008202810190508360ff16858302908060020a82049150509150661b722e10ab10008202810190508360ff16858302908060020a820491505091506601317c700770008202810190508360ff16858302908060020a82049150509150650cba84aafa008202810190508360ff16858302908060020a820491505091506482573a0a008202810190508360ff16858302908060020a820491505091506405035ad9008202810190508360ff16858302908060020a82049150509150632f881b008202810190508360ff16858302908060020a820491505091506301b293408202810190508360ff16858302908060020a82049150509150620efc408202810190508360ff16858302908060020a82049150509150617fe08202810190508360ff16858302908060020a820491505091506104208202810190508360ff16858302908060020a8204915050915060218202810190508360ff16858302908060020a8204915050915060018202810190508360ff1660019060020a02856f0688589cc0e9505e2f2fee558000000083811515614e7e57fe5b0401019250505092915050565b600073ffffffffffffffffffffffffffffffffffffffff168273ffffffffffffffffffffffffffffffffffffffff1614151515614ec757600080fd5b614edc81608454612fc790919063ffffffff16565b608481905550614f3481608260008573ffffffffffffffffffffffffffffffffffffffff1673ffffffffffffffffffffffffffffffffffffffff16815260200190815260200160002054612fc790919063ffffffff16565b608260008473ffffffffffffffffffffffffffffffffffffffff1673ffffffffffffffffffffffffffffffffffffffff16815260200190815260200160002081905550600073ffffffffffffffffffffffffffffffffffffffff168273ffffffffffffffffffffffffffffffffffffffff167fddf252ad1be2c89b69c2b068fc378daa952ba7f163c4a11628f55a4df523b3ef836040518082815260200191505060405180910390a35050565b600080608d80549050111515614ff657600080fd5b608d80549050608c805490501015151561500f57600080fd5b600080905061501c61528f565b608b6000608d8481548110151561502f57fe5b9060005260206000200160009054906101000a900473ffffffffffffffffffffffffffffffffffffffff1673ffffffffffffffffffffffffffffffffffffffff1673ffffffffffffffffffffffffffffffffffffffff16815260200190815260200160002060c060405190810160405290816000820154815260200160018201548152602001600282015481526020016003820154815260200160048201548152602001600582015481525050905060008160000151905060006001608d805490500390505b6000811015156151e657608b6000608d8381548110151561511257fe5b9060005260206000200160009054906101000a900473ffffffffffffffffffffffffffffffffffffffff1673ffffffffffffffffffffffffffffffffffffffff1673ffffffffffffffffffffffffffffffffffffffff16815260200190815260200160002060c060405190810160405290816000820154815260200160018201548152602001600282015481526020016003820154815260200160048201548152602001600582015481525050925081836000015110156151d857809350826000015191505b8080600190039150506150f5565b5082935050505090565b60008060009050600083905061010081101561522f575b600181111561522a57600181908060020a82049150509050600182019150615207565b615285565b6000608090505b60008160ff161115615283578060ff1660019060020a028210151561526c578060ff1682908060020a8204915050915080831792505b60018160ff16908060020a82049150509050615236565b505b8192505050919050565b60c0604051908101604052806000815260200160008152602001600081526020016000815260200160008152602001600081525090565b8154818355818111156152ed578183600052602060002091820191016152ec91906152f2565b5b505050565b61531491905b808211156153105760008160009055506001016152f8565b5090565b9056fea165627a7a723058208c99364fdbbb0e8a95893400841af3eb9c8229280004708603db0f94f7c327d50029",
  "source": "pragma solidity ^0.5.0;\n\nimport \"openzeppelin-solidity/contracts/math/SafeMath.sol\";\n\nimport \"./ContinuousToken.sol\";\n\ncontract FundingToken is ContinuousToken {\n    using SafeMath for uint256;\n\n    uint256 public timeframe;\n    uint256 public totalFunds;\n    uint constant public winnerListSize = 2;\n    uint256 constant public contractFee = 5;\n\n    event Voting(\n        address _from,\n        address  _to,\n        uint256 _amount\n    );\n\n    event NewProject(\n        address  _addr\n    );\n\n    struct Project {\n        uint256 votes; \n        uint256 minPayment;\n        uint256 maxPayment; \n        uint field;\n        uint256 time;\n        uint pointer;      \n    }\n\n    mapping (address => Project) public projects;\n    address[] public projectList;\n    address[] public winnerList;\n\n    \n    constructor(uint256 _reserveRatio, uint256 _timeframe) ContinuousToken(_reserveRatio) public {\n        timeframe = _timeframe;\n        totalFunds = 0;\n    }\n\n    function isProject(address addr) \n        public \n        view \n        returns(bool res) \n    {\n        if(projectList.length == 0) {\n            return false;\n        }\n        return (projectList[projects[addr].pointer] == addr);\n    }\n\n    function getProjectByAddress(address addr)\n        public\n        view\n        returns(uint256 votes, uint256 min, uint256 max, uint field, uint256 time)\n    {\n        Project memory p = projects[addr];\n        return (p.votes, p.minPayment, p.maxPayment, p.field, p.time);\n    }\n\n    function getProjectByIndex(uint index)\n        public\n        view\n        returns(uint256 votes, uint256 min, uint256 max, uint field, uint256 time)\n    {\n        require (index >= 0 && index < getProjectCount(), \"Invalid index\");\n        address _addr = projectList[index];\n        Project memory p = projects[_addr];\n        return (p.votes, p.minPayment, p.maxPayment, p.field, p.time);\n    }\n\n    function getProjectVotesByAddress(address addr)\n        public\n        view\n        returns(uint256 votes)\n    {\n        Project memory p = projects[addr];\n        return p.votes;\n    }\n\n    function getProjectVotesByIndex(uint index)\n        public\n        view\n        returns(uint256 votes)\n    {\n        require (index >= 0 && index < getProjectCount(), \"Invalid index\");\n        address _addr = projectList[index];\n        Project memory p = projects[_addr];\n        return p.votes;\n    }\n\n    function getProjectPointerByAddress(address addr)\n        public\n        view\n        returns(uint pointer)\n    {\n        Project memory p = projects[addr];\n        return p.pointer;\n    }\n\n\n    function voteByAddress (address addr, uint256 amount) \n        external returns(bool res)  \n    {\n        require(amount > 0, \"Must spend tokens to vote.\");\n        //transfer amount to smart contract\n        transfer(owner(), amount);\n        totalFunds += amount;\n        projects[addr].votes += amount;\n        //update winnerList\n        updateWinnerList(addr);\n        emit Voting(msg.sender, addr, amount);\n        return true;\n    }\n\n    function newProject (uint256 min, uint256 max, uint field) \n    //can create or fund a project only when not distributing\n        external returns(bool res)  \n    {\n        require(msg.sender != owner(), \"Contract owner cannot create a new project\");\n        //check the user didn't submit another project already. We are gonna extend this to allow for multiple projects per user/account (maybe)\n        require(!isProject(msg.sender), \"Applicant already sent a project, delete it before submitting a new one\");\n        Project memory _newProject = Project({votes:0, minPayment:min, maxPayment:max, field:field, time:now, pointer:0});\n        projects[msg.sender] = _newProject;\n        projects[msg.sender].pointer = projectList.push(msg.sender) - 1;\n        emit NewProject(msg.sender);\n        return true;\n    }\n\n    function getProjectCount() \n        public view \n        returns(uint count) \n    {\n        return projectList.length;\n    }\n\n    function deleteProjectByAddress(address addr) public onlyOwner returns(bool success) {\n        require(isProject(addr), \"Project not present, cannot delete it\");\n        uint rowToDelete = projects[addr].pointer;\n        address keyToMove   = projectList[projectList.length-1];\n        projectList[rowToDelete] = keyToMove;\n        projects[keyToMove].pointer = rowToDelete;\n        projectList.length--;\n        return true;\n    }\n\n    function distributeFunds () \n        public onlyOwner \n        returns(bool res) \n    {\n        uint256 prize = calculatePrize();\n        uint wIndex = findMostVotedIndex();\n        address wAddr = winnerList[wIndex];\n        //make sure ties get the same prize\n\n        for (uint i=0; i<winnerList.length; i++) {\n            Project memory p = projects[winnerList[i]];\n            p.votes = 0;\n        }\n        winnerList.length = 0;\n        transfer(wAddr, prize);\n        totalFunds = 0;\n        \n        return true;\n    }\n\n    function updateWinnerList(address addr) \n        internal \n        returns(bool res)\n    {\n        Project memory p = projects[addr];\n        if (winnerList.length < winnerListSize) {\n            winnerList.push(addr);\n        } else {\n            uint index = findLeastVotedIndex();\n            if(projects[winnerList[index]].votes < p.votes) {\n                winnerList[index] = addr;\n            }     \n        }\n\n        return true;\n    }\n\n    function findLeastVotedIndex () \n        internal view\n        returns(uint index)  \n    {\n        require (winnerList.length > 0);\n        require (projectList.length >= winnerList.length);\n        \n        uint _index = 0;\n        Project memory p = projects[winnerList[_index]];\n        uint256 smallest = p.votes;\n\n        for (uint i=winnerList.length - 1; i>=0; i--) {\n            p = projects[winnerList[i]];\n            if(p.votes < smallest) {\n                _index = i;\n                smallest = p.votes;\n            }\n        }\n\n        return _index;\n    }\n\n    function findMostVotedIndex () \n        internal view\n        returns(uint index)  \n    {\n        require (winnerList.length > 0);\n        require (projectList.length >= winnerList.length);\n        \n        uint _index = 0;\n        Project memory p = projects[winnerList[_index]];\n        uint256 largest = p.votes;\n\n        for (uint i=winnerList.length - 1; i>=0; i--) {\n            p = projects[winnerList[i]];\n            if(p.votes > largest) {\n                _index = i;\n                largest = p.votes;\n            }\n        }\n\n        return _index;\n    }\n    \n    function calculatePrize () \n        view internal\n        returns(uint256 prize) \n    {\n        return totalFunds * (100 - contractFee) / 100;\n    }\n    \n    \n\n\n          \n}",
  "sourcePath": "/Users/jterrazz/Projects/ethparis/contracts/FundingToken.sol",
  "compiler": {
    "name": "solc",
    "version": "0.5.0+commit.1d4f565a.Emscripten.clang"
  },
  "schemaVersion": "3.0.2",
  "updatedAt": "2019-03-09T12:40:34.514Z",
  "devdoc": {
    "methods": {
      "allowance(address,address)": {
        "details": "Function to check the amount of tokens that an owner allowed to a spender.",
        "params": {
          "owner": "address The address which owns the funds.",
          "spender": "address The address which will spend the funds."
        },
        "return": "A uint256 specifying the amount of tokens still available for the spender."
      },
      "approve(address,uint256)": {
        "details": "Approve the passed address to spend the specified amount of tokens on behalf of msg.sender. Beware that changing an allowance with this method brings the risk that someone may use both the old and the new allowance by unfortunate transaction ordering. One possible solution to mitigate this race condition is to first reduce the spender's allowance to 0 and set the desired value afterwards: https://github.com/ethereum/EIPs/issues/20#issuecomment-263524729",
        "params": {
          "spender": "The address which will spend the funds.",
          "value": "The amount of tokens to be spent."
        }
      },
      "balanceOf(address)": {
        "details": "Gets the balance of the specified address.",
        "params": {
          "owner": "The address to query the balance of."
        },
        "return": "An uint256 representing the amount owned by the passed address."
      },
      "calculatePurchaseReturn(uint256,uint256,uint32,uint256)": {
        "details": "given a continuous token supply, reserve token balance, reserve ratio, and a deposit amount (in the reserve token), calculates the return for a given conversion (in the continuous token)   * Formula: Return = _supply * ((1 + _depositAmount / _reserveBalance) ^ (_reserveRatio / MAX_RESERVE_RATIO) - 1)",
        "params": {
          "_depositAmount": "deposit amount, in reserve token",
          "_reserveBalance": "total reserve token balance",
          "_reserveRatio": "reserve ratio, represented in ppm, 1-1000000",
          "_supply": "continuous token total supply"
        },
        "return": "purchase return amount"
      },
      "calculateSaleReturn(uint256,uint256,uint32,uint256)": {
        "details": "given a continuous token supply, reserve token balance, reserve ratio and a sell amount (in the continuous token), calculates the return for a given conversion (in the reserve token)   * Formula: Return = _reserveBalance * (1 - (1 - _sellAmount / _supply) ^ (1 / (_reserveRatio / MAX_RESERVE_RATIO)))",
        "params": {
          "_reserveBalance": "total reserve token balance",
          "_reserveRatio": "constant reserve ratio, represented in ppm, 1-1000000",
          "_sellAmount": "sell amount, in the continuous token itself",
          "_supply": "continuous token total supply"
        },
        "return": "sale return amount"
      },
      "decreaseAllowance(address,uint256)": {
        "details": "Decrease the amount of tokens that an owner allowed to a spender. approve should be called when allowed_[_spender] == 0. To decrement allowed value is better to use this function to avoid 2 calls (and wait until the first transaction is mined) From MonolithDAO Token.sol Emits an Approval event.",
        "params": {
          "spender": "The address which will spend the funds.",
          "subtractedValue": "The amount of tokens to decrease the allowance by."
        }
      },
      "increaseAllowance(address,uint256)": {
        "details": "Increase the amount of tokens that an owner allowed to a spender. approve should be called when allowed_[_spender] == 0. To increment allowed value is better to use this function to avoid 2 calls (and wait until the first transaction is mined) From MonolithDAO Token.sol Emits an Approval event.",
        "params": {
          "addedValue": "The amount of tokens to increase the allowance by.",
          "spender": "The address which will spend the funds."
        }
      },
      "isOwner()": {
        "return": "true if `msg.sender` is the owner of the contract."
      },
      "owner()": {
        "return": "the address of the owner."
      },
      "renounceOwnership()": {
        "details": "Allows the current owner to relinquish control of the contract."
      },
      "totalSupply()": {
        "details": "Total number of tokens in existence"
      },
      "transfer(address,uint256)": {
        "details": "Transfer token for a specified address",
        "params": {
          "to": "The address to transfer to.",
          "value": "The amount to be transferred."
        }
      },
      "transferFrom(address,address,uint256)": {
        "details": "Transfer tokens from one address to another. Note that while this function emits an Approval event, this is not required as per the specification, and other compliant implementations may not emit the event.",
        "params": {
          "from": "address The address which you want to send tokens from",
          "to": "address The address which you want to transfer to",
          "value": "uint256 the amount of tokens to be transferred"
        }
      },
      "transferOwnership(address)": {
        "details": "Allows the current owner to transfer control of the contract to a newOwner.",
        "params": {
          "newOwner": "The address to transfer ownership to."
        }
      }
    }
  },
  "userdoc": {
    "methods": {
      "renounceOwnership()": {
        "notice": "Renouncing to ownership will leave the contract without an owner. It will not be possible to call the functions with the `onlyOwner` modifier anymore."
      }
    }
  }
}