{
  "contractName": "Subscription",
  "abi": [
    {
      "constant": true,
      "inputs": [],
      "name": "requiredGasPrice",
      "outputs": [
        {
          "name": "",
          "type": "uint256"
        }
      ],
      "payable": false,
      "stateMutability": "view",
      "type": "function"
    },
    {
      "constant": true,
      "inputs": [],
      "name": "requiredTokenAmount",
      "outputs": [
        {
          "name": "",
          "type": "uint256"
        }
      ],
      "payable": false,
      "stateMutability": "view",
      "type": "function"
    },
    {
      "constant": true,
      "inputs": [],
      "name": "requiredToAddress",
      "outputs": [
        {
          "name": "",
          "type": "address"
        }
      ],
      "payable": false,
      "stateMutability": "view",
      "type": "function"
    },
    {
      "constant": true,
      "inputs": [],
      "name": "requiredPeriodSeconds",
      "outputs": [
        {
          "name": "",
          "type": "uint256"
        }
      ],
      "payable": false,
      "stateMutability": "view",
      "type": "function"
    },
    {
      "constant": true,
      "inputs": [],
      "name": "requiredTokenAddress",
      "outputs": [
        {
          "name": "",
          "type": "address"
        }
      ],
      "payable": false,
      "stateMutability": "view",
      "type": "function"
    },
    {
      "constant": true,
      "inputs": [],
      "name": "contractVersion",
      "outputs": [
        {
          "name": "",
          "type": "uint8"
        }
      ],
      "payable": false,
      "stateMutability": "view",
      "type": "function"
    },
    {
      "constant": true,
      "inputs": [
        {
          "name": "",
          "type": "address"
        }
      ],
      "name": "extraNonce",
      "outputs": [
        {
          "name": "",
          "type": "uint256"
        }
      ],
      "payable": false,
      "stateMutability": "view",
      "type": "function"
    },
    {
      "constant": true,
      "inputs": [],
      "name": "author",
      "outputs": [
        {
          "name": "",
          "type": "address"
        }
      ],
      "payable": false,
      "stateMutability": "view",
      "type": "function"
    },
    {
      "constant": true,
      "inputs": [
        {
          "name": "",
          "type": "bytes32"
        }
      ],
      "name": "nextValidTimestamp",
      "outputs": [
        {
          "name": "",
          "type": "uint256"
        }
      ],
      "payable": false,
      "stateMutability": "view",
      "type": "function"
    },
    {
      "inputs": [
        {
          "name": "_toAddress",
          "type": "address"
        },
        {
          "name": "_tokenAddress",
          "type": "address"
        },
        {
          "name": "_tokenAmount",
          "type": "uint256"
        },
        {
          "name": "_periodSeconds",
          "type": "uint256"
        },
        {
          "name": "_gasPrice",
          "type": "uint256"
        },
        {
          "name": "_version",
          "type": "uint8"
        }
      ],
      "payable": false,
      "stateMutability": "nonpayable",
      "type": "constructor"
    },
    {
      "anonymous": false,
      "inputs": [
        {
          "indexed": true,
          "name": "from",
          "type": "address"
        },
        {
          "indexed": true,
          "name": "to",
          "type": "address"
        },
        {
          "indexed": false,
          "name": "tokenAddress",
          "type": "address"
        },
        {
          "indexed": false,
          "name": "tokenAmount",
          "type": "uint256"
        },
        {
          "indexed": false,
          "name": "periodSeconds",
          "type": "uint256"
        },
        {
          "indexed": false,
          "name": "gasPrice",
          "type": "uint256"
        },
        {
          "indexed": false,
          "name": "nonce",
          "type": "uint256"
        }
      ],
      "name": "ExecuteSubscription",
      "type": "event"
    },
    {
      "anonymous": false,
      "inputs": [
        {
          "indexed": true,
          "name": "from",
          "type": "address"
        },
        {
          "indexed": true,
          "name": "to",
          "type": "address"
        },
        {
          "indexed": false,
          "name": "tokenAddress",
          "type": "address"
        },
        {
          "indexed": false,
          "name": "tokenAmount",
          "type": "uint256"
        },
        {
          "indexed": false,
          "name": "periodSeconds",
          "type": "uint256"
        },
        {
          "indexed": false,
          "name": "gasPrice",
          "type": "uint256"
        },
        {
          "indexed": false,
          "name": "nonce",
          "type": "uint256"
        }
      ],
      "name": "CancelSubscription",
      "type": "event"
    },
    {
      "constant": true,
      "inputs": [
        {
          "name": "subscriptionHash",
          "type": "bytes32"
        },
        {
          "name": "gracePeriodSeconds",
          "type": "uint256"
        }
      ],
      "name": "isSubscriptionActive",
      "outputs": [
        {
          "name": "",
          "type": "bool"
        }
      ],
      "payable": false,
      "stateMutability": "view",
      "type": "function"
    },
    {
      "constant": true,
      "inputs": [
        {
          "name": "from",
          "type": "address"
        },
        {
          "name": "to",
          "type": "address"
        },
        {
          "name": "tokenAddress",
          "type": "address"
        },
        {
          "name": "tokenAmount",
          "type": "uint256"
        },
        {
          "name": "periodSeconds",
          "type": "uint256"
        },
        {
          "name": "gasPrice",
          "type": "uint256"
        },
        {
          "name": "nonce",
          "type": "uint256"
        }
      ],
      "name": "getSubscriptionHash",
      "outputs": [
        {
          "name": "",
          "type": "bytes32"
        }
      ],
      "payable": false,
      "stateMutability": "view",
      "type": "function"
    },
    {
      "constant": true,
      "inputs": [
        {
          "name": "subscriptionHash",
          "type": "bytes32"
        },
        {
          "name": "signature",
          "type": "bytes"
        }
      ],
      "name": "getSubscriptionSigner",
      "outputs": [
        {
          "name": "",
          "type": "address"
        }
      ],
      "payable": false,
      "stateMutability": "pure",
      "type": "function"
    },
    {
      "constant": true,
      "inputs": [
        {
          "name": "from",
          "type": "address"
        },
        {
          "name": "to",
          "type": "address"
        },
        {
          "name": "tokenAddress",
          "type": "address"
        },
        {
          "name": "tokenAmount",
          "type": "uint256"
        },
        {
          "name": "periodSeconds",
          "type": "uint256"
        },
        {
          "name": "gasPrice",
          "type": "uint256"
        },
        {
          "name": "nonce",
          "type": "uint256"
        },
        {
          "name": "signature",
          "type": "bytes"
        }
      ],
      "name": "isSubscriptionReady",
      "outputs": [
        {
          "name": "",
          "type": "bool"
        }
      ],
      "payable": false,
      "stateMutability": "view",
      "type": "function"
    },
    {
      "constant": false,
      "inputs": [
        {
          "name": "from",
          "type": "address"
        },
        {
          "name": "to",
          "type": "address"
        },
        {
          "name": "tokenAddress",
          "type": "address"
        },
        {
          "name": "tokenAmount",
          "type": "uint256"
        },
        {
          "name": "periodSeconds",
          "type": "uint256"
        },
        {
          "name": "gasPrice",
          "type": "uint256"
        },
        {
          "name": "nonce",
          "type": "uint256"
        },
        {
          "name": "signature",
          "type": "bytes"
        }
      ],
      "name": "executeSubscription",
      "outputs": [
        {
          "name": "success",
          "type": "bool"
        }
      ],
      "payable": true,
      "stateMutability": "payable",
      "type": "function"
    }
  ],
  "bytecode": "0x608060405234801561001057600080fd5b5060405160c080611eb9833981018060405260c081101561003057600080fd5b8101908080519060200190929190805190602001909291908051906020019092919080519060200190929190805190602001909291908051906020019092919050505085600160006101000a81548173ffffffffffffffffffffffffffffffffffffffff021916908373ffffffffffffffffffffffffffffffffffffffff16021790555084600260006101000a81548173ffffffffffffffffffffffffffffffffffffffff021916908373ffffffffffffffffffffffffffffffffffffffff160217905550836003819055508260048190555081600581905550336000806101000a81548173ffffffffffffffffffffffffffffffffffffffff021916908373ffffffffffffffffffffffffffffffffffffffff16021790555080600060146101000a81548160ff021916908360ff16021790555085600660006101000a81548173ffffffffffffffffffffffffffffffffffffffff021916908373ffffffffffffffffffffffffffffffffffffffff160217905550505050505050611cfe806101bb6000396000f3fe6080604052600436106100fa576000357c010000000000000000000000000000000000000000000000000000000090048063a3d53d181161009c578063c814786511610076578063c81478651461048a578063d3c576cd14610557578063d933c066146106b3578063ff59bff81461081c576100fa565b8063a3d53d1814610371578063a6c3e6b9146103d6578063ae702ba41461042d576100fa565b8063384c3335116100d8578063384c3335146102675780636b40bba1146102be5780636f264b2e146102e9578063a0a8e46014610340576100fa565b806310d92060146100ff57806318f321a31461012a57806329d428ca1461023c575b600080fd5b34801561010b57600080fd5b5061011461086b565b6040518082815260200191505060405180910390f35b34801561013657600080fd5b506101fa6004803603604081101561014d57600080fd5b81019080803590602001909291908035906020019064010000000081111561017457600080fd5b82018360208201111561018657600080fd5b803590602001918460018302840111640100000000831117156101a857600080fd5b91908080601f016020809104026020016040519081016040528093929190818152602001838380828437600081840152601f19601f820116905080830192505050505050509192919290505050610871565b604051808273ffffffffffffffffffffffffffffffffffffffff1673ffffffffffffffffffffffffffffffffffffffff16815260200191505060405180910390f35b34801561024857600080fd5b50610251610896565b6040518082815260200191505060405180910390f35b34801561027357600080fd5b5061027c61089c565b604051808273ffffffffffffffffffffffffffffffffffffffff1673ffffffffffffffffffffffffffffffffffffffff16815260200191505060405180910390f35b3480156102ca57600080fd5b506102d36108c2565b6040518082815260200191505060405180910390f35b3480156102f557600080fd5b506102fe6108c8565b604051808273ffffffffffffffffffffffffffffffffffffffff1673ffffffffffffffffffffffffffffffffffffffff16815260200191505060405180910390f35b34801561034c57600080fd5b506103556108ee565b604051808260ff1660ff16815260200191505060405180910390f35b34801561037d57600080fd5b506103c06004803603602081101561039457600080fd5b81019080803573ffffffffffffffffffffffffffffffffffffffff169060200190929190505050610901565b6040518082815260200191505060405180910390f35b3480156103e257600080fd5b506103eb610919565b604051808273ffffffffffffffffffffffffffffffffffffffff1673ffffffffffffffffffffffffffffffffffffffff16815260200191505060405180910390f35b34801561043957600080fd5b506104706004803603604081101561045057600080fd5b81019080803590602001909291908035906020019092919050505061093e565b604051808215151515815260200191505060405180910390f35b34801561049657600080fd5b50610541600480360360e08110156104ad57600080fd5b81019080803573ffffffffffffffffffffffffffffffffffffffff169060200190929190803573ffffffffffffffffffffffffffffffffffffffff169060200190929190803573ffffffffffffffffffffffffffffffffffffffff169060200190929190803590602001909291908035906020019092919080359060200190929190803590602001909291905050506109b6565b6040518082815260200191505060405180910390f35b610699600480360361010081101561056e57600080fd5b81019080803573ffffffffffffffffffffffffffffffffffffffff169060200190929190803573ffffffffffffffffffffffffffffffffffffffff169060200190929190803573ffffffffffffffffffffffffffffffffffffffff169060200190929190803590602001909291908035906020019092919080359060200190929190803590602001909291908035906020019064010000000081111561061357600080fd5b82018360208201111561062557600080fd5b8035906020019184600183028401116401000000008311171561064757600080fd5b91908080601f016020809104026020016040519081016040528093929190818152602001838380828437600081840152601f19601f820116905080830192505050505050509192919290505050610fbb565b604051808215151515815260200191505060405180910390f35b3480156106bf57600080fd5b5061080260048036036101008110156106d757600080fd5b81019080803573ffffffffffffffffffffffffffffffffffffffff169060200190929190803573ffffffffffffffffffffffffffffffffffffffff169060200190929190803573ffffffffffffffffffffffffffffffffffffffff169060200190929190803590602001909291908035906020019092919080359060200190929190803590602001909291908035906020019064010000000081111561077c57600080fd5b82018360208201111561078e57600080fd5b803590602001918460018302840111640100000000831117156107b057600080fd5b91908080601f016020809104026020016040519081016040528093929190818152602001838380828437600081840152601f19601f820116905080830192505050505050509192919290505050611766565b604051808215151515815260200191505060405180910390f35b34801561082857600080fd5b506108556004803603602081101561083f57600080fd5b8101908080359060200190929190505050611a40565b6040518082815260200191505060405180910390f35b60055481565b600061088e8261088085611a58565b611ab090919063ffffffff16565b905092915050565b60035481565b600160009054906101000a900473ffffffffffffffffffffffffffffffffffffffff1681565b60045481565b600260009054906101000a900473ffffffffffffffffffffffffffffffffffffffff1681565b600060149054906101000a900460ff1681565b60086020528060005260406000206000915090505481565b6000809054906101000a900473ffffffffffffffffffffffffffffffffffffffff1681565b60007fffffffffffffffffffffffffffffffffffffffffffffffffffffffffffffffff6007600085815260200190815260200160002054141561098457600090506109b0565b6109aa826007600086815260200190815260200160002054611b9490919063ffffffff16565b42111590505b92915050565b60008073ffffffffffffffffffffffffffffffffffffffff16600160009054906101000a900473ffffffffffffffffffffffffffffffffffffffff1673ffffffffffffffffffffffffffffffffffffffff161480610a615750600160009054906101000a900473ffffffffffffffffffffffffffffffffffffffff1673ffffffffffffffffffffffffffffffffffffffff168773ffffffffffffffffffffffffffffffffffffffff16145b1515610ad5576040517f08c379a00000000000000000000000000000000000000000000000000000000081526004018080602001828103825260198152602001807f7265717569726564546f41646472657373204661696c7572650000000000000081525060200191505060405180910390fd5b600073ffffffffffffffffffffffffffffffffffffffff16600260009054906101000a900473ffffffffffffffffffffffffffffffffffffffff1673ffffffffffffffffffffffffffffffffffffffff161480610b7f5750600260009054906101000a900473ffffffffffffffffffffffffffffffffffffffff1673ffffffffffffffffffffffffffffffffffffffff168673ffffffffffffffffffffffffffffffffffffffff16145b1515610bf3576040517f08c379a000000000000000000000000000000000000000000000000000000000815260040180806020018281038252601c8152602001807f7265717569726564546f6b656e41646472657373204661696c7572650000000081525060200191505060405180910390fd5b60006003541480610c05575060035485145b1515610c79576040517f08c379a000000000000000000000000000000000000000000000000000000000815260040180806020018281038252601b8152602001807f7265717569726564546f6b656e416d6f756e74204661696c757265000000000081525060200191505060405180910390fd5b60006004541480610c8b575060045484145b1515610cff576040517f08c379a000000000000000000000000000000000000000000000000000000000815260040180806020018281038252601d8152602001807f7265717569726564506572696f645365636f6e6473204661696c75726500000081525060200191505060405180910390fd5b60006005541480610d11575060055483145b1515610d85576040517f08c379a00000000000000000000000000000000000000000000000000000000081526004018080602001828103825260188152602001807f72657175697265644761735072696365204661696c757265000000000000000081525060200191505060405180910390fd5b60197f01000000000000000000000000000000000000000000000000000000000000000260007f010000000000000000000000000000000000000000000000000000000000000002308a8a8a8a8a8a8a604051602001808b7effffffffffffffffffffffffffffffffffffffffffffffffffffffffffffff19167effffffffffffffffffffffffffffffffffffffffffffffffffffffffffffff191681526001018a7effffffffffffffffffffffffffffffffffffffffffffffffffffffffffffff19167effffffffffffffffffffffffffffffffffffffffffffffffffffffffffffff191681526001018973ffffffffffffffffffffffffffffffffffffffff1673ffffffffffffffffffffffffffffffffffffffff166c010000000000000000000000000281526014018873ffffffffffffffffffffffffffffffffffffffff1673ffffffffffffffffffffffffffffffffffffffff166c010000000000000000000000000281526014018773ffffffffffffffffffffffffffffffffffffffff1673ffffffffffffffffffffffffffffffffffffffff166c010000000000000000000000000281526014018673ffffffffffffffffffffffffffffffffffffffff1673ffffffffffffffffffffffffffffffffffffffff166c010000000000000000000000000281526014018581526020018481526020018381526020018281526020019a5050505050505050505050604051602081830303815290604052805190602001209050979650505050505050565b60008034111515611034576040517f08c379a00000000000000000000000000000000000000000000000000000000081526004018080602001828103825260208152602001807f56616c7565206d7573742062652067726561746572207468616e207a65726f2e81525060200191505060405180910390fd5b60006110458a8a8a8a8a8a8a6109b6565b90506110578a8a8a8a8a8a8a8a611766565b15156110ae576040517f08c379a0000000000000000000000000000000000000000000000000000000008152600401808060200182810382526041815260200180611c6c6041913960600191505060405180910390fd5b6110c18642611b9490919063ffffffff16565b600760008381526020019081526020016000208190555060008873ffffffffffffffffffffffffffffffffffffffff166370a082318b6040518263ffffffff167c0100000000000000000000000000000000000000000000000000000000028152600401808273ffffffffffffffffffffffffffffffffffffffff1673ffffffffffffffffffffffffffffffffffffffff16815260200191505060206040518083038186803b15801561117357600080fd5b505afa158015611187573d6000803e3d6000fd5b505050506040513d602081101561119d57600080fd5b81019080805190602001909291905050509050600660009054906101000a900473ffffffffffffffffffffffffffffffffffffffff1673ffffffffffffffffffffffffffffffffffffffff166371e578dc898d6040518363ffffffff167c0100000000000000000000000000000000000000000000000000000000028152600401808273ffffffffffffffffffffffffffffffffffffffff1673ffffffffffffffffffffffffffffffffffffffff1681526020019150506000604051808303818588803b15801561126d57600080fd5b505af1158015611281573d6000803e3d6000fd5b50505050508873ffffffffffffffffffffffffffffffffffffffff166323b872dd8c8c8b6040518463ffffffff167c0100000000000000000000000000000000000000000000000000000000028152600401808473ffffffffffffffffffffffffffffffffffffffff1673ffffffffffffffffffffffffffffffffffffffff1681526020018373ffffffffffffffffffffffffffffffffffffffff1673ffffffffffffffffffffffffffffffffffffffff1681526020018281526020019350505050602060405180830381600087803b15801561135d57600080fd5b505af1158015611371573d6000803e3d6000fd5b505050506040513d602081101561138757600080fd5b8101908080519060200190929190505050508873ffffffffffffffffffffffffffffffffffffffff166370a082318b6040518263ffffffff167c0100000000000000000000000000000000000000000000000000000000028152600401808273ffffffffffffffffffffffffffffffffffffffff1673ffffffffffffffffffffffffffffffffffffffff16815260200191505060206040518083038186803b15801561143257600080fd5b505afa158015611446573d6000803e3d6000fd5b505050506040513d602081101561145c57600080fd5b81019080805190602001909291905050508882011415156114c8576040517f08c379a0000000000000000000000000000000000000000000000000000000008152600401808060200182810382526026815260200180611cad6026913960400191505060405180910390fd5b6114d0611bb5565b1515611527576040517f08c379a0000000000000000000000000000000000000000000000000000000008152600401808060200182810382526035815260200180611bf46035913960400191505060405180910390fd5b8973ffffffffffffffffffffffffffffffffffffffff168b73ffffffffffffffffffffffffffffffffffffffff167f96d296c945eee0618d3cc6f435f4d59f14bcefd708eab22c3de30df20b1347938b8b8b8b8b604051808673ffffffffffffffffffffffffffffffffffffffff1673ffffffffffffffffffffffffffffffffffffffff1681526020018581526020018481526020018381526020018281526020019550505050505060405180910390a36000861115611754578873ffffffffffffffffffffffffffffffffffffffff166323b872dd8c33896040518463ffffffff167c0100000000000000000000000000000000000000000000000000000000028152600401808473ffffffffffffffffffffffffffffffffffffffff1673ffffffffffffffffffffffffffffffffffffffff1681526020018373ffffffffffffffffffffffffffffffffffffffff1673ffffffffffffffffffffffffffffffffffffffff1681526020018281526020019350505050602060405180830381600087803b1580156116b857600080fd5b505af11580156116cc573d6000803e3d6000fd5b505050506040513d60208110156116e257600080fd5b8101908080519060200190929190505050506116fc611bb5565b1515611753576040517f08c379a0000000000000000000000000000000000000000000000000000000008152600401808060200182810382526043815260200180611c296043913960600191505060405180910390fd5b5b60019250505098975050505050505050565b6000806117788a8a8a8a8a8a8a6109b6565b905060006117868285610871565b905060008973ffffffffffffffffffffffffffffffffffffffff1663dd62ed3e8d306040518363ffffffff167c0100000000000000000000000000000000000000000000000000000000028152600401808373ffffffffffffffffffffffffffffffffffffffff1673ffffffffffffffffffffffffffffffffffffffff1681526020018273ffffffffffffffffffffffffffffffffffffffff1673ffffffffffffffffffffffffffffffffffffffff1681526020019250505060206040518083038186803b15801561185757600080fd5b505afa15801561186b573d6000803e3d6000fd5b505050506040513d602081101561188157600080fd5b8101908080519060200190929190505050905060008a73ffffffffffffffffffffffffffffffffffffffff166370a082318e6040518263ffffffff167c0100000000000000000000000000000000000000000000000000000000028152600401808273ffffffffffffffffffffffffffffffffffffffff1673ffffffffffffffffffffffffffffffffffffffff16815260200191505060206040518083038186803b15801561192f57600080fd5b505afa158015611943573d6000803e3d6000fd5b505050506040513d602081101561195957600080fd5b810190808051906020019092919050505090508c73ffffffffffffffffffffffffffffffffffffffff168373ffffffffffffffffffffffffffffffffffffffff161480156119d357508b73ffffffffffffffffffffffffffffffffffffffff168d73ffffffffffffffffffffffffffffffffffffffff1614155b80156119f2575060076000858152602001908152602001600020544210155b8015611a105750611a0c888b611b9490919063ffffffff16565b8210155b8015611a2e5750611a2a888b611b9490919063ffffffff16565b8110155b94505050505098975050505050505050565b60076020528060005260406000206000915090505481565b60008160405160200180807f19457468657265756d205369676e6564204d6573736167653a0a333200000000815250601c01828152602001915050604051602081830303815290604052805190602001209050919050565b60008060008060418551141515611acd5760009350505050611b8e565b6020850151925060408501519150606085015160001a9050601b8160ff161015611af857601b810190505b601b8160ff1614158015611b105750601c8160ff1614155b15611b215760009350505050611b8e565b60018682858560405160008152602001604052604051808581526020018460ff1660ff1681526020018381526020018281526020019450505050506020604051602081039080840390855afa158015611b7e573d6000803e3d6000fd5b5050506020604051035193505050505b92915050565b6000808284019050838110151515611bab57600080fd5b8091505092915050565b600080600090503d60008114611bd25760208114611bdb57611be7565b60019150611be7565b60206000803e60005191505b5060008114159150509056fe537562736372697074696f6e3a3a65786563757465537562736372697074696f6e205472616e7366657246726f6d206661696c6564537562736372697074696f6e3a3a65786563757465537562736372697074696f6e204661696c656420746f20706179206761732061732066726f6d206163636f756e74537562736372697074696f6e206973206e6f74207265616479206f7220636f6e646974696f6e73206f66207472616e736374696f6e20617265206e6f74206d657445524332302042616c616e636520646964206e6f74206368616e676520636f72726563746c79a165627a7a723058205002654c30e735666edf01cdacac243e075cb286b552d862bc81386127c284990029",
  "source": "pragma solidity ^0.5.2;\n\n// ERC 1337 reference implementation taken from: https://github.com/EthereumOpenSubscriptions/reference-client\n// Thanks to the awesome Buidler Austin Thomas Griffith\n\nimport \"openzeppelin-solidity/contracts/cryptography/ECDSA.sol\";\nimport \"openzeppelin-solidity/contracts/math/SafeMath.sol\";\nimport \"openzeppelin-solidity/contracts/token/ERC20/ERC20.sol\";\n\nimport \"./FundingToken.sol\";\n\ncontract Subscription {\n    using ECDSA for bytes32;\n    using SafeMath for uint256;\n\n    //who deploys the contract\n    address public author;\n    uint8 public contractVersion;\n\n    // the publisher may optionally deploy requirements for the subscription\n    // so only meta transactions that match the requirements can be relayed\n    address public requiredToAddress;\n    address public requiredTokenAddress;\n    uint256 public requiredTokenAmount;\n    uint256 public requiredPeriodSeconds;\n    uint256 public requiredGasPrice;\n\n    FundingToken fundingToken;\n\n\n    // similar to a nonce that avoids replay attacks this allows a single execution\n    // every x seconds for a given subscription\n    // subscriptionHash  => next valid block number\n    mapping(bytes32 => uint256) public nextValidTimestamp;\n\n    //we'll use a nonce for each from but because transactions can go through\n    //multiple times, we allow anything but users can use this as a signal for\n    //uniqueness\n    mapping(address => uint256) public extraNonce;\n\n    event ExecuteSubscription(\n        address indexed from, //the subscriber\n        address indexed to, //the publisher\n        address tokenAddress, //the token address paid to the publisher\n        uint256 tokenAmount, //the token amount paid to the publisher\n        uint256 periodSeconds, //the period in seconds between payments\n        uint256 gasPrice, //the amount of tokens to pay relayer (0 for free)\n        uint256 nonce // to allow multiple subscriptions with the same parameters\n    );\n\n    event CancelSubscription(\n        address indexed from, //the subscriber\n        address indexed to, //the publisher\n        address tokenAddress, //the token address paid to the publisher\n        uint256 tokenAmount, //the token amount paid to the publisher\n        uint256 periodSeconds, //the period in seconds between payments\n        uint256 gasPrice, //the amount of tokens to pay relayer (0 for free)\n        uint256 nonce // to allow multiple subscriptions with the same parameters\n    );\n\n    constructor(\n        address payable _toAddress,\n        address _tokenAddress,\n        uint256 _tokenAmount,\n        uint256 _periodSeconds,\n        uint256 _gasPrice,\n        uint8 _version\n    ) public {\n        requiredToAddress=_toAddress;\n        requiredTokenAddress=_tokenAddress;\n        requiredTokenAmount=_tokenAmount;\n        requiredPeriodSeconds=_periodSeconds;\n        requiredGasPrice=_gasPrice;\n        author=msg.sender;\n        contractVersion=_version;\n        fundingToken=FundingToken(_toAddress);\n    }\n\n    // this is used by external smart contracts to verify on-chain that a\n    // particular subscription is \"paid\" and \"active\"\n    // there must be a small grace period added to allow the publisher\n    // or desktop miner to execute\n    function isSubscriptionActive(\n        bytes32 subscriptionHash,\n        uint256 gracePeriodSeconds\n    )\n        external\n        view\n        returns (bool)\n    {\n        if(nextValidTimestamp[subscriptionHash]==uint256(-1)){\n          return false;\n        }\n        return (block.timestamp <=\n                nextValidTimestamp[subscriptionHash].add(gracePeriodSeconds)\n        );\n    }\n\n    // given the subscription details, generate a hash and try to kind of follow\n    // the eip-191 standard and eip-1077 standard from my dude @avsa\n    function getSubscriptionHash(\n        address from, //the subscriber\n        address to, //the publisher\n        address tokenAddress, //the token address paid to the publisher\n        uint256 tokenAmount, //the token amount paid to the publisher\n        uint256 periodSeconds, //the period in seconds between payments\n        uint256 gasPrice, //the amount of tokens or eth to pay relayer (0 for free)\n        uint256 nonce // to allow multiple subscriptions with the same parameters\n    )\n        public\n        view\n        returns (bytes32)\n    {\n        // if there are requirements from the deployer, let's make sure\n        // those are met exactly\n        require( requiredToAddress == address(0) || to == requiredToAddress, \"requiredToAddress Failure\" );\n        require( requiredTokenAddress == address(0) || tokenAddress == requiredTokenAddress, \"requiredTokenAddress Failure\"  );\n        require( requiredTokenAmount == 0 || tokenAmount == requiredTokenAmount, \"requiredTokenAmount Failure\"  );\n        require( requiredPeriodSeconds == 0 || periodSeconds == requiredPeriodSeconds, \"requiredPeriodSeconds Failure\"  );\n        require( requiredGasPrice == 0 || gasPrice == requiredGasPrice, \"requiredGasPrice Failure\"  );\n\n        return keccak256(\n            abi.encodePacked(\n                byte(0x19),\n                byte(0),\n                address(this),\n                from,\n                to,\n                tokenAddress,\n                tokenAmount,\n                periodSeconds,\n                gasPrice,\n                nonce\n        ));\n    }\n\n    //ecrecover the signer from hash and the signature\n    function getSubscriptionSigner(\n        bytes32 subscriptionHash, //hash of subscription\n        bytes memory signature //proof the subscriber signed the meta trasaction\n    )\n        public\n        pure\n        returns (address)\n    {\n        return subscriptionHash.toEthSignedMessageHash().recover(signature);\n    }\n\n    //check if a subscription is signed correctly and the timestamp is ready for\n    // the next execution to happen\n    function isSubscriptionReady(\n        address from, //the subscriber\n        address to, //the publisher\n        address tokenAddress, //the token address paid to the publisher\n        uint256 tokenAmount, //the token amount paid to the publisher\n        uint256 periodSeconds, //the period in seconds between payments\n        uint256 gasPrice, //the amount of the token to incentivize the relay network\n        uint256 nonce,// to allow multiple subscriptions with the same parameters\n        bytes memory signature //proof the subscriber signed the meta trasaction\n    )\n        public\n        view\n        returns (bool)\n    {\n        bytes32 subscriptionHash = getSubscriptionHash(\n            from, to, tokenAddress, tokenAmount, periodSeconds, gasPrice, nonce\n        );\n        address signer = getSubscriptionSigner(subscriptionHash, signature);\n        uint256 allowance = ERC20(tokenAddress).allowance(from, address(this));\n        uint256 balance = ERC20(tokenAddress).balanceOf(from);\n\n        return (\n            signer == from &&\n            from != to &&\n            block.timestamp >= nextValidTimestamp[subscriptionHash] &&\n            allowance >= tokenAmount.add(gasPrice) &&\n            balance >= tokenAmount.add(gasPrice)\n        );\n    }\n\n    // execute the transferFrom to pay the publisher from the subscriber\n    // the subscriber has full control by approving this contract an allowance\n    function executeSubscription(\n        address from, //the subscriber\n        address to, //the publisher\n        address tokenAddress, //the token address paid to the publisher\n        uint256 tokenAmount, //the token amount paid to the publisher\n        uint256 periodSeconds, //the period in seconds between payments\n        uint256 gasPrice, //the amount of tokens or eth to pay relayer (0 for free)\n        uint256 nonce, // to allow multiple subscriptions with the same parameters\n        bytes memory signature //proof the subscriber signed the meta trasaction\n    )\n        public\n        payable\n        returns (bool success)\n    {\n        require(msg.value > 0, \"Value must be greater than zero.\");\n        bytes32 subscriptionHash = getSubscriptionHash(\n            from, to, tokenAddress, tokenAmount, periodSeconds, gasPrice, nonce\n        );\n\n        // make sure the subscription is valid and ready\n        require( isSubscriptionReady(from, to, tokenAddress, tokenAmount, periodSeconds, gasPrice, nonce, signature), \"Subscription is not ready or conditions of transction are not met\" );\n\n        // increment the timestamp by the period so it wont be valid until then\n        nextValidTimestamp[subscriptionHash] = block.timestamp.add(periodSeconds);\n\n        // now, let make the transfer from the subscriber to the publisher\n        uint256 startingBalance = ERC20(tokenAddress).balanceOf(to);\n\n        //\n        fundingToken.mintFor.value(tokenAmount)(from);\n        \n        ERC20(tokenAddress).transferFrom(from,to,tokenAmount);\n\n        require(\n          (startingBalance+tokenAmount) == ERC20(tokenAddress).balanceOf(to),\n          \"ERC20 Balance did not change correctly\"\n        );\n\n        require(\n          checkSuccess(),\n          \"Subscription::executeSubscription TransferFrom failed\"\n          );\n\n\n        emit ExecuteSubscription(\n            from, to, tokenAddress, tokenAmount, periodSeconds, gasPrice, nonce\n        );\n\n        // it is possible for the subscription execution to be run by a third party\n        // incentivized in the terms of the subscription with a gasPrice of the tokens\n        //  - pay that out now...\n        if (gasPrice > 0) {\n            //the relayer is incentivized by a little of the same token from\n            // the subscriber ... as far as the subscriber knows, they are\n            // just sending X tokens to the publisher, but the publisher can\n            // choose to send Y of those X to a relayer to run their transactions\n            // the publisher will receive X - Y tokens\n            // this must all be setup in the constructor\n            // if not, the subscriber chooses all the params including what goes\n            // to the publisher and what goes to the relayer\n            ERC20(tokenAddress).transferFrom(from, msg.sender, gasPrice);\n            require(\n                checkSuccess(),\n                \"Subscription::executeSubscription Failed to pay gas as from account\"\n            );\n        }\n\n        return true;\n    }\n\n    // because of issues with non-standard erc20s the transferFrom can always return false\n    // to fix this we run it and then check the return of the previous function:\n    //    https://github.com/ethereum/solidity/issues/4116\n    /**\n     * Checks the return value of the previous function. Returns true if the previous function\n     * function returned 32 non-zero bytes or returned zero bytes.\n     */\n    function checkSuccess(\n    )\n        private\n        pure\n        returns (bool)\n    {\n        uint256 returnValue = 0;\n\n        /* solium-disable-next-line security/no-inline-assembly */\n        assembly {\n            // check number of bytes returned from last function call\n            switch returndatasize\n\n            // no bytes returned: assume success\n            case 0x0 {\n                returnValue := 1\n            }\n\n            // 32 bytes returned: check if non-zero\n            case 0x20 {\n                // copy 32 bytes into scratch space\n                returndatacopy(0x0, 0x0, 0x20)\n\n                // load those bytes into returnValue\n                returnValue := mload(0x0)\n            }\n\n            // not sure what was returned: dont mark as success\n            default { }\n        }\n\n        return returnValue != 0;\n    }\n\n    //we would like a way for the author to completly destroy the subscription\n    // contract to prevent further transfers\n    // function endContract()\n    //     external\n    // {\n    //   require(msg.sender==author);\n    //   selfdestruct(author);\n    // }\n\n    // let's go ahead and revert any ETH sent directly to the contract\n    // function () public payable {\n    //    revert ();\n    // }\n}",
  "sourcePath": "/home/alessandro/Dropbox/dapps/ethParis/collective/contracts/Subscription.sol",
  "compiler": {
    "name": "solc",
    "version": "0.5.2+commit.1df8f40c.Emscripten.clang"
  },
  "schemaVersion": "3.0.2",
  "updatedAt": "2019-04-30T20:11:12.894Z",
  "devdoc": {
    "methods": {}
  },
  "userdoc": {
    "methods": {}
  }
}