{
  "contractName": "UserAuthManager",
  "abi": [
    {
      "constant": false,
      "inputs": [],
      "name": "renounceOwnership",
      "outputs": [],
      "payable": false,
      "stateMutability": "nonpayable",
      "type": "function"
    },
    {
      "constant": false,
      "inputs": [],
      "name": "destroy",
      "outputs": [],
      "payable": false,
      "stateMutability": "nonpayable",
      "type": "function"
    },
    {
      "constant": true,
      "inputs": [],
      "name": "owner",
      "outputs": [
        {
          "name": "",
          "type": "address"
        }
      ],
      "payable": false,
      "stateMutability": "view",
      "type": "function"
    },
    {
      "constant": true,
      "inputs": [],
      "name": "isOwner",
      "outputs": [
        {
          "name": "",
          "type": "bool"
        }
      ],
      "payable": false,
      "stateMutability": "view",
      "type": "function"
    },
    {
      "constant": true,
      "inputs": [],
      "name": "dbAddress",
      "outputs": [
        {
          "name": "",
          "type": "address"
        }
      ],
      "payable": false,
      "stateMutability": "view",
      "type": "function"
    },
    {
      "constant": false,
      "inputs": [
        {
          "name": "newOwner",
          "type": "address"
        }
      ],
      "name": "transferOwnership",
      "outputs": [],
      "payable": false,
      "stateMutability": "nonpayable",
      "type": "function"
    },
    {
      "constant": false,
      "inputs": [
        {
          "name": "_recipient",
          "type": "address"
        }
      ],
      "name": "destroyAndSend",
      "outputs": [],
      "payable": false,
      "stateMutability": "nonpayable",
      "type": "function"
    },
    {
      "inputs": [
        {
          "name": "_dbAddress",
          "type": "address"
        }
      ],
      "payable": false,
      "stateMutability": "nonpayable",
      "type": "constructor"
    },
    {
      "anonymous": false,
      "inputs": [
        {
          "indexed": true,
          "name": "_userAddress",
          "type": "address"
        },
        {
          "indexed": false,
          "name": "isSetUp",
          "type": "bool"
        }
      ],
      "name": "SetUser",
      "type": "event"
    },
    {
      "anonymous": false,
      "inputs": [
        {
          "indexed": true,
          "name": "previousOwner",
          "type": "address"
        },
        {
          "indexed": true,
          "name": "newOwner",
          "type": "address"
        }
      ],
      "name": "OwnershipTransferred",
      "type": "event"
    },
    {
      "constant": false,
      "inputs": [
        {
          "name": "firstName",
          "type": "string"
        },
        {
          "name": "lastName",
          "type": "string"
        },
        {
          "name": "email",
          "type": "string"
        },
        {
          "name": "gravatar",
          "type": "bytes32"
        }
      ],
      "name": "setUser",
      "outputs": [],
      "payable": false,
      "stateMutability": "nonpayable",
      "type": "function"
    },
    {
      "constant": true,
      "inputs": [],
      "name": "login",
      "outputs": [
        {
          "name": "",
          "type": "bool"
        }
      ],
      "payable": false,
      "stateMutability": "view",
      "type": "function"
    }
  ],
  "bytecode": "0x608060405234801561001057600080fd5b50604051602080611c5d8339810180604052602081101561003057600080fd5b8101908080519060200190929190505050336000806101000a81548173ffffffffffffffffffffffffffffffffffffffff021916908373ffffffffffffffffffffffffffffffffffffffff1602179055506000809054906101000a900473ffffffffffffffffffffffffffffffffffffffff1673ffffffffffffffffffffffffffffffffffffffff16600073ffffffffffffffffffffffffffffffffffffffff167f8be0079c531659141344cd1fd0a4f28419497f9722a3daafe3b4186f6b6457e060405160405180910390a3600073ffffffffffffffffffffffffffffffffffffffff168173ffffffffffffffffffffffffffffffffffffffff161415151561013957600080fd5b80600160006101000a81548173ffffffffffffffffffffffffffffffffffffffff021916908373ffffffffffffffffffffffffffffffffffffffff16021790555050611ad38061018a6000396000f3fe608060405260043610610099576000357c0100000000000000000000000000000000000000000000000000000000900463ffffffff168063715018a61461009e57806383197ef0146100b5578063851aea7a146100cc5780638da5cb5b146102065780638f32d59b1461025d57806391e06b6d1461028c578063b34e97e8146102e3578063f2fde38b14610312578063f5074f4114610363575b600080fd5b3480156100aa57600080fd5b506100b36103b4565b005b3480156100c157600080fd5b506100ca610486565b005b3480156100d857600080fd5b50610204600480360360808110156100ef57600080fd5b810190808035906020019064010000000081111561010c57600080fd5b82018360208201111561011e57600080fd5b8035906020019184600183028401116401000000008311171561014057600080fd5b90919293919293908035906020019064010000000081111561016157600080fd5b82018360208201111561017357600080fd5b8035906020019184600183028401116401000000008311171561019557600080fd5b9091929391929390803590602001906401000000008111156101b657600080fd5b8201836020820111156101c857600080fd5b803590602001918460018302840111640100000000831117156101ea57600080fd5b9091929391929390803590602001909291905050506104b9565b005b34801561021257600080fd5b5061021b610611565b604051808273ffffffffffffffffffffffffffffffffffffffff1673ffffffffffffffffffffffffffffffffffffffff16815260200191505060405180910390f35b34801561026957600080fd5b5061027261063a565b604051808215151515815260200191505060405180910390f35b34801561029857600080fd5b506102a1610691565b604051808273ffffffffffffffffffffffffffffffffffffffff1673ffffffffffffffffffffffffffffffffffffffff16815260200191505060405180910390f35b3480156102ef57600080fd5b506102f86106b7565b604051808215151515815260200191505060405180910390f35b34801561031e57600080fd5b506103616004803603602081101561033557600080fd5b81019080803573ffffffffffffffffffffffffffffffffffffffff1690602001909291905050506106ea565b005b34801561036f57600080fd5b506103b26004803603602081101561038657600080fd5b81019080803573ffffffffffffffffffffffffffffffffffffffff169060200190929190505050610709565b005b6103bc61063a565b15156103c757600080fd5b600073ffffffffffffffffffffffffffffffffffffffff166000809054906101000a900473ffffffffffffffffffffffffffffffffffffffff1673ffffffffffffffffffffffffffffffffffffffff167f8be0079c531659141344cd1fd0a4f28419497f9722a3daafe3b4186f6b6457e060405160405180910390a360008060006101000a81548173ffffffffffffffffffffffffffffffffffffffff021916908373ffffffffffffffffffffffffffffffffffffffff160217905550565b61048e61063a565b151561049957600080fd5b6104a1610611565b73ffffffffffffffffffffffffffffffffffffffff16ff5b6105b5600160009054906101000a900473ffffffffffffffffffffffffffffffffffffffff163389898080601f016020809104026020016040519081016040528093929190818152602001838380828437600081840152601f19601f8201169050808301925050505050505088888080601f016020809104026020016040519081016040528093929190818152602001838380828437600081840152601f19601f8201169050808301925050505050505087878080601f016020809104026020016040519081016040528093929190818152602001838380828437600081840152601f19601f8201169050808301925050505050505086610735565b3373ffffffffffffffffffffffffffffffffffffffff167f6648b859e158f53470fd0dc1bf91fcede20e1eb2d71db770236d145353b08a606001604051808215151515815260200191505060405180910390a250505050505050565b60008060009054906101000a900473ffffffffffffffffffffffffffffffffffffffff16905090565b60008060009054906101000a900473ffffffffffffffffffffffffffffffffffffffff1673ffffffffffffffffffffffffffffffffffffffff163373ffffffffffffffffffffffffffffffffffffffff1614905090565b600160009054906101000a900473ffffffffffffffffffffffffffffffffffffffff1681565b60006106e5600160009054906101000a900473ffffffffffffffffffffffffffffffffffffffff1633610e79565b905090565b6106f261063a565b15156106fd57600080fd5b61070681610e9e565b50565b61071161063a565b151561071c57600080fd5b8073ffffffffffffffffffffffffffffffffffffffff16ff5b600061074861074386610f98565b610fc6565b9050600061075d61075886610f98565b610fc6565b9050600061077261076d86610f98565b610fc6565b905060006107b58a6040805190810160405280601b81526020017f636f6e6669672f6d61782d757365722d6e616d652d6c656e6774680000000000815250611087565b905060006107f88b6040805190810160405280601b81526020017f636f6e6669672f6d696e2d757365722d6e616d652d6c656e6774680000000000815250611087565b9050600061083b8c6040805190810160405280601c81526020017f636f6e6669672f6d61782d757365722d656d61696c2d6c656e67746800000000815250611087565b9050600061087e8d6040805190810160405280601c81526020017f636f6e6669672f6d696e2d757365722d656d61696c2d6c656e67746800000000815250611087565b90508387111580156108905750828710155b151561089b57600080fd5b8386111580156108ab5750828610155b15156108b657600080fd5b8185111580156108c65750808510155b15156108d157600080fd5b6108db8d8d6111ac565b8c73ffffffffffffffffffffffffffffffffffffffff1663f58660668d60405160200180807f757365722f66697273742d6e616d650000000000000000000000000000000000815250600f018273ffffffffffffffffffffffffffffffffffffffff1673ffffffffffffffffffffffffffffffffffffffff166c01000000000000000000000000028152601401915050604051602081830303815290604052805190602001208d6040518363ffffffff167c01000000000000000000000000000000000000000000000000000000000281526004018083815260200180602001828103825283818151815260200191508051906020019080838360005b838110156109f35780820151818401526020810190506109d8565b50505050905090810190601f168015610a205780820380516001836020036101000a031916815260200191505b509350505050600060405180830381600087803b158015610a4057600080fd5b505af1158015610a54573d6000803e3d6000fd5b505050508c73ffffffffffffffffffffffffffffffffffffffff1663f58660668d60405160200180807f757365722f6c6173742d6e616d65000000000000000000000000000000000000815250600e018273ffffffffffffffffffffffffffffffffffffffff1673ffffffffffffffffffffffffffffffffffffffff166c01000000000000000000000000028152601401915050604051602081830303815290604052805190602001208c6040518363ffffffff167c01000000000000000000000000000000000000000000000000000000000281526004018083815260200180602001828103825283818151815260200191508051906020019080838360005b83811015610b70578082015181840152602081019050610b55565b50505050905090810190601f168015610b9d5780820380516001836020036101000a031916815260200191505b509350505050600060405180830381600087803b158015610bbd57600080fd5b505af1158015610bd1573d6000803e3d6000fd5b505050508c73ffffffffffffffffffffffffffffffffffffffff1663f58660668d60405160200180807f757365722f656d61696c00000000000000000000000000000000000000000000815250600a018273ffffffffffffffffffffffffffffffffffffffff1673ffffffffffffffffffffffffffffffffffffffff166c01000000000000000000000000028152601401915050604051602081830303815290604052805190602001208b6040518363ffffffff167c01000000000000000000000000000000000000000000000000000000000281526004018083815260200180602001828103825283818151815260200191508051906020019080838360005b83811015610ced578082015181840152602081019050610cd2565b50505050905090810190601f168015610d1a5780820380516001836020036101000a031916815260200191505b509350505050600060405180830381600087803b158015610d3a57600080fd5b505af1158015610d4e573d6000803e3d6000fd5b505050508c73ffffffffffffffffffffffffffffffffffffffff166325cf512d8d60405160200180807f757365722f677261766174617200000000000000000000000000000000000000815250600d018273ffffffffffffffffffffffffffffffffffffffff1673ffffffffffffffffffffffffffffffffffffffff166c01000000000000000000000000028152601401915050604051602081830303815290604052805190602001208a6040518363ffffffff167c01000000000000000000000000000000000000000000000000000000000281526004018083815260200182815260200192505050600060405180830381600087803b158015610e5257600080fd5b505af1158015610e66573d6000803e3d6000fd5b5050505050505050505050505050505050565b6000610e85838361146b565b15610e935760019050610e98565b600090505b92915050565b600073ffffffffffffffffffffffffffffffffffffffff168173ffffffffffffffffffffffffffffffffffffffff1614151515610eda57600080fd5b8073ffffffffffffffffffffffffffffffffffffffff166000809054906101000a900473ffffffffffffffffffffffffffffffffffffffff1673ffffffffffffffffffffffffffffffffffffffff167f8be0079c531659141344cd1fd0a4f28419497f9722a3daafe3b4186f6b6457e060405160405180910390a3806000806101000a81548173ffffffffffffffffffffffffffffffffffffffff021916908373ffffffffffffffffffffffffffffffffffffffff16021790555050565b610fa0611a8d565b600060208301905060408051908101604052808451815260200182815250915050919050565b600080601f83602001510390506000836000015182019050600092505b8082101561108057600060ff835116905060808160ff16101561100b57600183019250611072565b60e08160ff16101561102257600283019250611071565b60f08160ff16101561103957600383019250611070565b60f88160ff1610156110505760048301925061106f565b60fc8160ff1610156110675760058301925061106e565b6006830192505b5b5b5b5b508280600101935050610fe3565b5050919050565b60008273ffffffffffffffffffffffffffffffffffffffff1663bdc963d8836040516020018082805190602001908083835b6020831015156110de57805182526020820191506020810190506020830392506110b9565b6001836020036101000a038019825116818451168082178552505050505050905001915050604051602081830303815290604052805190602001206040518263ffffffff167c01000000000000000000000000000000000000000000000000000000000281526004018082815260200191505060206040518083038186803b15801561116957600080fd5b505afa15801561117d573d6000803e3d6000fd5b505050506040513d602081101561119357600080fd5b8101908080519060200190929190505050905092915050565b6111b6828261146b565b1515611467578173ffffffffffffffffffffffffffffffffffffffff16633562fd208260405160200180807f757365722f637265617465642d6f6e0000000000000000000000000000000000815250600f018273ffffffffffffffffffffffffffffffffffffffff1673ffffffffffffffffffffffffffffffffffffffff166c0100000000000000000000000002815260140191505060405160208183030381529060405280519060200120426040518363ffffffff167c01000000000000000000000000000000000000000000000000000000000281526004018083815260200182815260200192505050600060405180830381600087803b1580156112bc57600080fd5b505af11580156112d0573d6000803e3d6000fd5b505050508173ffffffffffffffffffffffffffffffffffffffff16630bd851588260405160200180807f757365722f737461747573000000000000000000000000000000000000000000815250600b018273ffffffffffffffffffffffffffffffffffffffff1673ffffffffffffffffffffffffffffffffffffffff166c010000000000000000000000000281526014019150506040516020818303038152906040528051906020012060016040518363ffffffff167c0100000000000000000000000000000000000000000000000000000000028152600401808381526020018260ff16815260200192505050600060405180830381600087803b1580156113d857600080fd5b505af11580156113ec573d6000803e3d6000fd5b50505050611466826040805190810160405280600981526020017f75736572732f69647300000000000000000000000000000000000000000000008152506040805190810160405280600b81526020017f75736572732f636f756e7400000000000000000000000000000000000000000081525084611484565b5b5050565b6000806114788484611952565b60ff1611905092915050565b60008473ffffffffffffffffffffffffffffffffffffffff1663bdc963d8846040516020018082805190602001908083835b6020831015156114db57805182526020820191506020810190506020830392506114b6565b6001836020036101000a038019825116818451168082178552505050505050905001915050604051602081830303815290604052805190602001206040518263ffffffff167c01000000000000000000000000000000000000000000000000000000000281526004018082815260200191505060206040518083038186803b15801561156657600080fd5b505afa15801561157a573d6000803e3d6000fd5b505050506040513d602081101561159057600080fd5b810190808051906020019092919050505090508473ffffffffffffffffffffffffffffffffffffffff16635a2bf25a85836040516020018083805190602001908083835b6020831015156115f957805182526020820191506020810190506020830392506115d4565b6001836020036101000a0380198251168184511680821785525050505050509050018281526020019250505060405160208183030381529060405280519060200120846040518363ffffffff167c0100000000000000000000000000000000000000000000000000000000028152600401808381526020018273ffffffffffffffffffffffffffffffffffffffff1673ffffffffffffffffffffffffffffffffffffffff16815260200192505050600060405180830381600087803b1580156116c157600080fd5b505af11580156116d5573d6000803e3d6000fd5b505050508473ffffffffffffffffffffffffffffffffffffffff16633562fd2085846040516020018083805190602001908083835b60208310151561172f578051825260208201915060208101905060208303925061170a565b6001836020036101000a0380198251168184511680821785525050505050509050018273ffffffffffffffffffffffffffffffffffffffff1673ffffffffffffffffffffffffffffffffffffffff166c01000000000000000000000000028152601401807f696e6465780000000000000000000000000000000000000000000000000000008152506005019250505060405160208183030381529060405280519060200120836040518363ffffffff167c01000000000000000000000000000000000000000000000000000000000281526004018083815260200182815260200192505050600060405180830381600087803b15801561182e57600080fd5b505af1158015611842573d6000803e3d6000fd5b505050508473ffffffffffffffffffffffffffffffffffffffff16633562fd20846040516020018082805190602001908083835b60208310151561189b5780518252602082019150602081019050602083039250611876565b6001836020036101000a03801982511681845116808217855250505050505090500191505060405160208183030381529060405280519060200120600184016040518363ffffffff167c01000000000000000000000000000000000000000000000000000000000281526004018083815260200182815260200192505050600060405180830381600087803b15801561193357600080fd5b505af1158015611947573d6000803e3d6000fd5b505050505050505050565b60008273ffffffffffffffffffffffffffffffffffffffff16637a0e03ec8360405160200180807f757365722f737461747573000000000000000000000000000000000000000000815250600b018273ffffffffffffffffffffffffffffffffffffffff1673ffffffffffffffffffffffffffffffffffffffff166c01000000000000000000000000028152601401915050604051602081830303815290604052805190602001206040518263ffffffff167c01000000000000000000000000000000000000000000000000000000000281526004018082815260200191505060206040518083038186803b158015611a4a57600080fd5b505afa158015611a5e573d6000803e3d6000fd5b505050506040513d6020811015611a7457600080fd5b8101908080519060200190929190505050905092915050565b60408051908101604052806000815260200160008152509056fea165627a7a723058202a7a9272eb3bb280c8f5e9de1fbea05c40091b78c46552834d659ea5e97686100029",
  "source": "pragma solidity 0.5.0;\n\nimport './lib/userManager.sol';\n\ncontract UserAuthManager is Destructible {\n  address public dbAddress;\n  event SetUser(address indexed _userAddress, bool isSetUp);\n\n  constructor (address _dbAddress) public {\n    require(_dbAddress != address(0x0));\n    dbAddress = _dbAddress;\n  }\n\n  function setUser (\n    string calldata firstName,\n    string calldata lastName,\n    string calldata email,\n    bytes32 gravatar\n  )\n    external\n  {\n    userManager.setUser(dbAddress, msg.sender, firstName, lastName, email, gravatar);\n    emit SetUser(msg.sender, true);\n  }\n\n  function login ()\n    external\n    view\n    returns (bool)\n  {\n    return userManager.login(dbAddress, msg.sender);\n  }\n}\n",
  "sourcePath": "/Users/jterrazz/Projects/ethparis/contracts/UserAuthManager.sol",
  "compiler": {
    "name": "solc",
    "version": "0.5.0+commit.1d4f565a.Emscripten.clang"
  },
  "schemaVersion": "3.0.2",
  "updatedAt": "2019-03-09T11:33:26.118Z",
  "devdoc": {
    "methods": {
      "destroy()": {
        "details": "Transfers the current balance to the owner and terminates the contract."
      },
      "isOwner()": {
        "return": "true if `msg.sender` is the owner of the contract."
      },
      "owner()": {
        "return": "the address of the owner."
      },
      "renounceOwnership()": {
        "details": "Allows the current owner to relinquish control of the contract."
      },
      "transferOwnership(address)": {
        "details": "Allows the current owner to transfer control of the contract to a newOwner.",
        "params": {
          "newOwner": "The address to transfer ownership to."
        }
      }
    }
  },
  "userdoc": {
    "methods": {
      "renounceOwnership()": {
        "notice": "Renouncing to ownership will leave the contract without an owner. It will not be possible to call the functions with the `onlyOwner` modifier anymore."
      }
    }
  }
}